{"contracts/Raffle.sol":{"Raffle":{"abi":[{"inputs":[{"internalType":"address","name":"vrfCoordinatorV2","type":"address"},{"internalType":"uint256","name":"entranceFee","type":"uint256"},{"internalType":"bytes32","name":"gasLane","type":"bytes32"},{"internalType":"uint64","name":"subscriptionId","type":"uint64"},{"internalType":"uint32","name":"callbackGsaLimit","type":"uint32"},{"internalType":"uint256","name":"interval","type":"uint256"}],"stateMutability":"nonpayable","type":"constructor"},{"inputs":[{"internalType":"address","name":"have","type":"address"},{"internalType":"address","name":"want","type":"address"}],"name":"OnlyCoordinatorCanFulfill","type":"error"},{"inputs":[],"name":"Raffle__NotEnoughETHEntered","type":"error"},{"inputs":[],"name":"Raffle__NotOpen","type":"error"},{"inputs":[],"name":"Raffle__TransferFailed","type":"error"},{"inputs":[{"internalType":"uint256","name":"currentBalance","type":"uint256"},{"internalType":"uint256","name":"numPlayers","type":"uint256"},{"internalType":"uint256","name":"raffleState","type":"uint256"}],"name":"Raffle__UpkeepNotNeeded","type":"error"},{"anonymous":false,"inputs":[{"indexed":true,"internalType":"address","name":"player","type":"address"}],"name":"RaffleEnter","type":"event"},{"anonymous":false,"inputs":[{"indexed":true,"internalType":"uint256","name":"requestId","type":"uint256"}],"name":"RequestRaffleWinner","type":"event"},{"anonymous":false,"inputs":[{"indexed":true,"internalType":"address","name":"winner","type":"address"}],"name":"WinnerPicked","type":"event"},{"inputs":[{"internalType":"bytes","name":"","type":"bytes"}],"name":"checkUpkeep","outputs":[{"internalType":"bool","name":"upkeepNeeded","type":"bool"},{"internalType":"bytes","name":"","type":"bytes"}],"stateMutability":"nonpayable","type":"function"},{"inputs":[],"name":"enterRaffle","outputs":[],"stateMutability":"payable","type":"function"},{"inputs":[],"name":"getEntranceFee","outputs":[{"internalType":"uint256","name":"","type":"uint256"}],"stateMutability":"view","type":"function"},{"inputs":[{"internalType":"uint256","name":"index","type":"uint256"}],"name":"getPlayer","outputs":[{"internalType":"address","name":"","type":"address"}],"stateMutability":"view","type":"function"},{"inputs":[],"name":"getReccentWinner","outputs":[{"internalType":"address","name":"","type":"address"}],"stateMutability":"view","type":"function"},{"inputs":[{"internalType":"bytes","name":"","type":"bytes"}],"name":"performUpkeep","outputs":[],"stateMutability":"nonpayable","type":"function"},{"inputs":[{"internalType":"uint256","name":"requestId","type":"uint256"},{"internalType":"uint256[]","name":"randomWords","type":"uint256[]"}],"name":"rawFulfillRandomWords","outputs":[],"stateMutability":"nonpayable","type":"function"}],"devdoc":{"kind":"dev","methods":{"checkUpkeep(bytes)":{"details":"This is the function that Chainlink Keeper nodes call"}},"version":1},"evm":{"bytecode":{"linkReferences":{},"object":"6101606040523480156200001257600080fd5b50604051620015d3380380620015d3833981810160405281019062000038919062000294565b858073ffffffffffffffffffffffffffffffffffffffff1660808173ffffffffffffffffffffffffffffffffffffffff1681525050508460a081815250508573ffffffffffffffffffffffffffffffffffffffff1660c08173ffffffffffffffffffffffffffffffffffffffff16815250508360e081815250508267ffffffffffffffff166101008167ffffffffffffffff16815250508163ffffffff166101208163ffffffff16815250506000600160146101000a81548160ff021916908360018111156200010d576200010c62000330565b5b0217905550426002819055508061014081815250505050505050506200035f565b600080fd5b600073ffffffffffffffffffffffffffffffffffffffff82169050919050565b6000620001608262000133565b9050919050565b620001728162000153565b81146200017e57600080fd5b50565b600081519050620001928162000167565b92915050565b6000819050919050565b620001ad8162000198565b8114620001b957600080fd5b50565b600081519050620001cd81620001a2565b92915050565b6000819050919050565b620001e881620001d3565b8114620001f457600080fd5b50565b6000815190506200020881620001dd565b92915050565b600067ffffffffffffffff82169050919050565b6200022d816200020e565b81146200023957600080fd5b50565b6000815190506200024d8162000222565b92915050565b600063ffffffff82169050919050565b6200026e8162000253565b81146200027a57600080fd5b50565b6000815190506200028e8162000263565b92915050565b60008060008060008060c08789031215620002b457620002b36200012e565b5b6000620002c489828a0162000181565b9650506020620002d789828a01620001bc565b9550506040620002ea89828a01620001f7565b9450506060620002fd89828a016200023c565b93505060806200031089828a016200027d565b92505060a06200032389828a01620001bc565b9150509295509295509295565b7f4e487b7100000000000000000000000000000000000000000000000000000000600052602160045260246000fd5b60805160a05160c05160e05161010051610120516101405161120b620003c8600039600061062c015260006105300152600061050d015260006104ec015260006104b00152600081816101a6015261028c0152600081816101cc0152610220015261120b6000f3fe6080604052600436106100705760003560e01c80634585e33b1161004e5780634585e33b146100d35780636e04ff0d146100fc578063e55ae4e81461013a578063f597d2611461017757610070565b806309bc33a7146100755780631fe543e3146100a05780632cfcc539146100c9575b600080fd5b34801561008157600080fd5b5061008a6101a2565b60405161009791906109f8565b60405180910390f35b3480156100ac57600080fd5b506100c760048036038101906100c29190610bac565b6101ca565b005b6100d161028a565b005b3480156100df57600080fd5b506100fa60048036038101906100f59190610c63565b6103f9565b005b34801561010857600080fd5b50610123600480360381019061011e9190610d65565b6105e9565b604051610131929190610e48565b60405180910390f35b34801561014657600080fd5b50610161600480360381019061015c9190610e78565b610696565b60405161016e9190610ee6565b60405180910390f35b34801561018357600080fd5b5061018c6106dd565b6040516101999190610ee6565b60405180910390f35b60007f0000000000000000000000000000000000000000000000000000000000000000905090565b7f000000000000000000000000000000000000000000000000000000000000000073ffffffffffffffffffffffffffffffffffffffff163373ffffffffffffffffffffffffffffffffffffffff161461027c57337f00000000000000000000000000000000000000000000000000000000000000006040517f1cf993f4000000000000000000000000000000000000000000000000000000008152600401610273929190610f01565b60405180910390fd5b6102868282610707565b5050565b7f00000000000000000000000000000000000000000000000000000000000000003410156102e4576040517fbd4e069500000000000000000000000000000000000000000000000000000000815260040160405180910390fd5b600060018111156102f8576102f7610f2a565b5b600160149054906101000a900460ff16600181111561031a57610319610f2a565b5b14610351576040517f1425571c00000000000000000000000000000000000000000000000000000000815260040160405180910390fd5b6000339080600181540180825580915050600190039060005260206000200160009091909190916101000a81548173ffffffffffffffffffffffffffffffffffffffff021916908373ffffffffffffffffffffffffffffffffffffffff1602179055503373ffffffffffffffffffffffffffffffffffffffff167f0805e1d667bddb8a95f0f09880cf94f403fb596ce79928d9f29b74203ba284d460405160405180910390a2565b6000610413604051806020016040528060008152506105e9565b50905060018060146101000a81548160ff0219169083600181111561043b5761043a610f2a565b5b0217905550806104ac5747600080549050600160149054906101000a900460ff16600181111561046e5761046d610f2a565b5b6040517f584327aa0000000000000000000000000000000000000000000000000000000081526004016104a393929190610f59565b60405180910390fd5b60007f000000000000000000000000000000000000000000000000000000000000000073ffffffffffffffffffffffffffffffffffffffff16635d3b1d307f00000000000000000000000000000000000000000000000000000000000000007f000000000000000000000000000000000000000000000000000000000000000060037f000000000000000000000000000000000000000000000000000000000000000060016040518663ffffffff1660e01b8152600401610571959493929190611008565b6020604051808303816000875af1158015610590573d6000803e3d6000fd5b505050506040513d601f19601f820116820180604052508101906105b49190611070565b9050807fde6349b018d6c03d837b67d9a198a6ba4842546f2295fe963fae141e5dbaef8160405160405180910390a250505050565b600060606000600160149054906101000a900460ff16600181111561061157610610610f2a565b5b6000600181111561062557610624610f2a565b5b14905060007f00000000000000000000000000000000000000000000000000000000000000006002544261065991906110cc565b119050600080600080549050119050600080471190508380156106795750825b80156106825750815b801561068b5750805b955050505050915091565b60008082815481106106ab576106aa611100565b5b9060005260206000200160009054906101000a900473ffffffffffffffffffffffffffffffffffffffff169050919050565b6000600160009054906101000a900473ffffffffffffffffffffffffffffffffffffffff16905090565b600080805490508260008151811061072257610721611100565b5b6020026020010151610734919061115e565b9050600080828154811061074b5761074a611100565b5b9060005260206000200160009054906101000a900473ffffffffffffffffffffffffffffffffffffffff16905080600160006101000a81548173ffffffffffffffffffffffffffffffffffffffff021916908373ffffffffffffffffffffffffffffffffffffffff1602179055506000600160146101000a81548160ff021916908360018111156107df576107de610f2a565b5b0217905550600067ffffffffffffffff8111156107ff576107fe610a69565b5b60405190808252806020026020018201604052801561082d5781602001602082028036833780820191505090505b5060009080519060200190610843929190610938565b504260028190555060008173ffffffffffffffffffffffffffffffffffffffff1647604051610871906111c0565b60006040518083038185875af1925050503d80600081146108ae576040519150601f19603f3d011682016040523d82523d6000602084013e6108b3565b606091505b50509050806108ee576040517fa1d04b3900000000000000000000000000000000000000000000000000000000815260040160405180910390fd5b8173ffffffffffffffffffffffffffffffffffffffff167f5b690ec4a06fe979403046eaeea5b3ce38524683c3001f662c8b5a829632f7df60405160405180910390a25050505050565b8280548282559060005260206000209081019282156109b1579160200282015b828111156109b05782518260006101000a81548173ffffffffffffffffffffffffffffffffffffffff021916908373ffffffffffffffffffffffffffffffffffffffff16021790555091602001919060010190610958565b5b5090506109be91906109c2565b5090565b5b808211156109db5760008160009055506001016109c3565b5090565b6000819050919050565b6109f2816109df565b82525050565b6000602082019050610a0d60008301846109e9565b92915050565b6000604051905090565b600080fd5b600080fd5b610a30816109df565b8114610a3b57600080fd5b50565b600081359050610a4d81610a27565b92915050565b600080fd5b6000601f19601f8301169050919050565b7f4e487b7100000000000000000000000000000000000000000000000000000000600052604160045260246000fd5b610aa182610a58565b810181811067ffffffffffffffff82111715610ac057610abf610a69565b5b80604052505050565b6000610ad3610a13565b9050610adf8282610a98565b919050565b600067ffffffffffffffff821115610aff57610afe610a69565b5b602082029050602081019050919050565b600080fd5b6000610b28610b2384610ae4565b610ac9565b90508083825260208201905060208402830185811115610b4b57610b4a610b10565b5b835b81811015610b745780610b608882610a3e565b845260208401935050602081019050610b4d565b5050509392505050565b600082601f830112610b9357610b92610a53565b5b8135610ba3848260208601610b15565b91505092915050565b60008060408385031215610bc357610bc2610a1d565b5b6000610bd185828601610a3e565b925050602083013567ffffffffffffffff811115610bf257610bf1610a22565b5b610bfe85828601610b7e565b9150509250929050565b600080fd5b60008083601f840112610c2357610c22610a53565b5b8235905067ffffffffffffffff811115610c4057610c3f610c08565b5b602083019150836001820283011115610c5c57610c5b610b10565b5b9250929050565b60008060208385031215610c7a57610c79610a1d565b5b600083013567ffffffffffffffff811115610c9857610c97610a22565b5b610ca485828601610c0d565b92509250509250929050565b600080fd5b600067ffffffffffffffff821115610cd057610ccf610a69565b5b610cd982610a58565b9050602081019050919050565b82818337600083830152505050565b6000610d08610d0384610cb5565b610ac9565b905082815260208101848484011115610d2457610d23610cb0565b5b610d2f848285610ce6565b509392505050565b600082601f830112610d4c57610d4b610a53565b5b8135610d5c848260208601610cf5565b91505092915050565b600060208284031215610d7b57610d7a610a1d565b5b600082013567ffffffffffffffff811115610d9957610d98610a22565b5b610da584828501610d37565b91505092915050565b60008115159050919050565b610dc381610dae565b82525050565b600081519050919050565b600082825260208201905092915050565b60005b83811015610e03578082015181840152602081019050610de8565b60008484015250505050565b6000610e1a82610dc9565b610e248185610dd4565b9350610e34818560208601610de5565b610e3d81610a58565b840191505092915050565b6000604082019050610e5d6000830185610dba565b8181036020830152610e6f8184610e0f565b90509392505050565b600060208284031215610e8e57610e8d610a1d565b5b6000610e9c84828501610a3e565b91505092915050565b600073ffffffffffffffffffffffffffffffffffffffff82169050919050565b6000610ed082610ea5565b9050919050565b610ee081610ec5565b82525050565b6000602082019050610efb6000830184610ed7565b92915050565b6000604082019050610f166000830185610ed7565b610f236020830184610ed7565b9392505050565b7f4e487b7100000000000000000000000000000000000000000000000000000000600052602160045260246000fd5b6000606082019050610f6e60008301866109e9565b610f7b60208301856109e9565b610f8860408301846109e9565b949350505050565b6000819050919050565b610fa381610f90565b82525050565b600067ffffffffffffffff82169050919050565b610fc681610fa9565b82525050565b600061ffff82169050919050565b610fe381610fcc565b82525050565b600063ffffffff82169050919050565b61100281610fe9565b82525050565b600060a08201905061101d6000830188610f9a565b61102a6020830187610fbd565b6110376040830186610fda565b6110446060830185610ff9565b6110516080830184610ff9565b9695505050505050565b60008151905061106a81610a27565b92915050565b60006020828403121561108657611085610a1d565b5b60006110948482850161105b565b91505092915050565b7f4e487b7100000000000000000000000000000000000000000000000000000000600052601160045260246000fd5b60006110d7826109df565b91506110e2836109df565b92508282039050818111156110fa576110f961109d565b5b92915050565b7f4e487b7100000000000000000000000000000000000000000000000000000000600052603260045260246000fd5b7f4e487b7100000000000000000000000000000000000000000000000000000000600052601260045260246000fd5b6000611169826109df565b9150611174836109df565b9250826111845761118361112f565b5b828206905092915050565b600081905092915050565b50565b60006111aa60008361118f565b91506111b58261119a565b600082019050919050565b60006111cb8261119d565b915081905091905056fea26469706673582212201f29c18bb4240475294ad4090dd2768003b0b82cad0c2265da9e1f202533c3fc64736f6c63430008110033","opcodes":"PUSH2 0x160 PUSH1 0x40 MSTORE CALLVALUE DUP1 ISZERO PUSH3 0x12 JUMPI PUSH1 0x0 DUP1 REVERT JUMPDEST POP PUSH1 0x40 MLOAD PUSH3 0x15D3 CODESIZE SUB DUP1 PUSH3 0x15D3 DUP4 CODECOPY DUP2 DUP2 ADD PUSH1 0x40 MSTORE DUP2 ADD SWAP1 PUSH3 0x38 SWAP2 SWAP1 PUSH3 0x294 JUMP JUMPDEST DUP6 DUP1 PUSH20 0xFFFFFFFFFFFFFFFFFFFFFFFFFFFFFFFFFFFFFFFF AND PUSH1 0x80 DUP2 PUSH20 0xFFFFFFFFFFFFFFFFFFFFFFFFFFFFFFFFFFFFFFFF AND DUP2 MSTORE POP POP POP DUP5 PUSH1 0xA0 DUP2 DUP2 MSTORE POP POP DUP6 PUSH20 0xFFFFFFFFFFFFFFFFFFFFFFFFFFFFFFFFFFFFFFFF AND PUSH1 0xC0 DUP2 PUSH20 0xFFFFFFFFFFFFFFFFFFFFFFFFFFFFFFFFFFFFFFFF AND DUP2 MSTORE POP POP DUP4 PUSH1 0xE0 DUP2 DUP2 MSTORE POP POP DUP3 PUSH8 0xFFFFFFFFFFFFFFFF AND PUSH2 0x100 DUP2 PUSH8 0xFFFFFFFFFFFFFFFF AND DUP2 MSTORE POP POP DUP2 PUSH4 0xFFFFFFFF AND PUSH2 0x120 DUP2 PUSH4 0xFFFFFFFF AND DUP2 MSTORE POP POP PUSH1 0x0 PUSH1 0x1 PUSH1 0x14 PUSH2 0x100 EXP DUP2 SLOAD DUP2 PUSH1 0xFF MUL NOT AND SWAP1 DUP4 PUSH1 0x1 DUP2 GT ISZERO PUSH3 0x10D JUMPI PUSH3 0x10C PUSH3 0x330 JUMP JUMPDEST JUMPDEST MUL OR SWAP1 SSTORE POP TIMESTAMP PUSH1 0x2 DUP2 SWAP1 SSTORE POP DUP1 PUSH2 0x140 DUP2 DUP2 MSTORE POP POP POP POP POP POP POP POP PUSH3 0x35F JUMP JUMPDEST PUSH1 0x0 DUP1 REVERT JUMPDEST PUSH1 0x0 PUSH20 0xFFFFFFFFFFFFFFFFFFFFFFFFFFFFFFFFFFFFFFFF DUP3 AND SWAP1 POP SWAP2 SWAP1 POP JUMP JUMPDEST PUSH1 0x0 PUSH3 0x160 DUP3 PUSH3 0x133 JUMP JUMPDEST SWAP1 POP SWAP2 SWAP1 POP JUMP JUMPDEST PUSH3 0x172 DUP2 PUSH3 0x153 JUMP JUMPDEST DUP2 EQ PUSH3 0x17E JUMPI PUSH1 0x0 DUP1 REVERT JUMPDEST POP JUMP JUMPDEST PUSH1 0x0 DUP2 MLOAD SWAP1 POP PUSH3 0x192 DUP2 PUSH3 0x167 JUMP JUMPDEST SWAP3 SWAP2 POP POP JUMP JUMPDEST PUSH1 0x0 DUP2 SWAP1 POP SWAP2 SWAP1 POP JUMP JUMPDEST PUSH3 0x1AD DUP2 PUSH3 0x198 JUMP JUMPDEST DUP2 EQ PUSH3 0x1B9 JUMPI PUSH1 0x0 DUP1 REVERT JUMPDEST POP JUMP JUMPDEST PUSH1 0x0 DUP2 MLOAD SWAP1 POP PUSH3 0x1CD DUP2 PUSH3 0x1A2 JUMP JUMPDEST SWAP3 SWAP2 POP POP JUMP JUMPDEST PUSH1 0x0 DUP2 SWAP1 POP SWAP2 SWAP1 POP JUMP JUMPDEST PUSH3 0x1E8 DUP2 PUSH3 0x1D3 JUMP JUMPDEST DUP2 EQ PUSH3 0x1F4 JUMPI PUSH1 0x0 DUP1 REVERT JUMPDEST POP JUMP JUMPDEST PUSH1 0x0 DUP2 MLOAD SWAP1 POP PUSH3 0x208 DUP2 PUSH3 0x1DD JUMP JUMPDEST SWAP3 SWAP2 POP POP JUMP JUMPDEST PUSH1 0x0 PUSH8 0xFFFFFFFFFFFFFFFF DUP3 AND SWAP1 POP SWAP2 SWAP1 POP JUMP JUMPDEST PUSH3 0x22D DUP2 PUSH3 0x20E JUMP JUMPDEST DUP2 EQ PUSH3 0x239 JUMPI PUSH1 0x0 DUP1 REVERT JUMPDEST POP JUMP JUMPDEST PUSH1 0x0 DUP2 MLOAD SWAP1 POP PUSH3 0x24D DUP2 PUSH3 0x222 JUMP JUMPDEST SWAP3 SWAP2 POP POP JUMP JUMPDEST PUSH1 0x0 PUSH4 0xFFFFFFFF DUP3 AND SWAP1 POP SWAP2 SWAP1 POP JUMP JUMPDEST PUSH3 0x26E DUP2 PUSH3 0x253 JUMP JUMPDEST DUP2 EQ PUSH3 0x27A JUMPI PUSH1 0x0 DUP1 REVERT JUMPDEST POP JUMP JUMPDEST PUSH1 0x0 DUP2 MLOAD SWAP1 POP PUSH3 0x28E DUP2 PUSH3 0x263 JUMP JUMPDEST SWAP3 SWAP2 POP POP JUMP JUMPDEST PUSH1 0x0 DUP1 PUSH1 0x0 DUP1 PUSH1 0x0 DUP1 PUSH1 0xC0 DUP8 DUP10 SUB SLT ISZERO PUSH3 0x2B4 JUMPI PUSH3 0x2B3 PUSH3 0x12E JUMP JUMPDEST JUMPDEST PUSH1 0x0 PUSH3 0x2C4 DUP10 DUP3 DUP11 ADD PUSH3 0x181 JUMP JUMPDEST SWAP7 POP POP PUSH1 0x20 PUSH3 0x2D7 DUP10 DUP3 DUP11 ADD PUSH3 0x1BC JUMP JUMPDEST SWAP6 POP POP PUSH1 0x40 PUSH3 0x2EA DUP10 DUP3 DUP11 ADD PUSH3 0x1F7 JUMP JUMPDEST SWAP5 POP POP PUSH1 0x60 PUSH3 0x2FD DUP10 DUP3 DUP11 ADD PUSH3 0x23C JUMP JUMPDEST SWAP4 POP POP PUSH1 0x80 PUSH3 0x310 DUP10 DUP3 DUP11 ADD PUSH3 0x27D JUMP JUMPDEST SWAP3 POP POP PUSH1 0xA0 PUSH3 0x323 DUP10 DUP3 DUP11 ADD PUSH3 0x1BC JUMP JUMPDEST SWAP2 POP POP SWAP3 SWAP6 POP SWAP3 SWAP6 POP SWAP3 SWAP6 JUMP JUMPDEST PUSH32 0x4E487B7100000000000000000000000000000000000000000000000000000000 PUSH1 0x0 MSTORE PUSH1 0x21 PUSH1 0x4 MSTORE PUSH1 0x24 PUSH1 0x0 REVERT JUMPDEST PUSH1 0x80 MLOAD PUSH1 0xA0 MLOAD PUSH1 0xC0 MLOAD PUSH1 0xE0 MLOAD PUSH2 0x100 MLOAD PUSH2 0x120 MLOAD PUSH2 0x140 MLOAD PUSH2 0x120B PUSH3 0x3C8 PUSH1 0x0 CODECOPY PUSH1 0x0 PUSH2 0x62C ADD MSTORE PUSH1 0x0 PUSH2 0x530 ADD MSTORE PUSH1 0x0 PUSH2 0x50D ADD MSTORE PUSH1 0x0 PUSH2 0x4EC ADD MSTORE PUSH1 0x0 PUSH2 0x4B0 ADD MSTORE PUSH1 0x0 DUP2 DUP2 PUSH2 0x1A6 ADD MSTORE PUSH2 0x28C ADD MSTORE PUSH1 0x0 DUP2 DUP2 PUSH2 0x1CC ADD MSTORE PUSH2 0x220 ADD MSTORE PUSH2 0x120B PUSH1 0x0 RETURN INVALID PUSH1 0x80 PUSH1 0x40 MSTORE PUSH1 0x4 CALLDATASIZE LT PUSH2 0x70 JUMPI PUSH1 0x0 CALLDATALOAD PUSH1 0xE0 SHR DUP1 PUSH4 0x4585E33B GT PUSH2 0x4E JUMPI DUP1 PUSH4 0x4585E33B EQ PUSH2 0xD3 JUMPI DUP1 PUSH4 0x6E04FF0D EQ PUSH2 0xFC JUMPI DUP1 PUSH4 0xE55AE4E8 EQ PUSH2 0x13A JUMPI DUP1 PUSH4 0xF597D261 EQ PUSH2 0x177 JUMPI PUSH2 0x70 JUMP JUMPDEST DUP1 PUSH4 0x9BC33A7 EQ PUSH2 0x75 JUMPI DUP1 PUSH4 0x1FE543E3 EQ PUSH2 0xA0 JUMPI DUP1 PUSH4 0x2CFCC539 EQ PUSH2 0xC9 JUMPI JUMPDEST PUSH1 0x0 DUP1 REVERT JUMPDEST CALLVALUE DUP1 ISZERO PUSH2 0x81 JUMPI PUSH1 0x0 DUP1 REVERT JUMPDEST POP PUSH2 0x8A PUSH2 0x1A2 JUMP JUMPDEST PUSH1 0x40 MLOAD PUSH2 0x97 SWAP2 SWAP1 PUSH2 0x9F8 JUMP JUMPDEST PUSH1 0x40 MLOAD DUP1 SWAP2 SUB SWAP1 RETURN JUMPDEST CALLVALUE DUP1 ISZERO PUSH2 0xAC JUMPI PUSH1 0x0 DUP1 REVERT JUMPDEST POP PUSH2 0xC7 PUSH1 0x4 DUP1 CALLDATASIZE SUB DUP2 ADD SWAP1 PUSH2 0xC2 SWAP2 SWAP1 PUSH2 0xBAC JUMP JUMPDEST PUSH2 0x1CA JUMP JUMPDEST STOP JUMPDEST PUSH2 0xD1 PUSH2 0x28A JUMP JUMPDEST STOP JUMPDEST CALLVALUE DUP1 ISZERO PUSH2 0xDF JUMPI PUSH1 0x0 DUP1 REVERT JUMPDEST POP PUSH2 0xFA PUSH1 0x4 DUP1 CALLDATASIZE SUB DUP2 ADD SWAP1 PUSH2 0xF5 SWAP2 SWAP1 PUSH2 0xC63 JUMP JUMPDEST PUSH2 0x3F9 JUMP JUMPDEST STOP JUMPDEST CALLVALUE DUP1 ISZERO PUSH2 0x108 JUMPI PUSH1 0x0 DUP1 REVERT JUMPDEST POP PUSH2 0x123 PUSH1 0x4 DUP1 CALLDATASIZE SUB DUP2 ADD SWAP1 PUSH2 0x11E SWAP2 SWAP1 PUSH2 0xD65 JUMP JUMPDEST PUSH2 0x5E9 JUMP JUMPDEST PUSH1 0x40 MLOAD PUSH2 0x131 SWAP3 SWAP2 SWAP1 PUSH2 0xE48 JUMP JUMPDEST PUSH1 0x40 MLOAD DUP1 SWAP2 SUB SWAP1 RETURN JUMPDEST CALLVALUE DUP1 ISZERO PUSH2 0x146 JUMPI PUSH1 0x0 DUP1 REVERT JUMPDEST POP PUSH2 0x161 PUSH1 0x4 DUP1 CALLDATASIZE SUB DUP2 ADD SWAP1 PUSH2 0x15C SWAP2 SWAP1 PUSH2 0xE78 JUMP JUMPDEST PUSH2 0x696 JUMP JUMPDEST PUSH1 0x40 MLOAD PUSH2 0x16E SWAP2 SWAP1 PUSH2 0xEE6 JUMP JUMPDEST PUSH1 0x40 MLOAD DUP1 SWAP2 SUB SWAP1 RETURN JUMPDEST CALLVALUE DUP1 ISZERO PUSH2 0x183 JUMPI PUSH1 0x0 DUP1 REVERT JUMPDEST POP PUSH2 0x18C PUSH2 0x6DD JUMP JUMPDEST PUSH1 0x40 MLOAD PUSH2 0x199 SWAP2 SWAP1 PUSH2 0xEE6 JUMP JUMPDEST PUSH1 0x40 MLOAD DUP1 SWAP2 SUB SWAP1 RETURN JUMPDEST PUSH1 0x0 PUSH32 0x0 SWAP1 POP SWAP1 JUMP JUMPDEST PUSH32 0x0 PUSH20 0xFFFFFFFFFFFFFFFFFFFFFFFFFFFFFFFFFFFFFFFF AND CALLER PUSH20 0xFFFFFFFFFFFFFFFFFFFFFFFFFFFFFFFFFFFFFFFF AND EQ PUSH2 0x27C JUMPI CALLER PUSH32 0x0 PUSH1 0x40 MLOAD PUSH32 0x1CF993F400000000000000000000000000000000000000000000000000000000 DUP2 MSTORE PUSH1 0x4 ADD PUSH2 0x273 SWAP3 SWAP2 SWAP1 PUSH2 0xF01 JUMP JUMPDEST PUSH1 0x40 MLOAD DUP1 SWAP2 SUB SWAP1 REVERT JUMPDEST PUSH2 0x286 DUP3 DUP3 PUSH2 0x707 JUMP JUMPDEST POP POP JUMP JUMPDEST PUSH32 0x0 CALLVALUE LT ISZERO PUSH2 0x2E4 JUMPI PUSH1 0x40 MLOAD PUSH32 0xBD4E069500000000000000000000000000000000000000000000000000000000 DUP2 MSTORE PUSH1 0x4 ADD PUSH1 0x40 MLOAD DUP1 SWAP2 SUB SWAP1 REVERT JUMPDEST PUSH1 0x0 PUSH1 0x1 DUP2 GT ISZERO PUSH2 0x2F8 JUMPI PUSH2 0x2F7 PUSH2 0xF2A JUMP JUMPDEST JUMPDEST PUSH1 0x1 PUSH1 0x14 SWAP1 SLOAD SWAP1 PUSH2 0x100 EXP SWAP1 DIV PUSH1 0xFF AND PUSH1 0x1 DUP2 GT ISZERO PUSH2 0x31A JUMPI PUSH2 0x319 PUSH2 0xF2A JUMP JUMPDEST JUMPDEST EQ PUSH2 0x351 JUMPI PUSH1 0x40 MLOAD PUSH32 0x1425571C00000000000000000000000000000000000000000000000000000000 DUP2 MSTORE PUSH1 0x4 ADD PUSH1 0x40 MLOAD DUP1 SWAP2 SUB SWAP1 REVERT JUMPDEST PUSH1 0x0 CALLER SWAP1 DUP1 PUSH1 0x1 DUP2 SLOAD ADD DUP1 DUP3 SSTORE DUP1 SWAP2 POP POP PUSH1 0x1 SWAP1 SUB SWAP1 PUSH1 0x0 MSTORE PUSH1 0x20 PUSH1 0x0 KECCAK256 ADD PUSH1 0x0 SWAP1 SWAP2 SWAP1 SWAP2 SWAP1 SWAP2 PUSH2 0x100 EXP DUP2 SLOAD DUP2 PUSH20 0xFFFFFFFFFFFFFFFFFFFFFFFFFFFFFFFFFFFFFFFF MUL NOT AND SWAP1 DUP4 PUSH20 0xFFFFFFFFFFFFFFFFFFFFFFFFFFFFFFFFFFFFFFFF AND MUL OR SWAP1 SSTORE POP CALLER PUSH20 0xFFFFFFFFFFFFFFFFFFFFFFFFFFFFFFFFFFFFFFFF AND PUSH32 0x805E1D667BDDB8A95F0F09880CF94F403FB596CE79928D9F29B74203BA284D4 PUSH1 0x40 MLOAD PUSH1 0x40 MLOAD DUP1 SWAP2 SUB SWAP1 LOG2 JUMP JUMPDEST PUSH1 0x0 PUSH2 0x413 PUSH1 0x40 MLOAD DUP1 PUSH1 0x20 ADD PUSH1 0x40 MSTORE DUP1 PUSH1 0x0 DUP2 MSTORE POP PUSH2 0x5E9 JUMP JUMPDEST POP SWAP1 POP PUSH1 0x1 DUP1 PUSH1 0x14 PUSH2 0x100 EXP DUP2 SLOAD DUP2 PUSH1 0xFF MUL NOT AND SWAP1 DUP4 PUSH1 0x1 DUP2 GT ISZERO PUSH2 0x43B JUMPI PUSH2 0x43A PUSH2 0xF2A JUMP JUMPDEST JUMPDEST MUL OR SWAP1 SSTORE POP DUP1 PUSH2 0x4AC JUMPI SELFBALANCE PUSH1 0x0 DUP1 SLOAD SWAP1 POP PUSH1 0x1 PUSH1 0x14 SWAP1 SLOAD SWAP1 PUSH2 0x100 EXP SWAP1 DIV PUSH1 0xFF AND PUSH1 0x1 DUP2 GT ISZERO PUSH2 0x46E JUMPI PUSH2 0x46D PUSH2 0xF2A JUMP JUMPDEST JUMPDEST PUSH1 0x40 MLOAD PUSH32 0x584327AA00000000000000000000000000000000000000000000000000000000 DUP2 MSTORE PUSH1 0x4 ADD PUSH2 0x4A3 SWAP4 SWAP3 SWAP2 SWAP1 PUSH2 0xF59 JUMP JUMPDEST PUSH1 0x40 MLOAD DUP1 SWAP2 SUB SWAP1 REVERT JUMPDEST PUSH1 0x0 PUSH32 0x0 PUSH20 0xFFFFFFFFFFFFFFFFFFFFFFFFFFFFFFFFFFFFFFFF AND PUSH4 0x5D3B1D30 PUSH32 0x0 PUSH32 0x0 PUSH1 0x3 PUSH32 0x0 PUSH1 0x1 PUSH1 0x40 MLOAD DUP7 PUSH4 0xFFFFFFFF AND PUSH1 0xE0 SHL DUP2 MSTORE PUSH1 0x4 ADD PUSH2 0x571 SWAP6 SWAP5 SWAP4 SWAP3 SWAP2 SWAP1 PUSH2 0x1008 JUMP JUMPDEST PUSH1 0x20 PUSH1 0x40 MLOAD DUP1 DUP4 SUB DUP2 PUSH1 0x0 DUP8 GAS CALL ISZERO DUP1 ISZERO PUSH2 0x590 JUMPI RETURNDATASIZE PUSH1 0x0 DUP1 RETURNDATACOPY RETURNDATASIZE PUSH1 0x0 REVERT JUMPDEST POP POP POP POP PUSH1 0x40 MLOAD RETURNDATASIZE PUSH1 0x1F NOT PUSH1 0x1F DUP3 ADD AND DUP3 ADD DUP1 PUSH1 0x40 MSTORE POP DUP2 ADD SWAP1 PUSH2 0x5B4 SWAP2 SWAP1 PUSH2 0x1070 JUMP JUMPDEST SWAP1 POP DUP1 PUSH32 0xDE6349B018D6C03D837B67D9A198A6BA4842546F2295FE963FAE141E5DBAEF81 PUSH1 0x40 MLOAD PUSH1 0x40 MLOAD DUP1 SWAP2 SUB SWAP1 LOG2 POP POP POP POP JUMP JUMPDEST PUSH1 0x0 PUSH1 0x60 PUSH1 0x0 PUSH1 0x1 PUSH1 0x14 SWAP1 SLOAD SWAP1 PUSH2 0x100 EXP SWAP1 DIV PUSH1 0xFF AND PUSH1 0x1 DUP2 GT ISZERO PUSH2 0x611 JUMPI PUSH2 0x610 PUSH2 0xF2A JUMP JUMPDEST JUMPDEST PUSH1 0x0 PUSH1 0x1 DUP2 GT ISZERO PUSH2 0x625 JUMPI PUSH2 0x624 PUSH2 0xF2A JUMP JUMPDEST JUMPDEST EQ SWAP1 POP PUSH1 0x0 PUSH32 0x0 PUSH1 0x2 SLOAD TIMESTAMP PUSH2 0x659 SWAP2 SWAP1 PUSH2 0x10CC JUMP JUMPDEST GT SWAP1 POP PUSH1 0x0 DUP1 PUSH1 0x0 DUP1 SLOAD SWAP1 POP GT SWAP1 POP PUSH1 0x0 DUP1 SELFBALANCE GT SWAP1 POP DUP4 DUP1 ISZERO PUSH2 0x679 JUMPI POP DUP3 JUMPDEST DUP1 ISZERO PUSH2 0x682 JUMPI POP DUP2 JUMPDEST DUP1 ISZERO PUSH2 0x68B JUMPI POP DUP1 JUMPDEST SWAP6 POP POP POP POP POP SWAP2 POP SWAP2 JUMP JUMPDEST PUSH1 0x0 DUP1 DUP3 DUP2 SLOAD DUP2 LT PUSH2 0x6AB JUMPI PUSH2 0x6AA PUSH2 0x1100 JUMP JUMPDEST JUMPDEST SWAP1 PUSH1 0x0 MSTORE PUSH1 0x20 PUSH1 0x0 KECCAK256 ADD PUSH1 0x0 SWAP1 SLOAD SWAP1 PUSH2 0x100 EXP SWAP1 DIV PUSH20 0xFFFFFFFFFFFFFFFFFFFFFFFFFFFFFFFFFFFFFFFF AND SWAP1 POP SWAP2 SWAP1 POP JUMP JUMPDEST PUSH1 0x0 PUSH1 0x1 PUSH1 0x0 SWAP1 SLOAD SWAP1 PUSH2 0x100 EXP SWAP1 DIV PUSH20 0xFFFFFFFFFFFFFFFFFFFFFFFFFFFFFFFFFFFFFFFF AND SWAP1 POP SWAP1 JUMP JUMPDEST PUSH1 0x0 DUP1 DUP1 SLOAD SWAP1 POP DUP3 PUSH1 0x0 DUP2 MLOAD DUP2 LT PUSH2 0x722 JUMPI PUSH2 0x721 PUSH2 0x1100 JUMP JUMPDEST JUMPDEST PUSH1 0x20 MUL PUSH1 0x20 ADD ADD MLOAD PUSH2 0x734 SWAP2 SWAP1 PUSH2 0x115E JUMP JUMPDEST SWAP1 POP PUSH1 0x0 DUP1 DUP3 DUP2 SLOAD DUP2 LT PUSH2 0x74B JUMPI PUSH2 0x74A PUSH2 0x1100 JUMP JUMPDEST JUMPDEST SWAP1 PUSH1 0x0 MSTORE PUSH1 0x20 PUSH1 0x0 KECCAK256 ADD PUSH1 0x0 SWAP1 SLOAD SWAP1 PUSH2 0x100 EXP SWAP1 DIV PUSH20 0xFFFFFFFFFFFFFFFFFFFFFFFFFFFFFFFFFFFFFFFF AND SWAP1 POP DUP1 PUSH1 0x1 PUSH1 0x0 PUSH2 0x100 EXP DUP2 SLOAD DUP2 PUSH20 0xFFFFFFFFFFFFFFFFFFFFFFFFFFFFFFFFFFFFFFFF MUL NOT AND SWAP1 DUP4 PUSH20 0xFFFFFFFFFFFFFFFFFFFFFFFFFFFFFFFFFFFFFFFF AND MUL OR SWAP1 SSTORE POP PUSH1 0x0 PUSH1 0x1 PUSH1 0x14 PUSH2 0x100 EXP DUP2 SLOAD DUP2 PUSH1 0xFF MUL NOT AND SWAP1 DUP4 PUSH1 0x1 DUP2 GT ISZERO PUSH2 0x7DF JUMPI PUSH2 0x7DE PUSH2 0xF2A JUMP JUMPDEST JUMPDEST MUL OR SWAP1 SSTORE POP PUSH1 0x0 PUSH8 0xFFFFFFFFFFFFFFFF DUP2 GT ISZERO PUSH2 0x7FF JUMPI PUSH2 0x7FE PUSH2 0xA69 JUMP JUMPDEST JUMPDEST PUSH1 0x40 MLOAD SWAP1 DUP1 DUP3 MSTORE DUP1 PUSH1 0x20 MUL PUSH1 0x20 ADD DUP3 ADD PUSH1 0x40 MSTORE DUP1 ISZERO PUSH2 0x82D JUMPI DUP2 PUSH1 0x20 ADD PUSH1 0x20 DUP3 MUL DUP1 CALLDATASIZE DUP4 CALLDATACOPY DUP1 DUP3 ADD SWAP2 POP POP SWAP1 POP JUMPDEST POP PUSH1 0x0 SWAP1 DUP1 MLOAD SWAP1 PUSH1 0x20 ADD SWAP1 PUSH2 0x843 SWAP3 SWAP2 SWAP1 PUSH2 0x938 JUMP JUMPDEST POP TIMESTAMP PUSH1 0x2 DUP2 SWAP1 SSTORE POP PUSH1 0x0 DUP2 PUSH20 0xFFFFFFFFFFFFFFFFFFFFFFFFFFFFFFFFFFFFFFFF AND SELFBALANCE PUSH1 0x40 MLOAD PUSH2 0x871 SWAP1 PUSH2 0x11C0 JUMP JUMPDEST PUSH1 0x0 PUSH1 0x40 MLOAD DUP1 DUP4 SUB DUP2 DUP6 DUP8 GAS CALL SWAP3 POP POP POP RETURNDATASIZE DUP1 PUSH1 0x0 DUP2 EQ PUSH2 0x8AE JUMPI PUSH1 0x40 MLOAD SWAP2 POP PUSH1 0x1F NOT PUSH1 0x3F RETURNDATASIZE ADD AND DUP3 ADD PUSH1 0x40 MSTORE RETURNDATASIZE DUP3 MSTORE RETURNDATASIZE PUSH1 0x0 PUSH1 0x20 DUP5 ADD RETURNDATACOPY PUSH2 0x8B3 JUMP JUMPDEST PUSH1 0x60 SWAP2 POP JUMPDEST POP POP SWAP1 POP DUP1 PUSH2 0x8EE JUMPI PUSH1 0x40 MLOAD PUSH32 0xA1D04B3900000000000000000000000000000000000000000000000000000000 DUP2 MSTORE PUSH1 0x4 ADD PUSH1 0x40 MLOAD DUP1 SWAP2 SUB SWAP1 REVERT JUMPDEST DUP2 PUSH20 0xFFFFFFFFFFFFFFFFFFFFFFFFFFFFFFFFFFFFFFFF AND PUSH32 0x5B690EC4A06FE979403046EAEEA5B3CE38524683C3001F662C8B5A829632F7DF PUSH1 0x40 MLOAD PUSH1 0x40 MLOAD DUP1 SWAP2 SUB SWAP1 LOG2 POP POP POP POP POP JUMP JUMPDEST DUP3 DUP1 SLOAD DUP3 DUP3 SSTORE SWAP1 PUSH1 0x0 MSTORE PUSH1 0x20 PUSH1 0x0 KECCAK256 SWAP1 DUP2 ADD SWAP3 DUP3 ISZERO PUSH2 0x9B1 JUMPI SWAP2 PUSH1 0x20 MUL DUP3 ADD JUMPDEST DUP3 DUP2 GT ISZERO PUSH2 0x9B0 JUMPI DUP3 MLOAD DUP3 PUSH1 0x0 PUSH2 0x100 EXP DUP2 SLOAD DUP2 PUSH20 0xFFFFFFFFFFFFFFFFFFFFFFFFFFFFFFFFFFFFFFFF MUL NOT AND SWAP1 DUP4 PUSH20 0xFFFFFFFFFFFFFFFFFFFFFFFFFFFFFFFFFFFFFFFF AND MUL OR SWAP1 SSTORE POP SWAP2 PUSH1 0x20 ADD SWAP2 SWAP1 PUSH1 0x1 ADD SWAP1 PUSH2 0x958 JUMP JUMPDEST JUMPDEST POP SWAP1 POP PUSH2 0x9BE SWAP2 SWAP1 PUSH2 0x9C2 JUMP JUMPDEST POP SWAP1 JUMP JUMPDEST JUMPDEST DUP1 DUP3 GT ISZERO PUSH2 0x9DB JUMPI PUSH1 0x0 DUP2 PUSH1 0x0 SWAP1 SSTORE POP PUSH1 0x1 ADD PUSH2 0x9C3 JUMP JUMPDEST POP SWAP1 JUMP JUMPDEST PUSH1 0x0 DUP2 SWAP1 POP SWAP2 SWAP1 POP JUMP JUMPDEST PUSH2 0x9F2 DUP2 PUSH2 0x9DF JUMP JUMPDEST DUP3 MSTORE POP POP JUMP JUMPDEST PUSH1 0x0 PUSH1 0x20 DUP3 ADD SWAP1 POP PUSH2 0xA0D PUSH1 0x0 DUP4 ADD DUP5 PUSH2 0x9E9 JUMP JUMPDEST SWAP3 SWAP2 POP POP JUMP JUMPDEST PUSH1 0x0 PUSH1 0x40 MLOAD SWAP1 POP SWAP1 JUMP JUMPDEST PUSH1 0x0 DUP1 REVERT JUMPDEST PUSH1 0x0 DUP1 REVERT JUMPDEST PUSH2 0xA30 DUP2 PUSH2 0x9DF JUMP JUMPDEST DUP2 EQ PUSH2 0xA3B JUMPI PUSH1 0x0 DUP1 REVERT JUMPDEST POP JUMP JUMPDEST PUSH1 0x0 DUP2 CALLDATALOAD SWAP1 POP PUSH2 0xA4D DUP2 PUSH2 0xA27 JUMP JUMPDEST SWAP3 SWAP2 POP POP JUMP JUMPDEST PUSH1 0x0 DUP1 REVERT JUMPDEST PUSH1 0x0 PUSH1 0x1F NOT PUSH1 0x1F DUP4 ADD AND SWAP1 POP SWAP2 SWAP1 POP JUMP JUMPDEST PUSH32 0x4E487B7100000000000000000000000000000000000000000000000000000000 PUSH1 0x0 MSTORE PUSH1 0x41 PUSH1 0x4 MSTORE PUSH1 0x24 PUSH1 0x0 REVERT JUMPDEST PUSH2 0xAA1 DUP3 PUSH2 0xA58 JUMP JUMPDEST DUP2 ADD DUP2 DUP2 LT PUSH8 0xFFFFFFFFFFFFFFFF DUP3 GT OR ISZERO PUSH2 0xAC0 JUMPI PUSH2 0xABF PUSH2 0xA69 JUMP JUMPDEST JUMPDEST DUP1 PUSH1 0x40 MSTORE POP POP POP JUMP JUMPDEST PUSH1 0x0 PUSH2 0xAD3 PUSH2 0xA13 JUMP JUMPDEST SWAP1 POP PUSH2 0xADF DUP3 DUP3 PUSH2 0xA98 JUMP JUMPDEST SWAP2 SWAP1 POP JUMP JUMPDEST PUSH1 0x0 PUSH8 0xFFFFFFFFFFFFFFFF DUP3 GT ISZERO PUSH2 0xAFF JUMPI PUSH2 0xAFE PUSH2 0xA69 JUMP JUMPDEST JUMPDEST PUSH1 0x20 DUP3 MUL SWAP1 POP PUSH1 0x20 DUP2 ADD SWAP1 POP SWAP2 SWAP1 POP JUMP JUMPDEST PUSH1 0x0 DUP1 REVERT JUMPDEST PUSH1 0x0 PUSH2 0xB28 PUSH2 0xB23 DUP5 PUSH2 0xAE4 JUMP JUMPDEST PUSH2 0xAC9 JUMP JUMPDEST SWAP1 POP DUP1 DUP4 DUP3 MSTORE PUSH1 0x20 DUP3 ADD SWAP1 POP PUSH1 0x20 DUP5 MUL DUP4 ADD DUP6 DUP2 GT ISZERO PUSH2 0xB4B JUMPI PUSH2 0xB4A PUSH2 0xB10 JUMP JUMPDEST JUMPDEST DUP4 JUMPDEST DUP2 DUP2 LT ISZERO PUSH2 0xB74 JUMPI DUP1 PUSH2 0xB60 DUP9 DUP3 PUSH2 0xA3E JUMP JUMPDEST DUP5 MSTORE PUSH1 0x20 DUP5 ADD SWAP4 POP POP PUSH1 0x20 DUP2 ADD SWAP1 POP PUSH2 0xB4D JUMP JUMPDEST POP POP POP SWAP4 SWAP3 POP POP POP JUMP JUMPDEST PUSH1 0x0 DUP3 PUSH1 0x1F DUP4 ADD SLT PUSH2 0xB93 JUMPI PUSH2 0xB92 PUSH2 0xA53 JUMP JUMPDEST JUMPDEST DUP2 CALLDATALOAD PUSH2 0xBA3 DUP5 DUP3 PUSH1 0x20 DUP7 ADD PUSH2 0xB15 JUMP JUMPDEST SWAP2 POP POP SWAP3 SWAP2 POP POP JUMP JUMPDEST PUSH1 0x0 DUP1 PUSH1 0x40 DUP4 DUP6 SUB SLT ISZERO PUSH2 0xBC3 JUMPI PUSH2 0xBC2 PUSH2 0xA1D JUMP JUMPDEST JUMPDEST PUSH1 0x0 PUSH2 0xBD1 DUP6 DUP3 DUP7 ADD PUSH2 0xA3E JUMP JUMPDEST SWAP3 POP POP PUSH1 0x20 DUP4 ADD CALLDATALOAD PUSH8 0xFFFFFFFFFFFFFFFF DUP2 GT ISZERO PUSH2 0xBF2 JUMPI PUSH2 0xBF1 PUSH2 0xA22 JUMP JUMPDEST JUMPDEST PUSH2 0xBFE DUP6 DUP3 DUP7 ADD PUSH2 0xB7E JUMP JUMPDEST SWAP2 POP POP SWAP3 POP SWAP3 SWAP1 POP JUMP JUMPDEST PUSH1 0x0 DUP1 REVERT JUMPDEST PUSH1 0x0 DUP1 DUP4 PUSH1 0x1F DUP5 ADD SLT PUSH2 0xC23 JUMPI PUSH2 0xC22 PUSH2 0xA53 JUMP JUMPDEST JUMPDEST DUP3 CALLDATALOAD SWAP1 POP PUSH8 0xFFFFFFFFFFFFFFFF DUP2 GT ISZERO PUSH2 0xC40 JUMPI PUSH2 0xC3F PUSH2 0xC08 JUMP JUMPDEST JUMPDEST PUSH1 0x20 DUP4 ADD SWAP2 POP DUP4 PUSH1 0x1 DUP3 MUL DUP4 ADD GT ISZERO PUSH2 0xC5C JUMPI PUSH2 0xC5B PUSH2 0xB10 JUMP JUMPDEST JUMPDEST SWAP3 POP SWAP3 SWAP1 POP JUMP JUMPDEST PUSH1 0x0 DUP1 PUSH1 0x20 DUP4 DUP6 SUB SLT ISZERO PUSH2 0xC7A JUMPI PUSH2 0xC79 PUSH2 0xA1D JUMP JUMPDEST JUMPDEST PUSH1 0x0 DUP4 ADD CALLDATALOAD PUSH8 0xFFFFFFFFFFFFFFFF DUP2 GT ISZERO PUSH2 0xC98 JUMPI PUSH2 0xC97 PUSH2 0xA22 JUMP JUMPDEST JUMPDEST PUSH2 0xCA4 DUP6 DUP3 DUP7 ADD PUSH2 0xC0D JUMP JUMPDEST SWAP3 POP SWAP3 POP POP SWAP3 POP SWAP3 SWAP1 POP JUMP JUMPDEST PUSH1 0x0 DUP1 REVERT JUMPDEST PUSH1 0x0 PUSH8 0xFFFFFFFFFFFFFFFF DUP3 GT ISZERO PUSH2 0xCD0 JUMPI PUSH2 0xCCF PUSH2 0xA69 JUMP JUMPDEST JUMPDEST PUSH2 0xCD9 DUP3 PUSH2 0xA58 JUMP JUMPDEST SWAP1 POP PUSH1 0x20 DUP2 ADD SWAP1 POP SWAP2 SWAP1 POP JUMP JUMPDEST DUP3 DUP2 DUP4 CALLDATACOPY PUSH1 0x0 DUP4 DUP4 ADD MSTORE POP POP POP JUMP JUMPDEST PUSH1 0x0 PUSH2 0xD08 PUSH2 0xD03 DUP5 PUSH2 0xCB5 JUMP JUMPDEST PUSH2 0xAC9 JUMP JUMPDEST SWAP1 POP DUP3 DUP2 MSTORE PUSH1 0x20 DUP2 ADD DUP5 DUP5 DUP5 ADD GT ISZERO PUSH2 0xD24 JUMPI PUSH2 0xD23 PUSH2 0xCB0 JUMP JUMPDEST JUMPDEST PUSH2 0xD2F DUP5 DUP3 DUP6 PUSH2 0xCE6 JUMP JUMPDEST POP SWAP4 SWAP3 POP POP POP JUMP JUMPDEST PUSH1 0x0 DUP3 PUSH1 0x1F DUP4 ADD SLT PUSH2 0xD4C JUMPI PUSH2 0xD4B PUSH2 0xA53 JUMP JUMPDEST JUMPDEST DUP2 CALLDATALOAD PUSH2 0xD5C DUP5 DUP3 PUSH1 0x20 DUP7 ADD PUSH2 0xCF5 JUMP JUMPDEST SWAP2 POP POP SWAP3 SWAP2 POP POP JUMP JUMPDEST PUSH1 0x0 PUSH1 0x20 DUP3 DUP5 SUB SLT ISZERO PUSH2 0xD7B JUMPI PUSH2 0xD7A PUSH2 0xA1D JUMP JUMPDEST JUMPDEST PUSH1 0x0 DUP3 ADD CALLDATALOAD PUSH8 0xFFFFFFFFFFFFFFFF DUP2 GT ISZERO PUSH2 0xD99 JUMPI PUSH2 0xD98 PUSH2 0xA22 JUMP JUMPDEST JUMPDEST PUSH2 0xDA5 DUP5 DUP3 DUP6 ADD PUSH2 0xD37 JUMP JUMPDEST SWAP2 POP POP SWAP3 SWAP2 POP POP JUMP JUMPDEST PUSH1 0x0 DUP2 ISZERO ISZERO SWAP1 POP SWAP2 SWAP1 POP JUMP JUMPDEST PUSH2 0xDC3 DUP2 PUSH2 0xDAE JUMP JUMPDEST DUP3 MSTORE POP POP JUMP JUMPDEST PUSH1 0x0 DUP2 MLOAD SWAP1 POP SWAP2 SWAP1 POP JUMP JUMPDEST PUSH1 0x0 DUP3 DUP3 MSTORE PUSH1 0x20 DUP3 ADD SWAP1 POP SWAP3 SWAP2 POP POP JUMP JUMPDEST PUSH1 0x0 JUMPDEST DUP4 DUP2 LT ISZERO PUSH2 0xE03 JUMPI DUP1 DUP3 ADD MLOAD DUP2 DUP5 ADD MSTORE PUSH1 0x20 DUP2 ADD SWAP1 POP PUSH2 0xDE8 JUMP JUMPDEST PUSH1 0x0 DUP5 DUP5 ADD MSTORE POP POP POP POP JUMP JUMPDEST PUSH1 0x0 PUSH2 0xE1A DUP3 PUSH2 0xDC9 JUMP JUMPDEST PUSH2 0xE24 DUP2 DUP6 PUSH2 0xDD4 JUMP JUMPDEST SWAP4 POP PUSH2 0xE34 DUP2 DUP6 PUSH1 0x20 DUP7 ADD PUSH2 0xDE5 JUMP JUMPDEST PUSH2 0xE3D DUP2 PUSH2 0xA58 JUMP JUMPDEST DUP5 ADD SWAP2 POP POP SWAP3 SWAP2 POP POP JUMP JUMPDEST PUSH1 0x0 PUSH1 0x40 DUP3 ADD SWAP1 POP PUSH2 0xE5D PUSH1 0x0 DUP4 ADD DUP6 PUSH2 0xDBA JUMP JUMPDEST DUP2 DUP2 SUB PUSH1 0x20 DUP4 ADD MSTORE PUSH2 0xE6F DUP2 DUP5 PUSH2 0xE0F JUMP JUMPDEST SWAP1 POP SWAP4 SWAP3 POP POP POP JUMP JUMPDEST PUSH1 0x0 PUSH1 0x20 DUP3 DUP5 SUB SLT ISZERO PUSH2 0xE8E JUMPI PUSH2 0xE8D PUSH2 0xA1D JUMP JUMPDEST JUMPDEST PUSH1 0x0 PUSH2 0xE9C DUP5 DUP3 DUP6 ADD PUSH2 0xA3E JUMP JUMPDEST SWAP2 POP POP SWAP3 SWAP2 POP POP JUMP JUMPDEST PUSH1 0x0 PUSH20 0xFFFFFFFFFFFFFFFFFFFFFFFFFFFFFFFFFFFFFFFF DUP3 AND SWAP1 POP SWAP2 SWAP1 POP JUMP JUMPDEST PUSH1 0x0 PUSH2 0xED0 DUP3 PUSH2 0xEA5 JUMP JUMPDEST SWAP1 POP SWAP2 SWAP1 POP JUMP JUMPDEST PUSH2 0xEE0 DUP2 PUSH2 0xEC5 JUMP JUMPDEST DUP3 MSTORE POP POP JUMP JUMPDEST PUSH1 0x0 PUSH1 0x20 DUP3 ADD SWAP1 POP PUSH2 0xEFB PUSH1 0x0 DUP4 ADD DUP5 PUSH2 0xED7 JUMP JUMPDEST SWAP3 SWAP2 POP POP JUMP JUMPDEST PUSH1 0x0 PUSH1 0x40 DUP3 ADD SWAP1 POP PUSH2 0xF16 PUSH1 0x0 DUP4 ADD DUP6 PUSH2 0xED7 JUMP JUMPDEST PUSH2 0xF23 PUSH1 0x20 DUP4 ADD DUP5 PUSH2 0xED7 JUMP JUMPDEST SWAP4 SWAP3 POP POP POP JUMP JUMPDEST PUSH32 0x4E487B7100000000000000000000000000000000000000000000000000000000 PUSH1 0x0 MSTORE PUSH1 0x21 PUSH1 0x4 MSTORE PUSH1 0x24 PUSH1 0x0 REVERT JUMPDEST PUSH1 0x0 PUSH1 0x60 DUP3 ADD SWAP1 POP PUSH2 0xF6E PUSH1 0x0 DUP4 ADD DUP7 PUSH2 0x9E9 JUMP JUMPDEST PUSH2 0xF7B PUSH1 0x20 DUP4 ADD DUP6 PUSH2 0x9E9 JUMP JUMPDEST PUSH2 0xF88 PUSH1 0x40 DUP4 ADD DUP5 PUSH2 0x9E9 JUMP JUMPDEST SWAP5 SWAP4 POP POP POP POP JUMP JUMPDEST PUSH1 0x0 DUP2 SWAP1 POP SWAP2 SWAP1 POP JUMP JUMPDEST PUSH2 0xFA3 DUP2 PUSH2 0xF90 JUMP JUMPDEST DUP3 MSTORE POP POP JUMP JUMPDEST PUSH1 0x0 PUSH8 0xFFFFFFFFFFFFFFFF DUP3 AND SWAP1 POP SWAP2 SWAP1 POP JUMP JUMPDEST PUSH2 0xFC6 DUP2 PUSH2 0xFA9 JUMP JUMPDEST DUP3 MSTORE POP POP JUMP JUMPDEST PUSH1 0x0 PUSH2 0xFFFF DUP3 AND SWAP1 POP SWAP2 SWAP1 POP JUMP JUMPDEST PUSH2 0xFE3 DUP2 PUSH2 0xFCC JUMP JUMPDEST DUP3 MSTORE POP POP JUMP JUMPDEST PUSH1 0x0 PUSH4 0xFFFFFFFF DUP3 AND SWAP1 POP SWAP2 SWAP1 POP JUMP JUMPDEST PUSH2 0x1002 DUP2 PUSH2 0xFE9 JUMP JUMPDEST DUP3 MSTORE POP POP JUMP JUMPDEST PUSH1 0x0 PUSH1 0xA0 DUP3 ADD SWAP1 POP PUSH2 0x101D PUSH1 0x0 DUP4 ADD DUP9 PUSH2 0xF9A JUMP JUMPDEST PUSH2 0x102A PUSH1 0x20 DUP4 ADD DUP8 PUSH2 0xFBD JUMP JUMPDEST PUSH2 0x1037 PUSH1 0x40 DUP4 ADD DUP7 PUSH2 0xFDA JUMP JUMPDEST PUSH2 0x1044 PUSH1 0x60 DUP4 ADD DUP6 PUSH2 0xFF9 JUMP JUMPDEST PUSH2 0x1051 PUSH1 0x80 DUP4 ADD DUP5 PUSH2 0xFF9 JUMP JUMPDEST SWAP7 SWAP6 POP POP POP POP POP POP JUMP JUMPDEST PUSH1 0x0 DUP2 MLOAD SWAP1 POP PUSH2 0x106A DUP2 PUSH2 0xA27 JUMP JUMPDEST SWAP3 SWAP2 POP POP JUMP JUMPDEST PUSH1 0x0 PUSH1 0x20 DUP3 DUP5 SUB SLT ISZERO PUSH2 0x1086 JUMPI PUSH2 0x1085 PUSH2 0xA1D JUMP JUMPDEST JUMPDEST PUSH1 0x0 PUSH2 0x1094 DUP5 DUP3 DUP6 ADD PUSH2 0x105B JUMP JUMPDEST SWAP2 POP POP SWAP3 SWAP2 POP POP JUMP JUMPDEST PUSH32 0x4E487B7100000000000000000000000000000000000000000000000000000000 PUSH1 0x0 MSTORE PUSH1 0x11 PUSH1 0x4 MSTORE PUSH1 0x24 PUSH1 0x0 REVERT JUMPDEST PUSH1 0x0 PUSH2 0x10D7 DUP3 PUSH2 0x9DF JUMP JUMPDEST SWAP2 POP PUSH2 0x10E2 DUP4 PUSH2 0x9DF JUMP JUMPDEST SWAP3 POP DUP3 DUP3 SUB SWAP1 POP DUP2 DUP2 GT ISZERO PUSH2 0x10FA JUMPI PUSH2 0x10F9 PUSH2 0x109D JUMP JUMPDEST JUMPDEST SWAP3 SWAP2 POP POP JUMP JUMPDEST PUSH32 0x4E487B7100000000000000000000000000000000000000000000000000000000 PUSH1 0x0 MSTORE PUSH1 0x32 PUSH1 0x4 MSTORE PUSH1 0x24 PUSH1 0x0 REVERT JUMPDEST PUSH32 0x4E487B7100000000000000000000000000000000000000000000000000000000 PUSH1 0x0 MSTORE PUSH1 0x12 PUSH1 0x4 MSTORE PUSH1 0x24 PUSH1 0x0 REVERT JUMPDEST PUSH1 0x0 PUSH2 0x1169 DUP3 PUSH2 0x9DF JUMP JUMPDEST SWAP2 POP PUSH2 0x1174 DUP4 PUSH2 0x9DF JUMP JUMPDEST SWAP3 POP DUP3 PUSH2 0x1184 JUMPI PUSH2 0x1183 PUSH2 0x112F JUMP JUMPDEST JUMPDEST DUP3 DUP3 MOD SWAP1 POP SWAP3 SWAP2 POP POP JUMP JUMPDEST PUSH1 0x0 DUP2 SWAP1 POP SWAP3 SWAP2 POP POP JUMP JUMPDEST POP JUMP JUMPDEST PUSH1 0x0 PUSH2 0x11AA PUSH1 0x0 DUP4 PUSH2 0x118F JUMP JUMPDEST SWAP2 POP PUSH2 0x11B5 DUP3 PUSH2 0x119A JUMP JUMPDEST PUSH1 0x0 DUP3 ADD SWAP1 POP SWAP2 SWAP1 POP JUMP JUMPDEST PUSH1 0x0 PUSH2 0x11CB DUP3 PUSH2 0x119D JUMP JUMPDEST SWAP2 POP DUP2 SWAP1 POP SWAP2 SWAP1 POP JUMP INVALID LOG2 PUSH5 0x6970667358 0x22 SLT KECCAK256 0x1F 0x29 0xC1 DUP12 0xB4 0x24 DIV PUSH22 0x294AD4090DD2768003B0B82CAD0C2265DA9E1F202533 0xC3 0xFC PUSH5 0x736F6C6343 STOP ADDMOD GT STOP CALLER "},"gasEstimates":{"creation":{"codeDepositCost":"923800","executionCost":"infinite","totalCost":"infinite"},"external":{"checkUpkeep(bytes)":"infinite","enterRaffle()":"infinite","getEntranceFee()":"infinite","getPlayer(uint256)":"5011","getReccentWinner()":"2588","performUpkeep(bytes)":"infinite","rawFulfillRandomWords(uint256,uint256[])":"infinite"},"internal":{"fulfillRandomWords(uint256,uint256[] memory)":"infinite"}},"methodIdentifiers":{"checkUpkeep(bytes)":"6e04ff0d","enterRaffle()":"2cfcc539","getEntranceFee()":"09bc33a7","getPlayer(uint256)":"e55ae4e8","getReccentWinner()":"f597d261","performUpkeep(bytes)":"4585e33b","rawFulfillRandomWords(uint256,uint256[])":"1fe543e3"}},"storageLayout":{"storage":[{"astId":242,"contract":"contracts/Raffle.sol:Raffle","label":"s_plyers","offset":0,"slot":"0","type":"t_array(t_address_payable)dyn_storage"},{"astId":259,"contract":"contracts/Raffle.sol:Raffle","label":"s_reccentWinner","offset":0,"slot":"1","type":"t_address"},{"astId":262,"contract":"contracts/Raffle.sol:Raffle","label":"s_raffleState","offset":20,"slot":"1","type":"t_enum(RaffleSatte)237"},{"astId":264,"contract":"contracts/Raffle.sol:Raffle","label":"s_lastTimeStamp","offset":0,"slot":"2","type":"t_uint256"}],"types":{"t_address":{"encoding":"inplace","label":"address","numberOfBytes":"20"},"t_address_payable":{"encoding":"inplace","label":"address payable","numberOfBytes":"20"},"t_array(t_address_payable)dyn_storage":{"base":"t_address_payable","encoding":"dynamic_array","label":"address payable[]","numberOfBytes":"32"},"t_enum(RaffleSatte)237":{"encoding":"inplace","label":"enum Raffle.RaffleSatte","numberOfBytes":"1"},"t_uint256":{"encoding":"inplace","label":"uint256","numberOfBytes":"32"}}},"userdoc":{"kind":"user","methods":{},"version":1}}}}