{"@chainlink/contracts/src/v0.8/VRFCoordinatorV2.sol":{"VRFCoordinatorV2":{"abi":[{"inputs":[{"internalType":"address","name":"link","type":"address"},{"internalType":"address","name":"blockhashStore","type":"address"},{"internalType":"address","name":"linkEthFeed","type":"address"}],"stateMutability":"nonpayable","type":"constructor"},{"inputs":[{"internalType":"uint256","name":"internalBalance","type":"uint256"},{"internalType":"uint256","name":"externalBalance","type":"uint256"}],"name":"BalanceInvariantViolated","type":"error"},{"inputs":[{"internalType":"uint256","name":"blockNum","type":"uint256"}],"name":"BlockhashNotInStore","type":"error"},{"inputs":[{"internalType":"uint32","name":"have","type":"uint32"},{"internalType":"uint32","name":"want","type":"uint32"}],"name":"GasLimitTooBig","type":"error"},{"inputs":[],"name":"IncorrectCommitment","type":"error"},{"inputs":[],"name":"InsufficientBalance","type":"error"},{"inputs":[{"internalType":"uint256","name":"have","type":"uint256"},{"internalType":"uint256","name":"want","type":"uint256"}],"name":"InsufficientGasForConsumer","type":"error"},{"inputs":[],"name":"InvalidCalldata","type":"error"},{"inputs":[{"internalType":"uint64","name":"subId","type":"uint64"},{"internalType":"address","name":"consumer","type":"address"}],"name":"InvalidConsumer","type":"error"},{"inputs":[{"internalType":"int256","name":"linkWei","type":"int256"}],"name":"InvalidLinkWeiPrice","type":"error"},{"inputs":[{"internalType":"uint16","name":"have","type":"uint16"},{"internalType":"uint16","name":"min","type":"uint16"},{"internalType":"uint16","name":"max","type":"uint16"}],"name":"InvalidRequestConfirmations","type":"error"},{"inputs":[],"name":"InvalidSubscription","type":"error"},{"inputs":[{"internalType":"address","name":"proposedOwner","type":"address"}],"name":"MustBeRequestedOwner","type":"error"},{"inputs":[{"internalType":"address","name":"owner","type":"address"}],"name":"MustBeSubOwner","type":"error"},{"inputs":[],"name":"NoCorrespondingRequest","type":"error"},{"inputs":[{"internalType":"bytes32","name":"keyHash","type":"bytes32"}],"name":"NoSuchProvingKey","type":"error"},{"inputs":[{"internalType":"uint32","name":"have","type":"uint32"},{"internalType":"uint32","name":"want","type":"uint32"}],"name":"NumWordsTooBig","type":"error"},{"inputs":[],"name":"OnlyCallableFromLink","type":"error"},{"inputs":[],"name":"PaymentTooLarge","type":"error"},{"inputs":[],"name":"PendingRequestExists","type":"error"},{"inputs":[{"internalType":"bytes32","name":"keyHash","type":"bytes32"}],"name":"ProvingKeyAlreadyRegistered","type":"error"},{"inputs":[],"name":"Reentrant","type":"error"},{"inputs":[],"name":"TooManyConsumers","type":"error"},{"anonymous":false,"inputs":[{"indexed":false,"internalType":"uint16","name":"minimumRequestConfirmations","type":"uint16"},{"indexed":false,"internalType":"uint32","name":"maxGasLimit","type":"uint32"},{"indexed":false,"internalType":"uint32","name":"stalenessSeconds","type":"uint32"},{"indexed":false,"internalType":"uint32","name":"gasAfterPaymentCalculation","type":"uint32"},{"indexed":false,"internalType":"int256","name":"fallbackWeiPerUnitLink","type":"int256"},{"components":[{"internalType":"uint32","name":"fulfillmentFlatFeeLinkPPMTier1","type":"uint32"},{"internalType":"uint32","name":"fulfillmentFlatFeeLinkPPMTier2","type":"uint32"},{"internalType":"uint32","name":"fulfillmentFlatFeeLinkPPMTier3","type":"uint32"},{"internalType":"uint32","name":"fulfillmentFlatFeeLinkPPMTier4","type":"uint32"},{"internalType":"uint32","name":"fulfillmentFlatFeeLinkPPMTier5","type":"uint32"},{"internalType":"uint24","name":"reqsForTier2","type":"uint24"},{"internalType":"uint24","name":"reqsForTier3","type":"uint24"},{"internalType":"uint24","name":"reqsForTier4","type":"uint24"},{"internalType":"uint24","name":"reqsForTier5","type":"uint24"}],"indexed":false,"internalType":"struct VRFCoordinatorV2.FeeConfig","name":"feeConfig","type":"tuple"}],"name":"ConfigSet","type":"event"},{"anonymous":false,"inputs":[{"indexed":false,"internalType":"address","name":"to","type":"address"},{"indexed":false,"internalType":"uint256","name":"amount","type":"uint256"}],"name":"FundsRecovered","type":"event"},{"anonymous":false,"inputs":[{"indexed":true,"internalType":"address","name":"from","type":"address"},{"indexed":true,"internalType":"address","name":"to","type":"address"}],"name":"OwnershipTransferRequested","type":"event"},{"anonymous":false,"inputs":[{"indexed":true,"internalType":"address","name":"from","type":"address"},{"indexed":true,"internalType":"address","name":"to","type":"address"}],"name":"OwnershipTransferred","type":"event"},{"anonymous":false,"inputs":[{"indexed":false,"internalType":"bytes32","name":"keyHash","type":"bytes32"},{"indexed":true,"internalType":"address","name":"oracle","type":"address"}],"name":"ProvingKeyDeregistered","type":"event"},{"anonymous":false,"inputs":[{"indexed":false,"internalType":"bytes32","name":"keyHash","type":"bytes32"},{"indexed":true,"internalType":"address","name":"oracle","type":"address"}],"name":"ProvingKeyRegistered","type":"event"},{"anonymous":false,"inputs":[{"indexed":true,"internalType":"uint256","name":"requestId","type":"uint256"},{"indexed":false,"internalType":"uint256","name":"outputSeed","type":"uint256"},{"indexed":false,"internalType":"uint96","name":"payment","type":"uint96"},{"indexed":false,"internalType":"bool","name":"success","type":"bool"}],"name":"RandomWordsFulfilled","type":"event"},{"anonymous":false,"inputs":[{"indexed":true,"internalType":"bytes32","name":"keyHash","type":"bytes32"},{"indexed":false,"internalType":"uint256","name":"requestId","type":"uint256"},{"indexed":false,"internalType":"uint256","name":"preSeed","type":"uint256"},{"indexed":true,"internalType":"uint64","name":"subId","type":"uint64"},{"indexed":false,"internalType":"uint16","name":"minimumRequestConfirmations","type":"uint16"},{"indexed":false,"internalType":"uint32","name":"callbackGasLimit","type":"uint32"},{"indexed":false,"internalType":"uint32","name":"numWords","type":"uint32"},{"indexed":true,"internalType":"address","name":"sender","type":"address"}],"name":"RandomWordsRequested","type":"event"},{"anonymous":false,"inputs":[{"indexed":true,"internalType":"uint64","name":"subId","type":"uint64"},{"indexed":false,"internalType":"address","name":"to","type":"address"},{"indexed":false,"internalType":"uint256","name":"amount","type":"uint256"}],"name":"SubscriptionCanceled","type":"event"},{"anonymous":false,"inputs":[{"indexed":true,"internalType":"uint64","name":"subId","type":"uint64"},{"indexed":false,"internalType":"address","name":"consumer","type":"address"}],"name":"SubscriptionConsumerAdded","type":"event"},{"anonymous":false,"inputs":[{"indexed":true,"internalType":"uint64","name":"subId","type":"uint64"},{"indexed":false,"internalType":"address","name":"consumer","type":"address"}],"name":"SubscriptionConsumerRemoved","type":"event"},{"anonymous":false,"inputs":[{"indexed":true,"internalType":"uint64","name":"subId","type":"uint64"},{"indexed":false,"internalType":"address","name":"owner","type":"address"}],"name":"SubscriptionCreated","type":"event"},{"anonymous":false,"inputs":[{"indexed":true,"internalType":"uint64","name":"subId","type":"uint64"},{"indexed":false,"internalType":"uint256","name":"oldBalance","type":"uint256"},{"indexed":false,"internalType":"uint256","name":"newBalance","type":"uint256"}],"name":"SubscriptionFunded","type":"event"},{"anonymous":false,"inputs":[{"indexed":true,"internalType":"uint64","name":"subId","type":"uint64"},{"indexed":false,"internalType":"address","name":"from","type":"address"},{"indexed":false,"internalType":"address","name":"to","type":"address"}],"name":"SubscriptionOwnerTransferRequested","type":"event"},{"anonymous":false,"inputs":[{"indexed":true,"internalType":"uint64","name":"subId","type":"uint64"},{"indexed":false,"internalType":"address","name":"from","type":"address"},{"indexed":false,"internalType":"address","name":"to","type":"address"}],"name":"SubscriptionOwnerTransferred","type":"event"},{"inputs":[],"name":"BLOCKHASH_STORE","outputs":[{"internalType":"contract BlockhashStoreInterface","name":"","type":"address"}],"stateMutability":"view","type":"function"},{"inputs":[],"name":"LINK","outputs":[{"internalType":"contract LinkTokenInterface","name":"","type":"address"}],"stateMutability":"view","type":"function"},{"inputs":[],"name":"LINK_ETH_FEED","outputs":[{"internalType":"contract AggregatorV3Interface","name":"","type":"address"}],"stateMutability":"view","type":"function"},{"inputs":[],"name":"MAX_CONSUMERS","outputs":[{"internalType":"uint16","name":"","type":"uint16"}],"stateMutability":"view","type":"function"},{"inputs":[],"name":"MAX_NUM_WORDS","outputs":[{"internalType":"uint32","name":"","type":"uint32"}],"stateMutability":"view","type":"function"},{"inputs":[],"name":"MAX_REQUEST_CONFIRMATIONS","outputs":[{"internalType":"uint16","name":"","type":"uint16"}],"stateMutability":"view","type":"function"},{"inputs":[],"name":"acceptOwnership","outputs":[],"stateMutability":"nonpayable","type":"function"},{"inputs":[{"internalType":"uint64","name":"subId","type":"uint64"}],"name":"acceptSubscriptionOwnerTransfer","outputs":[],"stateMutability":"nonpayable","type":"function"},{"inputs":[{"internalType":"uint64","name":"subId","type":"uint64"},{"internalType":"address","name":"consumer","type":"address"}],"name":"addConsumer","outputs":[],"stateMutability":"nonpayable","type":"function"},{"inputs":[{"internalType":"uint64","name":"subId","type":"uint64"},{"internalType":"address","name":"to","type":"address"}],"name":"cancelSubscription","outputs":[],"stateMutability":"nonpayable","type":"function"},{"inputs":[],"name":"createSubscription","outputs":[{"internalType":"uint64","name":"","type":"uint64"}],"stateMutability":"nonpayable","type":"function"},{"inputs":[{"internalType":"uint256[2]","name":"publicProvingKey","type":"uint256[2]"}],"name":"deregisterProvingKey","outputs":[],"stateMutability":"nonpayable","type":"function"},{"inputs":[{"components":[{"internalType":"uint256[2]","name":"pk","type":"uint256[2]"},{"internalType":"uint256[2]","name":"gamma","type":"uint256[2]"},{"internalType":"uint256","name":"c","type":"uint256"},{"internalType":"uint256","name":"s","type":"uint256"},{"internalType":"uint256","name":"seed","type":"uint256"},{"internalType":"address","name":"uWitness","type":"address"},{"internalType":"uint256[2]","name":"cGammaWitness","type":"uint256[2]"},{"internalType":"uint256[2]","name":"sHashWitness","type":"uint256[2]"},{"internalType":"uint256","name":"zInv","type":"uint256"}],"internalType":"struct VRF.Proof","name":"proof","type":"tuple"},{"components":[{"internalType":"uint64","name":"blockNum","type":"uint64"},{"internalType":"uint64","name":"subId","type":"uint64"},{"internalType":"uint32","name":"callbackGasLimit","type":"uint32"},{"internalType":"uint32","name":"numWords","type":"uint32"},{"internalType":"address","name":"sender","type":"address"}],"internalType":"struct VRFCoordinatorV2.RequestCommitment","name":"rc","type":"tuple"}],"name":"fulfillRandomWords","outputs":[{"internalType":"uint96","name":"","type":"uint96"}],"stateMutability":"nonpayable","type":"function"},{"inputs":[{"internalType":"uint256","name":"requestId","type":"uint256"}],"name":"getCommitment","outputs":[{"internalType":"bytes32","name":"","type":"bytes32"}],"stateMutability":"view","type":"function"},{"inputs":[],"name":"getConfig","outputs":[{"internalType":"uint16","name":"minimumRequestConfirmations","type":"uint16"},{"internalType":"uint32","name":"maxGasLimit","type":"uint32"},{"internalType":"uint32","name":"stalenessSeconds","type":"uint32"},{"internalType":"uint32","name":"gasAfterPaymentCalculation","type":"uint32"}],"stateMutability":"view","type":"function"},{"inputs":[],"name":"getCurrentSubId","outputs":[{"internalType":"uint64","name":"","type":"uint64"}],"stateMutability":"view","type":"function"},{"inputs":[],"name":"getFallbackWeiPerUnitLink","outputs":[{"internalType":"int256","name":"","type":"int256"}],"stateMutability":"view","type":"function"},{"inputs":[],"name":"getFeeConfig","outputs":[{"internalType":"uint32","name":"fulfillmentFlatFeeLinkPPMTier1","type":"uint32"},{"internalType":"uint32","name":"fulfillmentFlatFeeLinkPPMTier2","type":"uint32"},{"internalType":"uint32","name":"fulfillmentFlatFeeLinkPPMTier3","type":"uint32"},{"internalType":"uint32","name":"fulfillmentFlatFeeLinkPPMTier4","type":"uint32"},{"internalType":"uint32","name":"fulfillmentFlatFeeLinkPPMTier5","type":"uint32"},{"internalType":"uint24","name":"reqsForTier2","type":"uint24"},{"internalType":"uint24","name":"reqsForTier3","type":"uint24"},{"internalType":"uint24","name":"reqsForTier4","type":"uint24"},{"internalType":"uint24","name":"reqsForTier5","type":"uint24"}],"stateMutability":"view","type":"function"},{"inputs":[{"internalType":"uint64","name":"reqCount","type":"uint64"}],"name":"getFeeTier","outputs":[{"internalType":"uint32","name":"","type":"uint32"}],"stateMutability":"view","type":"function"},{"inputs":[],"name":"getRequestConfig","outputs":[{"internalType":"uint16","name":"","type":"uint16"},{"internalType":"uint32","name":"","type":"uint32"},{"internalType":"bytes32[]","name":"","type":"bytes32[]"}],"stateMutability":"view","type":"function"},{"inputs":[{"internalType":"uint64","name":"subId","type":"uint64"}],"name":"getSubscription","outputs":[{"internalType":"uint96","name":"balance","type":"uint96"},{"internalType":"uint64","name":"reqCount","type":"uint64"},{"internalType":"address","name":"owner","type":"address"},{"internalType":"address[]","name":"consumers","type":"address[]"}],"stateMutability":"view","type":"function"},{"inputs":[],"name":"getTotalBalance","outputs":[{"internalType":"uint256","name":"","type":"uint256"}],"stateMutability":"view","type":"function"},{"inputs":[{"internalType":"uint256[2]","name":"publicKey","type":"uint256[2]"}],"name":"hashOfKey","outputs":[{"internalType":"bytes32","name":"","type":"bytes32"}],"stateMutability":"pure","type":"function"},{"inputs":[{"internalType":"address","name":"","type":"address"},{"internalType":"uint256","name":"amount","type":"uint256"},{"internalType":"bytes","name":"data","type":"bytes"}],"name":"onTokenTransfer","outputs":[],"stateMutability":"nonpayable","type":"function"},{"inputs":[{"internalType":"address","name":"recipient","type":"address"},{"internalType":"uint96","name":"amount","type":"uint96"}],"name":"oracleWithdraw","outputs":[],"stateMutability":"nonpayable","type":"function"},{"inputs":[],"name":"owner","outputs":[{"internalType":"address","name":"","type":"address"}],"stateMutability":"view","type":"function"},{"inputs":[{"internalType":"uint64","name":"subId","type":"uint64"}],"name":"ownerCancelSubscription","outputs":[],"stateMutability":"nonpayable","type":"function"},{"inputs":[{"internalType":"uint64","name":"subId","type":"uint64"}],"name":"pendingRequestExists","outputs":[{"internalType":"bool","name":"","type":"bool"}],"stateMutability":"view","type":"function"},{"inputs":[{"internalType":"address","name":"to","type":"address"}],"name":"recoverFunds","outputs":[],"stateMutability":"nonpayable","type":"function"},{"inputs":[{"internalType":"address","name":"oracle","type":"address"},{"internalType":"uint256[2]","name":"publicProvingKey","type":"uint256[2]"}],"name":"registerProvingKey","outputs":[],"stateMutability":"nonpayable","type":"function"},{"inputs":[{"internalType":"uint64","name":"subId","type":"uint64"},{"internalType":"address","name":"consumer","type":"address"}],"name":"removeConsumer","outputs":[],"stateMutability":"nonpayable","type":"function"},{"inputs":[{"internalType":"bytes32","name":"keyHash","type":"bytes32"},{"internalType":"uint64","name":"subId","type":"uint64"},{"internalType":"uint16","name":"requestConfirmations","type":"uint16"},{"internalType":"uint32","name":"callbackGasLimit","type":"uint32"},{"internalType":"uint32","name":"numWords","type":"uint32"}],"name":"requestRandomWords","outputs":[{"internalType":"uint256","name":"","type":"uint256"}],"stateMutability":"nonpayable","type":"function"},{"inputs":[{"internalType":"uint64","name":"subId","type":"uint64"},{"internalType":"address","name":"newOwner","type":"address"}],"name":"requestSubscriptionOwnerTransfer","outputs":[],"stateMutability":"nonpayable","type":"function"},{"inputs":[{"internalType":"uint16","name":"minimumRequestConfirmations","type":"uint16"},{"internalType":"uint32","name":"maxGasLimit","type":"uint32"},{"internalType":"uint32","name":"stalenessSeconds","type":"uint32"},{"internalType":"uint32","name":"gasAfterPaymentCalculation","type":"uint32"},{"internalType":"int256","name":"fallbackWeiPerUnitLink","type":"int256"},{"components":[{"internalType":"uint32","name":"fulfillmentFlatFeeLinkPPMTier1","type":"uint32"},{"internalType":"uint32","name":"fulfillmentFlatFeeLinkPPMTier2","type":"uint32"},{"internalType":"uint32","name":"fulfillmentFlatFeeLinkPPMTier3","type":"uint32"},{"internalType":"uint32","name":"fulfillmentFlatFeeLinkPPMTier4","type":"uint32"},{"internalType":"uint32","name":"fulfillmentFlatFeeLinkPPMTier5","type":"uint32"},{"internalType":"uint24","name":"reqsForTier2","type":"uint24"},{"internalType":"uint24","name":"reqsForTier3","type":"uint24"},{"internalType":"uint24","name":"reqsForTier4","type":"uint24"},{"internalType":"uint24","name":"reqsForTier5","type":"uint24"}],"internalType":"struct VRFCoordinatorV2.FeeConfig","name":"feeConfig","type":"tuple"}],"name":"setConfig","outputs":[],"stateMutability":"nonpayable","type":"function"},{"inputs":[{"internalType":"address","name":"to","type":"address"}],"name":"transferOwnership","outputs":[],"stateMutability":"nonpayable","type":"function"},{"inputs":[],"name":"typeAndVersion","outputs":[{"internalType":"string","name":"","type":"string"}],"stateMutability":"pure","type":"function"}],"devdoc":{"kind":"dev","methods":{"acceptSubscriptionOwnerTransfer(uint64)":{"details":"will revert if original owner of subId has not requested that msg.sender become the new owner.","params":{"subId":"- ID of the subscription"}},"addConsumer(uint64,address)":{"params":{"consumer":"- New consumer which can use the subscription","subId":"- ID of the subscription"}},"cancelSubscription(uint64,address)":{"params":{"subId":"- ID of the subscription","to":"- Where to send the remaining LINK to"}},"createSubscription()":{"details":"You can manage the consumer set dynamically with addConsumer/removeConsumer.Note to fund the subscription, use transferAndCall. For exampleLINKTOKEN.transferAndCall(address(COORDINATOR),amount,abi.encode(subId));","returns":{"_0":"- A unique subscription id."}},"deregisterProvingKey(uint256[2])":{"params":{"publicProvingKey":"key that oracle can use to submit vrf fulfillments"}},"getCommitment(uint256)":{"details":"used to determine if a request is fulfilled or not","params":{"requestId":"id of request"}},"getRequestConfig()":{"returns":{"_0":"minimumRequestConfirmations global min for request confirmations","_1":"maxGasLimit global max for request gas limit","_2":"s_provingKeyHashes list of registered key hashes"}},"getSubscription(uint64)":{"params":{"subId":"- ID of the subscription"},"returns":{"balance":"- LINK balance of the subscription in juels.","consumers":"- list of consumer address which are able to use this subscription.","owner":"- owner of the subscription.","reqCount":"- number of requests for this subscription, determines fee tier."}},"hashOfKey(uint256[2])":{"params":{"publicKey":"the key to return the hash of"}},"ownerCancelSubscription(uint64)":{"details":"notably can be called even if there are pending requests, outstanding ones may fail onchain","params":{"subId":"subscription id"}},"pendingRequestExists(uint64)":{"details":"Looping is bounded to MAX_CONSUMERS*(number of keyhashes).Used to disable subscription canceling while outstanding request are present."},"recoverFunds(address)":{"params":{"to":"address to send link to"}},"registerProvingKey(address,uint256[2])":{"params":{"oracle":"address of the oracle","publicProvingKey":"key that oracle can use to submit vrf fulfillments"}},"removeConsumer(uint64,address)":{"params":{"consumer":"- Consumer to remove from the subscription","subId":"- ID of the subscription"}},"requestRandomWords(bytes32,uint64,uint16,uint32,uint32)":{"params":{"callbackGasLimit":"- How much gas you'd like to receive in your fulfillRandomWords callback. Note that gasleft() inside fulfillRandomWords may be slightly less than this amount because of gas used calling the function (argument decoding etc.), so you may need to request slightly more than you expect to have inside fulfillRandomWords. The acceptable range is [0, maxGasLimit]","keyHash":"- Corresponds to a particular oracle job which uses that key for generating the VRF proof. Different keyHash's have different gas price ceilings, so you can select a specific one to bound your maximum per request cost.","minimumRequestConfirmations":"- How many blocks you'd like the oracle to wait before responding to the request. See SECURITY CONSIDERATIONS for why you may want to request more. The acceptable range is [minimumRequestBlockConfirmations, 200].","numWords":"- The number of uint256 random values you'd like to receive in your fulfillRandomWords callback. Note these numbers are expanded in a secure way by the VRFCoordinator from a single random value supplied by the oracle.","subId":"- The ID of the VRF subscription. Must be funded with the minimum subscription balance required for the selected keyHash."},"returns":{"_0":"- A unique identifier of the request. Can be used to match a request to a response in fulfillRandomWords."}},"requestSubscriptionOwnerTransfer(uint64,address)":{"params":{"newOwner":"- proposed new owner of the subscription","subId":"- ID of the subscription"}},"setConfig(uint16,uint32,uint32,uint32,int256,(uint32,uint32,uint32,uint32,uint32,uint24,uint24,uint24,uint24))":{"params":{"fallbackWeiPerUnitLink":"fallback eth/link price in the case of a stale feed","feeConfig":"fee tier configuration","gasAfterPaymentCalculation":"gas used in doing accounting after completing the gas measurement","maxGasLimit":"global max for request gas limit","minimumRequestConfirmations":"global min for request confirmations","stalenessSeconds":"if the eth/link feed is more stale then this, use the fallback price"}},"typeAndVersion()":{"returns":{"_0":"Type and version string"}}},"version":1},"evm":{"bytecode":{"linkReferences":{},"object":"60e06040523480156200001157600080fd5b5060405162008e9138038062008e91833981810160405281019062000037919062000374565b338060008073ffffffffffffffffffffffffffffffffffffffff168273ffffffffffffffffffffffffffffffffffffffff1603620000ac576040517f08c379a0000000000000000000000000000000000000000000000000000000008152600401620000a39062000431565b60405180910390fd5b816000806101000a81548173ffffffffffffffffffffffffffffffffffffffff021916908373ffffffffffffffffffffffffffffffffffffffff160217905550600073ffffffffffffffffffffffffffffffffffffffff168173ffffffffffffffffffffffffffffffffffffffff161462000133576200013281620001db60201b60201c565b5b5050508273ffffffffffffffffffffffffffffffffffffffff1660808173ffffffffffffffffffffffffffffffffffffffff16815250508073ffffffffffffffffffffffffffffffffffffffff1660a08173ffffffffffffffffffffffffffffffffffffffff16815250508173ffffffffffffffffffffffffffffffffffffffff1660c08173ffffffffffffffffffffffffffffffffffffffff1681525050505050620004c5565b3373ffffffffffffffffffffffffffffffffffffffff168173ffffffffffffffffffffffffffffffffffffffff16036200024c576040517f08c379a00000000000000000000000000000000000000000000000000000000081526004016200024390620004a3565b60405180910390fd5b80600160006101000a81548173ffffffffffffffffffffffffffffffffffffffff021916908373ffffffffffffffffffffffffffffffffffffffff1602179055508073ffffffffffffffffffffffffffffffffffffffff1660008054906101000a900473ffffffffffffffffffffffffffffffffffffffff1673ffffffffffffffffffffffffffffffffffffffff167fed8889f560326eb138920d842192f0eb3dd22b4f139c87a2c57538e05bae127860405160405180910390a350565b600080fd5b600073ffffffffffffffffffffffffffffffffffffffff82169050919050565b60006200033c826200030f565b9050919050565b6200034e816200032f565b81146200035a57600080fd5b50565b6000815190506200036e8162000343565b92915050565b60008060006060848603121562000390576200038f6200030a565b5b6000620003a0868287016200035d565b9350506020620003b3868287016200035d565b9250506040620003c6868287016200035d565b9150509250925092565b600082825260208201905092915050565b7f43616e6e6f7420736574206f776e657220746f207a65726f0000000000000000600082015250565b600062000419601883620003d0565b91506200042682620003e1565b602082019050919050565b600060208201905081810360008301526200044c816200040a565b9050919050565b7f43616e6e6f74207472616e7366657220746f2073656c66000000000000000000600082015250565b60006200048b601783620003d0565b9150620004988262000453565b602082019050919050565b60006020820190508181036000830152620004be816200047c565b9050919050565b60805160a05160c05161896b620005266000396000818161198e0152614a2f01526000818161327e0152614e92015260008181610dd0015281816118b601528181612f7701528181613ccc01528181613df401526146b2015261896b6000f3fe608060405234801561001057600080fd5b506004361061021b5760003560e01c80636f64f03f11610125578063ad178361116100ad578063d2f9f9a71161007c578063d2f9f9a714610604578063d7ae1d3014610634578063e72f6e3014610650578063e82ad7d41461066c578063f2fde38b1461069c5761021b565b8063ad17836114610565578063af198b9714610583578063c3f909d4146105b3578063caf70c4a146105d45761021b565b80638da5cb5b116100f45780638da5cb5b146104be5780639f87fad7146104dc578063a21a23e4146104f8578063a47c769614610516578063a4c0ed36146105495761021b565b80636f64f03f146104605780637341c10c1461047c57806379ba50971461049857806382359740146104a25761021b565b8063356dac71116101a85780635fbbc0d2116101775780635fbbc0d2146103b257806364d51a2a146103d857806366316d8d146103f6578063689c45171461041257806369bcdb7d146104305761021b565b8063356dac711461032a57806340d6bb82146103485780634cb48a54146103665780635d3b1d30146103825761021b565b806308821d58116101ef57806308821d581461029657806312b58349146102b257806315c48b84146102d0578063181f5a77146102ee5780631b6b6d231461030c5761021b565b80620122911461022057806302bcc5b61461024057806304c357cb1461025c57806306bfa63714610278575b600080fd5b6102286106b8565b604051610237939291906163b8565b60405180910390f35b61025a6004803603810190610255919061644a565b610746565b005b610276600480360381019061027191906164d5565b610855565b005b610280610af6565b60405161028d9190616524565b60405180910390f35b6102b060048036038101906102ab9190616566565b610b14565b005b6102ba610d5c565b6040516102c791906165ac565b60405180910390f35b6102d8610d8c565b6040516102e591906165c7565b60405180910390f35b6102f6610d91565b6040516103039190616672565b60405180910390f35b610314610dce565b60405161032191906166f3565b60405180910390f35b610332610df2565b60405161033f9190616727565b60405180910390f35b610350610dfc565b60405161035d9190616742565b60405180910390f35b610380600480360381019061037b919061697c565b610e02565b005b61039c60048036038101906103979190616a36565b61114e565b6040516103a991906165ac565b60405180910390f35b6103ba6115e0565b6040516103cf99989796959493929190616ac0565b60405180910390f35b6103e06116cd565b6040516103ed91906165c7565b60405180910390f35b610410600480360381019061040b9190616b91565b6116d2565b005b61041a61198c565b6040516104279190616bf2565b60405180910390f35b61044a60048036038101906104459190616c39565b6119b0565b6040516104579190616c75565b60405180910390f35b61047a60048036038101906104759190616c90565b6119cd565b005b610496600480360381019061049191906164d5565b611b8b565b005b6104a0611f50565b005b6104bc60048036038101906104b7919061644a565b6120e5565b005b6104c661244d565b6040516104d39190616cdf565b60405180910390f35b6104f660048036038101906104f191906164d5565b612476565b005b6105006129bf565b60405161050d9190616524565b60405180910390f35b610530600480360381019061052b919061644a565b612ce6565b6040516105409493929190616dc7565b60405180910390f35b610563600480360381019061055e9190616e73565b612f2b565b005b61056d61327c565b60405161057a9190616f08565b60405180910390f35b61059d60048036038101906105989190617142565b6132a0565b6040516105aa9190617184565b60405180910390f35b6105bb6137e5565b6040516105cb949392919061719f565b60405180910390f35b6105ee60048036038101906105e991906171e4565b61384f565b6040516105fb9190616c75565b60405180910390f35b61061e6004803603810190610619919061644a565b61387f565b60405161062b9190616742565b60405180910390f35b61064e600480360381019061064991906164d5565b613b00565b005b61066a60048036038101906106659190617211565b613cc0565b005b6106866004803603810190610681919061644a565b613ed1565b6040516106939190617259565b60405180910390f35b6106b660048036038101906106b19190617211565b6141a3565b005b6000806060600b60000160009054906101000a900461ffff16600b60000160029054906101000a900463ffffffff1660078080548060200260200160405190810160405280929190818152602001828054801561073457602002820191906000526020600020905b815481526020019060010190808311610720575b50505050509050925092509250909192565b61074e6141b7565b600073ffffffffffffffffffffffffffffffffffffffff16600360008367ffffffffffffffff1667ffffffffffffffff16815260200190815260200160002060000160009054906101000a900473ffffffffffffffffffffffffffffffffffffffff1673ffffffffffffffffffffffffffffffffffffffff16036107fe576040517f1f6a65b600000000000000000000000000000000000000000000000000000000815260040160405180910390fd5b61085281600360008467ffffffffffffffff1667ffffffffffffffff16815260200190815260200160002060000160009054906101000a900473ffffffffffffffffffffffffffffffffffffffff16614247565b50565b816000600360008367ffffffffffffffff1667ffffffffffffffff16815260200190815260200160002060000160009054906101000a900473ffffffffffffffffffffffffffffffffffffffff169050600073ffffffffffffffffffffffffffffffffffffffff168173ffffffffffffffffffffffffffffffffffffffff160361090b576040517f1f6a65b600000000000000000000000000000000000000000000000000000000815260040160405180910390fd5b8073ffffffffffffffffffffffffffffffffffffffff163373ffffffffffffffffffffffffffffffffffffffff161461097b57806040517fd8a3fb520000000000000000000000000000000000000000000000000000000081526004016109729190616cdf565b60405180910390fd5b600b60000160069054906101000a900460ff16156109c5576040517fed3ba6a600000000000000000000000000000000000000000000000000000000815260040160405180910390fd5b8273ffffffffffffffffffffffffffffffffffffffff16600360008667ffffffffffffffff1667ffffffffffffffff16815260200190815260200160002060010160009054906101000a900473ffffffffffffffffffffffffffffffffffffffff1673ffffffffffffffffffffffffffffffffffffffff1614610af05782600360008667ffffffffffffffff1667ffffffffffffffff16815260200190815260200160002060010160006101000a81548173ffffffffffffffffffffffffffffffffffffffff021916908373ffffffffffffffffffffffffffffffffffffffff1602179055508367ffffffffffffffff167f69436ea6df009049404f564eff6622cd00522b0bd6a89efd9e52a355c4a879be3385604051610ae7929190617274565b60405180910390a25b50505050565b6000600560009054906101000a900467ffffffffffffffff16905090565b610b1c6141b7565b6000610b5e826002806020026040519081016040528092919082600260200280828437600081840152601f19601f82011690508083019250505050505061384f565b905060006006600083815260200190815260200160002060009054906101000a900473ffffffffffffffffffffffffffffffffffffffff169050600073ffffffffffffffffffffffffffffffffffffffff168173ffffffffffffffffffffffffffffffffffffffff1603610c0957816040517f77f5b84c000000000000000000000000000000000000000000000000000000008152600401610c009190616c75565b60405180910390fd5b6006600083815260200190815260200160002060006101000a81549073ffffffffffffffffffffffffffffffffffffffff021916905560005b600780549050811015610d08578260078281548110610c6457610c6361729d565b5b906000526020600020015403610cf557600060076001600780549050610c8a91906172fb565b81548110610c9b57610c9a61729d565b5b906000526020600020015490508060078381548110610cbd57610cbc61729d565b5b90600052602060002001819055506007805480610cdd57610cdc61732f565b5b60019003818190600052602060002001600090559055505b8080610d009061735e565b915050610c42565b508073ffffffffffffffffffffffffffffffffffffffff167f72be339577868f868798bac2c93e52d6f034fef4689a9848996c14ebb7416c0d83604051610d4f9190616c75565b60405180910390a2505050565b6000600560089054906101000a90046bffffffffffffffffffffffff166bffffffffffffffffffffffff16905090565b60c881565b60606040518060400160405280601681526020017f565246436f6f7264696e61746f72563220312e302e3000000000000000000000815250905090565b7f000000000000000000000000000000000000000000000000000000000000000081565b6000600a54905090565b6101f481565b610e0a6141b7565b60c861ffff168661ffff161115610e5d57858660c86040517fa7386976000000000000000000000000000000000000000000000000000000008152600401610e54939291906173a6565b60405180910390fd5b60008213610ea257816040517f43d4cf66000000000000000000000000000000000000000000000000000000008152600401610e999190616727565b60405180910390fd5b6040518060a001604052808761ffff1681526020018663ffffffff1681526020016000151581526020018563ffffffff1681526020018463ffffffff16815250600b60008201518160000160006101000a81548161ffff021916908361ffff16021790555060208201518160000160026101000a81548163ffffffff021916908363ffffffff16021790555060408201518160000160066101000a81548160ff02191690831515021790555060608201518160000160076101000a81548163ffffffff021916908363ffffffff160217905550608082015181600001600b6101000a81548163ffffffff021916908363ffffffff16021790555090505080600c60008201518160000160006101000a81548163ffffffff021916908363ffffffff16021790555060208201518160000160046101000a81548163ffffffff021916908363ffffffff16021790555060408201518160000160086101000a81548163ffffffff021916908363ffffffff160217905550606082015181600001600c6101000a81548163ffffffff021916908363ffffffff16021790555060808201518160000160106101000a81548163ffffffff021916908363ffffffff16021790555060a08201518160000160146101000a81548162ffffff021916908362ffffff16021790555060c08201518160000160176101000a81548162ffffff021916908362ffffff16021790555060e082015181600001601a6101000a81548162ffffff021916908362ffffff16021790555061010082015181600001601d6101000a81548162ffffff021916908362ffffff16021790555090505081600a819055507fc21e3bd2e0b339d2848f0dd956947a88966c242c0c0c582a33137a5c1ceb5cb28686868686600c60405161113e9695949392919061765c565b60405180910390a1505050505050565b6000600b60000160069054906101000a900460ff161561119a576040517fed3ba6a600000000000000000000000000000000000000000000000000000000815260040160405180910390fd5b600073ffffffffffffffffffffffffffffffffffffffff16600360008767ffffffffffffffff1667ffffffffffffffff16815260200190815260200160002060000160009054906101000a900473ffffffffffffffffffffffffffffffffffffffff1673ffffffffffffffffffffffffffffffffffffffff160361124a576040517f1f6a65b600000000000000000000000000000000000000000000000000000000815260040160405180910390fd5b6000600260003373ffffffffffffffffffffffffffffffffffffffff1673ffffffffffffffffffffffffffffffffffffffff16815260200190815260200160002060008767ffffffffffffffff1667ffffffffffffffff16815260200190815260200160002060009054906101000a900467ffffffffffffffff16905060008167ffffffffffffffff16036113185785336040517ff0019fe600000000000000000000000000000000000000000000000000000000815260040161130f9291906176be565b60405180910390fd5b600b60000160009054906101000a900461ffff1661ffff168561ffff161080611349575060c861ffff168561ffff16115b156113a35784600b60000160009054906101000a900461ffff1660c86040517fa738697600000000000000000000000000000000000000000000000000000000815260040161139a939291906173a6565b60405180910390fd5b600b60000160029054906101000a900463ffffffff1663ffffffff168463ffffffff1611156114205783600b60000160029054906101000a900463ffffffff166040517ff5d7e01e0000000000000000000000000000000000000000000000000000000081526004016114179291906176e7565b60405180910390fd5b6101f463ffffffff168363ffffffff16111561147757826101f46040517f47386bec00000000000000000000000000000000000000000000000000000000815260040161146e9291906176e7565b60405180910390fd5b60006001826114869190617710565b90506000806114978a338b866147dd565b9150915081438a8989336040516020016114b69695949392919061774c565b6040516020818303038152906040528051906020012060096000848152602001908152602001600020819055503373ffffffffffffffffffffffffffffffffffffffff168967ffffffffffffffff168b7f63373d1c4696214b898952999c9aaec57dac1ee2723cec59bea6888f489a977285858d8d8d60405161153d9594939291906177ad565b60405180910390a482600260003373ffffffffffffffffffffffffffffffffffffffff1673ffffffffffffffffffffffffffffffffffffffff16815260200190815260200160002060008b67ffffffffffffffff1667ffffffffffffffff16815260200190815260200160002060006101000a81548167ffffffffffffffff021916908367ffffffffffffffff1602179055508194505050505095945050505050565b6000806000806000806000806000600c60000160009054906101000a900463ffffffff16600c60000160049054906101000a900463ffffffff16600c60000160089054906101000a900463ffffffff16600c600001600c9054906101000a900463ffffffff16600c60000160109054906101000a900463ffffffff16600c60000160149054906101000a900462ffffff16600c60000160179054906101000a900462ffffff16600c600001601a9054906101000a900462ffffff16600c600001601d9054906101000a900462ffffff16985098509850985098509850985098509850909192939495969798565b606481565b600b60000160069054906101000a900460ff161561171c576040517fed3ba6a600000000000000000000000000000000000000000000000000000000815260040160405180910390fd5b806bffffffffffffffffffffffff16600860003373ffffffffffffffffffffffffffffffffffffffff1673ffffffffffffffffffffffffffffffffffffffff16815260200190815260200160002060009054906101000a90046bffffffffffffffffffffffff166bffffffffffffffffffffffff1610156117c9576040517ff4d678b800000000000000000000000000000000000000000000000000000000815260040160405180910390fd5b80600860003373ffffffffffffffffffffffffffffffffffffffff1673ffffffffffffffffffffffffffffffffffffffff16815260200190815260200160002060008282829054906101000a90046bffffffffffffffffffffffff1661182f9190617800565b92506101000a8154816bffffffffffffffffffffffff02191690836bffffffffffffffffffffffff16021790555080600560088282829054906101000a90046bffffffffffffffffffffffff166118869190617800565b92506101000a8154816bffffffffffffffffffffffff02191690836bffffffffffffffffffffffff1602179055507f000000000000000000000000000000000000000000000000000000000000000073ffffffffffffffffffffffffffffffffffffffff1663a9059cbb83836040518363ffffffff1660e01b815260040161190f929190617871565b6020604051808303816000875af115801561192e573d6000803e3d6000fd5b505050506040513d601f19601f8201168201806040525081019061195291906178c6565b611988576040517ff4d678b800000000000000000000000000000000000000000000000000000000815260040160405180910390fd5b5050565b7f000000000000000000000000000000000000000000000000000000000000000081565b600060096000838152602001908152602001600020549050919050565b6119d56141b7565b6000611a17826002806020026040519081016040528092919082600260200280828437600081840152601f19601f82011690508083019250505050505061384f565b9050600073ffffffffffffffffffffffffffffffffffffffff166006600083815260200190815260200160002060009054906101000a900473ffffffffffffffffffffffffffffffffffffffff1673ffffffffffffffffffffffffffffffffffffffff1614611abd57806040517f4a0b8fa7000000000000000000000000000000000000000000000000000000008152600401611ab49190616c75565b60405180910390fd5b826006600083815260200190815260200160002060006101000a81548173ffffffffffffffffffffffffffffffffffffffff021916908373ffffffffffffffffffffffffffffffffffffffff16021790555060078190806001815401808255809150506001900390600052602060002001600090919091909150558273ffffffffffffffffffffffffffffffffffffffff167fe729ae16526293f74ade739043022254f1489f616295a25bf72dfb4511ed73b882604051611b7e9190616c75565b60405180910390a2505050565b816000600360008367ffffffffffffffff1667ffffffffffffffff16815260200190815260200160002060000160009054906101000a900473ffffffffffffffffffffffffffffffffffffffff169050600073ffffffffffffffffffffffffffffffffffffffff168173ffffffffffffffffffffffffffffffffffffffff1603611c41576040517f1f6a65b600000000000000000000000000000000000000000000000000000000815260040160405180910390fd5b8073ffffffffffffffffffffffffffffffffffffffff163373ffffffffffffffffffffffffffffffffffffffff1614611cb157806040517fd8a3fb52000000000000000000000000000000000000000000000000000000008152600401611ca89190616cdf565b60405180910390fd5b600b60000160069054906101000a900460ff1615611cfb576040517fed3ba6a600000000000000000000000000000000000000000000000000000000815260040160405180910390fd5b606461ffff16600360008667ffffffffffffffff1667ffffffffffffffff1681526020019081526020016000206002018054905003611d66576040517f05a48e0f00000000000000000000000000000000000000000000000000000000815260040160405180910390fd5b6000600260008573ffffffffffffffffffffffffffffffffffffffff1673ffffffffffffffffffffffffffffffffffffffff16815260200190815260200160002060008667ffffffffffffffff1667ffffffffffffffff16815260200190815260200160002060009054906101000a900467ffffffffffffffff1667ffffffffffffffff1603611f4a576001600260008573ffffffffffffffffffffffffffffffffffffffff1673ffffffffffffffffffffffffffffffffffffffff16815260200190815260200160002060008667ffffffffffffffff1667ffffffffffffffff16815260200190815260200160002060006101000a81548167ffffffffffffffff021916908367ffffffffffffffff160217905550600360008567ffffffffffffffff1667ffffffffffffffff168152602001908152602001600020600201839080600181540180825580915050600190039060005260206000200160009091909190916101000a81548173ffffffffffffffffffffffffffffffffffffffff021916908373ffffffffffffffffffffffffffffffffffffffff1602179055508367ffffffffffffffff167f43dc749a04ac8fb825cbd514f7c0e13f13bc6f2ee66043b76629d51776cff8e084604051611f419190616cdf565b60405180910390a25b50505050565b600160009054906101000a900473ffffffffffffffffffffffffffffffffffffffff1673ffffffffffffffffffffffffffffffffffffffff163373ffffffffffffffffffffffffffffffffffffffff1614611fe0576040517f08c379a0000000000000000000000000000000000000000000000000000000008152600401611fd79061793f565b60405180910390fd5b60008060009054906101000a900473ffffffffffffffffffffffffffffffffffffffff169050336000806101000a81548173ffffffffffffffffffffffffffffffffffffffff021916908373ffffffffffffffffffffffffffffffffffffffff1602179055506000600160006101000a81548173ffffffffffffffffffffffffffffffffffffffff021916908373ffffffffffffffffffffffffffffffffffffffff1602179055503373ffffffffffffffffffffffffffffffffffffffff168173ffffffffffffffffffffffffffffffffffffffff167f8be0079c531659141344cd1fd0a4f28419497f9722a3daafe3b4186f6b6457e060405160405180910390a350565b600b60000160069054906101000a900460ff161561212f576040517fed3ba6a600000000000000000000000000000000000000000000000000000000815260040160405180910390fd5b600073ffffffffffffffffffffffffffffffffffffffff16600360008367ffffffffffffffff1667ffffffffffffffff16815260200190815260200160002060000160009054906101000a900473ffffffffffffffffffffffffffffffffffffffff1673ffffffffffffffffffffffffffffffffffffffff16036121df576040517f1f6a65b600000000000000000000000000000000000000000000000000000000815260040160405180910390fd5b3373ffffffffffffffffffffffffffffffffffffffff16600360008367ffffffffffffffff1667ffffffffffffffff16815260200190815260200160002060010160009054906101000a900473ffffffffffffffffffffffffffffffffffffffff1673ffffffffffffffffffffffffffffffffffffffff16146122e357600360008267ffffffffffffffff1667ffffffffffffffff16815260200190815260200160002060010160009054906101000a900473ffffffffffffffffffffffffffffffffffffffff166040517fd084e9750000000000000000000000000000000000000000000000000000000081526004016122da9190616cdf565b60405180910390fd5b6000600360008367ffffffffffffffff1667ffffffffffffffff16815260200190815260200160002060000160009054906101000a900473ffffffffffffffffffffffffffffffffffffffff16905033600360008467ffffffffffffffff1667ffffffffffffffff16815260200190815260200160002060000160006101000a81548173ffffffffffffffffffffffffffffffffffffffff021916908373ffffffffffffffffffffffffffffffffffffffff1602179055506000600360008467ffffffffffffffff1667ffffffffffffffff16815260200190815260200160002060010160006101000a81548173ffffffffffffffffffffffffffffffffffffffff021916908373ffffffffffffffffffffffffffffffffffffffff1602179055508167ffffffffffffffff167f6f1dc65165ffffedfd8e507b4a0f1fcfdada045ed11f6c26ba27cedfe87802f08233604051612441929190617274565b60405180910390a25050565b60008060009054906101000a900473ffffffffffffffffffffffffffffffffffffffff16905090565b816000600360008367ffffffffffffffff1667ffffffffffffffff16815260200190815260200160002060000160009054906101000a900473ffffffffffffffffffffffffffffffffffffffff169050600073ffffffffffffffffffffffffffffffffffffffff168173ffffffffffffffffffffffffffffffffffffffff160361252c576040517f1f6a65b600000000000000000000000000000000000000000000000000000000815260040160405180910390fd5b8073ffffffffffffffffffffffffffffffffffffffff163373ffffffffffffffffffffffffffffffffffffffff161461259c57806040517fd8a3fb520000000000000000000000000000000000000000000000000000000081526004016125939190616cdf565b60405180910390fd5b600b60000160069054906101000a900460ff16156125e6576040517fed3ba6a600000000000000000000000000000000000000000000000000000000815260040160405180910390fd5b6000600260008573ffffffffffffffffffffffffffffffffffffffff1673ffffffffffffffffffffffffffffffffffffffff16815260200190815260200160002060008667ffffffffffffffff1667ffffffffffffffff16815260200190815260200160002060009054906101000a900467ffffffffffffffff1667ffffffffffffffff16036126af5783836040517ff0019fe60000000000000000000000000000000000000000000000000000000081526004016126a69291906176be565b60405180910390fd5b6000600360008667ffffffffffffffff1667ffffffffffffffff16815260200190815260200160002060020180548060200260200160405190810160405280929190818152602001828054801561275b57602002820191906000526020600020905b8160009054906101000a900473ffffffffffffffffffffffffffffffffffffffff1673ffffffffffffffffffffffffffffffffffffffff1681526020019060010190808311612711575b5050505050905060006001825161277291906172fb565b905060005b82518110156128f9578573ffffffffffffffffffffffffffffffffffffffff168382815181106127aa576127a961729d565b5b602002602001015173ffffffffffffffffffffffffffffffffffffffff16036128e65760008383815181106127e2576127e161729d565b5b6020026020010151905080600360008a67ffffffffffffffff1667ffffffffffffffff16815260200190815260200160002060020183815481106128295761282861729d565b5b9060005260206000200160006101000a81548173ffffffffffffffffffffffffffffffffffffffff021916908373ffffffffffffffffffffffffffffffffffffffff160217905550600360008967ffffffffffffffff1667ffffffffffffffff1681526020019081526020016000206002018054806128ab576128aa61732f565b5b6001900381819060005260206000200160006101000a81549073ffffffffffffffffffffffffffffffffffffffff02191690559055506128f9565b80806128f19061735e565b915050612777565b50600260008673ffffffffffffffffffffffffffffffffffffffff1673ffffffffffffffffffffffffffffffffffffffff16815260200190815260200160002060008767ffffffffffffffff1667ffffffffffffffff16815260200190815260200160002060006101000a81549067ffffffffffffffff02191690558567ffffffffffffffff167f182bff9831466789164ca77075fffd84916d35a8180ba73c27e45634549b445b866040516129af9190616cdf565b60405180910390a2505050505050565b6000600b60000160069054906101000a900460ff1615612a0b576040517fed3ba6a600000000000000000000000000000000000000000000000000000000815260040160405180910390fd5b6005600081819054906101000a900467ffffffffffffffff1680929190612a319061795f565b91906101000a81548167ffffffffffffffff021916908367ffffffffffffffff160217905550506000600560009054906101000a900467ffffffffffffffff16905060008067ffffffffffffffff811115612a8f57612a8e6167e6565b5b604051908082528060200260200182016040528015612abd5781602001602082028036833780820191505090505b509050604051806040016040528060006bffffffffffffffffffffffff168152602001600067ffffffffffffffff16815250600460008467ffffffffffffffff1667ffffffffffffffff16815260200190815260200160002060008201518160000160006101000a8154816bffffffffffffffffffffffff02191690836bffffffffffffffffffffffff160217905550602082015181600001600c6101000a81548167ffffffffffffffff021916908367ffffffffffffffff16021790555090505060405180606001604052803373ffffffffffffffffffffffffffffffffffffffff168152602001600073ffffffffffffffffffffffffffffffffffffffff16815260200182815250600360008467ffffffffffffffff1667ffffffffffffffff16815260200190815260200160002060008201518160000160006101000a81548173ffffffffffffffffffffffffffffffffffffffff021916908373ffffffffffffffffffffffffffffffffffffffff16021790555060208201518160010160006101000a81548173ffffffffffffffffffffffffffffffffffffffff021916908373ffffffffffffffffffffffffffffffffffffffff1602179055506040820151816002019080519060200190612c98929190616186565b509050508167ffffffffffffffff167f464722b4166576d3dcbba877b999bc35cf911f4eaf434b7eba68fa113951d0bf33604051612cd69190616cdf565b60405180910390a2819250505090565b60008060006060600073ffffffffffffffffffffffffffffffffffffffff16600360008767ffffffffffffffff1667ffffffffffffffff16815260200190815260200160002060000160009054906101000a900473ffffffffffffffffffffffffffffffffffffffff1673ffffffffffffffffffffffffffffffffffffffff1603612d9d576040517f1f6a65b600000000000000000000000000000000000000000000000000000000815260040160405180910390fd5b600460008667ffffffffffffffff1667ffffffffffffffff16815260200190815260200160002060000160009054906101000a90046bffffffffffffffffffffffff16600460008767ffffffffffffffff1667ffffffffffffffff168152602001908152602001600020600001600c9054906101000a900467ffffffffffffffff16600360008867ffffffffffffffff1667ffffffffffffffff16815260200190815260200160002060000160009054906101000a900473ffffffffffffffffffffffffffffffffffffffff16600360008967ffffffffffffffff1667ffffffffffffffff16815260200190815260200160002060020180805480602002602001604051908101604052809291908181526020018280548015612f1557602002820191906000526020600020905b8160009054906101000a900473ffffffffffffffffffffffffffffffffffffffff1673ffffffffffffffffffffffffffffffffffffffff1681526020019060010190808311612ecb575b5050505050905093509350935093509193509193565b600b60000160069054906101000a900460ff1615612f75576040517fed3ba6a600000000000000000000000000000000000000000000000000000000815260040160405180910390fd5b7f000000000000000000000000000000000000000000000000000000000000000073ffffffffffffffffffffffffffffffffffffffff163373ffffffffffffffffffffffffffffffffffffffff1614612ffa576040517f44b0e3c300000000000000000000000000000000000000000000000000000000815260040160405180910390fd5b60208282905014613037576040517f8129bbcd00000000000000000000000000000000000000000000000000000000815260040160405180910390fd5b60008282810190613048919061644a565b9050600073ffffffffffffffffffffffffffffffffffffffff16600360008367ffffffffffffffff1667ffffffffffffffff16815260200190815260200160002060000160009054906101000a900473ffffffffffffffffffffffffffffffffffffffff1673ffffffffffffffffffffffffffffffffffffffff16036130fa576040517f1f6a65b600000000000000000000000000000000000000000000000000000000815260040160405180910390fd5b6000600460008367ffffffffffffffff1667ffffffffffffffff16815260200190815260200160002060000160009054906101000a90046bffffffffffffffffffffffff166bffffffffffffffffffffffff16905084600460008467ffffffffffffffff1667ffffffffffffffff16815260200190815260200160002060000160008282829054906101000a90046bffffffffffffffffffffffff166131a0919061798f565b92506101000a8154816bffffffffffffffffffffffff02191690836bffffffffffffffffffffffff16021790555084600560088282829054906101000a90046bffffffffffffffffffffffff166131f7919061798f565b92506101000a8154816bffffffffffffffffffffffff02191690836bffffffffffffffffffffffff1602179055508167ffffffffffffffff167fd39ec07f4e209f627a4c427971473820dc129761ba28de8906bd56f57101d4f882878461325e91906179cf565b60405161326c929190617a03565b60405180910390a2505050505050565b7f000000000000000000000000000000000000000000000000000000000000000081565b6000600b60000160069054906101000a900460ff16156132ec576040517fed3ba6a600000000000000000000000000000000000000000000000000000000815260040160405180910390fd5b60005a90506000806000613300878761484f565b9250925092506000866060015163ffffffff1667ffffffffffffffff81111561332c5761332b6167e6565b5b60405190808252806020026020018201604052801561335a5781602001602082028036833780820191505090505b50905060005b876060015163ffffffff168110156133d0578281604051602001613385929190617a03565b6040516020818303038152906040528051906020012060001c8282815181106133b1576133b061729d565b5b60200260200101818152505080806133c89061735e565b915050613360565b506009600084815260200190815260200160002060009055600080631fe543e360e01b8584604051602401613406929190617aea565b604051602081830303815290604052907bffffffffffffffffffffffffffffffffffffffffffffffffffffffff19166020820180517bffffffffffffffffffffffffffffffffffffffffffffffffffffffff838183161783525050505090506001600b60000160066101000a81548160ff021916908315150217905550600061349e8a6040015163ffffffff168b6080015184614b64565b90506000600b60000160066101000a81548160ff0219169083151502179055506000600460008c6020015167ffffffffffffffff1667ffffffffffffffff168152602001908152602001600020600001600c9054906101000a900467ffffffffffffffff1690506001600460008d6020015167ffffffffffffffff1667ffffffffffffffff168152602001908152602001600020600001600c8282829054906101000a900467ffffffffffffffff166135579190617710565b92506101000a81548167ffffffffffffffff021916908367ffffffffffffffff16021790555060006135ae8a600b600001600b9054906101000a900463ffffffff1663ffffffff166135a88561387f565b3a614bb1565b9050806bffffffffffffffffffffffff16600460008e6020015167ffffffffffffffff1667ffffffffffffffff16815260200190815260200160002060000160009054906101000a90046bffffffffffffffffffffffff166bffffffffffffffffffffffff16101561364c576040517ff4d678b800000000000000000000000000000000000000000000000000000000815260040160405180910390fd5b80600460008e6020015167ffffffffffffffff1667ffffffffffffffff16815260200190815260200160002060000160008282829054906101000a90046bffffffffffffffffffffffff166136a19190617800565b92506101000a8154816bffffffffffffffffffffffff02191690836bffffffffffffffffffffffff1602179055508060086000600660008d815260200190815260200160002060009054906101000a900473ffffffffffffffffffffffffffffffffffffffff1673ffffffffffffffffffffffffffffffffffffffff1673ffffffffffffffffffffffffffffffffffffffff16815260200190815260200160002060008282829054906101000a90046bffffffffffffffffffffffff16613768919061798f565b92506101000a8154816bffffffffffffffffffffffff02191690836bffffffffffffffffffffffff160217905550877f7dffc5ae5ee4e2e4df1651cf6ad329a73cebdb728f37ea0187b9b17e036756e48883866040516137ca93929190617b1a565b60405180910390a2809a505050505050505050505092915050565b600080600080600b60000160009054906101000a900461ffff16600b60000160029054906101000a900463ffffffff16600b60000160079054906101000a900463ffffffff16600b600001600b9054906101000a900463ffffffff16935093509350935090919293565b6000816040516020016138629190617bd5565b604051602081830303815290604052805190602001209050919050565b600080600c604051806101200160405290816000820160009054906101000a900463ffffffff1663ffffffff1663ffffffff1681526020016000820160049054906101000a900463ffffffff1663ffffffff1663ffffffff1681526020016000820160089054906101000a900463ffffffff1663ffffffff1663ffffffff16815260200160008201600c9054906101000a900463ffffffff1663ffffffff1663ffffffff1681526020016000820160109054906101000a900463ffffffff1663ffffffff1663ffffffff1681526020016000820160149054906101000a900462ffffff1662ffffff1662ffffff1681526020016000820160179054906101000a900462ffffff1662ffffff1662ffffff16815260200160008201601a9054906101000a900462ffffff1662ffffff1662ffffff16815260200160008201601d9054906101000a900462ffffff1662ffffff1662ffffff168152505090508267ffffffffffffffff16600011158015613a0a57508060a0015162ffffff168367ffffffffffffffff1611155b15613a1c578060000151915050613afb565b8267ffffffffffffffff168160a0015162ffffff16108015613a5157508060c0015162ffffff168367ffffffffffffffff1611155b15613a63578060200151915050613afb565b8267ffffffffffffffff168160c0015162ffffff16108015613a9857508060e0015162ffffff168367ffffffffffffffff1611155b15613aaa578060400151915050613afb565b8267ffffffffffffffff168160e0015162ffffff16108015613ae0575080610100015162ffffff168367ffffffffffffffff1611155b15613af2578060600151915050613afb565b80608001519150505b919050565b816000600360008367ffffffffffffffff1667ffffffffffffffff16815260200190815260200160002060000160009054906101000a900473ffffffffffffffffffffffffffffffffffffffff169050600073ffffffffffffffffffffffffffffffffffffffff168173ffffffffffffffffffffffffffffffffffffffff1603613bb6576040517f1f6a65b600000000000000000000000000000000000000000000000000000000815260040160405180910390fd5b8073ffffffffffffffffffffffffffffffffffffffff163373ffffffffffffffffffffffffffffffffffffffff1614613c2657806040517fd8a3fb52000000000000000000000000000000000000000000000000000000008152600401613c1d9190616cdf565b60405180910390fd5b600b60000160069054906101000a900460ff1615613c70576040517fed3ba6a600000000000000000000000000000000000000000000000000000000815260040160405180910390fd5b613c7984613ed1565b15613cb0576040517fb42f66e800000000000000000000000000000000000000000000000000000000815260040160405180910390fd5b613cba8484614247565b50505050565b613cc86141b7565b60007f000000000000000000000000000000000000000000000000000000000000000073ffffffffffffffffffffffffffffffffffffffff166370a08231306040518263ffffffff1660e01b8152600401613d239190616cdf565b602060405180830381865afa158015613d40573d6000803e3d6000fd5b505050506040513d601f19601f82011682018060405250810190613d649190617c05565b90506000600560089054906101000a90046bffffffffffffffffffffffff166bffffffffffffffffffffffff16905081811115613dda5780826040517fa99da302000000000000000000000000000000000000000000000000000000008152600401613dd1929190617a03565b60405180910390fd5b81811015613ecc5760008183613df091906172fb565b90507f000000000000000000000000000000000000000000000000000000000000000073ffffffffffffffffffffffffffffffffffffffff1663a9059cbb85836040518363ffffffff1660e01b8152600401613e4d929190617c32565b6020604051808303816000875af1158015613e6c573d6000803e3d6000fd5b505050506040513d601f19601f82011682018060405250810190613e9091906178c6565b507f59bfc682b673f8cbf945f1e454df9334834abf7dfe7f92237ca29ecb9b4366008482604051613ec2929190617c32565b60405180910390a1505b505050565b600080600360008467ffffffffffffffff1667ffffffffffffffff1681526020019081526020016000206040518060600160405290816000820160009054906101000a900473ffffffffffffffffffffffffffffffffffffffff1673ffffffffffffffffffffffffffffffffffffffff1673ffffffffffffffffffffffffffffffffffffffff1681526020016001820160009054906101000a900473ffffffffffffffffffffffffffffffffffffffff1673ffffffffffffffffffffffffffffffffffffffff1673ffffffffffffffffffffffffffffffffffffffff1681526020016002820180548060200260200160405190810160405280929190818152602001828054801561403757602002820191906000526020600020905b8160009054906101000a900473ffffffffffffffffffffffffffffffffffffffff1673ffffffffffffffffffffffffffffffffffffffff1681526020019060010190808311613fed575b505050505081525050905060005b8160400151518110156141975760005b6007805490508110156141835760006141426007838154811061407b5761407a61729d565b5b90600052602060002001548560400151858151811061409d5761409c61729d565b5b60200260200101518860026000896040015189815181106140c1576140c061729d565b5b602002602001015173ffffffffffffffffffffffffffffffffffffffff1673ffffffffffffffffffffffffffffffffffffffff16815260200190815260200160002060008b67ffffffffffffffff1667ffffffffffffffff16815260200190815260200160002060009054906101000a900467ffffffffffffffff166147dd565b5090506000801b60096000838152602001908152602001600020541461416f57600194505050505061419e565b50808061417b9061735e565b915050614055565b50808061418f9061735e565b915050614045565b5060009150505b919050565b6141ab6141b7565b6141b481614ccc565b50565b60008054906101000a900473ffffffffffffffffffffffffffffffffffffffff1673ffffffffffffffffffffffffffffffffffffffff163373ffffffffffffffffffffffffffffffffffffffff1614614245576040517f08c379a000000000000000000000000000000000000000000000000000000000815260040161423c90617ca7565b60405180910390fd5b565b600b60000160069054906101000a900460ff1615614291576040517fed3ba6a600000000000000000000000000000000000000000000000000000000815260040160405180910390fd5b6000600360008467ffffffffffffffff1667ffffffffffffffff1681526020019081526020016000206040518060600160405290816000820160009054906101000a900473ffffffffffffffffffffffffffffffffffffffff1673ffffffffffffffffffffffffffffffffffffffff1673ffffffffffffffffffffffffffffffffffffffff1681526020016001820160009054906101000a900473ffffffffffffffffffffffffffffffffffffffff1673ffffffffffffffffffffffffffffffffffffffff1673ffffffffffffffffffffffffffffffffffffffff168152602001600282018054806020026020016040519081016040528092919081815260200182805480156143f657602002820191906000526020600020905b8160009054906101000a900473ffffffffffffffffffffffffffffffffffffffff1673ffffffffffffffffffffffffffffffffffffffff16815260200190600101908083116143ac575b50505050508152505090506000600460008567ffffffffffffffff1667ffffffffffffffff1681526020019081526020016000206040518060400160405290816000820160009054906101000a90046bffffffffffffffffffffffff166bffffffffffffffffffffffff166bffffffffffffffffffffffff16815260200160008201600c9054906101000a900467ffffffffffffffff1667ffffffffffffffff1667ffffffffffffffff1681525050905060008160000151905060005b83604001515181101561456c5760026000856040015183815181106144db576144da61729d565b5b602002602001015173ffffffffffffffffffffffffffffffffffffffff1673ffffffffffffffffffffffffffffffffffffffff16815260200190815260200160002060008767ffffffffffffffff1667ffffffffffffffff16815260200190815260200160002060006101000a81549067ffffffffffffffff021916905580806145649061735e565b9150506144b3565b50600360008667ffffffffffffffff1667ffffffffffffffff168152602001908152602001600020600080820160006101000a81549073ffffffffffffffffffffffffffffffffffffffff02191690556001820160006101000a81549073ffffffffffffffffffffffffffffffffffffffff02191690556002820160006145f39190616210565b5050600460008667ffffffffffffffff1667ffffffffffffffff168152602001908152602001600020600080820160006101000a8154906bffffffffffffffffffffffff021916905560008201600c6101000a81549067ffffffffffffffff0219169055505080600560088282829054906101000a90046bffffffffffffffffffffffff166146829190617800565b92506101000a8154816bffffffffffffffffffffffff02191690836bffffffffffffffffffffffff1602179055507f000000000000000000000000000000000000000000000000000000000000000073ffffffffffffffffffffffffffffffffffffffff1663a9059cbb85836bffffffffffffffffffffffff166040518363ffffffff1660e01b8152600401614719929190617c32565b6020604051808303816000875af1158015614738573d6000803e3d6000fd5b505050506040513d601f19601f8201168201806040525081019061475c91906178c6565b614792576040517ff4d678b800000000000000000000000000000000000000000000000000000000815260040160405180910390fd5b8467ffffffffffffffff167fe8ed5b475a5b5987aa9165e8731bb78043f39eee32ec5a1169a89e27fcd4981585836040516147ce929190617871565b60405180910390a25050505050565b6000806000868686866040516020016147f99493929190617cc7565b6040516020818303038152906040528051906020012060001c90508681604051602001614827929190617d0c565b6040516020818303038152906040528051906020012060001c81925092505094509492505050565b6000806000614861856000015161384f565b925060006006600085815260200190815260200160002060009054906101000a900473ffffffffffffffffffffffffffffffffffffffff169050600073ffffffffffffffffffffffffffffffffffffffff168173ffffffffffffffffffffffffffffffffffffffff160361490c57836040517f77f5b84c0000000000000000000000000000000000000000000000000000000081526004016149039190616c75565b60405180910390fd5b838660800151604051602001614923929190617d0c565b6040516020818303038152906040528051906020012060001c92506000600960008581526020019081526020016000205490506000801b8103614992576040517f3688124a00000000000000000000000000000000000000000000000000000000815260040160405180910390fd5b8386600001518760200151886040015189606001518a608001516040516020016149c196959493929190617d35565b604051602081830303815290604052805190602001208114614a0f576040517fd529142c00000000000000000000000000000000000000000000000000000000815260040160405180910390fd5b6000866000015167ffffffffffffffff164090506000801b8103614b19577f000000000000000000000000000000000000000000000000000000000000000073ffffffffffffffffffffffffffffffffffffffff1663e9413d3888600001516040518263ffffffff1660e01b8152600401614a8a9190617dc7565b602060405180830381865afa158015614aa7573d6000803e3d6000fd5b505050506040513d601f19601f82011682018060405250810190614acb9190617df7565b90506000801b8103614b185786600001516040517f175dadad000000000000000000000000000000000000000000000000000000008152600401614b0f9190617dc7565b60405180910390fd5b5b6000886080015182604051602001614b32929190617e66565b6040516020818303038152906040528051906020012060001c9050614b578982614df8565b9450505050509250925092565b60005a611388811015614b7657600080fd5b611388810390508460408204820311614b8e57600080fd5b833b614b9957600080fd5b6000808451602086016000888af19150509392505050565b600080614bbc614e65565b905060008113614c0357806040517f43d4cf66000000000000000000000000000000000000000000000000000000008152600401614bfa9190616727565b60405180910390fd5b6000815a8888614c1391906179cf565b614c1d91906172fb565b85670de0b6b3a7640000614c319190617e92565b614c3b9190617e92565b614c459190617f03565b905060008563ffffffff1664e8d4a51000614c609190617e92565b9050806b033b2e3c9fd0803ce8000000614c7a91906172fb565b821115614cb3576040517fe80fa38100000000000000000000000000000000000000000000000000000000815260040160405180910390fd5b8082614cbf91906179cf565b9350505050949350505050565b3373ffffffffffffffffffffffffffffffffffffffff168173ffffffffffffffffffffffffffffffffffffffff1603614d3a576040517f08c379a0000000000000000000000000000000000000000000000000000000008152600401614d3190617f80565b60405180910390fd5b80600160006101000a81548173ffffffffffffffffffffffffffffffffffffffff021916908373ffffffffffffffffffffffffffffffffffffffff1602179055508073ffffffffffffffffffffffffffffffffffffffff1660008054906101000a900473ffffffffffffffffffffffffffffffffffffffff1673ffffffffffffffffffffffffffffffffffffffff167fed8889f560326eb138920d842192f0eb3dd22b4f139c87a2c57538e05bae127860405160405180910390a350565b6000614e2c8360000151846020015185604001518660600151868860a001518960c001518a60e001518b6101000151614f62565b60038360200151604051602001614e44929190617fa0565b6040516020818303038152906040528051906020012060001c905092915050565b600080600b60000160079054906101000a900463ffffffff1690506000808263ffffffff161190506000807f000000000000000000000000000000000000000000000000000000000000000073ffffffffffffffffffffffffffffffffffffffff1663feaf968c6040518163ffffffff1660e01b815260040160a060405180830381865afa158015614efb573d6000803e3d6000fd5b505050506040513d601f19601f82011682018060405250810190614f1f9190618020565b9091929350909150508093508192505050828015614f4d57508142614f4491906172fb565b8463ffffffff16105b15614f5857600a5490505b8094505050505090565b614f6b8961514f565b614faa576040517f08c379a0000000000000000000000000000000000000000000000000000000008152600401614fa1906180e7565b60405180910390fd5b614fb38861514f565b614ff2576040517f08c379a0000000000000000000000000000000000000000000000000000000008152600401614fe990618153565b60405180910390fd5b614ffb8361514f565b61503a576040517f08c379a0000000000000000000000000000000000000000000000000000000008152600401615031906181bf565b60405180910390fd5b6150438261514f565b615082576040517f08c379a00000000000000000000000000000000000000000000000000000000081526004016150799061822b565b60405180910390fd5b61508e878a88876152d0565b6150cd576040517f08c379a00000000000000000000000000000000000000000000000000000000081526004016150c490618297565b60405180910390fd5b60006150d98a876154ed565b905060006150ec898b878b86898961557f565b905060006150fd838d8d8a86615705565b9050808a14615141576040517f08c379a000000000000000000000000000000000000000000000000000000000815260040161513890618303565b60405180910390fd5b505050505050505050505050565b60007ffffffffffffffffffffffffffffffffffffffffffffffffffffffffefffffc2f826000600281106151865761518561729d565b5b6020020151106151cb576040517f08c379a00000000000000000000000000000000000000000000000000000000081526004016151c29061836f565b60405180910390fd5b7ffffffffffffffffffffffffffffffffffffffffffffffffffffffffefffffc2f82600160028110615200576151ff61729d565b5b602002015110615245576040517f08c379a000000000000000000000000000000000000000000000000000000000815260040161523c906183db565b60405180910390fd5b7ffffffffffffffffffffffffffffffffffffffffffffffffffffffffefffffc2f8061527457615273617ed4565b5b826001600281106152885761528761729d565b5b6020020151836001600281106152a1576152a061729d565b5b6020020151096152c8836000600281106152be576152bd61729d565b5b6020020151615747565b149050919050565b60008073ffffffffffffffffffffffffffffffffffffffff168273ffffffffffffffffffffffffffffffffffffffff1603615340576040517f08c379a000000000000000000000000000000000000000000000000000000000815260040161533790618447565b60405180910390fd5b6000806002866001600281106153595761535861729d565b5b60200201518161536c5761536b617ed4565b5b061461537957601c61537c565b601b5b905060007ffffffffffffffffffffffffffffffffebaaedce6af48a03bbfd25e8cd0364141806153af576153ae617ed4565b5b85876000600281106153c4576153c361729d565b5b6020020151097ffffffffffffffffffffffffffffffffebaaedce6af48a03bbfd25e8cd03641410360001b905060007ffffffffffffffffffffffffffffffffebaaedce6af48a03bbfd25e8cd03641418061542257615421617ed4565b5b876000600281106154365761543561729d565b5b6020020151890960001b90506000600183858a60006002811061545c5761545b61729d565b5b602002015160001b85604051600081526020016040526040516154829493929190618483565b6020604051602081039080840390855afa1580156154a4573d6000803e3d6000fd5b5050506020604051035190508573ffffffffffffffffffffffffffffffffffffffff168173ffffffffffffffffffffffffffffffffffffffff1614945050505050949350505050565b6154f5616231565b6155226001848460405160200161550e93929190618551565b6040516020818303038152906040526157ea565b90505b61552e8161514f565b61557957615572816000600281106155495761554861729d565b5b602002015160405160200161555e919061858e565b6040516020818303038152906040526157ea565b9050615525565b92915050565b615587616231565b7ffffffffffffffffffffffffffffffffffffffffffffffffffffffffefffffc2f836000600281106155bc576155bb61729d565b5b6020020151816155cf576155ce617ed4565b5b067ffffffffffffffffffffffffffffffffffffffffffffffffffffffffefffffc2f876000600281106156055761560461729d565b5b60200201518161561857615617617ed4565b5b0603615659576040517f08c379a0000000000000000000000000000000000000000000000000000000008152600401615650906185f5565b60405180910390fd5b6156648789886158ed565b6156a3576040517f08c379a000000000000000000000000000000000000000000000000000000000815260040161569a90618661565b60405180910390fd5b6156ae8486856158ed565b6156ed576040517f08c379a00000000000000000000000000000000000000000000000000000000081526004016156e4906186cd565b60405180910390fd5b6156f8868484615a84565b9050979650505050505050565b60006002868686858760405160200161572396959493929190618735565b6040516020818303038152906040528051906020012060001c905095945050505050565b6000807ffffffffffffffffffffffffffffffffffffffffffffffffffffffffefffffc2f8061577957615778617ed4565b5b7ffffffffffffffffffffffffffffffffffffffffffffffffffffffffefffffc2f806157a8576157a7617ed4565b5b848509840990507ffffffffffffffffffffffffffffffffffffffffffffffffffffffffefffffc2f806157de576157dd617ed4565b5b60078208915050919050565b6157f2616231565b6157fb82615c00565b8160006002811061580f5761580e61729d565b5b60200201818152505061584161583c826000600281106158325761583161729d565b5b6020020151615747565b615c6d565b816001600281106158555761585461729d565b5b60200201818152505060016002826001600281106158765761587561729d565b5b60200201518161588957615888617ed4565b5b06036158e857806001600281106158a3576158a261729d565b5b60200201517ffffffffffffffffffffffffffffffffffffffffffffffffffffffffefffffc2f03816001600281106158de576158dd61729d565b5b6020020181815250505b919050565b6000808303615931576040517f08c379a0000000000000000000000000000000000000000000000000000000008152600401615928906187f1565b60405180910390fd5b6000846000600281106159475761594661729d565b5b602002015190506000806002876001600281106159675761596661729d565b5b60200201516159769190618811565b1461598257601c615985565b601b5b905060007ffffffffffffffffffffffffffffffffebaaedce6af48a03bbfd25e8cd0364141806159b8576159b7617ed4565b5b83870960001b9050600060016000801b848660001b85604051600081526020016040526040516159eb9493929190618483565b6020604051602081039080840390855afa158015615a0d573d6000803e3d6000fd5b505050602060405103519050600086604051602001615a2c9190618842565b6040516020818303038152906040528051906020012060001c90508073ffffffffffffffffffffffffffffffffffffffff168273ffffffffffffffffffffffffffffffffffffffff1614955050505050509392505050565b615a8c616231565b6000806000615afd87600060028110615aa857615aa761729d565b5b602002015188600160028110615ac157615ac061729d565b5b602002015188600060028110615ada57615ad961729d565b5b602002015189600160028110615af357615af261729d565b5b6020020151615cb0565b80935081945082955050505060017ffffffffffffffffffffffffffffffffffffffffffffffffffffffffefffffc2f80615b3a57615b39617ed4565b5b86830914615b7d576040517f08c379a0000000000000000000000000000000000000000000000000000000008152600401615b74906188a9565b60405180910390fd5b60405180604001604052807ffffffffffffffffffffffffffffffffffffffffffffffffffffffffefffffc2f80615bb757615bb6617ed4565b5b87860981526020017ffffffffffffffffffffffffffffffffffffffffffffffffffffffffefffffc2f80615bee57615bed617ed4565b5b87850981525093505050509392505050565b6000818051906020012060001c90505b7ffffffffffffffffffffffffffffffffffffffffffffffffffffffffefffffc2f8110615c685780604051602001615c48919061858e565b6040516020818303038152906040528051906020012060001c9050615c10565b919050565b6000615ca982600260017ffffffffffffffffffffffffffffffffffffffffffffffffffffffffefffffc2f615ca291906179cf565b901c615ea7565b9050919050565b60008060008060006001809150915060007ffffffffffffffffffffffffffffffffffffffffffffffffffffffffefffffc2f80615cf057615cef617ed4565b5b897ffffffffffffffffffffffffffffffffffffffffffffffffffffffffefffffc2f038808905060007ffffffffffffffffffffffffffffffffffffffffffffffffffffffffefffffc2f80615d4857615d47617ed4565b5b8b7ffffffffffffffffffffffffffffffffffffffffffffffffffffffffefffffc2f038a0890506000615d7d83838585616006565b8092508199505050615d9188828e8861607e565b8092508199505050615da588828c8761607e565b80925081995050506000615dbb8d878b8561607e565b8092508199505050615dcf88828686616006565b8092508199505050615de388828e8961607e565b8092508199505050808214615e93577ffffffffffffffffffffffffffffffffffffffffffffffffffffffffefffffc2f80615e2157615e20617ed4565b5b818a0998507ffffffffffffffffffffffffffffffffffffffffffffffffffffffffefffffc2f80615e5557615e54617ed4565b5b82890997507ffffffffffffffffffffffffffffffffffffffffffffffffffffffffefffffc2f80615e8957615e88617ed4565b5b8183099650615e97565b8196505b5050505050509450945094915050565b600080615eb2616253565b602081600060068110615ec857615ec761729d565b5b602002018181525050602081600160068110615ee757615ee661729d565b5b602002018181525050602081600260068110615f0657615f0561729d565b5b6020020181815250508481600360068110615f2457615f2361729d565b5b6020020181815250508381600460068110615f4257615f4161729d565b5b6020020181815250507ffffffffffffffffffffffffffffffffffffffffffffffffffffffffefffffc2f81600560068110615f8057615f7f61729d565b5b602002018181525050615f91616275565b60208160c0846005600019fa925060008303615fe2576040517f08c379a0000000000000000000000000000000000000000000000000000000008152600401615fd990618915565b60405180910390fd5b80600060018110615ff657615ff561729d565b5b6020020151935050505092915050565b6000807ffffffffffffffffffffffffffffffffffffffffffffffffffffffffefffffc2f8061603857616037617ed4565b5b8487097ffffffffffffffffffffffffffffffffffffffffffffffffffffffffefffffc2f8061606a57616069617ed4565b5b848709809250819350505094509492505050565b60008060007ffffffffffffffffffffffffffffffffffffffffffffffffffffffffefffffc2f806160b2576160b1617ed4565b5b878509905060007ffffffffffffffffffffffffffffffffffffffffffffffffffffffffefffffc2f806160e8576160e7617ed4565b5b87877ffffffffffffffffffffffffffffffffffffffffffffffffffffffffefffffc2f030990507ffffffffffffffffffffffffffffffffffffffffffffffffffffffffefffffc2f8061613e5761613d617ed4565b5b8183087ffffffffffffffffffffffffffffffffffffffffffffffffffffffffefffffc2f806161705761616f617ed4565b5b8689098094508195505050505094509492505050565b8280548282559060005260206000209081019282156161ff579160200282015b828111156161fe5782518260006101000a81548173ffffffffffffffffffffffffffffffffffffffff021916908373ffffffffffffffffffffffffffffffffffffffff160217905550916020019190600101906161a6565b5b50905061620c9190616297565b5090565b508054600082559060005260206000209081019061622e9190616297565b50565b6040518060400160405280600290602082028036833780820191505090505090565b6040518060c00160405280600690602082028036833780820191505090505090565b6040518060200160405280600190602082028036833780820191505090505090565b5b808211156162b0576000816000905550600101616298565b5090565b600061ffff82169050919050565b6162cb816162b4565b82525050565b600063ffffffff82169050919050565b6162ea816162d1565b82525050565b600081519050919050565b600082825260208201905092915050565b6000819050602082019050919050565b6000819050919050565b61632f8161631c565b82525050565b60006163418383616326565b60208301905092915050565b6000602082019050919050565b6000616365826162f0565b61636f81856162fb565b935061637a8361630c565b8060005b838110156163ab5781516163928882616335565b975061639d8361634d565b92505060018101905061637e565b5085935050505092915050565b60006060820190506163cd60008301866162c2565b6163da60208301856162e1565b81810360408301526163ec818461635a565b9050949350505050565b6000604051905090565b600080fd5b600080fd5b600067ffffffffffffffff82169050919050565b6164278161640a565b811461643257600080fd5b50565b6000813590506164448161641e565b92915050565b6000602082840312156164605761645f616400565b5b600061646e84828501616435565b91505092915050565b600073ffffffffffffffffffffffffffffffffffffffff82169050919050565b60006164a282616477565b9050919050565b6164b281616497565b81146164bd57600080fd5b50565b6000813590506164cf816164a9565b92915050565b600080604083850312156164ec576164eb616400565b5b60006164fa85828601616435565b925050602061650b858286016164c0565b9150509250929050565b61651e8161640a565b82525050565b60006020820190506165396000830184616515565b92915050565b600080fd5b6000819050826020600202820111156165605761655f61653f565b5b92915050565b60006040828403121561657c5761657b616400565b5b600061658a84828501616544565b91505092915050565b6000819050919050565b6165a681616593565b82525050565b60006020820190506165c1600083018461659d565b92915050565b60006020820190506165dc60008301846162c2565b92915050565b600081519050919050565b600082825260208201905092915050565b60005b8381101561661c578082015181840152602081019050616601565b60008484015250505050565b6000601f19601f8301169050919050565b6000616644826165e2565b61664e81856165ed565b935061665e8185602086016165fe565b61666781616628565b840191505092915050565b6000602082019050818103600083015261668c8184616639565b905092915050565b6000819050919050565b60006166b96166b46166af84616477565b616694565b616477565b9050919050565b60006166cb8261669e565b9050919050565b60006166dd826166c0565b9050919050565b6166ed816166d2565b82525050565b600060208201905061670860008301846166e4565b92915050565b6000819050919050565b6167218161670e565b82525050565b600060208201905061673c6000830184616718565b92915050565b600060208201905061675760008301846162e1565b92915050565b616766816162b4565b811461677157600080fd5b50565b6000813590506167838161675d565b92915050565b616792816162d1565b811461679d57600080fd5b50565b6000813590506167af81616789565b92915050565b6167be8161670e565b81146167c957600080fd5b50565b6000813590506167db816167b5565b92915050565b600080fd5b7f4e487b7100000000000000000000000000000000000000000000000000000000600052604160045260246000fd5b61681e82616628565b810181811067ffffffffffffffff8211171561683d5761683c6167e6565b5b80604052505050565b60006168506163f6565b905061685c8282616815565b919050565b600062ffffff82169050919050565b61687981616861565b811461688457600080fd5b50565b60008135905061689681616870565b92915050565b600061012082840312156168b3576168b26167e1565b5b6168be610120616846565b905060006168ce848285016167a0565b60008301525060206168e2848285016167a0565b60208301525060406168f6848285016167a0565b604083015250606061690a848285016167a0565b606083015250608061691e848285016167a0565b60808301525060a061693284828501616887565b60a08301525060c061694684828501616887565b60c08301525060e061695a84828501616887565b60e08301525061010061696f84828501616887565b6101008301525092915050565b6000806000806000806101c0878903121561699a57616999616400565b5b60006169a889828a01616774565b96505060206169b989828a016167a0565b95505060406169ca89828a016167a0565b94505060606169db89828a016167a0565b93505060806169ec89828a016167cc565b92505060a06169fd89828a0161689c565b9150509295509295509295565b616a138161631c565b8114616a1e57600080fd5b50565b600081359050616a3081616a0a565b92915050565b600080600080600060a08688031215616a5257616a51616400565b5b6000616a6088828901616a21565b9550506020616a7188828901616435565b9450506040616a8288828901616774565b9350506060616a93888289016167a0565b9250506080616aa4888289016167a0565b9150509295509295909350565b616aba81616861565b82525050565b600061012082019050616ad6600083018c6162e1565b616ae3602083018b6162e1565b616af0604083018a6162e1565b616afd60608301896162e1565b616b0a60808301886162e1565b616b1760a0830187616ab1565b616b2460c0830186616ab1565b616b3160e0830185616ab1565b616b3f610100830184616ab1565b9a9950505050505050505050565b60006bffffffffffffffffffffffff82169050919050565b616b6e81616b4d565b8114616b7957600080fd5b50565b600081359050616b8b81616b65565b92915050565b60008060408385031215616ba857616ba7616400565b5b6000616bb6858286016164c0565b9250506020616bc785828601616b7c565b9150509250929050565b6000616bdc826166c0565b9050919050565b616bec81616bd1565b82525050565b6000602082019050616c076000830184616be3565b92915050565b616c1681616593565b8114616c2157600080fd5b50565b600081359050616c3381616c0d565b92915050565b600060208284031215616c4f57616c4e616400565b5b6000616c5d84828501616c24565b91505092915050565b616c6f8161631c565b82525050565b6000602082019050616c8a6000830184616c66565b92915050565b60008060608385031215616ca757616ca6616400565b5b6000616cb5858286016164c0565b9250506020616cc685828601616544565b9150509250929050565b616cd981616497565b82525050565b6000602082019050616cf46000830184616cd0565b92915050565b616d0381616b4d565b82525050565b600081519050919050565b600082825260208201905092915050565b6000819050602082019050919050565b616d3e81616497565b82525050565b6000616d508383616d35565b60208301905092915050565b6000602082019050919050565b6000616d7482616d09565b616d7e8185616d14565b9350616d8983616d25565b8060005b83811015616dba578151616da18882616d44565b9750616dac83616d5c565b925050600181019050616d8d565b5085935050505092915050565b6000608082019050616ddc6000830187616cfa565b616de96020830186616515565b616df66040830185616cd0565b8181036060830152616e088184616d69565b905095945050505050565b600080fd5b600080fd5b60008083601f840112616e3357616e32616e13565b5b8235905067ffffffffffffffff811115616e5057616e4f616e18565b5b602083019150836001820283011115616e6c57616e6b61653f565b5b9250929050565b60008060008060608587031215616e8d57616e8c616400565b5b6000616e9b878288016164c0565b9450506020616eac87828801616c24565b935050604085013567ffffffffffffffff811115616ecd57616ecc616405565b5b616ed987828801616e1d565b925092505092959194509250565b6000616ef2826166c0565b9050919050565b616f0281616ee7565b82525050565b6000602082019050616f1d6000830184616ef9565b92915050565b600067ffffffffffffffff821115616f3e57616f3d6167e6565b5b602082029050919050565b6000616f5c616f5784616f23565b616846565b90508060208402830185811115616f7657616f7561653f565b5b835b81811015616f9f5780616f8b8882616c24565b845260208401935050602081019050616f78565b5050509392505050565b600082601f830112616fbe57616fbd616e13565b5b6002616fcb848285616f49565b91505092915050565b60006101a08284031215616feb57616fea6167e1565b5b616ff6610120616846565b9050600061700684828501616fa9565b600083015250604061701a84828501616fa9565b602083015250608061702e84828501616c24565b60408301525060a061704284828501616c24565b60608301525060c061705684828501616c24565b60808301525060e061706a848285016164c0565b60a08301525061010061707f84828501616fa9565b60c08301525061014061709484828501616fa9565b60e0830152506101806170a984828501616c24565b6101008301525092915050565b600060a082840312156170cc576170cb6167e1565b5b6170d660a0616846565b905060006170e684828501616435565b60008301525060206170fa84828501616435565b602083015250604061710e848285016167a0565b6040830152506060617122848285016167a0565b6060830152506080617136848285016164c0565b60808301525092915050565b600080610240838503121561715a57617159616400565b5b600061716885828601616fd4565b9250506101a061717a858286016170b6565b9150509250929050565b60006020820190506171996000830184616cfa565b92915050565b60006080820190506171b460008301876162c2565b6171c160208301866162e1565b6171ce60408301856162e1565b6171db60608301846162e1565b95945050505050565b6000604082840312156171fa576171f9616400565b5b600061720884828501616fa9565b91505092915050565b60006020828403121561722757617226616400565b5b6000617235848285016164c0565b91505092915050565b60008115159050919050565b6172538161723e565b82525050565b600060208201905061726e600083018461724a565b92915050565b60006040820190506172896000830185616cd0565b6172966020830184616cd0565b9392505050565b7f4e487b7100000000000000000000000000000000000000000000000000000000600052603260045260246000fd5b7f4e487b7100000000000000000000000000000000000000000000000000000000600052601160045260246000fd5b600061730682616593565b915061731183616593565b9250828203905081811115617329576173286172cc565b5b92915050565b7f4e487b7100000000000000000000000000000000000000000000000000000000600052603160045260246000fd5b600061736982616593565b91507fffffffffffffffffffffffffffffffffffffffffffffffffffffffffffffffff820361739b5761739a6172cc565b5b600182019050919050565b60006060820190506173bb60008301866162c2565b6173c860208301856162c2565b6173d560408301846162c2565b949350505050565b60008160001c9050919050565b600063ffffffff82169050919050565b600061740d617408836173dd565b6173ea565b9050919050565b61741d816162d1565b82525050565b60008160201c9050919050565b600061744361743e83617423565b6173ea565b9050919050565b60008160401c9050919050565b600061746a6174658361744a565b6173ea565b9050919050565b60008160601c9050919050565b600061749161748c83617471565b6173ea565b9050919050565b60008160801c9050919050565b60006174b86174b383617498565b6173ea565b9050919050565b60008160a01c9050919050565b600062ffffff82169050919050565b60006174ee6174e9836174bf565b6174cc565b9050919050565b6174fe81616861565b82525050565b60008160b81c9050919050565b600061752461751f83617504565b6174cc565b9050919050565b60008160d01c9050919050565b600061754b6175468361752b565b6174cc565b9050919050565b60008160e81c9050919050565b600061757261756d83617552565b6174cc565b9050919050565b6101208201600080830154905061758f816173fa565b61759c6000860182617414565b506175a681617430565b6175b36020860182617414565b506175bd81617457565b6175ca6040860182617414565b506175d48161747e565b6175e16060860182617414565b506175eb816174a5565b6175f86080860182617414565b50617602816174db565b61760f60a08601826174f5565b5061761981617511565b61762660c08601826174f5565b5061763081617538565b61763d60e08601826174f5565b506176478161755f565b6176556101008601826174f5565b5050505050565b60006101c08201905061767260008301896162c2565b61767f60208301886162e1565b61768c60408301876162e1565b61769960608301866162e1565b6176a66080830185616718565b6176b360a0830184617579565b979650505050505050565b60006040820190506176d36000830185616515565b6176e06020830184616cd0565b9392505050565b60006040820190506176fc60008301856162e1565b61770960208301846162e1565b9392505050565b600061771b8261640a565b91506177268361640a565b9250828201905067ffffffffffffffff811115617746576177456172cc565b5b92915050565b600060c082019050617761600083018961659d565b61776e602083018861659d565b61777b6040830187616515565b61778860608301866162e1565b61779560808301856162e1565b6177a260a0830184616cd0565b979650505050505050565b600060a0820190506177c2600083018861659d565b6177cf602083018761659d565b6177dc60408301866162c2565b6177e960608301856162e1565b6177f660808301846162e1565b9695505050505050565b600061780b82616b4d565b915061781683616b4d565b925082820390506bffffffffffffffffffffffff81111561783a576178396172cc565b5b92915050565b600061785b61785661785184616b4d565b616694565b616593565b9050919050565b61786b81617840565b82525050565b60006040820190506178866000830185616cd0565b6178936020830184617862565b9392505050565b6178a38161723e565b81146178ae57600080fd5b50565b6000815190506178c08161789a565b92915050565b6000602082840312156178dc576178db616400565b5b60006178ea848285016178b1565b91505092915050565b7f4d7573742062652070726f706f736564206f776e657200000000000000000000600082015250565b60006179296016836165ed565b9150617934826178f3565b602082019050919050565b600060208201905081810360008301526179588161791c565b9050919050565b600061796a8261640a565b915067ffffffffffffffff8203617984576179836172cc565b5b600182019050919050565b600061799a82616b4d565b91506179a583616b4d565b925082820190506bffffffffffffffffffffffff8111156179c9576179c86172cc565b5b92915050565b60006179da82616593565b91506179e583616593565b92508282019050808211156179fd576179fc6172cc565b5b92915050565b6000604082019050617a18600083018561659d565b617a25602083018461659d565b9392505050565b600081519050919050565b600082825260208201905092915050565b6000819050602082019050919050565b617a6181616593565b82525050565b6000617a738383617a58565b60208301905092915050565b6000602082019050919050565b6000617a9782617a2c565b617aa18185617a37565b9350617aac83617a48565b8060005b83811015617add578151617ac48882617a67565b9750617acf83617a7f565b925050600181019050617ab0565b5085935050505092915050565b6000604082019050617aff600083018561659d565b8181036020830152617b118184617a8c565b90509392505050565b6000606082019050617b2f600083018661659d565b617b3c6020830185616cfa565b617b49604083018461724a565b949350505050565b600060029050919050565b600081905092915050565b6000819050919050565b6000602082019050919050565b617b8781617b51565b617b918184617b5c565b9250617b9c82617b67565b8060005b83811015617bcd578151617bb48782617a67565b9650617bbf83617b71565b925050600181019050617ba0565b505050505050565b6000604082019050617bea6000830184617b7e565b92915050565b600081519050617bff81616c0d565b92915050565b600060208284031215617c1b57617c1a616400565b5b6000617c2984828501617bf0565b91505092915050565b6000604082019050617c476000830185616cd0565b617c54602083018461659d565b9392505050565b7f4f6e6c792063616c6c61626c65206279206f776e657200000000000000000000600082015250565b6000617c916016836165ed565b9150617c9c82617c5b565b602082019050919050565b60006020820190508181036000830152617cc081617c84565b9050919050565b6000608082019050617cdc6000830187616c66565b617ce96020830186616cd0565b617cf66040830185616515565b617d036060830184616515565b95945050505050565b6000604082019050617d216000830185616c66565b617d2e602083018461659d565b9392505050565b600060c082019050617d4a600083018961659d565b617d576020830188616515565b617d646040830187616515565b617d7160608301866162e1565b617d7e60808301856162e1565b617d8b60a0830184616cd0565b979650505050505050565b6000617db1617dac617da78461640a565b616694565b616593565b9050919050565b617dc181617d96565b82525050565b6000602082019050617ddc6000830184617db8565b92915050565b600081519050617df181616a0a565b92915050565b600060208284031215617e0d57617e0c616400565b5b6000617e1b84828501617de2565b91505092915050565b6000819050919050565b617e3f617e3a82616593565b617e24565b82525050565b6000819050919050565b617e60617e5b8261631c565b617e45565b82525050565b6000617e728285617e2e565b602082019150617e828284617e4f565b6020820191508190509392505050565b6000617e9d82616593565b9150617ea883616593565b9250828202617eb681616593565b91508282048414831517617ecd57617ecc6172cc565b5b5092915050565b7f4e487b7100000000000000000000000000000000000000000000000000000000600052601260045260246000fd5b6000617f0e82616593565b9150617f1983616593565b925082617f2957617f28617ed4565b5b828204905092915050565b7f43616e6e6f74207472616e7366657220746f2073656c66000000000000000000600082015250565b6000617f6a6017836165ed565b9150617f7582617f34565b602082019050919050565b60006020820190508181036000830152617f9981617f5d565b9050919050565b6000606082019050617fb5600083018561659d565b617fc26020830184617b7e565b9392505050565b600069ffffffffffffffffffff82169050919050565b617fe881617fc9565b8114617ff357600080fd5b50565b60008151905061800581617fdf565b92915050565b60008151905061801a816167b5565b92915050565b600080600080600060a0868803121561803c5761803b616400565b5b600061804a88828901617ff6565b955050602061805b8882890161800b565b945050604061806c88828901617bf0565b935050606061807d88828901617bf0565b925050608061808e88828901617ff6565b9150509295509295909350565b7f7075626c6963206b6579206973206e6f74206f6e206375727665000000000000600082015250565b60006180d1601a836165ed565b91506180dc8261809b565b602082019050919050565b60006020820190508181036000830152618100816180c4565b9050919050565b7f67616d6d61206973206e6f74206f6e2063757276650000000000000000000000600082015250565b600061813d6015836165ed565b915061814882618107565b602082019050919050565b6000602082019050818103600083015261816c81618130565b9050919050565b7f6347616d6d615769746e657373206973206e6f74206f6e206375727665000000600082015250565b60006181a9601d836165ed565b91506181b482618173565b602082019050919050565b600060208201905081810360008301526181d88161819c565b9050919050565b7f73486173685769746e657373206973206e6f74206f6e20637572766500000000600082015250565b6000618215601c836165ed565b9150618220826181df565b602082019050919050565b6000602082019050818103600083015261824481618208565b9050919050565b7f6164647228632a706b2b732a6729213d5f755769746e65737300000000000000600082015250565b60006182816019836165ed565b915061828c8261824b565b602082019050919050565b600060208201905081810360008301526182b081618274565b9050919050565b7f696e76616c69642070726f6f6600000000000000000000000000000000000000600082015250565b60006182ed600d836165ed565b91506182f8826182b7565b602082019050919050565b6000602082019050818103600083015261831c816182e0565b9050919050565b7f696e76616c696420782d6f7264696e6174650000000000000000000000000000600082015250565b60006183596012836165ed565b915061836482618323565b602082019050919050565b600060208201905081810360008301526183888161834c565b9050919050565b7f696e76616c696420792d6f7264696e6174650000000000000000000000000000600082015250565b60006183c56012836165ed565b91506183d08261838f565b602082019050919050565b600060208201905081810360008301526183f4816183b8565b9050919050565b7f626164207769746e657373000000000000000000000000000000000000000000600082015250565b6000618431600b836165ed565b915061843c826183fb565b602082019050919050565b6000602082019050818103600083015261846081618424565b9050919050565b600060ff82169050919050565b61847d81618467565b82525050565b60006080820190506184986000830187616c66565b6184a56020830186618474565b6184b26040830185616c66565b6184bf6060830184616c66565b95945050505050565b600081905092915050565b6184dc81616593565b82525050565b60006184ee83836184d3565b60208301905092915050565b61850381617b51565b61850d81846184c8565b925061851882617b67565b8060005b8381101561854957815161853087826184e2565b965061853b83617b71565b92505060018101905061851c565b505050505050565b600061855d8286617e2e565b60208201915061856d82856184fa565b60408201915061857d8284617e2e565b602082019150819050949350505050565b600061859a8284617e2e565b60208201915081905092915050565b7f706f696e747320696e2073756d206d7573742062652064697374696e63740000600082015250565b60006185df601e836165ed565b91506185ea826185a9565b602082019050919050565b6000602082019050818103600083015261860e816185d2565b9050919050565b7f4669727374206d756c20636865636b206661696c656400000000000000000000600082015250565b600061864b6016836165ed565b915061865682618615565b602082019050919050565b6000602082019050818103600083015261867a8161863e565b9050919050565b7f5365636f6e64206d756c20636865636b206661696c6564000000000000000000600082015250565b60006186b76017836165ed565b91506186c282618681565b602082019050919050565b600060208201905081810360008301526186e6816186aa565b9050919050565b60008160601b9050919050565b6000618705826186ed565b9050919050565b6000618717826186fa565b9050919050565b61872f61872a82616497565b61870c565b82525050565b60006187418289617e2e565b60208201915061875182886184fa565b60408201915061876182876184fa565b60408201915061877182866184fa565b60408201915061878182856184fa565b604082019150618791828461871e565b601482019150819050979650505050505050565b7f7a65726f207363616c6172000000000000000000000000000000000000000000600082015250565b60006187db600b836165ed565b91506187e6826187a5565b602082019050919050565b6000602082019050818103600083015261880a816187ce565b9050919050565b600061881c82616593565b915061882783616593565b92508261883757618836617ed4565b5b828206905092915050565b600061884e82846184fa565b60408201915081905092915050565b7f696e765a206d75737420626520696e7665727365206f66207a00000000000000600082015250565b60006188936019836165ed565b915061889e8261885d565b602082019050919050565b600060208201905081810360008301526188c281618886565b9050919050565b7f6269674d6f64457870206661696c757265210000000000000000000000000000600082015250565b60006188ff6012836165ed565b915061890a826188c9565b602082019050919050565b6000602082019050818103600083015261892e816188f2565b905091905056fea2646970667358221220e214aa9994e5285470db77a0e54fd3feee4a3d0c1ecd44e5145a1c7f991da09664736f6c63430008110033","opcodes":"PUSH1 0xE0 PUSH1 0x40 MSTORE CALLVALUE DUP1 ISZERO PUSH3 0x11 JUMPI PUSH1 0x0 DUP1 REVERT JUMPDEST POP PUSH1 0x40 MLOAD PUSH3 0x8E91 CODESIZE SUB DUP1 PUSH3 0x8E91 DUP4 CODECOPY DUP2 DUP2 ADD PUSH1 0x40 MSTORE DUP2 ADD SWAP1 PUSH3 0x37 SWAP2 SWAP1 PUSH3 0x374 JUMP JUMPDEST CALLER DUP1 PUSH1 0x0 DUP1 PUSH20 0xFFFFFFFFFFFFFFFFFFFFFFFFFFFFFFFFFFFFFFFF AND DUP3 PUSH20 0xFFFFFFFFFFFFFFFFFFFFFFFFFFFFFFFFFFFFFFFF AND SUB PUSH3 0xAC JUMPI PUSH1 0x40 MLOAD PUSH32 0x8C379A000000000000000000000000000000000000000000000000000000000 DUP2 MSTORE PUSH1 0x4 ADD PUSH3 0xA3 SWAP1 PUSH3 0x431 JUMP JUMPDEST PUSH1 0x40 MLOAD DUP1 SWAP2 SUB SWAP1 REVERT JUMPDEST DUP2 PUSH1 0x0 DUP1 PUSH2 0x100 EXP DUP2 SLOAD DUP2 PUSH20 0xFFFFFFFFFFFFFFFFFFFFFFFFFFFFFFFFFFFFFFFF MUL NOT AND SWAP1 DUP4 PUSH20 0xFFFFFFFFFFFFFFFFFFFFFFFFFFFFFFFFFFFFFFFF AND MUL OR SWAP1 SSTORE POP PUSH1 0x0 PUSH20 0xFFFFFFFFFFFFFFFFFFFFFFFFFFFFFFFFFFFFFFFF AND DUP2 PUSH20 0xFFFFFFFFFFFFFFFFFFFFFFFFFFFFFFFFFFFFFFFF AND EQ PUSH3 0x133 JUMPI PUSH3 0x132 DUP2 PUSH3 0x1DB PUSH1 0x20 SHL PUSH1 0x20 SHR JUMP JUMPDEST JUMPDEST POP POP POP DUP3 PUSH20 0xFFFFFFFFFFFFFFFFFFFFFFFFFFFFFFFFFFFFFFFF AND PUSH1 0x80 DUP2 PUSH20 0xFFFFFFFFFFFFFFFFFFFFFFFFFFFFFFFFFFFFFFFF AND DUP2 MSTORE POP POP DUP1 PUSH20 0xFFFFFFFFFFFFFFFFFFFFFFFFFFFFFFFFFFFFFFFF AND PUSH1 0xA0 DUP2 PUSH20 0xFFFFFFFFFFFFFFFFFFFFFFFFFFFFFFFFFFFFFFFF AND DUP2 MSTORE POP POP DUP2 PUSH20 0xFFFFFFFFFFFFFFFFFFFFFFFFFFFFFFFFFFFFFFFF AND PUSH1 0xC0 DUP2 PUSH20 0xFFFFFFFFFFFFFFFFFFFFFFFFFFFFFFFFFFFFFFFF AND DUP2 MSTORE POP POP POP POP POP PUSH3 0x4C5 JUMP JUMPDEST CALLER PUSH20 0xFFFFFFFFFFFFFFFFFFFFFFFFFFFFFFFFFFFFFFFF AND DUP2 PUSH20 0xFFFFFFFFFFFFFFFFFFFFFFFFFFFFFFFFFFFFFFFF AND SUB PUSH3 0x24C JUMPI PUSH1 0x40 MLOAD PUSH32 0x8C379A000000000000000000000000000000000000000000000000000000000 DUP2 MSTORE PUSH1 0x4 ADD PUSH3 0x243 SWAP1 PUSH3 0x4A3 JUMP JUMPDEST PUSH1 0x40 MLOAD DUP1 SWAP2 SUB SWAP1 REVERT JUMPDEST DUP1 PUSH1 0x1 PUSH1 0x0 PUSH2 0x100 EXP DUP2 SLOAD DUP2 PUSH20 0xFFFFFFFFFFFFFFFFFFFFFFFFFFFFFFFFFFFFFFFF MUL NOT AND SWAP1 DUP4 PUSH20 0xFFFFFFFFFFFFFFFFFFFFFFFFFFFFFFFFFFFFFFFF AND MUL OR SWAP1 SSTORE POP DUP1 PUSH20 0xFFFFFFFFFFFFFFFFFFFFFFFFFFFFFFFFFFFFFFFF AND PUSH1 0x0 DUP1 SLOAD SWAP1 PUSH2 0x100 EXP SWAP1 DIV PUSH20 0xFFFFFFFFFFFFFFFFFFFFFFFFFFFFFFFFFFFFFFFF AND PUSH20 0xFFFFFFFFFFFFFFFFFFFFFFFFFFFFFFFFFFFFFFFF AND PUSH32 0xED8889F560326EB138920D842192F0EB3DD22B4F139C87A2C57538E05BAE1278 PUSH1 0x40 MLOAD PUSH1 0x40 MLOAD DUP1 SWAP2 SUB SWAP1 LOG3 POP JUMP JUMPDEST PUSH1 0x0 DUP1 REVERT JUMPDEST PUSH1 0x0 PUSH20 0xFFFFFFFFFFFFFFFFFFFFFFFFFFFFFFFFFFFFFFFF DUP3 AND SWAP1 POP SWAP2 SWAP1 POP JUMP JUMPDEST PUSH1 0x0 PUSH3 0x33C DUP3 PUSH3 0x30F JUMP JUMPDEST SWAP1 POP SWAP2 SWAP1 POP JUMP JUMPDEST PUSH3 0x34E DUP2 PUSH3 0x32F JUMP JUMPDEST DUP2 EQ PUSH3 0x35A JUMPI PUSH1 0x0 DUP1 REVERT JUMPDEST POP JUMP JUMPDEST PUSH1 0x0 DUP2 MLOAD SWAP1 POP PUSH3 0x36E DUP2 PUSH3 0x343 JUMP JUMPDEST SWAP3 SWAP2 POP POP JUMP JUMPDEST PUSH1 0x0 DUP1 PUSH1 0x0 PUSH1 0x60 DUP5 DUP7 SUB SLT ISZERO PUSH3 0x390 JUMPI PUSH3 0x38F PUSH3 0x30A JUMP JUMPDEST JUMPDEST PUSH1 0x0 PUSH3 0x3A0 DUP7 DUP3 DUP8 ADD PUSH3 0x35D JUMP JUMPDEST SWAP4 POP POP PUSH1 0x20 PUSH3 0x3B3 DUP7 DUP3 DUP8 ADD PUSH3 0x35D JUMP JUMPDEST SWAP3 POP POP PUSH1 0x40 PUSH3 0x3C6 DUP7 DUP3 DUP8 ADD PUSH3 0x35D JUMP JUMPDEST SWAP2 POP POP SWAP3 POP SWAP3 POP SWAP3 JUMP JUMPDEST PUSH1 0x0 DUP3 DUP3 MSTORE PUSH1 0x20 DUP3 ADD SWAP1 POP SWAP3 SWAP2 POP POP JUMP JUMPDEST PUSH32 0x43616E6E6F7420736574206F776E657220746F207A65726F0000000000000000 PUSH1 0x0 DUP3 ADD MSTORE POP JUMP JUMPDEST PUSH1 0x0 PUSH3 0x419 PUSH1 0x18 DUP4 PUSH3 0x3D0 JUMP JUMPDEST SWAP2 POP PUSH3 0x426 DUP3 PUSH3 0x3E1 JUMP JUMPDEST PUSH1 0x20 DUP3 ADD SWAP1 POP SWAP2 SWAP1 POP JUMP JUMPDEST PUSH1 0x0 PUSH1 0x20 DUP3 ADD SWAP1 POP DUP2 DUP2 SUB PUSH1 0x0 DUP4 ADD MSTORE PUSH3 0x44C DUP2 PUSH3 0x40A JUMP JUMPDEST SWAP1 POP SWAP2 SWAP1 POP JUMP JUMPDEST PUSH32 0x43616E6E6F74207472616E7366657220746F2073656C66000000000000000000 PUSH1 0x0 DUP3 ADD MSTORE POP JUMP JUMPDEST PUSH1 0x0 PUSH3 0x48B PUSH1 0x17 DUP4 PUSH3 0x3D0 JUMP JUMPDEST SWAP2 POP PUSH3 0x498 DUP3 PUSH3 0x453 JUMP JUMPDEST PUSH1 0x20 DUP3 ADD SWAP1 POP SWAP2 SWAP1 POP JUMP JUMPDEST PUSH1 0x0 PUSH1 0x20 DUP3 ADD SWAP1 POP DUP2 DUP2 SUB PUSH1 0x0 DUP4 ADD MSTORE PUSH3 0x4BE DUP2 PUSH3 0x47C JUMP JUMPDEST SWAP1 POP SWAP2 SWAP1 POP JUMP JUMPDEST PUSH1 0x80 MLOAD PUSH1 0xA0 MLOAD PUSH1 0xC0 MLOAD PUSH2 0x896B PUSH3 0x526 PUSH1 0x0 CODECOPY PUSH1 0x0 DUP2 DUP2 PUSH2 0x198E ADD MSTORE PUSH2 0x4A2F ADD MSTORE PUSH1 0x0 DUP2 DUP2 PUSH2 0x327E ADD MSTORE PUSH2 0x4E92 ADD MSTORE PUSH1 0x0 DUP2 DUP2 PUSH2 0xDD0 ADD MSTORE DUP2 DUP2 PUSH2 0x18B6 ADD MSTORE DUP2 DUP2 PUSH2 0x2F77 ADD MSTORE DUP2 DUP2 PUSH2 0x3CCC ADD MSTORE DUP2 DUP2 PUSH2 0x3DF4 ADD MSTORE PUSH2 0x46B2 ADD MSTORE PUSH2 0x896B PUSH1 0x0 RETURN INVALID PUSH1 0x80 PUSH1 0x40 MSTORE CALLVALUE DUP1 ISZERO PUSH2 0x10 JUMPI PUSH1 0x0 DUP1 REVERT JUMPDEST POP PUSH1 0x4 CALLDATASIZE LT PUSH2 0x21B JUMPI PUSH1 0x0 CALLDATALOAD PUSH1 0xE0 SHR DUP1 PUSH4 0x6F64F03F GT PUSH2 0x125 JUMPI DUP1 PUSH4 0xAD178361 GT PUSH2 0xAD JUMPI DUP1 PUSH4 0xD2F9F9A7 GT PUSH2 0x7C JUMPI DUP1 PUSH4 0xD2F9F9A7 EQ PUSH2 0x604 JUMPI DUP1 PUSH4 0xD7AE1D30 EQ PUSH2 0x634 JUMPI DUP1 PUSH4 0xE72F6E30 EQ PUSH2 0x650 JUMPI DUP1 PUSH4 0xE82AD7D4 EQ PUSH2 0x66C JUMPI DUP1 PUSH4 0xF2FDE38B EQ PUSH2 0x69C JUMPI PUSH2 0x21B JUMP JUMPDEST DUP1 PUSH4 0xAD178361 EQ PUSH2 0x565 JUMPI DUP1 PUSH4 0xAF198B97 EQ PUSH2 0x583 JUMPI DUP1 PUSH4 0xC3F909D4 EQ PUSH2 0x5B3 JUMPI DUP1 PUSH4 0xCAF70C4A EQ PUSH2 0x5D4 JUMPI PUSH2 0x21B JUMP JUMPDEST DUP1 PUSH4 0x8DA5CB5B GT PUSH2 0xF4 JUMPI DUP1 PUSH4 0x8DA5CB5B EQ PUSH2 0x4BE JUMPI DUP1 PUSH4 0x9F87FAD7 EQ PUSH2 0x4DC JUMPI DUP1 PUSH4 0xA21A23E4 EQ PUSH2 0x4F8 JUMPI DUP1 PUSH4 0xA47C7696 EQ PUSH2 0x516 JUMPI DUP1 PUSH4 0xA4C0ED36 EQ PUSH2 0x549 JUMPI PUSH2 0x21B JUMP JUMPDEST DUP1 PUSH4 0x6F64F03F EQ PUSH2 0x460 JUMPI DUP1 PUSH4 0x7341C10C EQ PUSH2 0x47C JUMPI DUP1 PUSH4 0x79BA5097 EQ PUSH2 0x498 JUMPI DUP1 PUSH4 0x82359740 EQ PUSH2 0x4A2 JUMPI PUSH2 0x21B JUMP JUMPDEST DUP1 PUSH4 0x356DAC71 GT PUSH2 0x1A8 JUMPI DUP1 PUSH4 0x5FBBC0D2 GT PUSH2 0x177 JUMPI DUP1 PUSH4 0x5FBBC0D2 EQ PUSH2 0x3B2 JUMPI DUP1 PUSH4 0x64D51A2A EQ PUSH2 0x3D8 JUMPI DUP1 PUSH4 0x66316D8D EQ PUSH2 0x3F6 JUMPI DUP1 PUSH4 0x689C4517 EQ PUSH2 0x412 JUMPI DUP1 PUSH4 0x69BCDB7D EQ PUSH2 0x430 JUMPI PUSH2 0x21B JUMP JUMPDEST DUP1 PUSH4 0x356DAC71 EQ PUSH2 0x32A JUMPI DUP1 PUSH4 0x40D6BB82 EQ PUSH2 0x348 JUMPI DUP1 PUSH4 0x4CB48A54 EQ PUSH2 0x366 JUMPI DUP1 PUSH4 0x5D3B1D30 EQ PUSH2 0x382 JUMPI PUSH2 0x21B JUMP JUMPDEST DUP1 PUSH4 0x8821D58 GT PUSH2 0x1EF JUMPI DUP1 PUSH4 0x8821D58 EQ PUSH2 0x296 JUMPI DUP1 PUSH4 0x12B58349 EQ PUSH2 0x2B2 JUMPI DUP1 PUSH4 0x15C48B84 EQ PUSH2 0x2D0 JUMPI DUP1 PUSH4 0x181F5A77 EQ PUSH2 0x2EE JUMPI DUP1 PUSH4 0x1B6B6D23 EQ PUSH2 0x30C JUMPI PUSH2 0x21B JUMP JUMPDEST DUP1 PUSH3 0x12291 EQ PUSH2 0x220 JUMPI DUP1 PUSH4 0x2BCC5B6 EQ PUSH2 0x240 JUMPI DUP1 PUSH4 0x4C357CB EQ PUSH2 0x25C JUMPI DUP1 PUSH4 0x6BFA637 EQ PUSH2 0x278 JUMPI JUMPDEST PUSH1 0x0 DUP1 REVERT JUMPDEST PUSH2 0x228 PUSH2 0x6B8 JUMP JUMPDEST PUSH1 0x40 MLOAD PUSH2 0x237 SWAP4 SWAP3 SWAP2 SWAP1 PUSH2 0x63B8 JUMP JUMPDEST PUSH1 0x40 MLOAD DUP1 SWAP2 SUB SWAP1 RETURN JUMPDEST PUSH2 0x25A PUSH1 0x4 DUP1 CALLDATASIZE SUB DUP2 ADD SWAP1 PUSH2 0x255 SWAP2 SWAP1 PUSH2 0x644A JUMP JUMPDEST PUSH2 0x746 JUMP JUMPDEST STOP JUMPDEST PUSH2 0x276 PUSH1 0x4 DUP1 CALLDATASIZE SUB DUP2 ADD SWAP1 PUSH2 0x271 SWAP2 SWAP1 PUSH2 0x64D5 JUMP JUMPDEST PUSH2 0x855 JUMP JUMPDEST STOP JUMPDEST PUSH2 0x280 PUSH2 0xAF6 JUMP JUMPDEST PUSH1 0x40 MLOAD PUSH2 0x28D SWAP2 SWAP1 PUSH2 0x6524 JUMP JUMPDEST PUSH1 0x40 MLOAD DUP1 SWAP2 SUB SWAP1 RETURN JUMPDEST PUSH2 0x2B0 PUSH1 0x4 DUP1 CALLDATASIZE SUB DUP2 ADD SWAP1 PUSH2 0x2AB SWAP2 SWAP1 PUSH2 0x6566 JUMP JUMPDEST PUSH2 0xB14 JUMP JUMPDEST STOP JUMPDEST PUSH2 0x2BA PUSH2 0xD5C JUMP JUMPDEST PUSH1 0x40 MLOAD PUSH2 0x2C7 SWAP2 SWAP1 PUSH2 0x65AC JUMP JUMPDEST PUSH1 0x40 MLOAD DUP1 SWAP2 SUB SWAP1 RETURN JUMPDEST PUSH2 0x2D8 PUSH2 0xD8C JUMP JUMPDEST PUSH1 0x40 MLOAD PUSH2 0x2E5 SWAP2 SWAP1 PUSH2 0x65C7 JUMP JUMPDEST PUSH1 0x40 MLOAD DUP1 SWAP2 SUB SWAP1 RETURN JUMPDEST PUSH2 0x2F6 PUSH2 0xD91 JUMP JUMPDEST PUSH1 0x40 MLOAD PUSH2 0x303 SWAP2 SWAP1 PUSH2 0x6672 JUMP JUMPDEST PUSH1 0x40 MLOAD DUP1 SWAP2 SUB SWAP1 RETURN JUMPDEST PUSH2 0x314 PUSH2 0xDCE JUMP JUMPDEST PUSH1 0x40 MLOAD PUSH2 0x321 SWAP2 SWAP1 PUSH2 0x66F3 JUMP JUMPDEST PUSH1 0x40 MLOAD DUP1 SWAP2 SUB SWAP1 RETURN JUMPDEST PUSH2 0x332 PUSH2 0xDF2 JUMP JUMPDEST PUSH1 0x40 MLOAD PUSH2 0x33F SWAP2 SWAP1 PUSH2 0x6727 JUMP JUMPDEST PUSH1 0x40 MLOAD DUP1 SWAP2 SUB SWAP1 RETURN JUMPDEST PUSH2 0x350 PUSH2 0xDFC JUMP JUMPDEST PUSH1 0x40 MLOAD PUSH2 0x35D SWAP2 SWAP1 PUSH2 0x6742 JUMP JUMPDEST PUSH1 0x40 MLOAD DUP1 SWAP2 SUB SWAP1 RETURN JUMPDEST PUSH2 0x380 PUSH1 0x4 DUP1 CALLDATASIZE SUB DUP2 ADD SWAP1 PUSH2 0x37B SWAP2 SWAP1 PUSH2 0x697C JUMP JUMPDEST PUSH2 0xE02 JUMP JUMPDEST STOP JUMPDEST PUSH2 0x39C PUSH1 0x4 DUP1 CALLDATASIZE SUB DUP2 ADD SWAP1 PUSH2 0x397 SWAP2 SWAP1 PUSH2 0x6A36 JUMP JUMPDEST PUSH2 0x114E JUMP JUMPDEST PUSH1 0x40 MLOAD PUSH2 0x3A9 SWAP2 SWAP1 PUSH2 0x65AC JUMP JUMPDEST PUSH1 0x40 MLOAD DUP1 SWAP2 SUB SWAP1 RETURN JUMPDEST PUSH2 0x3BA PUSH2 0x15E0 JUMP JUMPDEST PUSH1 0x40 MLOAD PUSH2 0x3CF SWAP10 SWAP9 SWAP8 SWAP7 SWAP6 SWAP5 SWAP4 SWAP3 SWAP2 SWAP1 PUSH2 0x6AC0 JUMP JUMPDEST PUSH1 0x40 MLOAD DUP1 SWAP2 SUB SWAP1 RETURN JUMPDEST PUSH2 0x3E0 PUSH2 0x16CD JUMP JUMPDEST PUSH1 0x40 MLOAD PUSH2 0x3ED SWAP2 SWAP1 PUSH2 0x65C7 JUMP JUMPDEST PUSH1 0x40 MLOAD DUP1 SWAP2 SUB SWAP1 RETURN JUMPDEST PUSH2 0x410 PUSH1 0x4 DUP1 CALLDATASIZE SUB DUP2 ADD SWAP1 PUSH2 0x40B SWAP2 SWAP1 PUSH2 0x6B91 JUMP JUMPDEST PUSH2 0x16D2 JUMP JUMPDEST STOP JUMPDEST PUSH2 0x41A PUSH2 0x198C JUMP JUMPDEST PUSH1 0x40 MLOAD PUSH2 0x427 SWAP2 SWAP1 PUSH2 0x6BF2 JUMP JUMPDEST PUSH1 0x40 MLOAD DUP1 SWAP2 SUB SWAP1 RETURN JUMPDEST PUSH2 0x44A PUSH1 0x4 DUP1 CALLDATASIZE SUB DUP2 ADD SWAP1 PUSH2 0x445 SWAP2 SWAP1 PUSH2 0x6C39 JUMP JUMPDEST PUSH2 0x19B0 JUMP JUMPDEST PUSH1 0x40 MLOAD PUSH2 0x457 SWAP2 SWAP1 PUSH2 0x6C75 JUMP JUMPDEST PUSH1 0x40 MLOAD DUP1 SWAP2 SUB SWAP1 RETURN JUMPDEST PUSH2 0x47A PUSH1 0x4 DUP1 CALLDATASIZE SUB DUP2 ADD SWAP1 PUSH2 0x475 SWAP2 SWAP1 PUSH2 0x6C90 JUMP JUMPDEST PUSH2 0x19CD JUMP JUMPDEST STOP JUMPDEST PUSH2 0x496 PUSH1 0x4 DUP1 CALLDATASIZE SUB DUP2 ADD SWAP1 PUSH2 0x491 SWAP2 SWAP1 PUSH2 0x64D5 JUMP JUMPDEST PUSH2 0x1B8B JUMP JUMPDEST STOP JUMPDEST PUSH2 0x4A0 PUSH2 0x1F50 JUMP JUMPDEST STOP JUMPDEST PUSH2 0x4BC PUSH1 0x4 DUP1 CALLDATASIZE SUB DUP2 ADD SWAP1 PUSH2 0x4B7 SWAP2 SWAP1 PUSH2 0x644A JUMP JUMPDEST PUSH2 0x20E5 JUMP JUMPDEST STOP JUMPDEST PUSH2 0x4C6 PUSH2 0x244D JUMP JUMPDEST PUSH1 0x40 MLOAD PUSH2 0x4D3 SWAP2 SWAP1 PUSH2 0x6CDF JUMP JUMPDEST PUSH1 0x40 MLOAD DUP1 SWAP2 SUB SWAP1 RETURN JUMPDEST PUSH2 0x4F6 PUSH1 0x4 DUP1 CALLDATASIZE SUB DUP2 ADD SWAP1 PUSH2 0x4F1 SWAP2 SWAP1 PUSH2 0x64D5 JUMP JUMPDEST PUSH2 0x2476 JUMP JUMPDEST STOP JUMPDEST PUSH2 0x500 PUSH2 0x29BF JUMP JUMPDEST PUSH1 0x40 MLOAD PUSH2 0x50D SWAP2 SWAP1 PUSH2 0x6524 JUMP JUMPDEST PUSH1 0x40 MLOAD DUP1 SWAP2 SUB SWAP1 RETURN JUMPDEST PUSH2 0x530 PUSH1 0x4 DUP1 CALLDATASIZE SUB DUP2 ADD SWAP1 PUSH2 0x52B SWAP2 SWAP1 PUSH2 0x644A JUMP JUMPDEST PUSH2 0x2CE6 JUMP JUMPDEST PUSH1 0x40 MLOAD PUSH2 0x540 SWAP5 SWAP4 SWAP3 SWAP2 SWAP1 PUSH2 0x6DC7 JUMP JUMPDEST PUSH1 0x40 MLOAD DUP1 SWAP2 SUB SWAP1 RETURN JUMPDEST PUSH2 0x563 PUSH1 0x4 DUP1 CALLDATASIZE SUB DUP2 ADD SWAP1 PUSH2 0x55E SWAP2 SWAP1 PUSH2 0x6E73 JUMP JUMPDEST PUSH2 0x2F2B JUMP JUMPDEST STOP JUMPDEST PUSH2 0x56D PUSH2 0x327C JUMP JUMPDEST PUSH1 0x40 MLOAD PUSH2 0x57A SWAP2 SWAP1 PUSH2 0x6F08 JUMP JUMPDEST PUSH1 0x40 MLOAD DUP1 SWAP2 SUB SWAP1 RETURN JUMPDEST PUSH2 0x59D PUSH1 0x4 DUP1 CALLDATASIZE SUB DUP2 ADD SWAP1 PUSH2 0x598 SWAP2 SWAP1 PUSH2 0x7142 JUMP JUMPDEST PUSH2 0x32A0 JUMP JUMPDEST PUSH1 0x40 MLOAD PUSH2 0x5AA SWAP2 SWAP1 PUSH2 0x7184 JUMP JUMPDEST PUSH1 0x40 MLOAD DUP1 SWAP2 SUB SWAP1 RETURN JUMPDEST PUSH2 0x5BB PUSH2 0x37E5 JUMP JUMPDEST PUSH1 0x40 MLOAD PUSH2 0x5CB SWAP5 SWAP4 SWAP3 SWAP2 SWAP1 PUSH2 0x719F JUMP JUMPDEST PUSH1 0x40 MLOAD DUP1 SWAP2 SUB SWAP1 RETURN JUMPDEST PUSH2 0x5EE PUSH1 0x4 DUP1 CALLDATASIZE SUB DUP2 ADD SWAP1 PUSH2 0x5E9 SWAP2 SWAP1 PUSH2 0x71E4 JUMP JUMPDEST PUSH2 0x384F JUMP JUMPDEST PUSH1 0x40 MLOAD PUSH2 0x5FB SWAP2 SWAP1 PUSH2 0x6C75 JUMP JUMPDEST PUSH1 0x40 MLOAD DUP1 SWAP2 SUB SWAP1 RETURN JUMPDEST PUSH2 0x61E PUSH1 0x4 DUP1 CALLDATASIZE SUB DUP2 ADD SWAP1 PUSH2 0x619 SWAP2 SWAP1 PUSH2 0x644A JUMP JUMPDEST PUSH2 0x387F JUMP JUMPDEST PUSH1 0x40 MLOAD PUSH2 0x62B SWAP2 SWAP1 PUSH2 0x6742 JUMP JUMPDEST PUSH1 0x40 MLOAD DUP1 SWAP2 SUB SWAP1 RETURN JUMPDEST PUSH2 0x64E PUSH1 0x4 DUP1 CALLDATASIZE SUB DUP2 ADD SWAP1 PUSH2 0x649 SWAP2 SWAP1 PUSH2 0x64D5 JUMP JUMPDEST PUSH2 0x3B00 JUMP JUMPDEST STOP JUMPDEST PUSH2 0x66A PUSH1 0x4 DUP1 CALLDATASIZE SUB DUP2 ADD SWAP1 PUSH2 0x665 SWAP2 SWAP1 PUSH2 0x7211 JUMP JUMPDEST PUSH2 0x3CC0 JUMP JUMPDEST STOP JUMPDEST PUSH2 0x686 PUSH1 0x4 DUP1 CALLDATASIZE SUB DUP2 ADD SWAP1 PUSH2 0x681 SWAP2 SWAP1 PUSH2 0x644A JUMP JUMPDEST PUSH2 0x3ED1 JUMP JUMPDEST PUSH1 0x40 MLOAD PUSH2 0x693 SWAP2 SWAP1 PUSH2 0x7259 JUMP JUMPDEST PUSH1 0x40 MLOAD DUP1 SWAP2 SUB SWAP1 RETURN JUMPDEST PUSH2 0x6B6 PUSH1 0x4 DUP1 CALLDATASIZE SUB DUP2 ADD SWAP1 PUSH2 0x6B1 SWAP2 SWAP1 PUSH2 0x7211 JUMP JUMPDEST PUSH2 0x41A3 JUMP JUMPDEST STOP JUMPDEST PUSH1 0x0 DUP1 PUSH1 0x60 PUSH1 0xB PUSH1 0x0 ADD PUSH1 0x0 SWAP1 SLOAD SWAP1 PUSH2 0x100 EXP SWAP1 DIV PUSH2 0xFFFF AND PUSH1 0xB PUSH1 0x0 ADD PUSH1 0x2 SWAP1 SLOAD SWAP1 PUSH2 0x100 EXP SWAP1 DIV PUSH4 0xFFFFFFFF AND PUSH1 0x7 DUP1 DUP1 SLOAD DUP1 PUSH1 0x20 MUL PUSH1 0x20 ADD PUSH1 0x40 MLOAD SWAP1 DUP2 ADD PUSH1 0x40 MSTORE DUP1 SWAP3 SWAP2 SWAP1 DUP2 DUP2 MSTORE PUSH1 0x20 ADD DUP3 DUP1 SLOAD DUP1 ISZERO PUSH2 0x734 JUMPI PUSH1 0x20 MUL DUP3 ADD SWAP2 SWAP1 PUSH1 0x0 MSTORE PUSH1 0x20 PUSH1 0x0 KECCAK256 SWAP1 JUMPDEST DUP2 SLOAD DUP2 MSTORE PUSH1 0x20 ADD SWAP1 PUSH1 0x1 ADD SWAP1 DUP1 DUP4 GT PUSH2 0x720 JUMPI JUMPDEST POP POP POP POP POP SWAP1 POP SWAP3 POP SWAP3 POP SWAP3 POP SWAP1 SWAP2 SWAP3 JUMP JUMPDEST PUSH2 0x74E PUSH2 0x41B7 JUMP JUMPDEST PUSH1 0x0 PUSH20 0xFFFFFFFFFFFFFFFFFFFFFFFFFFFFFFFFFFFFFFFF AND PUSH1 0x3 PUSH1 0x0 DUP4 PUSH8 0xFFFFFFFFFFFFFFFF AND PUSH8 0xFFFFFFFFFFFFFFFF AND DUP2 MSTORE PUSH1 0x20 ADD SWAP1 DUP2 MSTORE PUSH1 0x20 ADD PUSH1 0x0 KECCAK256 PUSH1 0x0 ADD PUSH1 0x0 SWAP1 SLOAD SWAP1 PUSH2 0x100 EXP SWAP1 DIV PUSH20 0xFFFFFFFFFFFFFFFFFFFFFFFFFFFFFFFFFFFFFFFF AND PUSH20 0xFFFFFFFFFFFFFFFFFFFFFFFFFFFFFFFFFFFFFFFF AND SUB PUSH2 0x7FE JUMPI PUSH1 0x40 MLOAD PUSH32 0x1F6A65B600000000000000000000000000000000000000000000000000000000 DUP2 MSTORE PUSH1 0x4 ADD PUSH1 0x40 MLOAD DUP1 SWAP2 SUB SWAP1 REVERT JUMPDEST PUSH2 0x852 DUP2 PUSH1 0x3 PUSH1 0x0 DUP5 PUSH8 0xFFFFFFFFFFFFFFFF AND PUSH8 0xFFFFFFFFFFFFFFFF AND DUP2 MSTORE PUSH1 0x20 ADD SWAP1 DUP2 MSTORE PUSH1 0x20 ADD PUSH1 0x0 KECCAK256 PUSH1 0x0 ADD PUSH1 0x0 SWAP1 SLOAD SWAP1 PUSH2 0x100 EXP SWAP1 DIV PUSH20 0xFFFFFFFFFFFFFFFFFFFFFFFFFFFFFFFFFFFFFFFF AND PUSH2 0x4247 JUMP JUMPDEST POP JUMP JUMPDEST DUP2 PUSH1 0x0 PUSH1 0x3 PUSH1 0x0 DUP4 PUSH8 0xFFFFFFFFFFFFFFFF AND PUSH8 0xFFFFFFFFFFFFFFFF AND DUP2 MSTORE PUSH1 0x20 ADD SWAP1 DUP2 MSTORE PUSH1 0x20 ADD PUSH1 0x0 KECCAK256 PUSH1 0x0 ADD PUSH1 0x0 SWAP1 SLOAD SWAP1 PUSH2 0x100 EXP SWAP1 DIV PUSH20 0xFFFFFFFFFFFFFFFFFFFFFFFFFFFFFFFFFFFFFFFF AND SWAP1 POP PUSH1 0x0 PUSH20 0xFFFFFFFFFFFFFFFFFFFFFFFFFFFFFFFFFFFFFFFF AND DUP2 PUSH20 0xFFFFFFFFFFFFFFFFFFFFFFFFFFFFFFFFFFFFFFFF AND SUB PUSH2 0x90B JUMPI PUSH1 0x40 MLOAD PUSH32 0x1F6A65B600000000000000000000000000000000000000000000000000000000 DUP2 MSTORE PUSH1 0x4 ADD PUSH1 0x40 MLOAD DUP1 SWAP2 SUB SWAP1 REVERT JUMPDEST DUP1 PUSH20 0xFFFFFFFFFFFFFFFFFFFFFFFFFFFFFFFFFFFFFFFF AND CALLER PUSH20 0xFFFFFFFFFFFFFFFFFFFFFFFFFFFFFFFFFFFFFFFF AND EQ PUSH2 0x97B JUMPI DUP1 PUSH1 0x40 MLOAD PUSH32 0xD8A3FB5200000000000000000000000000000000000000000000000000000000 DUP2 MSTORE PUSH1 0x4 ADD PUSH2 0x972 SWAP2 SWAP1 PUSH2 0x6CDF JUMP JUMPDEST PUSH1 0x40 MLOAD DUP1 SWAP2 SUB SWAP1 REVERT JUMPDEST PUSH1 0xB PUSH1 0x0 ADD PUSH1 0x6 SWAP1 SLOAD SWAP1 PUSH2 0x100 EXP SWAP1 DIV PUSH1 0xFF AND ISZERO PUSH2 0x9C5 JUMPI PUSH1 0x40 MLOAD PUSH32 0xED3BA6A600000000000000000000000000000000000000000000000000000000 DUP2 MSTORE PUSH1 0x4 ADD PUSH1 0x40 MLOAD DUP1 SWAP2 SUB SWAP1 REVERT JUMPDEST DUP3 PUSH20 0xFFFFFFFFFFFFFFFFFFFFFFFFFFFFFFFFFFFFFFFF AND PUSH1 0x3 PUSH1 0x0 DUP7 PUSH8 0xFFFFFFFFFFFFFFFF AND PUSH8 0xFFFFFFFFFFFFFFFF AND DUP2 MSTORE PUSH1 0x20 ADD SWAP1 DUP2 MSTORE PUSH1 0x20 ADD PUSH1 0x0 KECCAK256 PUSH1 0x1 ADD PUSH1 0x0 SWAP1 SLOAD SWAP1 PUSH2 0x100 EXP SWAP1 DIV PUSH20 0xFFFFFFFFFFFFFFFFFFFFFFFFFFFFFFFFFFFFFFFF AND PUSH20 0xFFFFFFFFFFFFFFFFFFFFFFFFFFFFFFFFFFFFFFFF AND EQ PUSH2 0xAF0 JUMPI DUP3 PUSH1 0x3 PUSH1 0x0 DUP7 PUSH8 0xFFFFFFFFFFFFFFFF AND PUSH8 0xFFFFFFFFFFFFFFFF AND DUP2 MSTORE PUSH1 0x20 ADD SWAP1 DUP2 MSTORE PUSH1 0x20 ADD PUSH1 0x0 KECCAK256 PUSH1 0x1 ADD PUSH1 0x0 PUSH2 0x100 EXP DUP2 SLOAD DUP2 PUSH20 0xFFFFFFFFFFFFFFFFFFFFFFFFFFFFFFFFFFFFFFFF MUL NOT AND SWAP1 DUP4 PUSH20 0xFFFFFFFFFFFFFFFFFFFFFFFFFFFFFFFFFFFFFFFF AND MUL OR SWAP1 SSTORE POP DUP4 PUSH8 0xFFFFFFFFFFFFFFFF AND PUSH32 0x69436EA6DF009049404F564EFF6622CD00522B0BD6A89EFD9E52A355C4A879BE CALLER DUP6 PUSH1 0x40 MLOAD PUSH2 0xAE7 SWAP3 SWAP2 SWAP1 PUSH2 0x7274 JUMP JUMPDEST PUSH1 0x40 MLOAD DUP1 SWAP2 SUB SWAP1 LOG2 JUMPDEST POP POP POP POP JUMP JUMPDEST PUSH1 0x0 PUSH1 0x5 PUSH1 0x0 SWAP1 SLOAD SWAP1 PUSH2 0x100 EXP SWAP1 DIV PUSH8 0xFFFFFFFFFFFFFFFF AND SWAP1 POP SWAP1 JUMP JUMPDEST PUSH2 0xB1C PUSH2 0x41B7 JUMP JUMPDEST PUSH1 0x0 PUSH2 0xB5E DUP3 PUSH1 0x2 DUP1 PUSH1 0x20 MUL PUSH1 0x40 MLOAD SWAP1 DUP2 ADD PUSH1 0x40 MSTORE DUP1 SWAP3 SWAP2 SWAP1 DUP3 PUSH1 0x2 PUSH1 0x20 MUL DUP1 DUP3 DUP5 CALLDATACOPY PUSH1 0x0 DUP2 DUP5 ADD MSTORE PUSH1 0x1F NOT PUSH1 0x1F DUP3 ADD AND SWAP1 POP DUP1 DUP4 ADD SWAP3 POP POP POP POP POP POP PUSH2 0x384F JUMP JUMPDEST SWAP1 POP PUSH1 0x0 PUSH1 0x6 PUSH1 0x0 DUP4 DUP2 MSTORE PUSH1 0x20 ADD SWAP1 DUP2 MSTORE PUSH1 0x20 ADD PUSH1 0x0 KECCAK256 PUSH1 0x0 SWAP1 SLOAD SWAP1 PUSH2 0x100 EXP SWAP1 DIV PUSH20 0xFFFFFFFFFFFFFFFFFFFFFFFFFFFFFFFFFFFFFFFF AND SWAP1 POP PUSH1 0x0 PUSH20 0xFFFFFFFFFFFFFFFFFFFFFFFFFFFFFFFFFFFFFFFF AND DUP2 PUSH20 0xFFFFFFFFFFFFFFFFFFFFFFFFFFFFFFFFFFFFFFFF AND SUB PUSH2 0xC09 JUMPI DUP2 PUSH1 0x40 MLOAD PUSH32 0x77F5B84C00000000000000000000000000000000000000000000000000000000 DUP2 MSTORE PUSH1 0x4 ADD PUSH2 0xC00 SWAP2 SWAP1 PUSH2 0x6C75 JUMP JUMPDEST PUSH1 0x40 MLOAD DUP1 SWAP2 SUB SWAP1 REVERT JUMPDEST PUSH1 0x6 PUSH1 0x0 DUP4 DUP2 MSTORE PUSH1 0x20 ADD SWAP1 DUP2 MSTORE PUSH1 0x20 ADD PUSH1 0x0 KECCAK256 PUSH1 0x0 PUSH2 0x100 EXP DUP2 SLOAD SWAP1 PUSH20 0xFFFFFFFFFFFFFFFFFFFFFFFFFFFFFFFFFFFFFFFF MUL NOT AND SWAP1 SSTORE PUSH1 0x0 JUMPDEST PUSH1 0x7 DUP1 SLOAD SWAP1 POP DUP2 LT ISZERO PUSH2 0xD08 JUMPI DUP3 PUSH1 0x7 DUP3 DUP2 SLOAD DUP2 LT PUSH2 0xC64 JUMPI PUSH2 0xC63 PUSH2 0x729D JUMP JUMPDEST JUMPDEST SWAP1 PUSH1 0x0 MSTORE PUSH1 0x20 PUSH1 0x0 KECCAK256 ADD SLOAD SUB PUSH2 0xCF5 JUMPI PUSH1 0x0 PUSH1 0x7 PUSH1 0x1 PUSH1 0x7 DUP1 SLOAD SWAP1 POP PUSH2 0xC8A SWAP2 SWAP1 PUSH2 0x72FB JUMP JUMPDEST DUP2 SLOAD DUP2 LT PUSH2 0xC9B JUMPI PUSH2 0xC9A PUSH2 0x729D JUMP JUMPDEST JUMPDEST SWAP1 PUSH1 0x0 MSTORE PUSH1 0x20 PUSH1 0x0 KECCAK256 ADD SLOAD SWAP1 POP DUP1 PUSH1 0x7 DUP4 DUP2 SLOAD DUP2 LT PUSH2 0xCBD JUMPI PUSH2 0xCBC PUSH2 0x729D JUMP JUMPDEST JUMPDEST SWAP1 PUSH1 0x0 MSTORE PUSH1 0x20 PUSH1 0x0 KECCAK256 ADD DUP2 SWAP1 SSTORE POP PUSH1 0x7 DUP1 SLOAD DUP1 PUSH2 0xCDD JUMPI PUSH2 0xCDC PUSH2 0x732F JUMP JUMPDEST JUMPDEST PUSH1 0x1 SWAP1 SUB DUP2 DUP2 SWAP1 PUSH1 0x0 MSTORE PUSH1 0x20 PUSH1 0x0 KECCAK256 ADD PUSH1 0x0 SWAP1 SSTORE SWAP1 SSTORE POP JUMPDEST DUP1 DUP1 PUSH2 0xD00 SWAP1 PUSH2 0x735E JUMP JUMPDEST SWAP2 POP POP PUSH2 0xC42 JUMP JUMPDEST POP DUP1 PUSH20 0xFFFFFFFFFFFFFFFFFFFFFFFFFFFFFFFFFFFFFFFF AND PUSH32 0x72BE339577868F868798BAC2C93E52D6F034FEF4689A9848996C14EBB7416C0D DUP4 PUSH1 0x40 MLOAD PUSH2 0xD4F SWAP2 SWAP1 PUSH2 0x6C75 JUMP JUMPDEST PUSH1 0x40 MLOAD DUP1 SWAP2 SUB SWAP1 LOG2 POP POP POP JUMP JUMPDEST PUSH1 0x0 PUSH1 0x5 PUSH1 0x8 SWAP1 SLOAD SWAP1 PUSH2 0x100 EXP SWAP1 DIV PUSH12 0xFFFFFFFFFFFFFFFFFFFFFFFF AND PUSH12 0xFFFFFFFFFFFFFFFFFFFFFFFF AND SWAP1 POP SWAP1 JUMP JUMPDEST PUSH1 0xC8 DUP2 JUMP JUMPDEST PUSH1 0x60 PUSH1 0x40 MLOAD DUP1 PUSH1 0x40 ADD PUSH1 0x40 MSTORE DUP1 PUSH1 0x16 DUP2 MSTORE PUSH1 0x20 ADD PUSH32 0x565246436F6F7264696E61746F72563220312E302E3000000000000000000000 DUP2 MSTORE POP SWAP1 POP SWAP1 JUMP JUMPDEST PUSH32 0x0 DUP2 JUMP JUMPDEST PUSH1 0x0 PUSH1 0xA SLOAD SWAP1 POP SWAP1 JUMP JUMPDEST PUSH2 0x1F4 DUP2 JUMP JUMPDEST PUSH2 0xE0A PUSH2 0x41B7 JUMP JUMPDEST PUSH1 0xC8 PUSH2 0xFFFF AND DUP7 PUSH2 0xFFFF AND GT ISZERO PUSH2 0xE5D JUMPI DUP6 DUP7 PUSH1 0xC8 PUSH1 0x40 MLOAD PUSH32 0xA738697600000000000000000000000000000000000000000000000000000000 DUP2 MSTORE PUSH1 0x4 ADD PUSH2 0xE54 SWAP4 SWAP3 SWAP2 SWAP1 PUSH2 0x73A6 JUMP JUMPDEST PUSH1 0x40 MLOAD DUP1 SWAP2 SUB SWAP1 REVERT JUMPDEST PUSH1 0x0 DUP3 SGT PUSH2 0xEA2 JUMPI DUP2 PUSH1 0x40 MLOAD PUSH32 0x43D4CF6600000000000000000000000000000000000000000000000000000000 DUP2 MSTORE PUSH1 0x4 ADD PUSH2 0xE99 SWAP2 SWAP1 PUSH2 0x6727 JUMP JUMPDEST PUSH1 0x40 MLOAD DUP1 SWAP2 SUB SWAP1 REVERT JUMPDEST PUSH1 0x40 MLOAD DUP1 PUSH1 0xA0 ADD PUSH1 0x40 MSTORE DUP1 DUP8 PUSH2 0xFFFF AND DUP2 MSTORE PUSH1 0x20 ADD DUP7 PUSH4 0xFFFFFFFF AND DUP2 MSTORE PUSH1 0x20 ADD PUSH1 0x0 ISZERO ISZERO DUP2 MSTORE PUSH1 0x20 ADD DUP6 PUSH4 0xFFFFFFFF AND DUP2 MSTORE PUSH1 0x20 ADD DUP5 PUSH4 0xFFFFFFFF AND DUP2 MSTORE POP PUSH1 0xB PUSH1 0x0 DUP3 ADD MLOAD DUP2 PUSH1 0x0 ADD PUSH1 0x0 PUSH2 0x100 EXP DUP2 SLOAD DUP2 PUSH2 0xFFFF MUL NOT AND SWAP1 DUP4 PUSH2 0xFFFF AND MUL OR SWAP1 SSTORE POP PUSH1 0x20 DUP3 ADD MLOAD DUP2 PUSH1 0x0 ADD PUSH1 0x2 PUSH2 0x100 EXP DUP2 SLOAD DUP2 PUSH4 0xFFFFFFFF MUL NOT AND SWAP1 DUP4 PUSH4 0xFFFFFFFF AND MUL OR SWAP1 SSTORE POP PUSH1 0x40 DUP3 ADD MLOAD DUP2 PUSH1 0x0 ADD PUSH1 0x6 PUSH2 0x100 EXP DUP2 SLOAD DUP2 PUSH1 0xFF MUL NOT AND SWAP1 DUP4 ISZERO ISZERO MUL OR SWAP1 SSTORE POP PUSH1 0x60 DUP3 ADD MLOAD DUP2 PUSH1 0x0 ADD PUSH1 0x7 PUSH2 0x100 EXP DUP2 SLOAD DUP2 PUSH4 0xFFFFFFFF MUL NOT AND SWAP1 DUP4 PUSH4 0xFFFFFFFF AND MUL OR SWAP1 SSTORE POP PUSH1 0x80 DUP3 ADD MLOAD DUP2 PUSH1 0x0 ADD PUSH1 0xB PUSH2 0x100 EXP DUP2 SLOAD DUP2 PUSH4 0xFFFFFFFF MUL NOT AND SWAP1 DUP4 PUSH4 0xFFFFFFFF AND MUL OR SWAP1 SSTORE POP SWAP1 POP POP DUP1 PUSH1 0xC PUSH1 0x0 DUP3 ADD MLOAD DUP2 PUSH1 0x0 ADD PUSH1 0x0 PUSH2 0x100 EXP DUP2 SLOAD DUP2 PUSH4 0xFFFFFFFF MUL NOT AND SWAP1 DUP4 PUSH4 0xFFFFFFFF AND MUL OR SWAP1 SSTORE POP PUSH1 0x20 DUP3 ADD MLOAD DUP2 PUSH1 0x0 ADD PUSH1 0x4 PUSH2 0x100 EXP DUP2 SLOAD DUP2 PUSH4 0xFFFFFFFF MUL NOT AND SWAP1 DUP4 PUSH4 0xFFFFFFFF AND MUL OR SWAP1 SSTORE POP PUSH1 0x40 DUP3 ADD MLOAD DUP2 PUSH1 0x0 ADD PUSH1 0x8 PUSH2 0x100 EXP DUP2 SLOAD DUP2 PUSH4 0xFFFFFFFF MUL NOT AND SWAP1 DUP4 PUSH4 0xFFFFFFFF AND MUL OR SWAP1 SSTORE POP PUSH1 0x60 DUP3 ADD MLOAD DUP2 PUSH1 0x0 ADD PUSH1 0xC PUSH2 0x100 EXP DUP2 SLOAD DUP2 PUSH4 0xFFFFFFFF MUL NOT AND SWAP1 DUP4 PUSH4 0xFFFFFFFF AND MUL OR SWAP1 SSTORE POP PUSH1 0x80 DUP3 ADD MLOAD DUP2 PUSH1 0x0 ADD PUSH1 0x10 PUSH2 0x100 EXP DUP2 SLOAD DUP2 PUSH4 0xFFFFFFFF MUL NOT AND SWAP1 DUP4 PUSH4 0xFFFFFFFF AND MUL OR SWAP1 SSTORE POP PUSH1 0xA0 DUP3 ADD MLOAD DUP2 PUSH1 0x0 ADD PUSH1 0x14 PUSH2 0x100 EXP DUP2 SLOAD DUP2 PUSH3 0xFFFFFF MUL NOT AND SWAP1 DUP4 PUSH3 0xFFFFFF AND MUL OR SWAP1 SSTORE POP PUSH1 0xC0 DUP3 ADD MLOAD DUP2 PUSH1 0x0 ADD PUSH1 0x17 PUSH2 0x100 EXP DUP2 SLOAD DUP2 PUSH3 0xFFFFFF MUL NOT AND SWAP1 DUP4 PUSH3 0xFFFFFF AND MUL OR SWAP1 SSTORE POP PUSH1 0xE0 DUP3 ADD MLOAD DUP2 PUSH1 0x0 ADD PUSH1 0x1A PUSH2 0x100 EXP DUP2 SLOAD DUP2 PUSH3 0xFFFFFF MUL NOT AND SWAP1 DUP4 PUSH3 0xFFFFFF AND MUL OR SWAP1 SSTORE POP PUSH2 0x100 DUP3 ADD MLOAD DUP2 PUSH1 0x0 ADD PUSH1 0x1D PUSH2 0x100 EXP DUP2 SLOAD DUP2 PUSH3 0xFFFFFF MUL NOT AND SWAP1 DUP4 PUSH3 0xFFFFFF AND MUL OR SWAP1 SSTORE POP SWAP1 POP POP DUP2 PUSH1 0xA DUP2 SWAP1 SSTORE POP PUSH32 0xC21E3BD2E0B339D2848F0DD956947A88966C242C0C0C582A33137A5C1CEB5CB2 DUP7 DUP7 DUP7 DUP7 DUP7 PUSH1 0xC PUSH1 0x40 MLOAD PUSH2 0x113E SWAP7 SWAP6 SWAP5 SWAP4 SWAP3 SWAP2 SWAP1 PUSH2 0x765C JUMP JUMPDEST PUSH1 0x40 MLOAD DUP1 SWAP2 SUB SWAP1 LOG1 POP POP POP POP POP POP JUMP JUMPDEST PUSH1 0x0 PUSH1 0xB PUSH1 0x0 ADD PUSH1 0x6 SWAP1 SLOAD SWAP1 PUSH2 0x100 EXP SWAP1 DIV PUSH1 0xFF AND ISZERO PUSH2 0x119A JUMPI PUSH1 0x40 MLOAD PUSH32 0xED3BA6A600000000000000000000000000000000000000000000000000000000 DUP2 MSTORE PUSH1 0x4 ADD PUSH1 0x40 MLOAD DUP1 SWAP2 SUB SWAP1 REVERT JUMPDEST PUSH1 0x0 PUSH20 0xFFFFFFFFFFFFFFFFFFFFFFFFFFFFFFFFFFFFFFFF AND PUSH1 0x3 PUSH1 0x0 DUP8 PUSH8 0xFFFFFFFFFFFFFFFF AND PUSH8 0xFFFFFFFFFFFFFFFF AND DUP2 MSTORE PUSH1 0x20 ADD SWAP1 DUP2 MSTORE PUSH1 0x20 ADD PUSH1 0x0 KECCAK256 PUSH1 0x0 ADD PUSH1 0x0 SWAP1 SLOAD SWAP1 PUSH2 0x100 EXP SWAP1 DIV PUSH20 0xFFFFFFFFFFFFFFFFFFFFFFFFFFFFFFFFFFFFFFFF AND PUSH20 0xFFFFFFFFFFFFFFFFFFFFFFFFFFFFFFFFFFFFFFFF AND SUB PUSH2 0x124A JUMPI PUSH1 0x40 MLOAD PUSH32 0x1F6A65B600000000000000000000000000000000000000000000000000000000 DUP2 MSTORE PUSH1 0x4 ADD PUSH1 0x40 MLOAD DUP1 SWAP2 SUB SWAP1 REVERT JUMPDEST PUSH1 0x0 PUSH1 0x2 PUSH1 0x0 CALLER PUSH20 0xFFFFFFFFFFFFFFFFFFFFFFFFFFFFFFFFFFFFFFFF AND PUSH20 0xFFFFFFFFFFFFFFFFFFFFFFFFFFFFFFFFFFFFFFFF AND DUP2 MSTORE PUSH1 0x20 ADD SWAP1 DUP2 MSTORE PUSH1 0x20 ADD PUSH1 0x0 KECCAK256 PUSH1 0x0 DUP8 PUSH8 0xFFFFFFFFFFFFFFFF AND PUSH8 0xFFFFFFFFFFFFFFFF AND DUP2 MSTORE PUSH1 0x20 ADD SWAP1 DUP2 MSTORE PUSH1 0x20 ADD PUSH1 0x0 KECCAK256 PUSH1 0x0 SWAP1 SLOAD SWAP1 PUSH2 0x100 EXP SWAP1 DIV PUSH8 0xFFFFFFFFFFFFFFFF AND SWAP1 POP PUSH1 0x0 DUP2 PUSH8 0xFFFFFFFFFFFFFFFF AND SUB PUSH2 0x1318 JUMPI DUP6 CALLER PUSH1 0x40 MLOAD PUSH32 0xF0019FE600000000000000000000000000000000000000000000000000000000 DUP2 MSTORE PUSH1 0x4 ADD PUSH2 0x130F SWAP3 SWAP2 SWAP1 PUSH2 0x76BE JUMP JUMPDEST PUSH1 0x40 MLOAD DUP1 SWAP2 SUB SWAP1 REVERT JUMPDEST PUSH1 0xB PUSH1 0x0 ADD PUSH1 0x0 SWAP1 SLOAD SWAP1 PUSH2 0x100 EXP SWAP1 DIV PUSH2 0xFFFF AND PUSH2 0xFFFF AND DUP6 PUSH2 0xFFFF AND LT DUP1 PUSH2 0x1349 JUMPI POP PUSH1 0xC8 PUSH2 0xFFFF AND DUP6 PUSH2 0xFFFF AND GT JUMPDEST ISZERO PUSH2 0x13A3 JUMPI DUP5 PUSH1 0xB PUSH1 0x0 ADD PUSH1 0x0 SWAP1 SLOAD SWAP1 PUSH2 0x100 EXP SWAP1 DIV PUSH2 0xFFFF AND PUSH1 0xC8 PUSH1 0x40 MLOAD PUSH32 0xA738697600000000000000000000000000000000000000000000000000000000 DUP2 MSTORE PUSH1 0x4 ADD PUSH2 0x139A SWAP4 SWAP3 SWAP2 SWAP1 PUSH2 0x73A6 JUMP JUMPDEST PUSH1 0x40 MLOAD DUP1 SWAP2 SUB SWAP1 REVERT JUMPDEST PUSH1 0xB PUSH1 0x0 ADD PUSH1 0x2 SWAP1 SLOAD SWAP1 PUSH2 0x100 EXP SWAP1 DIV PUSH4 0xFFFFFFFF AND PUSH4 0xFFFFFFFF AND DUP5 PUSH4 0xFFFFFFFF AND GT ISZERO PUSH2 0x1420 JUMPI DUP4 PUSH1 0xB PUSH1 0x0 ADD PUSH1 0x2 SWAP1 SLOAD SWAP1 PUSH2 0x100 EXP SWAP1 DIV PUSH4 0xFFFFFFFF AND PUSH1 0x40 MLOAD PUSH32 0xF5D7E01E00000000000000000000000000000000000000000000000000000000 DUP2 MSTORE PUSH1 0x4 ADD PUSH2 0x1417 SWAP3 SWAP2 SWAP1 PUSH2 0x76E7 JUMP JUMPDEST PUSH1 0x40 MLOAD DUP1 SWAP2 SUB SWAP1 REVERT JUMPDEST PUSH2 0x1F4 PUSH4 0xFFFFFFFF AND DUP4 PUSH4 0xFFFFFFFF AND GT ISZERO PUSH2 0x1477 JUMPI DUP3 PUSH2 0x1F4 PUSH1 0x40 MLOAD PUSH32 0x47386BEC00000000000000000000000000000000000000000000000000000000 DUP2 MSTORE PUSH1 0x4 ADD PUSH2 0x146E SWAP3 SWAP2 SWAP1 PUSH2 0x76E7 JUMP JUMPDEST PUSH1 0x40 MLOAD DUP1 SWAP2 SUB SWAP1 REVERT JUMPDEST PUSH1 0x0 PUSH1 0x1 DUP3 PUSH2 0x1486 SWAP2 SWAP1 PUSH2 0x7710 JUMP JUMPDEST SWAP1 POP PUSH1 0x0 DUP1 PUSH2 0x1497 DUP11 CALLER DUP12 DUP7 PUSH2 0x47DD JUMP JUMPDEST SWAP2 POP SWAP2 POP DUP2 NUMBER DUP11 DUP10 DUP10 CALLER PUSH1 0x40 MLOAD PUSH1 0x20 ADD PUSH2 0x14B6 SWAP7 SWAP6 SWAP5 SWAP4 SWAP3 SWAP2 SWAP1 PUSH2 0x774C JUMP JUMPDEST PUSH1 0x40 MLOAD PUSH1 0x20 DUP2 DUP4 SUB SUB DUP2 MSTORE SWAP1 PUSH1 0x40 MSTORE DUP1 MLOAD SWAP1 PUSH1 0x20 ADD KECCAK256 PUSH1 0x9 PUSH1 0x0 DUP5 DUP2 MSTORE PUSH1 0x20 ADD SWAP1 DUP2 MSTORE PUSH1 0x20 ADD PUSH1 0x0 KECCAK256 DUP2 SWAP1 SSTORE POP CALLER PUSH20 0xFFFFFFFFFFFFFFFFFFFFFFFFFFFFFFFFFFFFFFFF AND DUP10 PUSH8 0xFFFFFFFFFFFFFFFF AND DUP12 PUSH32 0x63373D1C4696214B898952999C9AAEC57DAC1EE2723CEC59BEA6888F489A9772 DUP6 DUP6 DUP14 DUP14 DUP14 PUSH1 0x40 MLOAD PUSH2 0x153D SWAP6 SWAP5 SWAP4 SWAP3 SWAP2 SWAP1 PUSH2 0x77AD JUMP JUMPDEST PUSH1 0x40 MLOAD DUP1 SWAP2 SUB SWAP1 LOG4 DUP3 PUSH1 0x2 PUSH1 0x0 CALLER PUSH20 0xFFFFFFFFFFFFFFFFFFFFFFFFFFFFFFFFFFFFFFFF AND PUSH20 0xFFFFFFFFFFFFFFFFFFFFFFFFFFFFFFFFFFFFFFFF AND DUP2 MSTORE PUSH1 0x20 ADD SWAP1 DUP2 MSTORE PUSH1 0x20 ADD PUSH1 0x0 KECCAK256 PUSH1 0x0 DUP12 PUSH8 0xFFFFFFFFFFFFFFFF AND PUSH8 0xFFFFFFFFFFFFFFFF AND DUP2 MSTORE PUSH1 0x20 ADD SWAP1 DUP2 MSTORE PUSH1 0x20 ADD PUSH1 0x0 KECCAK256 PUSH1 0x0 PUSH2 0x100 EXP DUP2 SLOAD DUP2 PUSH8 0xFFFFFFFFFFFFFFFF MUL NOT AND SWAP1 DUP4 PUSH8 0xFFFFFFFFFFFFFFFF AND MUL OR SWAP1 SSTORE POP DUP2 SWAP5 POP POP POP POP POP SWAP6 SWAP5 POP POP POP POP POP JUMP JUMPDEST PUSH1 0x0 DUP1 PUSH1 0x0 DUP1 PUSH1 0x0 DUP1 PUSH1 0x0 DUP1 PUSH1 0x0 PUSH1 0xC PUSH1 0x0 ADD PUSH1 0x0 SWAP1 SLOAD SWAP1 PUSH2 0x100 EXP SWAP1 DIV PUSH4 0xFFFFFFFF AND PUSH1 0xC PUSH1 0x0 ADD PUSH1 0x4 SWAP1 SLOAD SWAP1 PUSH2 0x100 EXP SWAP1 DIV PUSH4 0xFFFFFFFF AND PUSH1 0xC PUSH1 0x0 ADD PUSH1 0x8 SWAP1 SLOAD SWAP1 PUSH2 0x100 EXP SWAP1 DIV PUSH4 0xFFFFFFFF AND PUSH1 0xC PUSH1 0x0 ADD PUSH1 0xC SWAP1 SLOAD SWAP1 PUSH2 0x100 EXP SWAP1 DIV PUSH4 0xFFFFFFFF AND PUSH1 0xC PUSH1 0x0 ADD PUSH1 0x10 SWAP1 SLOAD SWAP1 PUSH2 0x100 EXP SWAP1 DIV PUSH4 0xFFFFFFFF AND PUSH1 0xC PUSH1 0x0 ADD PUSH1 0x14 SWAP1 SLOAD SWAP1 PUSH2 0x100 EXP SWAP1 DIV PUSH3 0xFFFFFF AND PUSH1 0xC PUSH1 0x0 ADD PUSH1 0x17 SWAP1 SLOAD SWAP1 PUSH2 0x100 EXP SWAP1 DIV PUSH3 0xFFFFFF AND PUSH1 0xC PUSH1 0x0 ADD PUSH1 0x1A SWAP1 SLOAD SWAP1 PUSH2 0x100 EXP SWAP1 DIV PUSH3 0xFFFFFF AND PUSH1 0xC PUSH1 0x0 ADD PUSH1 0x1D SWAP1 SLOAD SWAP1 PUSH2 0x100 EXP SWAP1 DIV PUSH3 0xFFFFFF AND SWAP9 POP SWAP9 POP SWAP9 POP SWAP9 POP SWAP9 POP SWAP9 POP SWAP9 POP SWAP9 POP SWAP9 POP SWAP1 SWAP2 SWAP3 SWAP4 SWAP5 SWAP6 SWAP7 SWAP8 SWAP9 JUMP JUMPDEST PUSH1 0x64 DUP2 JUMP JUMPDEST PUSH1 0xB PUSH1 0x0 ADD PUSH1 0x6 SWAP1 SLOAD SWAP1 PUSH2 0x100 EXP SWAP1 DIV PUSH1 0xFF AND ISZERO PUSH2 0x171C JUMPI PUSH1 0x40 MLOAD PUSH32 0xED3BA6A600000000000000000000000000000000000000000000000000000000 DUP2 MSTORE PUSH1 0x4 ADD PUSH1 0x40 MLOAD DUP1 SWAP2 SUB SWAP1 REVERT JUMPDEST DUP1 PUSH12 0xFFFFFFFFFFFFFFFFFFFFFFFF AND PUSH1 0x8 PUSH1 0x0 CALLER PUSH20 0xFFFFFFFFFFFFFFFFFFFFFFFFFFFFFFFFFFFFFFFF AND PUSH20 0xFFFFFFFFFFFFFFFFFFFFFFFFFFFFFFFFFFFFFFFF AND DUP2 MSTORE PUSH1 0x20 ADD SWAP1 DUP2 MSTORE PUSH1 0x20 ADD PUSH1 0x0 KECCAK256 PUSH1 0x0 SWAP1 SLOAD SWAP1 PUSH2 0x100 EXP SWAP1 DIV PUSH12 0xFFFFFFFFFFFFFFFFFFFFFFFF AND PUSH12 0xFFFFFFFFFFFFFFFFFFFFFFFF AND LT ISZERO PUSH2 0x17C9 JUMPI PUSH1 0x40 MLOAD PUSH32 0xF4D678B800000000000000000000000000000000000000000000000000000000 DUP2 MSTORE PUSH1 0x4 ADD PUSH1 0x40 MLOAD DUP1 SWAP2 SUB SWAP1 REVERT JUMPDEST DUP1 PUSH1 0x8 PUSH1 0x0 CALLER PUSH20 0xFFFFFFFFFFFFFFFFFFFFFFFFFFFFFFFFFFFFFFFF AND PUSH20 0xFFFFFFFFFFFFFFFFFFFFFFFFFFFFFFFFFFFFFFFF AND DUP2 MSTORE PUSH1 0x20 ADD SWAP1 DUP2 MSTORE PUSH1 0x20 ADD PUSH1 0x0 KECCAK256 PUSH1 0x0 DUP3 DUP3 DUP3 SWAP1 SLOAD SWAP1 PUSH2 0x100 EXP SWAP1 DIV PUSH12 0xFFFFFFFFFFFFFFFFFFFFFFFF AND PUSH2 0x182F SWAP2 SWAP1 PUSH2 0x7800 JUMP JUMPDEST SWAP3 POP PUSH2 0x100 EXP DUP2 SLOAD DUP2 PUSH12 0xFFFFFFFFFFFFFFFFFFFFFFFF MUL NOT AND SWAP1 DUP4 PUSH12 0xFFFFFFFFFFFFFFFFFFFFFFFF AND MUL OR SWAP1 SSTORE POP DUP1 PUSH1 0x5 PUSH1 0x8 DUP3 DUP3 DUP3 SWAP1 SLOAD SWAP1 PUSH2 0x100 EXP SWAP1 DIV PUSH12 0xFFFFFFFFFFFFFFFFFFFFFFFF AND PUSH2 0x1886 SWAP2 SWAP1 PUSH2 0x7800 JUMP JUMPDEST SWAP3 POP PUSH2 0x100 EXP DUP2 SLOAD DUP2 PUSH12 0xFFFFFFFFFFFFFFFFFFFFFFFF MUL NOT AND SWAP1 DUP4 PUSH12 0xFFFFFFFFFFFFFFFFFFFFFFFF AND MUL OR SWAP1 SSTORE POP PUSH32 0x0 PUSH20 0xFFFFFFFFFFFFFFFFFFFFFFFFFFFFFFFFFFFFFFFF AND PUSH4 0xA9059CBB DUP4 DUP4 PUSH1 0x40 MLOAD DUP4 PUSH4 0xFFFFFFFF AND PUSH1 0xE0 SHL DUP2 MSTORE PUSH1 0x4 ADD PUSH2 0x190F SWAP3 SWAP2 SWAP1 PUSH2 0x7871 JUMP JUMPDEST PUSH1 0x20 PUSH1 0x40 MLOAD DUP1 DUP4 SUB DUP2 PUSH1 0x0 DUP8 GAS CALL ISZERO DUP1 ISZERO PUSH2 0x192E JUMPI RETURNDATASIZE PUSH1 0x0 DUP1 RETURNDATACOPY RETURNDATASIZE PUSH1 0x0 REVERT JUMPDEST POP POP POP POP PUSH1 0x40 MLOAD RETURNDATASIZE PUSH1 0x1F NOT PUSH1 0x1F DUP3 ADD AND DUP3 ADD DUP1 PUSH1 0x40 MSTORE POP DUP2 ADD SWAP1 PUSH2 0x1952 SWAP2 SWAP1 PUSH2 0x78C6 JUMP JUMPDEST PUSH2 0x1988 JUMPI PUSH1 0x40 MLOAD PUSH32 0xF4D678B800000000000000000000000000000000000000000000000000000000 DUP2 MSTORE PUSH1 0x4 ADD PUSH1 0x40 MLOAD DUP1 SWAP2 SUB SWAP1 REVERT JUMPDEST POP POP JUMP JUMPDEST PUSH32 0x0 DUP2 JUMP JUMPDEST PUSH1 0x0 PUSH1 0x9 PUSH1 0x0 DUP4 DUP2 MSTORE PUSH1 0x20 ADD SWAP1 DUP2 MSTORE PUSH1 0x20 ADD PUSH1 0x0 KECCAK256 SLOAD SWAP1 POP SWAP2 SWAP1 POP JUMP JUMPDEST PUSH2 0x19D5 PUSH2 0x41B7 JUMP JUMPDEST PUSH1 0x0 PUSH2 0x1A17 DUP3 PUSH1 0x2 DUP1 PUSH1 0x20 MUL PUSH1 0x40 MLOAD SWAP1 DUP2 ADD PUSH1 0x40 MSTORE DUP1 SWAP3 SWAP2 SWAP1 DUP3 PUSH1 0x2 PUSH1 0x20 MUL DUP1 DUP3 DUP5 CALLDATACOPY PUSH1 0x0 DUP2 DUP5 ADD MSTORE PUSH1 0x1F NOT PUSH1 0x1F DUP3 ADD AND SWAP1 POP DUP1 DUP4 ADD SWAP3 POP POP POP POP POP POP PUSH2 0x384F JUMP JUMPDEST SWAP1 POP PUSH1 0x0 PUSH20 0xFFFFFFFFFFFFFFFFFFFFFFFFFFFFFFFFFFFFFFFF AND PUSH1 0x6 PUSH1 0x0 DUP4 DUP2 MSTORE PUSH1 0x20 ADD SWAP1 DUP2 MSTORE PUSH1 0x20 ADD PUSH1 0x0 KECCAK256 PUSH1 0x0 SWAP1 SLOAD SWAP1 PUSH2 0x100 EXP SWAP1 DIV PUSH20 0xFFFFFFFFFFFFFFFFFFFFFFFFFFFFFFFFFFFFFFFF AND PUSH20 0xFFFFFFFFFFFFFFFFFFFFFFFFFFFFFFFFFFFFFFFF AND EQ PUSH2 0x1ABD JUMPI DUP1 PUSH1 0x40 MLOAD PUSH32 0x4A0B8FA700000000000000000000000000000000000000000000000000000000 DUP2 MSTORE PUSH1 0x4 ADD PUSH2 0x1AB4 SWAP2 SWAP1 PUSH2 0x6C75 JUMP JUMPDEST PUSH1 0x40 MLOAD DUP1 SWAP2 SUB SWAP1 REVERT JUMPDEST DUP3 PUSH1 0x6 PUSH1 0x0 DUP4 DUP2 MSTORE PUSH1 0x20 ADD SWAP1 DUP2 MSTORE PUSH1 0x20 ADD PUSH1 0x0 KECCAK256 PUSH1 0x0 PUSH2 0x100 EXP DUP2 SLOAD DUP2 PUSH20 0xFFFFFFFFFFFFFFFFFFFFFFFFFFFFFFFFFFFFFFFF MUL NOT AND SWAP1 DUP4 PUSH20 0xFFFFFFFFFFFFFFFFFFFFFFFFFFFFFFFFFFFFFFFF AND MUL OR SWAP1 SSTORE POP PUSH1 0x7 DUP2 SWAP1 DUP1 PUSH1 0x1 DUP2 SLOAD ADD DUP1 DUP3 SSTORE DUP1 SWAP2 POP POP PUSH1 0x1 SWAP1 SUB SWAP1 PUSH1 0x0 MSTORE PUSH1 0x20 PUSH1 0x0 KECCAK256 ADD PUSH1 0x0 SWAP1 SWAP2 SWAP1 SWAP2 SWAP1 SWAP2 POP SSTORE DUP3 PUSH20 0xFFFFFFFFFFFFFFFFFFFFFFFFFFFFFFFFFFFFFFFF AND PUSH32 0xE729AE16526293F74ADE739043022254F1489F616295A25BF72DFB4511ED73B8 DUP3 PUSH1 0x40 MLOAD PUSH2 0x1B7E SWAP2 SWAP1 PUSH2 0x6C75 JUMP JUMPDEST PUSH1 0x40 MLOAD DUP1 SWAP2 SUB SWAP1 LOG2 POP POP POP JUMP JUMPDEST DUP2 PUSH1 0x0 PUSH1 0x3 PUSH1 0x0 DUP4 PUSH8 0xFFFFFFFFFFFFFFFF AND PUSH8 0xFFFFFFFFFFFFFFFF AND DUP2 MSTORE PUSH1 0x20 ADD SWAP1 DUP2 MSTORE PUSH1 0x20 ADD PUSH1 0x0 KECCAK256 PUSH1 0x0 ADD PUSH1 0x0 SWAP1 SLOAD SWAP1 PUSH2 0x100 EXP SWAP1 DIV PUSH20 0xFFFFFFFFFFFFFFFFFFFFFFFFFFFFFFFFFFFFFFFF AND SWAP1 POP PUSH1 0x0 PUSH20 0xFFFFFFFFFFFFFFFFFFFFFFFFFFFFFFFFFFFFFFFF AND DUP2 PUSH20 0xFFFFFFFFFFFFFFFFFFFFFFFFFFFFFFFFFFFFFFFF AND SUB PUSH2 0x1C41 JUMPI PUSH1 0x40 MLOAD PUSH32 0x1F6A65B600000000000000000000000000000000000000000000000000000000 DUP2 MSTORE PUSH1 0x4 ADD PUSH1 0x40 MLOAD DUP1 SWAP2 SUB SWAP1 REVERT JUMPDEST DUP1 PUSH20 0xFFFFFFFFFFFFFFFFFFFFFFFFFFFFFFFFFFFFFFFF AND CALLER PUSH20 0xFFFFFFFFFFFFFFFFFFFFFFFFFFFFFFFFFFFFFFFF AND EQ PUSH2 0x1CB1 JUMPI DUP1 PUSH1 0x40 MLOAD PUSH32 0xD8A3FB5200000000000000000000000000000000000000000000000000000000 DUP2 MSTORE PUSH1 0x4 ADD PUSH2 0x1CA8 SWAP2 SWAP1 PUSH2 0x6CDF JUMP JUMPDEST PUSH1 0x40 MLOAD DUP1 SWAP2 SUB SWAP1 REVERT JUMPDEST PUSH1 0xB PUSH1 0x0 ADD PUSH1 0x6 SWAP1 SLOAD SWAP1 PUSH2 0x100 EXP SWAP1 DIV PUSH1 0xFF AND ISZERO PUSH2 0x1CFB JUMPI PUSH1 0x40 MLOAD PUSH32 0xED3BA6A600000000000000000000000000000000000000000000000000000000 DUP2 MSTORE PUSH1 0x4 ADD PUSH1 0x40 MLOAD DUP1 SWAP2 SUB SWAP1 REVERT JUMPDEST PUSH1 0x64 PUSH2 0xFFFF AND PUSH1 0x3 PUSH1 0x0 DUP7 PUSH8 0xFFFFFFFFFFFFFFFF AND PUSH8 0xFFFFFFFFFFFFFFFF AND DUP2 MSTORE PUSH1 0x20 ADD SWAP1 DUP2 MSTORE PUSH1 0x20 ADD PUSH1 0x0 KECCAK256 PUSH1 0x2 ADD DUP1 SLOAD SWAP1 POP SUB PUSH2 0x1D66 JUMPI PUSH1 0x40 MLOAD PUSH32 0x5A48E0F00000000000000000000000000000000000000000000000000000000 DUP2 MSTORE PUSH1 0x4 ADD PUSH1 0x40 MLOAD DUP1 SWAP2 SUB SWAP1 REVERT JUMPDEST PUSH1 0x0 PUSH1 0x2 PUSH1 0x0 DUP6 PUSH20 0xFFFFFFFFFFFFFFFFFFFFFFFFFFFFFFFFFFFFFFFF AND PUSH20 0xFFFFFFFFFFFFFFFFFFFFFFFFFFFFFFFFFFFFFFFF AND DUP2 MSTORE PUSH1 0x20 ADD SWAP1 DUP2 MSTORE PUSH1 0x20 ADD PUSH1 0x0 KECCAK256 PUSH1 0x0 DUP7 PUSH8 0xFFFFFFFFFFFFFFFF AND PUSH8 0xFFFFFFFFFFFFFFFF AND DUP2 MSTORE PUSH1 0x20 ADD SWAP1 DUP2 MSTORE PUSH1 0x20 ADD PUSH1 0x0 KECCAK256 PUSH1 0x0 SWAP1 SLOAD SWAP1 PUSH2 0x100 EXP SWAP1 DIV PUSH8 0xFFFFFFFFFFFFFFFF AND PUSH8 0xFFFFFFFFFFFFFFFF AND SUB PUSH2 0x1F4A JUMPI PUSH1 0x1 PUSH1 0x2 PUSH1 0x0 DUP6 PUSH20 0xFFFFFFFFFFFFFFFFFFFFFFFFFFFFFFFFFFFFFFFF AND PUSH20 0xFFFFFFFFFFFFFFFFFFFFFFFFFFFFFFFFFFFFFFFF AND DUP2 MSTORE PUSH1 0x20 ADD SWAP1 DUP2 MSTORE PUSH1 0x20 ADD PUSH1 0x0 KECCAK256 PUSH1 0x0 DUP7 PUSH8 0xFFFFFFFFFFFFFFFF AND PUSH8 0xFFFFFFFFFFFFFFFF AND DUP2 MSTORE PUSH1 0x20 ADD SWAP1 DUP2 MSTORE PUSH1 0x20 ADD PUSH1 0x0 KECCAK256 PUSH1 0x0 PUSH2 0x100 EXP DUP2 SLOAD DUP2 PUSH8 0xFFFFFFFFFFFFFFFF MUL NOT AND SWAP1 DUP4 PUSH8 0xFFFFFFFFFFFFFFFF AND MUL OR SWAP1 SSTORE POP PUSH1 0x3 PUSH1 0x0 DUP6 PUSH8 0xFFFFFFFFFFFFFFFF AND PUSH8 0xFFFFFFFFFFFFFFFF AND DUP2 MSTORE PUSH1 0x20 ADD SWAP1 DUP2 MSTORE PUSH1 0x20 ADD PUSH1 0x0 KECCAK256 PUSH1 0x2 ADD DUP4 SWAP1 DUP1 PUSH1 0x1 DUP2 SLOAD ADD DUP1 DUP3 SSTORE DUP1 SWAP2 POP POP PUSH1 0x1 SWAP1 SUB SWAP1 PUSH1 0x0 MSTORE PUSH1 0x20 PUSH1 0x0 KECCAK256 ADD PUSH1 0x0 SWAP1 SWAP2 SWAP1 SWAP2 SWAP1 SWAP2 PUSH2 0x100 EXP DUP2 SLOAD DUP2 PUSH20 0xFFFFFFFFFFFFFFFFFFFFFFFFFFFFFFFFFFFFFFFF MUL NOT AND SWAP1 DUP4 PUSH20 0xFFFFFFFFFFFFFFFFFFFFFFFFFFFFFFFFFFFFFFFF AND MUL OR SWAP1 SSTORE POP DUP4 PUSH8 0xFFFFFFFFFFFFFFFF AND PUSH32 0x43DC749A04AC8FB825CBD514F7C0E13F13BC6F2EE66043B76629D51776CFF8E0 DUP5 PUSH1 0x40 MLOAD PUSH2 0x1F41 SWAP2 SWAP1 PUSH2 0x6CDF JUMP JUMPDEST PUSH1 0x40 MLOAD DUP1 SWAP2 SUB SWAP1 LOG2 JUMPDEST POP POP POP POP JUMP JUMPDEST PUSH1 0x1 PUSH1 0x0 SWAP1 SLOAD SWAP1 PUSH2 0x100 EXP SWAP1 DIV PUSH20 0xFFFFFFFFFFFFFFFFFFFFFFFFFFFFFFFFFFFFFFFF AND PUSH20 0xFFFFFFFFFFFFFFFFFFFFFFFFFFFFFFFFFFFFFFFF AND CALLER PUSH20 0xFFFFFFFFFFFFFFFFFFFFFFFFFFFFFFFFFFFFFFFF AND EQ PUSH2 0x1FE0 JUMPI PUSH1 0x40 MLOAD PUSH32 0x8C379A000000000000000000000000000000000000000000000000000000000 DUP2 MSTORE PUSH1 0x4 ADD PUSH2 0x1FD7 SWAP1 PUSH2 0x793F JUMP JUMPDEST PUSH1 0x40 MLOAD DUP1 SWAP2 SUB SWAP1 REVERT JUMPDEST PUSH1 0x0 DUP1 PUSH1 0x0 SWAP1 SLOAD SWAP1 PUSH2 0x100 EXP SWAP1 DIV PUSH20 0xFFFFFFFFFFFFFFFFFFFFFFFFFFFFFFFFFFFFFFFF AND SWAP1 POP CALLER PUSH1 0x0 DUP1 PUSH2 0x100 EXP DUP2 SLOAD DUP2 PUSH20 0xFFFFFFFFFFFFFFFFFFFFFFFFFFFFFFFFFFFFFFFF MUL NOT AND SWAP1 DUP4 PUSH20 0xFFFFFFFFFFFFFFFFFFFFFFFFFFFFFFFFFFFFFFFF AND MUL OR SWAP1 SSTORE POP PUSH1 0x0 PUSH1 0x1 PUSH1 0x0 PUSH2 0x100 EXP DUP2 SLOAD DUP2 PUSH20 0xFFFFFFFFFFFFFFFFFFFFFFFFFFFFFFFFFFFFFFFF MUL NOT AND SWAP1 DUP4 PUSH20 0xFFFFFFFFFFFFFFFFFFFFFFFFFFFFFFFFFFFFFFFF AND MUL OR SWAP1 SSTORE POP CALLER PUSH20 0xFFFFFFFFFFFFFFFFFFFFFFFFFFFFFFFFFFFFFFFF AND DUP2 PUSH20 0xFFFFFFFFFFFFFFFFFFFFFFFFFFFFFFFFFFFFFFFF AND PUSH32 0x8BE0079C531659141344CD1FD0A4F28419497F9722A3DAAFE3B4186F6B6457E0 PUSH1 0x40 MLOAD PUSH1 0x40 MLOAD DUP1 SWAP2 SUB SWAP1 LOG3 POP JUMP JUMPDEST PUSH1 0xB PUSH1 0x0 ADD PUSH1 0x6 SWAP1 SLOAD SWAP1 PUSH2 0x100 EXP SWAP1 DIV PUSH1 0xFF AND ISZERO PUSH2 0x212F JUMPI PUSH1 0x40 MLOAD PUSH32 0xED3BA6A600000000000000000000000000000000000000000000000000000000 DUP2 MSTORE PUSH1 0x4 ADD PUSH1 0x40 MLOAD DUP1 SWAP2 SUB SWAP1 REVERT JUMPDEST PUSH1 0x0 PUSH20 0xFFFFFFFFFFFFFFFFFFFFFFFFFFFFFFFFFFFFFFFF AND PUSH1 0x3 PUSH1 0x0 DUP4 PUSH8 0xFFFFFFFFFFFFFFFF AND PUSH8 0xFFFFFFFFFFFFFFFF AND DUP2 MSTORE PUSH1 0x20 ADD SWAP1 DUP2 MSTORE PUSH1 0x20 ADD PUSH1 0x0 KECCAK256 PUSH1 0x0 ADD PUSH1 0x0 SWAP1 SLOAD SWAP1 PUSH2 0x100 EXP SWAP1 DIV PUSH20 0xFFFFFFFFFFFFFFFFFFFFFFFFFFFFFFFFFFFFFFFF AND PUSH20 0xFFFFFFFFFFFFFFFFFFFFFFFFFFFFFFFFFFFFFFFF AND SUB PUSH2 0x21DF JUMPI PUSH1 0x40 MLOAD PUSH32 0x1F6A65B600000000000000000000000000000000000000000000000000000000 DUP2 MSTORE PUSH1 0x4 ADD PUSH1 0x40 MLOAD DUP1 SWAP2 SUB SWAP1 REVERT JUMPDEST CALLER PUSH20 0xFFFFFFFFFFFFFFFFFFFFFFFFFFFFFFFFFFFFFFFF AND PUSH1 0x3 PUSH1 0x0 DUP4 PUSH8 0xFFFFFFFFFFFFFFFF AND PUSH8 0xFFFFFFFFFFFFFFFF AND DUP2 MSTORE PUSH1 0x20 ADD SWAP1 DUP2 MSTORE PUSH1 0x20 ADD PUSH1 0x0 KECCAK256 PUSH1 0x1 ADD PUSH1 0x0 SWAP1 SLOAD SWAP1 PUSH2 0x100 EXP SWAP1 DIV PUSH20 0xFFFFFFFFFFFFFFFFFFFFFFFFFFFFFFFFFFFFFFFF AND PUSH20 0xFFFFFFFFFFFFFFFFFFFFFFFFFFFFFFFFFFFFFFFF AND EQ PUSH2 0x22E3 JUMPI PUSH1 0x3 PUSH1 0x0 DUP3 PUSH8 0xFFFFFFFFFFFFFFFF AND PUSH8 0xFFFFFFFFFFFFFFFF AND DUP2 MSTORE PUSH1 0x20 ADD SWAP1 DUP2 MSTORE PUSH1 0x20 ADD PUSH1 0x0 KECCAK256 PUSH1 0x1 ADD PUSH1 0x0 SWAP1 SLOAD SWAP1 PUSH2 0x100 EXP SWAP1 DIV PUSH20 0xFFFFFFFFFFFFFFFFFFFFFFFFFFFFFFFFFFFFFFFF AND PUSH1 0x40 MLOAD PUSH32 0xD084E97500000000000000000000000000000000000000000000000000000000 DUP2 MSTORE PUSH1 0x4 ADD PUSH2 0x22DA SWAP2 SWAP1 PUSH2 0x6CDF JUMP JUMPDEST PUSH1 0x40 MLOAD DUP1 SWAP2 SUB SWAP1 REVERT JUMPDEST PUSH1 0x0 PUSH1 0x3 PUSH1 0x0 DUP4 PUSH8 0xFFFFFFFFFFFFFFFF AND PUSH8 0xFFFFFFFFFFFFFFFF AND DUP2 MSTORE PUSH1 0x20 ADD SWAP1 DUP2 MSTORE PUSH1 0x20 ADD PUSH1 0x0 KECCAK256 PUSH1 0x0 ADD PUSH1 0x0 SWAP1 SLOAD SWAP1 PUSH2 0x100 EXP SWAP1 DIV PUSH20 0xFFFFFFFFFFFFFFFFFFFFFFFFFFFFFFFFFFFFFFFF AND SWAP1 POP CALLER PUSH1 0x3 PUSH1 0x0 DUP5 PUSH8 0xFFFFFFFFFFFFFFFF AND PUSH8 0xFFFFFFFFFFFFFFFF AND DUP2 MSTORE PUSH1 0x20 ADD SWAP1 DUP2 MSTORE PUSH1 0x20 ADD PUSH1 0x0 KECCAK256 PUSH1 0x0 ADD PUSH1 0x0 PUSH2 0x100 EXP DUP2 SLOAD DUP2 PUSH20 0xFFFFFFFFFFFFFFFFFFFFFFFFFFFFFFFFFFFFFFFF MUL NOT AND SWAP1 DUP4 PUSH20 0xFFFFFFFFFFFFFFFFFFFFFFFFFFFFFFFFFFFFFFFF AND MUL OR SWAP1 SSTORE POP PUSH1 0x0 PUSH1 0x3 PUSH1 0x0 DUP5 PUSH8 0xFFFFFFFFFFFFFFFF AND PUSH8 0xFFFFFFFFFFFFFFFF AND DUP2 MSTORE PUSH1 0x20 ADD SWAP1 DUP2 MSTORE PUSH1 0x20 ADD PUSH1 0x0 KECCAK256 PUSH1 0x1 ADD PUSH1 0x0 PUSH2 0x100 EXP DUP2 SLOAD DUP2 PUSH20 0xFFFFFFFFFFFFFFFFFFFFFFFFFFFFFFFFFFFFFFFF MUL NOT AND SWAP1 DUP4 PUSH20 0xFFFFFFFFFFFFFFFFFFFFFFFFFFFFFFFFFFFFFFFF AND MUL OR SWAP1 SSTORE POP DUP2 PUSH8 0xFFFFFFFFFFFFFFFF AND PUSH32 0x6F1DC65165FFFFEDFD8E507B4A0F1FCFDADA045ED11F6C26BA27CEDFE87802F0 DUP3 CALLER PUSH1 0x40 MLOAD PUSH2 0x2441 SWAP3 SWAP2 SWAP1 PUSH2 0x7274 JUMP JUMPDEST PUSH1 0x40 MLOAD DUP1 SWAP2 SUB SWAP1 LOG2 POP POP JUMP JUMPDEST PUSH1 0x0 DUP1 PUSH1 0x0 SWAP1 SLOAD SWAP1 PUSH2 0x100 EXP SWAP1 DIV PUSH20 0xFFFFFFFFFFFFFFFFFFFFFFFFFFFFFFFFFFFFFFFF AND SWAP1 POP SWAP1 JUMP JUMPDEST DUP2 PUSH1 0x0 PUSH1 0x3 PUSH1 0x0 DUP4 PUSH8 0xFFFFFFFFFFFFFFFF AND PUSH8 0xFFFFFFFFFFFFFFFF AND DUP2 MSTORE PUSH1 0x20 ADD SWAP1 DUP2 MSTORE PUSH1 0x20 ADD PUSH1 0x0 KECCAK256 PUSH1 0x0 ADD PUSH1 0x0 SWAP1 SLOAD SWAP1 PUSH2 0x100 EXP SWAP1 DIV PUSH20 0xFFFFFFFFFFFFFFFFFFFFFFFFFFFFFFFFFFFFFFFF AND SWAP1 POP PUSH1 0x0 PUSH20 0xFFFFFFFFFFFFFFFFFFFFFFFFFFFFFFFFFFFFFFFF AND DUP2 PUSH20 0xFFFFFFFFFFFFFFFFFFFFFFFFFFFFFFFFFFFFFFFF AND SUB PUSH2 0x252C JUMPI PUSH1 0x40 MLOAD PUSH32 0x1F6A65B600000000000000000000000000000000000000000000000000000000 DUP2 MSTORE PUSH1 0x4 ADD PUSH1 0x40 MLOAD DUP1 SWAP2 SUB SWAP1 REVERT JUMPDEST DUP1 PUSH20 0xFFFFFFFFFFFFFFFFFFFFFFFFFFFFFFFFFFFFFFFF AND CALLER PUSH20 0xFFFFFFFFFFFFFFFFFFFFFFFFFFFFFFFFFFFFFFFF AND EQ PUSH2 0x259C JUMPI DUP1 PUSH1 0x40 MLOAD PUSH32 0xD8A3FB5200000000000000000000000000000000000000000000000000000000 DUP2 MSTORE PUSH1 0x4 ADD PUSH2 0x2593 SWAP2 SWAP1 PUSH2 0x6CDF JUMP JUMPDEST PUSH1 0x40 MLOAD DUP1 SWAP2 SUB SWAP1 REVERT JUMPDEST PUSH1 0xB PUSH1 0x0 ADD PUSH1 0x6 SWAP1 SLOAD SWAP1 PUSH2 0x100 EXP SWAP1 DIV PUSH1 0xFF AND ISZERO PUSH2 0x25E6 JUMPI PUSH1 0x40 MLOAD PUSH32 0xED3BA6A600000000000000000000000000000000000000000000000000000000 DUP2 MSTORE PUSH1 0x4 ADD PUSH1 0x40 MLOAD DUP1 SWAP2 SUB SWAP1 REVERT JUMPDEST PUSH1 0x0 PUSH1 0x2 PUSH1 0x0 DUP6 PUSH20 0xFFFFFFFFFFFFFFFFFFFFFFFFFFFFFFFFFFFFFFFF AND PUSH20 0xFFFFFFFFFFFFFFFFFFFFFFFFFFFFFFFFFFFFFFFF AND DUP2 MSTORE PUSH1 0x20 ADD SWAP1 DUP2 MSTORE PUSH1 0x20 ADD PUSH1 0x0 KECCAK256 PUSH1 0x0 DUP7 PUSH8 0xFFFFFFFFFFFFFFFF AND PUSH8 0xFFFFFFFFFFFFFFFF AND DUP2 MSTORE PUSH1 0x20 ADD SWAP1 DUP2 MSTORE PUSH1 0x20 ADD PUSH1 0x0 KECCAK256 PUSH1 0x0 SWAP1 SLOAD SWAP1 PUSH2 0x100 EXP SWAP1 DIV PUSH8 0xFFFFFFFFFFFFFFFF AND PUSH8 0xFFFFFFFFFFFFFFFF AND SUB PUSH2 0x26AF JUMPI DUP4 DUP4 PUSH1 0x40 MLOAD PUSH32 0xF0019FE600000000000000000000000000000000000000000000000000000000 DUP2 MSTORE PUSH1 0x4 ADD PUSH2 0x26A6 SWAP3 SWAP2 SWAP1 PUSH2 0x76BE JUMP JUMPDEST PUSH1 0x40 MLOAD DUP1 SWAP2 SUB SWAP1 REVERT JUMPDEST PUSH1 0x0 PUSH1 0x3 PUSH1 0x0 DUP7 PUSH8 0xFFFFFFFFFFFFFFFF AND PUSH8 0xFFFFFFFFFFFFFFFF AND DUP2 MSTORE PUSH1 0x20 ADD SWAP1 DUP2 MSTORE PUSH1 0x20 ADD PUSH1 0x0 KECCAK256 PUSH1 0x2 ADD DUP1 SLOAD DUP1 PUSH1 0x20 MUL PUSH1 0x20 ADD PUSH1 0x40 MLOAD SWAP1 DUP2 ADD PUSH1 0x40 MSTORE DUP1 SWAP3 SWAP2 SWAP1 DUP2 DUP2 MSTORE PUSH1 0x20 ADD DUP3 DUP1 SLOAD DUP1 ISZERO PUSH2 0x275B JUMPI PUSH1 0x20 MUL DUP3 ADD SWAP2 SWAP1 PUSH1 0x0 MSTORE PUSH1 0x20 PUSH1 0x0 KECCAK256 SWAP1 JUMPDEST DUP2 PUSH1 0x0 SWAP1 SLOAD SWAP1 PUSH2 0x100 EXP SWAP1 DIV PUSH20 0xFFFFFFFFFFFFFFFFFFFFFFFFFFFFFFFFFFFFFFFF AND PUSH20 0xFFFFFFFFFFFFFFFFFFFFFFFFFFFFFFFFFFFFFFFF AND DUP2 MSTORE PUSH1 0x20 ADD SWAP1 PUSH1 0x1 ADD SWAP1 DUP1 DUP4 GT PUSH2 0x2711 JUMPI JUMPDEST POP POP POP POP POP SWAP1 POP PUSH1 0x0 PUSH1 0x1 DUP3 MLOAD PUSH2 0x2772 SWAP2 SWAP1 PUSH2 0x72FB JUMP JUMPDEST SWAP1 POP PUSH1 0x0 JUMPDEST DUP3 MLOAD DUP2 LT ISZERO PUSH2 0x28F9 JUMPI DUP6 PUSH20 0xFFFFFFFFFFFFFFFFFFFFFFFFFFFFFFFFFFFFFFFF AND DUP4 DUP3 DUP2 MLOAD DUP2 LT PUSH2 0x27AA JUMPI PUSH2 0x27A9 PUSH2 0x729D JUMP JUMPDEST JUMPDEST PUSH1 0x20 MUL PUSH1 0x20 ADD ADD MLOAD PUSH20 0xFFFFFFFFFFFFFFFFFFFFFFFFFFFFFFFFFFFFFFFF AND SUB PUSH2 0x28E6 JUMPI PUSH1 0x0 DUP4 DUP4 DUP2 MLOAD DUP2 LT PUSH2 0x27E2 JUMPI PUSH2 0x27E1 PUSH2 0x729D JUMP JUMPDEST JUMPDEST PUSH1 0x20 MUL PUSH1 0x20 ADD ADD MLOAD SWAP1 POP DUP1 PUSH1 0x3 PUSH1 0x0 DUP11 PUSH8 0xFFFFFFFFFFFFFFFF AND PUSH8 0xFFFFFFFFFFFFFFFF AND DUP2 MSTORE PUSH1 0x20 ADD SWAP1 DUP2 MSTORE PUSH1 0x20 ADD PUSH1 0x0 KECCAK256 PUSH1 0x2 ADD DUP4 DUP2 SLOAD DUP2 LT PUSH2 0x2829 JUMPI PUSH2 0x2828 PUSH2 0x729D JUMP JUMPDEST JUMPDEST SWAP1 PUSH1 0x0 MSTORE PUSH1 0x20 PUSH1 0x0 KECCAK256 ADD PUSH1 0x0 PUSH2 0x100 EXP DUP2 SLOAD DUP2 PUSH20 0xFFFFFFFFFFFFFFFFFFFFFFFFFFFFFFFFFFFFFFFF MUL NOT AND SWAP1 DUP4 PUSH20 0xFFFFFFFFFFFFFFFFFFFFFFFFFFFFFFFFFFFFFFFF AND MUL OR SWAP1 SSTORE POP PUSH1 0x3 PUSH1 0x0 DUP10 PUSH8 0xFFFFFFFFFFFFFFFF AND PUSH8 0xFFFFFFFFFFFFFFFF AND DUP2 MSTORE PUSH1 0x20 ADD SWAP1 DUP2 MSTORE PUSH1 0x20 ADD PUSH1 0x0 KECCAK256 PUSH1 0x2 ADD DUP1 SLOAD DUP1 PUSH2 0x28AB JUMPI PUSH2 0x28AA PUSH2 0x732F JUMP JUMPDEST JUMPDEST PUSH1 0x1 SWAP1 SUB DUP2 DUP2 SWAP1 PUSH1 0x0 MSTORE PUSH1 0x20 PUSH1 0x0 KECCAK256 ADD PUSH1 0x0 PUSH2 0x100 EXP DUP2 SLOAD SWAP1 PUSH20 0xFFFFFFFFFFFFFFFFFFFFFFFFFFFFFFFFFFFFFFFF MUL NOT AND SWAP1 SSTORE SWAP1 SSTORE POP PUSH2 0x28F9 JUMP JUMPDEST DUP1 DUP1 PUSH2 0x28F1 SWAP1 PUSH2 0x735E JUMP JUMPDEST SWAP2 POP POP PUSH2 0x2777 JUMP JUMPDEST POP PUSH1 0x2 PUSH1 0x0 DUP7 PUSH20 0xFFFFFFFFFFFFFFFFFFFFFFFFFFFFFFFFFFFFFFFF AND PUSH20 0xFFFFFFFFFFFFFFFFFFFFFFFFFFFFFFFFFFFFFFFF AND DUP2 MSTORE PUSH1 0x20 ADD SWAP1 DUP2 MSTORE PUSH1 0x20 ADD PUSH1 0x0 KECCAK256 PUSH1 0x0 DUP8 PUSH8 0xFFFFFFFFFFFFFFFF AND PUSH8 0xFFFFFFFFFFFFFFFF AND DUP2 MSTORE PUSH1 0x20 ADD SWAP1 DUP2 MSTORE PUSH1 0x20 ADD PUSH1 0x0 KECCAK256 PUSH1 0x0 PUSH2 0x100 EXP DUP2 SLOAD SWAP1 PUSH8 0xFFFFFFFFFFFFFFFF MUL NOT AND SWAP1 SSTORE DUP6 PUSH8 0xFFFFFFFFFFFFFFFF AND PUSH32 0x182BFF9831466789164CA77075FFFD84916D35A8180BA73C27E45634549B445B DUP7 PUSH1 0x40 MLOAD PUSH2 0x29AF SWAP2 SWAP1 PUSH2 0x6CDF JUMP JUMPDEST PUSH1 0x40 MLOAD DUP1 SWAP2 SUB SWAP1 LOG2 POP POP POP POP POP POP JUMP JUMPDEST PUSH1 0x0 PUSH1 0xB PUSH1 0x0 ADD PUSH1 0x6 SWAP1 SLOAD SWAP1 PUSH2 0x100 EXP SWAP1 DIV PUSH1 0xFF AND ISZERO PUSH2 0x2A0B JUMPI PUSH1 0x40 MLOAD PUSH32 0xED3BA6A600000000000000000000000000000000000000000000000000000000 DUP2 MSTORE PUSH1 0x4 ADD PUSH1 0x40 MLOAD DUP1 SWAP2 SUB SWAP1 REVERT JUMPDEST PUSH1 0x5 PUSH1 0x0 DUP2 DUP2 SWAP1 SLOAD SWAP1 PUSH2 0x100 EXP SWAP1 DIV PUSH8 0xFFFFFFFFFFFFFFFF AND DUP1 SWAP3 SWAP2 SWAP1 PUSH2 0x2A31 SWAP1 PUSH2 0x795F JUMP JUMPDEST SWAP2 SWAP1 PUSH2 0x100 EXP DUP2 SLOAD DUP2 PUSH8 0xFFFFFFFFFFFFFFFF MUL NOT AND SWAP1 DUP4 PUSH8 0xFFFFFFFFFFFFFFFF AND MUL OR SWAP1 SSTORE POP POP PUSH1 0x0 PUSH1 0x5 PUSH1 0x0 SWAP1 SLOAD SWAP1 PUSH2 0x100 EXP SWAP1 DIV PUSH8 0xFFFFFFFFFFFFFFFF AND SWAP1 POP PUSH1 0x0 DUP1 PUSH8 0xFFFFFFFFFFFFFFFF DUP2 GT ISZERO PUSH2 0x2A8F JUMPI PUSH2 0x2A8E PUSH2 0x67E6 JUMP JUMPDEST JUMPDEST PUSH1 0x40 MLOAD SWAP1 DUP1 DUP3 MSTORE DUP1 PUSH1 0x20 MUL PUSH1 0x20 ADD DUP3 ADD PUSH1 0x40 MSTORE DUP1 ISZERO PUSH2 0x2ABD JUMPI DUP2 PUSH1 0x20 ADD PUSH1 0x20 DUP3 MUL DUP1 CALLDATASIZE DUP4 CALLDATACOPY DUP1 DUP3 ADD SWAP2 POP POP SWAP1 POP JUMPDEST POP SWAP1 POP PUSH1 0x40 MLOAD DUP1 PUSH1 0x40 ADD PUSH1 0x40 MSTORE DUP1 PUSH1 0x0 PUSH12 0xFFFFFFFFFFFFFFFFFFFFFFFF AND DUP2 MSTORE PUSH1 0x20 ADD PUSH1 0x0 PUSH8 0xFFFFFFFFFFFFFFFF AND DUP2 MSTORE POP PUSH1 0x4 PUSH1 0x0 DUP5 PUSH8 0xFFFFFFFFFFFFFFFF AND PUSH8 0xFFFFFFFFFFFFFFFF AND DUP2 MSTORE PUSH1 0x20 ADD SWAP1 DUP2 MSTORE PUSH1 0x20 ADD PUSH1 0x0 KECCAK256 PUSH1 0x0 DUP3 ADD MLOAD DUP2 PUSH1 0x0 ADD PUSH1 0x0 PUSH2 0x100 EXP DUP2 SLOAD DUP2 PUSH12 0xFFFFFFFFFFFFFFFFFFFFFFFF MUL NOT AND SWAP1 DUP4 PUSH12 0xFFFFFFFFFFFFFFFFFFFFFFFF AND MUL OR SWAP1 SSTORE POP PUSH1 0x20 DUP3 ADD MLOAD DUP2 PUSH1 0x0 ADD PUSH1 0xC PUSH2 0x100 EXP DUP2 SLOAD DUP2 PUSH8 0xFFFFFFFFFFFFFFFF MUL NOT AND SWAP1 DUP4 PUSH8 0xFFFFFFFFFFFFFFFF AND MUL OR SWAP1 SSTORE POP SWAP1 POP POP PUSH1 0x40 MLOAD DUP1 PUSH1 0x60 ADD PUSH1 0x40 MSTORE DUP1 CALLER PUSH20 0xFFFFFFFFFFFFFFFFFFFFFFFFFFFFFFFFFFFFFFFF AND DUP2 MSTORE PUSH1 0x20 ADD PUSH1 0x0 PUSH20 0xFFFFFFFFFFFFFFFFFFFFFFFFFFFFFFFFFFFFFFFF AND DUP2 MSTORE PUSH1 0x20 ADD DUP3 DUP2 MSTORE POP PUSH1 0x3 PUSH1 0x0 DUP5 PUSH8 0xFFFFFFFFFFFFFFFF AND PUSH8 0xFFFFFFFFFFFFFFFF AND DUP2 MSTORE PUSH1 0x20 ADD SWAP1 DUP2 MSTORE PUSH1 0x20 ADD PUSH1 0x0 KECCAK256 PUSH1 0x0 DUP3 ADD MLOAD DUP2 PUSH1 0x0 ADD PUSH1 0x0 PUSH2 0x100 EXP DUP2 SLOAD DUP2 PUSH20 0xFFFFFFFFFFFFFFFFFFFFFFFFFFFFFFFFFFFFFFFF MUL NOT AND SWAP1 DUP4 PUSH20 0xFFFFFFFFFFFFFFFFFFFFFFFFFFFFFFFFFFFFFFFF AND MUL OR SWAP1 SSTORE POP PUSH1 0x20 DUP3 ADD MLOAD DUP2 PUSH1 0x1 ADD PUSH1 0x0 PUSH2 0x100 EXP DUP2 SLOAD DUP2 PUSH20 0xFFFFFFFFFFFFFFFFFFFFFFFFFFFFFFFFFFFFFFFF MUL NOT AND SWAP1 DUP4 PUSH20 0xFFFFFFFFFFFFFFFFFFFFFFFFFFFFFFFFFFFFFFFF AND MUL OR SWAP1 SSTORE POP PUSH1 0x40 DUP3 ADD MLOAD DUP2 PUSH1 0x2 ADD SWAP1 DUP1 MLOAD SWAP1 PUSH1 0x20 ADD SWAP1 PUSH2 0x2C98 SWAP3 SWAP2 SWAP1 PUSH2 0x6186 JUMP JUMPDEST POP SWAP1 POP POP DUP2 PUSH8 0xFFFFFFFFFFFFFFFF AND PUSH32 0x464722B4166576D3DCBBA877B999BC35CF911F4EAF434B7EBA68FA113951D0BF CALLER PUSH1 0x40 MLOAD PUSH2 0x2CD6 SWAP2 SWAP1 PUSH2 0x6CDF JUMP JUMPDEST PUSH1 0x40 MLOAD DUP1 SWAP2 SUB SWAP1 LOG2 DUP2 SWAP3 POP POP POP SWAP1 JUMP JUMPDEST PUSH1 0x0 DUP1 PUSH1 0x0 PUSH1 0x60 PUSH1 0x0 PUSH20 0xFFFFFFFFFFFFFFFFFFFFFFFFFFFFFFFFFFFFFFFF AND PUSH1 0x3 PUSH1 0x0 DUP8 PUSH8 0xFFFFFFFFFFFFFFFF AND PUSH8 0xFFFFFFFFFFFFFFFF AND DUP2 MSTORE PUSH1 0x20 ADD SWAP1 DUP2 MSTORE PUSH1 0x20 ADD PUSH1 0x0 KECCAK256 PUSH1 0x0 ADD PUSH1 0x0 SWAP1 SLOAD SWAP1 PUSH2 0x100 EXP SWAP1 DIV PUSH20 0xFFFFFFFFFFFFFFFFFFFFFFFFFFFFFFFFFFFFFFFF AND PUSH20 0xFFFFFFFFFFFFFFFFFFFFFFFFFFFFFFFFFFFFFFFF AND SUB PUSH2 0x2D9D JUMPI PUSH1 0x40 MLOAD PUSH32 0x1F6A65B600000000000000000000000000000000000000000000000000000000 DUP2 MSTORE PUSH1 0x4 ADD PUSH1 0x40 MLOAD DUP1 SWAP2 SUB SWAP1 REVERT JUMPDEST PUSH1 0x4 PUSH1 0x0 DUP7 PUSH8 0xFFFFFFFFFFFFFFFF AND PUSH8 0xFFFFFFFFFFFFFFFF AND DUP2 MSTORE PUSH1 0x20 ADD SWAP1 DUP2 MSTORE PUSH1 0x20 ADD PUSH1 0x0 KECCAK256 PUSH1 0x0 ADD PUSH1 0x0 SWAP1 SLOAD SWAP1 PUSH2 0x100 EXP SWAP1 DIV PUSH12 0xFFFFFFFFFFFFFFFFFFFFFFFF AND PUSH1 0x4 PUSH1 0x0 DUP8 PUSH8 0xFFFFFFFFFFFFFFFF AND PUSH8 0xFFFFFFFFFFFFFFFF AND DUP2 MSTORE PUSH1 0x20 ADD SWAP1 DUP2 MSTORE PUSH1 0x20 ADD PUSH1 0x0 KECCAK256 PUSH1 0x0 ADD PUSH1 0xC SWAP1 SLOAD SWAP1 PUSH2 0x100 EXP SWAP1 DIV PUSH8 0xFFFFFFFFFFFFFFFF AND PUSH1 0x3 PUSH1 0x0 DUP9 PUSH8 0xFFFFFFFFFFFFFFFF AND PUSH8 0xFFFFFFFFFFFFFFFF AND DUP2 MSTORE PUSH1 0x20 ADD SWAP1 DUP2 MSTORE PUSH1 0x20 ADD PUSH1 0x0 KECCAK256 PUSH1 0x0 ADD PUSH1 0x0 SWAP1 SLOAD SWAP1 PUSH2 0x100 EXP SWAP1 DIV PUSH20 0xFFFFFFFFFFFFFFFFFFFFFFFFFFFFFFFFFFFFFFFF AND PUSH1 0x3 PUSH1 0x0 DUP10 PUSH8 0xFFFFFFFFFFFFFFFF AND PUSH8 0xFFFFFFFFFFFFFFFF AND DUP2 MSTORE PUSH1 0x20 ADD SWAP1 DUP2 MSTORE PUSH1 0x20 ADD PUSH1 0x0 KECCAK256 PUSH1 0x2 ADD DUP1 DUP1 SLOAD DUP1 PUSH1 0x20 MUL PUSH1 0x20 ADD PUSH1 0x40 MLOAD SWAP1 DUP2 ADD PUSH1 0x40 MSTORE DUP1 SWAP3 SWAP2 SWAP1 DUP2 DUP2 MSTORE PUSH1 0x20 ADD DUP3 DUP1 SLOAD DUP1 ISZERO PUSH2 0x2F15 JUMPI PUSH1 0x20 MUL DUP3 ADD SWAP2 SWAP1 PUSH1 0x0 MSTORE PUSH1 0x20 PUSH1 0x0 KECCAK256 SWAP1 JUMPDEST DUP2 PUSH1 0x0 SWAP1 SLOAD SWAP1 PUSH2 0x100 EXP SWAP1 DIV PUSH20 0xFFFFFFFFFFFFFFFFFFFFFFFFFFFFFFFFFFFFFFFF AND PUSH20 0xFFFFFFFFFFFFFFFFFFFFFFFFFFFFFFFFFFFFFFFF AND DUP2 MSTORE PUSH1 0x20 ADD SWAP1 PUSH1 0x1 ADD SWAP1 DUP1 DUP4 GT PUSH2 0x2ECB JUMPI JUMPDEST POP POP POP POP POP SWAP1 POP SWAP4 POP SWAP4 POP SWAP4 POP SWAP4 POP SWAP2 SWAP4 POP SWAP2 SWAP4 JUMP JUMPDEST PUSH1 0xB PUSH1 0x0 ADD PUSH1 0x6 SWAP1 SLOAD SWAP1 PUSH2 0x100 EXP SWAP1 DIV PUSH1 0xFF AND ISZERO PUSH2 0x2F75 JUMPI PUSH1 0x40 MLOAD PUSH32 0xED3BA6A600000000000000000000000000000000000000000000000000000000 DUP2 MSTORE PUSH1 0x4 ADD PUSH1 0x40 MLOAD DUP1 SWAP2 SUB SWAP1 REVERT JUMPDEST PUSH32 0x0 PUSH20 0xFFFFFFFFFFFFFFFFFFFFFFFFFFFFFFFFFFFFFFFF AND CALLER PUSH20 0xFFFFFFFFFFFFFFFFFFFFFFFFFFFFFFFFFFFFFFFF AND EQ PUSH2 0x2FFA JUMPI PUSH1 0x40 MLOAD PUSH32 0x44B0E3C300000000000000000000000000000000000000000000000000000000 DUP2 MSTORE PUSH1 0x4 ADD PUSH1 0x40 MLOAD DUP1 SWAP2 SUB SWAP1 REVERT JUMPDEST PUSH1 0x20 DUP3 DUP3 SWAP1 POP EQ PUSH2 0x3037 JUMPI PUSH1 0x40 MLOAD PUSH32 0x8129BBCD00000000000000000000000000000000000000000000000000000000 DUP2 MSTORE PUSH1 0x4 ADD PUSH1 0x40 MLOAD DUP1 SWAP2 SUB SWAP1 REVERT JUMPDEST PUSH1 0x0 DUP3 DUP3 DUP2 ADD SWAP1 PUSH2 0x3048 SWAP2 SWAP1 PUSH2 0x644A JUMP JUMPDEST SWAP1 POP PUSH1 0x0 PUSH20 0xFFFFFFFFFFFFFFFFFFFFFFFFFFFFFFFFFFFFFFFF AND PUSH1 0x3 PUSH1 0x0 DUP4 PUSH8 0xFFFFFFFFFFFFFFFF AND PUSH8 0xFFFFFFFFFFFFFFFF AND DUP2 MSTORE PUSH1 0x20 ADD SWAP1 DUP2 MSTORE PUSH1 0x20 ADD PUSH1 0x0 KECCAK256 PUSH1 0x0 ADD PUSH1 0x0 SWAP1 SLOAD SWAP1 PUSH2 0x100 EXP SWAP1 DIV PUSH20 0xFFFFFFFFFFFFFFFFFFFFFFFFFFFFFFFFFFFFFFFF AND PUSH20 0xFFFFFFFFFFFFFFFFFFFFFFFFFFFFFFFFFFFFFFFF AND SUB PUSH2 0x30FA JUMPI PUSH1 0x40 MLOAD PUSH32 0x1F6A65B600000000000000000000000000000000000000000000000000000000 DUP2 MSTORE PUSH1 0x4 ADD PUSH1 0x40 MLOAD DUP1 SWAP2 SUB SWAP1 REVERT JUMPDEST PUSH1 0x0 PUSH1 0x4 PUSH1 0x0 DUP4 PUSH8 0xFFFFFFFFFFFFFFFF AND PUSH8 0xFFFFFFFFFFFFFFFF AND DUP2 MSTORE PUSH1 0x20 ADD SWAP1 DUP2 MSTORE PUSH1 0x20 ADD PUSH1 0x0 KECCAK256 PUSH1 0x0 ADD PUSH1 0x0 SWAP1 SLOAD SWAP1 PUSH2 0x100 EXP SWAP1 DIV PUSH12 0xFFFFFFFFFFFFFFFFFFFFFFFF AND PUSH12 0xFFFFFFFFFFFFFFFFFFFFFFFF AND SWAP1 POP DUP5 PUSH1 0x4 PUSH1 0x0 DUP5 PUSH8 0xFFFFFFFFFFFFFFFF AND PUSH8 0xFFFFFFFFFFFFFFFF AND DUP2 MSTORE PUSH1 0x20 ADD SWAP1 DUP2 MSTORE PUSH1 0x20 ADD PUSH1 0x0 KECCAK256 PUSH1 0x0 ADD PUSH1 0x0 DUP3 DUP3 DUP3 SWAP1 SLOAD SWAP1 PUSH2 0x100 EXP SWAP1 DIV PUSH12 0xFFFFFFFFFFFFFFFFFFFFFFFF AND PUSH2 0x31A0 SWAP2 SWAP1 PUSH2 0x798F JUMP JUMPDEST SWAP3 POP PUSH2 0x100 EXP DUP2 SLOAD DUP2 PUSH12 0xFFFFFFFFFFFFFFFFFFFFFFFF MUL NOT AND SWAP1 DUP4 PUSH12 0xFFFFFFFFFFFFFFFFFFFFFFFF AND MUL OR SWAP1 SSTORE POP DUP5 PUSH1 0x5 PUSH1 0x8 DUP3 DUP3 DUP3 SWAP1 SLOAD SWAP1 PUSH2 0x100 EXP SWAP1 DIV PUSH12 0xFFFFFFFFFFFFFFFFFFFFFFFF AND PUSH2 0x31F7 SWAP2 SWAP1 PUSH2 0x798F JUMP JUMPDEST SWAP3 POP PUSH2 0x100 EXP DUP2 SLOAD DUP2 PUSH12 0xFFFFFFFFFFFFFFFFFFFFFFFF MUL NOT AND SWAP1 DUP4 PUSH12 0xFFFFFFFFFFFFFFFFFFFFFFFF AND MUL OR SWAP1 SSTORE POP DUP2 PUSH8 0xFFFFFFFFFFFFFFFF AND PUSH32 0xD39EC07F4E209F627A4C427971473820DC129761BA28DE8906BD56F57101D4F8 DUP3 DUP8 DUP5 PUSH2 0x325E SWAP2 SWAP1 PUSH2 0x79CF JUMP JUMPDEST PUSH1 0x40 MLOAD PUSH2 0x326C SWAP3 SWAP2 SWAP1 PUSH2 0x7A03 JUMP JUMPDEST PUSH1 0x40 MLOAD DUP1 SWAP2 SUB SWAP1 LOG2 POP POP POP POP POP POP JUMP JUMPDEST PUSH32 0x0 DUP2 JUMP JUMPDEST PUSH1 0x0 PUSH1 0xB PUSH1 0x0 ADD PUSH1 0x6 SWAP1 SLOAD SWAP1 PUSH2 0x100 EXP SWAP1 DIV PUSH1 0xFF AND ISZERO PUSH2 0x32EC JUMPI PUSH1 0x40 MLOAD PUSH32 0xED3BA6A600000000000000000000000000000000000000000000000000000000 DUP2 MSTORE PUSH1 0x4 ADD PUSH1 0x40 MLOAD DUP1 SWAP2 SUB SWAP1 REVERT JUMPDEST PUSH1 0x0 GAS SWAP1 POP PUSH1 0x0 DUP1 PUSH1 0x0 PUSH2 0x3300 DUP8 DUP8 PUSH2 0x484F JUMP JUMPDEST SWAP3 POP SWAP3 POP SWAP3 POP PUSH1 0x0 DUP7 PUSH1 0x60 ADD MLOAD PUSH4 0xFFFFFFFF AND PUSH8 0xFFFFFFFFFFFFFFFF DUP2 GT ISZERO PUSH2 0x332C JUMPI PUSH2 0x332B PUSH2 0x67E6 JUMP JUMPDEST JUMPDEST PUSH1 0x40 MLOAD SWAP1 DUP1 DUP3 MSTORE DUP1 PUSH1 0x20 MUL PUSH1 0x20 ADD DUP3 ADD PUSH1 0x40 MSTORE DUP1 ISZERO PUSH2 0x335A JUMPI DUP2 PUSH1 0x20 ADD PUSH1 0x20 DUP3 MUL DUP1 CALLDATASIZE DUP4 CALLDATACOPY DUP1 DUP3 ADD SWAP2 POP POP SWAP1 POP JUMPDEST POP SWAP1 POP PUSH1 0x0 JUMPDEST DUP8 PUSH1 0x60 ADD MLOAD PUSH4 0xFFFFFFFF AND DUP2 LT ISZERO PUSH2 0x33D0 JUMPI DUP3 DUP2 PUSH1 0x40 MLOAD PUSH1 0x20 ADD PUSH2 0x3385 SWAP3 SWAP2 SWAP1 PUSH2 0x7A03 JUMP JUMPDEST PUSH1 0x40 MLOAD PUSH1 0x20 DUP2 DUP4 SUB SUB DUP2 MSTORE SWAP1 PUSH1 0x40 MSTORE DUP1 MLOAD SWAP1 PUSH1 0x20 ADD KECCAK256 PUSH1 0x0 SHR DUP3 DUP3 DUP2 MLOAD DUP2 LT PUSH2 0x33B1 JUMPI PUSH2 0x33B0 PUSH2 0x729D JUMP JUMPDEST JUMPDEST PUSH1 0x20 MUL PUSH1 0x20 ADD ADD DUP2 DUP2 MSTORE POP POP DUP1 DUP1 PUSH2 0x33C8 SWAP1 PUSH2 0x735E JUMP JUMPDEST SWAP2 POP POP PUSH2 0x3360 JUMP JUMPDEST POP PUSH1 0x9 PUSH1 0x0 DUP5 DUP2 MSTORE PUSH1 0x20 ADD SWAP1 DUP2 MSTORE PUSH1 0x20 ADD PUSH1 0x0 KECCAK256 PUSH1 0x0 SWAP1 SSTORE PUSH1 0x0 DUP1 PUSH4 0x1FE543E3 PUSH1 0xE0 SHL DUP6 DUP5 PUSH1 0x40 MLOAD PUSH1 0x24 ADD PUSH2 0x3406 SWAP3 SWAP2 SWAP1 PUSH2 0x7AEA JUMP JUMPDEST PUSH1 0x40 MLOAD PUSH1 0x20 DUP2 DUP4 SUB SUB DUP2 MSTORE SWAP1 PUSH1 0x40 MSTORE SWAP1 PUSH28 0xFFFFFFFFFFFFFFFFFFFFFFFFFFFFFFFFFFFFFFFFFFFFFFFFFFFFFFFF NOT AND PUSH1 0x20 DUP3 ADD DUP1 MLOAD PUSH28 0xFFFFFFFFFFFFFFFFFFFFFFFFFFFFFFFFFFFFFFFFFFFFFFFFFFFFFFFF DUP4 DUP2 DUP4 AND OR DUP4 MSTORE POP POP POP POP SWAP1 POP PUSH1 0x1 PUSH1 0xB PUSH1 0x0 ADD PUSH1 0x6 PUSH2 0x100 EXP DUP2 SLOAD DUP2 PUSH1 0xFF MUL NOT AND SWAP1 DUP4 ISZERO ISZERO MUL OR SWAP1 SSTORE POP PUSH1 0x0 PUSH2 0x349E DUP11 PUSH1 0x40 ADD MLOAD PUSH4 0xFFFFFFFF AND DUP12 PUSH1 0x80 ADD MLOAD DUP5 PUSH2 0x4B64 JUMP JUMPDEST SWAP1 POP PUSH1 0x0 PUSH1 0xB PUSH1 0x0 ADD PUSH1 0x6 PUSH2 0x100 EXP DUP2 SLOAD DUP2 PUSH1 0xFF MUL NOT AND SWAP1 DUP4 ISZERO ISZERO MUL OR SWAP1 SSTORE POP PUSH1 0x0 PUSH1 0x4 PUSH1 0x0 DUP13 PUSH1 0x20 ADD MLOAD PUSH8 0xFFFFFFFFFFFFFFFF AND PUSH8 0xFFFFFFFFFFFFFFFF AND DUP2 MSTORE PUSH1 0x20 ADD SWAP1 DUP2 MSTORE PUSH1 0x20 ADD PUSH1 0x0 KECCAK256 PUSH1 0x0 ADD PUSH1 0xC SWAP1 SLOAD SWAP1 PUSH2 0x100 EXP SWAP1 DIV PUSH8 0xFFFFFFFFFFFFFFFF AND SWAP1 POP PUSH1 0x1 PUSH1 0x4 PUSH1 0x0 DUP14 PUSH1 0x20 ADD MLOAD PUSH8 0xFFFFFFFFFFFFFFFF AND PUSH8 0xFFFFFFFFFFFFFFFF AND DUP2 MSTORE PUSH1 0x20 ADD SWAP1 DUP2 MSTORE PUSH1 0x20 ADD PUSH1 0x0 KECCAK256 PUSH1 0x0 ADD PUSH1 0xC DUP3 DUP3 DUP3 SWAP1 SLOAD SWAP1 PUSH2 0x100 EXP SWAP1 DIV PUSH8 0xFFFFFFFFFFFFFFFF AND PUSH2 0x3557 SWAP2 SWAP1 PUSH2 0x7710 JUMP JUMPDEST SWAP3 POP PUSH2 0x100 EXP DUP2 SLOAD DUP2 PUSH8 0xFFFFFFFFFFFFFFFF MUL NOT AND SWAP1 DUP4 PUSH8 0xFFFFFFFFFFFFFFFF AND MUL OR SWAP1 SSTORE POP PUSH1 0x0 PUSH2 0x35AE DUP11 PUSH1 0xB PUSH1 0x0 ADD PUSH1 0xB SWAP1 SLOAD SWAP1 PUSH2 0x100 EXP SWAP1 DIV PUSH4 0xFFFFFFFF AND PUSH4 0xFFFFFFFF AND PUSH2 0x35A8 DUP6 PUSH2 0x387F JUMP JUMPDEST GASPRICE PUSH2 0x4BB1 JUMP JUMPDEST SWAP1 POP DUP1 PUSH12 0xFFFFFFFFFFFFFFFFFFFFFFFF AND PUSH1 0x4 PUSH1 0x0 DUP15 PUSH1 0x20 ADD MLOAD PUSH8 0xFFFFFFFFFFFFFFFF AND PUSH8 0xFFFFFFFFFFFFFFFF AND DUP2 MSTORE PUSH1 0x20 ADD SWAP1 DUP2 MSTORE PUSH1 0x20 ADD PUSH1 0x0 KECCAK256 PUSH1 0x0 ADD PUSH1 0x0 SWAP1 SLOAD SWAP1 PUSH2 0x100 EXP SWAP1 DIV PUSH12 0xFFFFFFFFFFFFFFFFFFFFFFFF AND PUSH12 0xFFFFFFFFFFFFFFFFFFFFFFFF AND LT ISZERO PUSH2 0x364C JUMPI PUSH1 0x40 MLOAD PUSH32 0xF4D678B800000000000000000000000000000000000000000000000000000000 DUP2 MSTORE PUSH1 0x4 ADD PUSH1 0x40 MLOAD DUP1 SWAP2 SUB SWAP1 REVERT JUMPDEST DUP1 PUSH1 0x4 PUSH1 0x0 DUP15 PUSH1 0x20 ADD MLOAD PUSH8 0xFFFFFFFFFFFFFFFF AND PUSH8 0xFFFFFFFFFFFFFFFF AND DUP2 MSTORE PUSH1 0x20 ADD SWAP1 DUP2 MSTORE PUSH1 0x20 ADD PUSH1 0x0 KECCAK256 PUSH1 0x0 ADD PUSH1 0x0 DUP3 DUP3 DUP3 SWAP1 SLOAD SWAP1 PUSH2 0x100 EXP SWAP1 DIV PUSH12 0xFFFFFFFFFFFFFFFFFFFFFFFF AND PUSH2 0x36A1 SWAP2 SWAP1 PUSH2 0x7800 JUMP JUMPDEST SWAP3 POP PUSH2 0x100 EXP DUP2 SLOAD DUP2 PUSH12 0xFFFFFFFFFFFFFFFFFFFFFFFF MUL NOT AND SWAP1 DUP4 PUSH12 0xFFFFFFFFFFFFFFFFFFFFFFFF AND MUL OR SWAP1 SSTORE POP DUP1 PUSH1 0x8 PUSH1 0x0 PUSH1 0x6 PUSH1 0x0 DUP14 DUP2 MSTORE PUSH1 0x20 ADD SWAP1 DUP2 MSTORE PUSH1 0x20 ADD PUSH1 0x0 KECCAK256 PUSH1 0x0 SWAP1 SLOAD SWAP1 PUSH2 0x100 EXP SWAP1 DIV PUSH20 0xFFFFFFFFFFFFFFFFFFFFFFFFFFFFFFFFFFFFFFFF AND PUSH20 0xFFFFFFFFFFFFFFFFFFFFFFFFFFFFFFFFFFFFFFFF AND PUSH20 0xFFFFFFFFFFFFFFFFFFFFFFFFFFFFFFFFFFFFFFFF AND DUP2 MSTORE PUSH1 0x20 ADD SWAP1 DUP2 MSTORE PUSH1 0x20 ADD PUSH1 0x0 KECCAK256 PUSH1 0x0 DUP3 DUP3 DUP3 SWAP1 SLOAD SWAP1 PUSH2 0x100 EXP SWAP1 DIV PUSH12 0xFFFFFFFFFFFFFFFFFFFFFFFF AND PUSH2 0x3768 SWAP2 SWAP1 PUSH2 0x798F JUMP JUMPDEST SWAP3 POP PUSH2 0x100 EXP DUP2 SLOAD DUP2 PUSH12 0xFFFFFFFFFFFFFFFFFFFFFFFF MUL NOT AND SWAP1 DUP4 PUSH12 0xFFFFFFFFFFFFFFFFFFFFFFFF AND MUL OR SWAP1 SSTORE POP DUP8 PUSH32 0x7DFFC5AE5EE4E2E4DF1651CF6AD329A73CEBDB728F37EA0187B9B17E036756E4 DUP9 DUP4 DUP7 PUSH1 0x40 MLOAD PUSH2 0x37CA SWAP4 SWAP3 SWAP2 SWAP1 PUSH2 0x7B1A JUMP JUMPDEST PUSH1 0x40 MLOAD DUP1 SWAP2 SUB SWAP1 LOG2 DUP1 SWAP11 POP POP POP POP POP POP POP POP POP POP POP SWAP3 SWAP2 POP POP JUMP JUMPDEST PUSH1 0x0 DUP1 PUSH1 0x0 DUP1 PUSH1 0xB PUSH1 0x0 ADD PUSH1 0x0 SWAP1 SLOAD SWAP1 PUSH2 0x100 EXP SWAP1 DIV PUSH2 0xFFFF AND PUSH1 0xB PUSH1 0x0 ADD PUSH1 0x2 SWAP1 SLOAD SWAP1 PUSH2 0x100 EXP SWAP1 DIV PUSH4 0xFFFFFFFF AND PUSH1 0xB PUSH1 0x0 ADD PUSH1 0x7 SWAP1 SLOAD SWAP1 PUSH2 0x100 EXP SWAP1 DIV PUSH4 0xFFFFFFFF AND PUSH1 0xB PUSH1 0x0 ADD PUSH1 0xB SWAP1 SLOAD SWAP1 PUSH2 0x100 EXP SWAP1 DIV PUSH4 0xFFFFFFFF AND SWAP4 POP SWAP4 POP SWAP4 POP SWAP4 POP SWAP1 SWAP2 SWAP3 SWAP4 JUMP JUMPDEST PUSH1 0x0 DUP2 PUSH1 0x40 MLOAD PUSH1 0x20 ADD PUSH2 0x3862 SWAP2 SWAP1 PUSH2 0x7BD5 JUMP JUMPDEST PUSH1 0x40 MLOAD PUSH1 0x20 DUP2 DUP4 SUB SUB DUP2 MSTORE SWAP1 PUSH1 0x40 MSTORE DUP1 MLOAD SWAP1 PUSH1 0x20 ADD KECCAK256 SWAP1 POP SWAP2 SWAP1 POP JUMP JUMPDEST PUSH1 0x0 DUP1 PUSH1 0xC PUSH1 0x40 MLOAD DUP1 PUSH2 0x120 ADD PUSH1 0x40 MSTORE SWAP1 DUP2 PUSH1 0x0 DUP3 ADD PUSH1 0x0 SWAP1 SLOAD SWAP1 PUSH2 0x100 EXP SWAP1 DIV PUSH4 0xFFFFFFFF AND PUSH4 0xFFFFFFFF AND PUSH4 0xFFFFFFFF AND DUP2 MSTORE PUSH1 0x20 ADD PUSH1 0x0 DUP3 ADD PUSH1 0x4 SWAP1 SLOAD SWAP1 PUSH2 0x100 EXP SWAP1 DIV PUSH4 0xFFFFFFFF AND PUSH4 0xFFFFFFFF AND PUSH4 0xFFFFFFFF AND DUP2 MSTORE PUSH1 0x20 ADD PUSH1 0x0 DUP3 ADD PUSH1 0x8 SWAP1 SLOAD SWAP1 PUSH2 0x100 EXP SWAP1 DIV PUSH4 0xFFFFFFFF AND PUSH4 0xFFFFFFFF AND PUSH4 0xFFFFFFFF AND DUP2 MSTORE PUSH1 0x20 ADD PUSH1 0x0 DUP3 ADD PUSH1 0xC SWAP1 SLOAD SWAP1 PUSH2 0x100 EXP SWAP1 DIV PUSH4 0xFFFFFFFF AND PUSH4 0xFFFFFFFF AND PUSH4 0xFFFFFFFF AND DUP2 MSTORE PUSH1 0x20 ADD PUSH1 0x0 DUP3 ADD PUSH1 0x10 SWAP1 SLOAD SWAP1 PUSH2 0x100 EXP SWAP1 DIV PUSH4 0xFFFFFFFF AND PUSH4 0xFFFFFFFF AND PUSH4 0xFFFFFFFF AND DUP2 MSTORE PUSH1 0x20 ADD PUSH1 0x0 DUP3 ADD PUSH1 0x14 SWAP1 SLOAD SWAP1 PUSH2 0x100 EXP SWAP1 DIV PUSH3 0xFFFFFF AND PUSH3 0xFFFFFF AND PUSH3 0xFFFFFF AND DUP2 MSTORE PUSH1 0x20 ADD PUSH1 0x0 DUP3 ADD PUSH1 0x17 SWAP1 SLOAD SWAP1 PUSH2 0x100 EXP SWAP1 DIV PUSH3 0xFFFFFF AND PUSH3 0xFFFFFF AND PUSH3 0xFFFFFF AND DUP2 MSTORE PUSH1 0x20 ADD PUSH1 0x0 DUP3 ADD PUSH1 0x1A SWAP1 SLOAD SWAP1 PUSH2 0x100 EXP SWAP1 DIV PUSH3 0xFFFFFF AND PUSH3 0xFFFFFF AND PUSH3 0xFFFFFF AND DUP2 MSTORE PUSH1 0x20 ADD PUSH1 0x0 DUP3 ADD PUSH1 0x1D SWAP1 SLOAD SWAP1 PUSH2 0x100 EXP SWAP1 DIV PUSH3 0xFFFFFF AND PUSH3 0xFFFFFF AND PUSH3 0xFFFFFF AND DUP2 MSTORE POP POP SWAP1 POP DUP3 PUSH8 0xFFFFFFFFFFFFFFFF AND PUSH1 0x0 GT ISZERO DUP1 ISZERO PUSH2 0x3A0A JUMPI POP DUP1 PUSH1 0xA0 ADD MLOAD PUSH3 0xFFFFFF AND DUP4 PUSH8 0xFFFFFFFFFFFFFFFF AND GT ISZERO JUMPDEST ISZERO PUSH2 0x3A1C JUMPI DUP1 PUSH1 0x0 ADD MLOAD SWAP2 POP POP PUSH2 0x3AFB JUMP JUMPDEST DUP3 PUSH8 0xFFFFFFFFFFFFFFFF AND DUP2 PUSH1 0xA0 ADD MLOAD PUSH3 0xFFFFFF AND LT DUP1 ISZERO PUSH2 0x3A51 JUMPI POP DUP1 PUSH1 0xC0 ADD MLOAD PUSH3 0xFFFFFF AND DUP4 PUSH8 0xFFFFFFFFFFFFFFFF AND GT ISZERO JUMPDEST ISZERO PUSH2 0x3A63 JUMPI DUP1 PUSH1 0x20 ADD MLOAD SWAP2 POP POP PUSH2 0x3AFB JUMP JUMPDEST DUP3 PUSH8 0xFFFFFFFFFFFFFFFF AND DUP2 PUSH1 0xC0 ADD MLOAD PUSH3 0xFFFFFF AND LT DUP1 ISZERO PUSH2 0x3A98 JUMPI POP DUP1 PUSH1 0xE0 ADD MLOAD PUSH3 0xFFFFFF AND DUP4 PUSH8 0xFFFFFFFFFFFFFFFF AND GT ISZERO JUMPDEST ISZERO PUSH2 0x3AAA JUMPI DUP1 PUSH1 0x40 ADD MLOAD SWAP2 POP POP PUSH2 0x3AFB JUMP JUMPDEST DUP3 PUSH8 0xFFFFFFFFFFFFFFFF AND DUP2 PUSH1 0xE0 ADD MLOAD PUSH3 0xFFFFFF AND LT DUP1 ISZERO PUSH2 0x3AE0 JUMPI POP DUP1 PUSH2 0x100 ADD MLOAD PUSH3 0xFFFFFF AND DUP4 PUSH8 0xFFFFFFFFFFFFFFFF AND GT ISZERO JUMPDEST ISZERO PUSH2 0x3AF2 JUMPI DUP1 PUSH1 0x60 ADD MLOAD SWAP2 POP POP PUSH2 0x3AFB JUMP JUMPDEST DUP1 PUSH1 0x80 ADD MLOAD SWAP2 POP POP JUMPDEST SWAP2 SWAP1 POP JUMP JUMPDEST DUP2 PUSH1 0x0 PUSH1 0x3 PUSH1 0x0 DUP4 PUSH8 0xFFFFFFFFFFFFFFFF AND PUSH8 0xFFFFFFFFFFFFFFFF AND DUP2 MSTORE PUSH1 0x20 ADD SWAP1 DUP2 MSTORE PUSH1 0x20 ADD PUSH1 0x0 KECCAK256 PUSH1 0x0 ADD PUSH1 0x0 SWAP1 SLOAD SWAP1 PUSH2 0x100 EXP SWAP1 DIV PUSH20 0xFFFFFFFFFFFFFFFFFFFFFFFFFFFFFFFFFFFFFFFF AND SWAP1 POP PUSH1 0x0 PUSH20 0xFFFFFFFFFFFFFFFFFFFFFFFFFFFFFFFFFFFFFFFF AND DUP2 PUSH20 0xFFFFFFFFFFFFFFFFFFFFFFFFFFFFFFFFFFFFFFFF AND SUB PUSH2 0x3BB6 JUMPI PUSH1 0x40 MLOAD PUSH32 0x1F6A65B600000000000000000000000000000000000000000000000000000000 DUP2 MSTORE PUSH1 0x4 ADD PUSH1 0x40 MLOAD DUP1 SWAP2 SUB SWAP1 REVERT JUMPDEST DUP1 PUSH20 0xFFFFFFFFFFFFFFFFFFFFFFFFFFFFFFFFFFFFFFFF AND CALLER PUSH20 0xFFFFFFFFFFFFFFFFFFFFFFFFFFFFFFFFFFFFFFFF AND EQ PUSH2 0x3C26 JUMPI DUP1 PUSH1 0x40 MLOAD PUSH32 0xD8A3FB5200000000000000000000000000000000000000000000000000000000 DUP2 MSTORE PUSH1 0x4 ADD PUSH2 0x3C1D SWAP2 SWAP1 PUSH2 0x6CDF JUMP JUMPDEST PUSH1 0x40 MLOAD DUP1 SWAP2 SUB SWAP1 REVERT JUMPDEST PUSH1 0xB PUSH1 0x0 ADD PUSH1 0x6 SWAP1 SLOAD SWAP1 PUSH2 0x100 EXP SWAP1 DIV PUSH1 0xFF AND ISZERO PUSH2 0x3C70 JUMPI PUSH1 0x40 MLOAD PUSH32 0xED3BA6A600000000000000000000000000000000000000000000000000000000 DUP2 MSTORE PUSH1 0x4 ADD PUSH1 0x40 MLOAD DUP1 SWAP2 SUB SWAP1 REVERT JUMPDEST PUSH2 0x3C79 DUP5 PUSH2 0x3ED1 JUMP JUMPDEST ISZERO PUSH2 0x3CB0 JUMPI PUSH1 0x40 MLOAD PUSH32 0xB42F66E800000000000000000000000000000000000000000000000000000000 DUP2 MSTORE PUSH1 0x4 ADD PUSH1 0x40 MLOAD DUP1 SWAP2 SUB SWAP1 REVERT JUMPDEST PUSH2 0x3CBA DUP5 DUP5 PUSH2 0x4247 JUMP JUMPDEST POP POP POP POP JUMP JUMPDEST PUSH2 0x3CC8 PUSH2 0x41B7 JUMP JUMPDEST PUSH1 0x0 PUSH32 0x0 PUSH20 0xFFFFFFFFFFFFFFFFFFFFFFFFFFFFFFFFFFFFFFFF AND PUSH4 0x70A08231 ADDRESS PUSH1 0x40 MLOAD DUP3 PUSH4 0xFFFFFFFF AND PUSH1 0xE0 SHL DUP2 MSTORE PUSH1 0x4 ADD PUSH2 0x3D23 SWAP2 SWAP1 PUSH2 0x6CDF JUMP JUMPDEST PUSH1 0x20 PUSH1 0x40 MLOAD DUP1 DUP4 SUB DUP2 DUP7 GAS STATICCALL ISZERO DUP1 ISZERO PUSH2 0x3D40 JUMPI RETURNDATASIZE PUSH1 0x0 DUP1 RETURNDATACOPY RETURNDATASIZE PUSH1 0x0 REVERT JUMPDEST POP POP POP POP PUSH1 0x40 MLOAD RETURNDATASIZE PUSH1 0x1F NOT PUSH1 0x1F DUP3 ADD AND DUP3 ADD DUP1 PUSH1 0x40 MSTORE POP DUP2 ADD SWAP1 PUSH2 0x3D64 SWAP2 SWAP1 PUSH2 0x7C05 JUMP JUMPDEST SWAP1 POP PUSH1 0x0 PUSH1 0x5 PUSH1 0x8 SWAP1 SLOAD SWAP1 PUSH2 0x100 EXP SWAP1 DIV PUSH12 0xFFFFFFFFFFFFFFFFFFFFFFFF AND PUSH12 0xFFFFFFFFFFFFFFFFFFFFFFFF AND SWAP1 POP DUP2 DUP2 GT ISZERO PUSH2 0x3DDA JUMPI DUP1 DUP3 PUSH1 0x40 MLOAD PUSH32 0xA99DA30200000000000000000000000000000000000000000000000000000000 DUP2 MSTORE PUSH1 0x4 ADD PUSH2 0x3DD1 SWAP3 SWAP2 SWAP1 PUSH2 0x7A03 JUMP JUMPDEST PUSH1 0x40 MLOAD DUP1 SWAP2 SUB SWAP1 REVERT JUMPDEST DUP2 DUP2 LT ISZERO PUSH2 0x3ECC JUMPI PUSH1 0x0 DUP2 DUP4 PUSH2 0x3DF0 SWAP2 SWAP1 PUSH2 0x72FB JUMP JUMPDEST SWAP1 POP PUSH32 0x0 PUSH20 0xFFFFFFFFFFFFFFFFFFFFFFFFFFFFFFFFFFFFFFFF AND PUSH4 0xA9059CBB DUP6 DUP4 PUSH1 0x40 MLOAD DUP4 PUSH4 0xFFFFFFFF AND PUSH1 0xE0 SHL DUP2 MSTORE PUSH1 0x4 ADD PUSH2 0x3E4D SWAP3 SWAP2 SWAP1 PUSH2 0x7C32 JUMP JUMPDEST PUSH1 0x20 PUSH1 0x40 MLOAD DUP1 DUP4 SUB DUP2 PUSH1 0x0 DUP8 GAS CALL ISZERO DUP1 ISZERO PUSH2 0x3E6C JUMPI RETURNDATASIZE PUSH1 0x0 DUP1 RETURNDATACOPY RETURNDATASIZE PUSH1 0x0 REVERT JUMPDEST POP POP POP POP PUSH1 0x40 MLOAD RETURNDATASIZE PUSH1 0x1F NOT PUSH1 0x1F DUP3 ADD AND DUP3 ADD DUP1 PUSH1 0x40 MSTORE POP DUP2 ADD SWAP1 PUSH2 0x3E90 SWAP2 SWAP1 PUSH2 0x78C6 JUMP JUMPDEST POP PUSH32 0x59BFC682B673F8CBF945F1E454DF9334834ABF7DFE7F92237CA29ECB9B436600 DUP5 DUP3 PUSH1 0x40 MLOAD PUSH2 0x3EC2 SWAP3 SWAP2 SWAP1 PUSH2 0x7C32 JUMP JUMPDEST PUSH1 0x40 MLOAD DUP1 SWAP2 SUB SWAP1 LOG1 POP JUMPDEST POP POP POP JUMP JUMPDEST PUSH1 0x0 DUP1 PUSH1 0x3 PUSH1 0x0 DUP5 PUSH8 0xFFFFFFFFFFFFFFFF AND PUSH8 0xFFFFFFFFFFFFFFFF AND DUP2 MSTORE PUSH1 0x20 ADD SWAP1 DUP2 MSTORE PUSH1 0x20 ADD PUSH1 0x0 KECCAK256 PUSH1 0x40 MLOAD DUP1 PUSH1 0x60 ADD PUSH1 0x40 MSTORE SWAP1 DUP2 PUSH1 0x0 DUP3 ADD PUSH1 0x0 SWAP1 SLOAD SWAP1 PUSH2 0x100 EXP SWAP1 DIV PUSH20 0xFFFFFFFFFFFFFFFFFFFFFFFFFFFFFFFFFFFFFFFF AND PUSH20 0xFFFFFFFFFFFFFFFFFFFFFFFFFFFFFFFFFFFFFFFF AND PUSH20 0xFFFFFFFFFFFFFFFFFFFFFFFFFFFFFFFFFFFFFFFF AND DUP2 MSTORE PUSH1 0x20 ADD PUSH1 0x1 DUP3 ADD PUSH1 0x0 SWAP1 SLOAD SWAP1 PUSH2 0x100 EXP SWAP1 DIV PUSH20 0xFFFFFFFFFFFFFFFFFFFFFFFFFFFFFFFFFFFFFFFF AND PUSH20 0xFFFFFFFFFFFFFFFFFFFFFFFFFFFFFFFFFFFFFFFF AND PUSH20 0xFFFFFFFFFFFFFFFFFFFFFFFFFFFFFFFFFFFFFFFF AND DUP2 MSTORE PUSH1 0x20 ADD PUSH1 0x2 DUP3 ADD DUP1 SLOAD DUP1 PUSH1 0x20 MUL PUSH1 0x20 ADD PUSH1 0x40 MLOAD SWAP1 DUP2 ADD PUSH1 0x40 MSTORE DUP1 SWAP3 SWAP2 SWAP1 DUP2 DUP2 MSTORE PUSH1 0x20 ADD DUP3 DUP1 SLOAD DUP1 ISZERO PUSH2 0x4037 JUMPI PUSH1 0x20 MUL DUP3 ADD SWAP2 SWAP1 PUSH1 0x0 MSTORE PUSH1 0x20 PUSH1 0x0 KECCAK256 SWAP1 JUMPDEST DUP2 PUSH1 0x0 SWAP1 SLOAD SWAP1 PUSH2 0x100 EXP SWAP1 DIV PUSH20 0xFFFFFFFFFFFFFFFFFFFFFFFFFFFFFFFFFFFFFFFF AND PUSH20 0xFFFFFFFFFFFFFFFFFFFFFFFFFFFFFFFFFFFFFFFF AND DUP2 MSTORE PUSH1 0x20 ADD SWAP1 PUSH1 0x1 ADD SWAP1 DUP1 DUP4 GT PUSH2 0x3FED JUMPI JUMPDEST POP POP POP POP POP DUP2 MSTORE POP POP SWAP1 POP PUSH1 0x0 JUMPDEST DUP2 PUSH1 0x40 ADD MLOAD MLOAD DUP2 LT ISZERO PUSH2 0x4197 JUMPI PUSH1 0x0 JUMPDEST PUSH1 0x7 DUP1 SLOAD SWAP1 POP DUP2 LT ISZERO PUSH2 0x4183 JUMPI PUSH1 0x0 PUSH2 0x4142 PUSH1 0x7 DUP4 DUP2 SLOAD DUP2 LT PUSH2 0x407B JUMPI PUSH2 0x407A PUSH2 0x729D JUMP JUMPDEST JUMPDEST SWAP1 PUSH1 0x0 MSTORE PUSH1 0x20 PUSH1 0x0 KECCAK256 ADD SLOAD DUP6 PUSH1 0x40 ADD MLOAD DUP6 DUP2 MLOAD DUP2 LT PUSH2 0x409D JUMPI PUSH2 0x409C PUSH2 0x729D JUMP JUMPDEST JUMPDEST PUSH1 0x20 MUL PUSH1 0x20 ADD ADD MLOAD DUP9 PUSH1 0x2 PUSH1 0x0 DUP10 PUSH1 0x40 ADD MLOAD DUP10 DUP2 MLOAD DUP2 LT PUSH2 0x40C1 JUMPI PUSH2 0x40C0 PUSH2 0x729D JUMP JUMPDEST JUMPDEST PUSH1 0x20 MUL PUSH1 0x20 ADD ADD MLOAD PUSH20 0xFFFFFFFFFFFFFFFFFFFFFFFFFFFFFFFFFFFFFFFF AND PUSH20 0xFFFFFFFFFFFFFFFFFFFFFFFFFFFFFFFFFFFFFFFF AND DUP2 MSTORE PUSH1 0x20 ADD SWAP1 DUP2 MSTORE PUSH1 0x20 ADD PUSH1 0x0 KECCAK256 PUSH1 0x0 DUP12 PUSH8 0xFFFFFFFFFFFFFFFF AND PUSH8 0xFFFFFFFFFFFFFFFF AND DUP2 MSTORE PUSH1 0x20 ADD SWAP1 DUP2 MSTORE PUSH1 0x20 ADD PUSH1 0x0 KECCAK256 PUSH1 0x0 SWAP1 SLOAD SWAP1 PUSH2 0x100 EXP SWAP1 DIV PUSH8 0xFFFFFFFFFFFFFFFF AND PUSH2 0x47DD JUMP JUMPDEST POP SWAP1 POP PUSH1 0x0 DUP1 SHL PUSH1 0x9 PUSH1 0x0 DUP4 DUP2 MSTORE PUSH1 0x20 ADD SWAP1 DUP2 MSTORE PUSH1 0x20 ADD PUSH1 0x0 KECCAK256 SLOAD EQ PUSH2 0x416F JUMPI PUSH1 0x1 SWAP5 POP POP POP POP POP PUSH2 0x419E JUMP JUMPDEST POP DUP1 DUP1 PUSH2 0x417B SWAP1 PUSH2 0x735E JUMP JUMPDEST SWAP2 POP POP PUSH2 0x4055 JUMP JUMPDEST POP DUP1 DUP1 PUSH2 0x418F SWAP1 PUSH2 0x735E JUMP JUMPDEST SWAP2 POP POP PUSH2 0x4045 JUMP JUMPDEST POP PUSH1 0x0 SWAP2 POP POP JUMPDEST SWAP2 SWAP1 POP JUMP JUMPDEST PUSH2 0x41AB PUSH2 0x41B7 JUMP JUMPDEST PUSH2 0x41B4 DUP2 PUSH2 0x4CCC JUMP JUMPDEST POP JUMP JUMPDEST PUSH1 0x0 DUP1 SLOAD SWAP1 PUSH2 0x100 EXP SWAP1 DIV PUSH20 0xFFFFFFFFFFFFFFFFFFFFFFFFFFFFFFFFFFFFFFFF AND PUSH20 0xFFFFFFFFFFFFFFFFFFFFFFFFFFFFFFFFFFFFFFFF AND CALLER PUSH20 0xFFFFFFFFFFFFFFFFFFFFFFFFFFFFFFFFFFFFFFFF AND EQ PUSH2 0x4245 JUMPI PUSH1 0x40 MLOAD PUSH32 0x8C379A000000000000000000000000000000000000000000000000000000000 DUP2 MSTORE PUSH1 0x4 ADD PUSH2 0x423C SWAP1 PUSH2 0x7CA7 JUMP JUMPDEST PUSH1 0x40 MLOAD DUP1 SWAP2 SUB SWAP1 REVERT JUMPDEST JUMP JUMPDEST PUSH1 0xB PUSH1 0x0 ADD PUSH1 0x6 SWAP1 SLOAD SWAP1 PUSH2 0x100 EXP SWAP1 DIV PUSH1 0xFF AND ISZERO PUSH2 0x4291 JUMPI PUSH1 0x40 MLOAD PUSH32 0xED3BA6A600000000000000000000000000000000000000000000000000000000 DUP2 MSTORE PUSH1 0x4 ADD PUSH1 0x40 MLOAD DUP1 SWAP2 SUB SWAP1 REVERT JUMPDEST PUSH1 0x0 PUSH1 0x3 PUSH1 0x0 DUP5 PUSH8 0xFFFFFFFFFFFFFFFF AND PUSH8 0xFFFFFFFFFFFFFFFF AND DUP2 MSTORE PUSH1 0x20 ADD SWAP1 DUP2 MSTORE PUSH1 0x20 ADD PUSH1 0x0 KECCAK256 PUSH1 0x40 MLOAD DUP1 PUSH1 0x60 ADD PUSH1 0x40 MSTORE SWAP1 DUP2 PUSH1 0x0 DUP3 ADD PUSH1 0x0 SWAP1 SLOAD SWAP1 PUSH2 0x100 EXP SWAP1 DIV PUSH20 0xFFFFFFFFFFFFFFFFFFFFFFFFFFFFFFFFFFFFFFFF AND PUSH20 0xFFFFFFFFFFFFFFFFFFFFFFFFFFFFFFFFFFFFFFFF AND PUSH20 0xFFFFFFFFFFFFFFFFFFFFFFFFFFFFFFFFFFFFFFFF AND DUP2 MSTORE PUSH1 0x20 ADD PUSH1 0x1 DUP3 ADD PUSH1 0x0 SWAP1 SLOAD SWAP1 PUSH2 0x100 EXP SWAP1 DIV PUSH20 0xFFFFFFFFFFFFFFFFFFFFFFFFFFFFFFFFFFFFFFFF AND PUSH20 0xFFFFFFFFFFFFFFFFFFFFFFFFFFFFFFFFFFFFFFFF AND PUSH20 0xFFFFFFFFFFFFFFFFFFFFFFFFFFFFFFFFFFFFFFFF AND DUP2 MSTORE PUSH1 0x20 ADD PUSH1 0x2 DUP3 ADD DUP1 SLOAD DUP1 PUSH1 0x20 MUL PUSH1 0x20 ADD PUSH1 0x40 MLOAD SWAP1 DUP2 ADD PUSH1 0x40 MSTORE DUP1 SWAP3 SWAP2 SWAP1 DUP2 DUP2 MSTORE PUSH1 0x20 ADD DUP3 DUP1 SLOAD DUP1 ISZERO PUSH2 0x43F6 JUMPI PUSH1 0x20 MUL DUP3 ADD SWAP2 SWAP1 PUSH1 0x0 MSTORE PUSH1 0x20 PUSH1 0x0 KECCAK256 SWAP1 JUMPDEST DUP2 PUSH1 0x0 SWAP1 SLOAD SWAP1 PUSH2 0x100 EXP SWAP1 DIV PUSH20 0xFFFFFFFFFFFFFFFFFFFFFFFFFFFFFFFFFFFFFFFF AND PUSH20 0xFFFFFFFFFFFFFFFFFFFFFFFFFFFFFFFFFFFFFFFF AND DUP2 MSTORE PUSH1 0x20 ADD SWAP1 PUSH1 0x1 ADD SWAP1 DUP1 DUP4 GT PUSH2 0x43AC JUMPI JUMPDEST POP POP POP POP POP DUP2 MSTORE POP POP SWAP1 POP PUSH1 0x0 PUSH1 0x4 PUSH1 0x0 DUP6 PUSH8 0xFFFFFFFFFFFFFFFF AND PUSH8 0xFFFFFFFFFFFFFFFF AND DUP2 MSTORE PUSH1 0x20 ADD SWAP1 DUP2 MSTORE PUSH1 0x20 ADD PUSH1 0x0 KECCAK256 PUSH1 0x40 MLOAD DUP1 PUSH1 0x40 ADD PUSH1 0x40 MSTORE SWAP1 DUP2 PUSH1 0x0 DUP3 ADD PUSH1 0x0 SWAP1 SLOAD SWAP1 PUSH2 0x100 EXP SWAP1 DIV PUSH12 0xFFFFFFFFFFFFFFFFFFFFFFFF AND PUSH12 0xFFFFFFFFFFFFFFFFFFFFFFFF AND PUSH12 0xFFFFFFFFFFFFFFFFFFFFFFFF AND DUP2 MSTORE PUSH1 0x20 ADD PUSH1 0x0 DUP3 ADD PUSH1 0xC SWAP1 SLOAD SWAP1 PUSH2 0x100 EXP SWAP1 DIV PUSH8 0xFFFFFFFFFFFFFFFF AND PUSH8 0xFFFFFFFFFFFFFFFF AND PUSH8 0xFFFFFFFFFFFFFFFF AND DUP2 MSTORE POP POP SWAP1 POP PUSH1 0x0 DUP2 PUSH1 0x0 ADD MLOAD SWAP1 POP PUSH1 0x0 JUMPDEST DUP4 PUSH1 0x40 ADD MLOAD MLOAD DUP2 LT ISZERO PUSH2 0x456C JUMPI PUSH1 0x2 PUSH1 0x0 DUP6 PUSH1 0x40 ADD MLOAD DUP4 DUP2 MLOAD DUP2 LT PUSH2 0x44DB JUMPI PUSH2 0x44DA PUSH2 0x729D JUMP JUMPDEST JUMPDEST PUSH1 0x20 MUL PUSH1 0x20 ADD ADD MLOAD PUSH20 0xFFFFFFFFFFFFFFFFFFFFFFFFFFFFFFFFFFFFFFFF AND PUSH20 0xFFFFFFFFFFFFFFFFFFFFFFFFFFFFFFFFFFFFFFFF AND DUP2 MSTORE PUSH1 0x20 ADD SWAP1 DUP2 MSTORE PUSH1 0x20 ADD PUSH1 0x0 KECCAK256 PUSH1 0x0 DUP8 PUSH8 0xFFFFFFFFFFFFFFFF AND PUSH8 0xFFFFFFFFFFFFFFFF AND DUP2 MSTORE PUSH1 0x20 ADD SWAP1 DUP2 MSTORE PUSH1 0x20 ADD PUSH1 0x0 KECCAK256 PUSH1 0x0 PUSH2 0x100 EXP DUP2 SLOAD SWAP1 PUSH8 0xFFFFFFFFFFFFFFFF MUL NOT AND SWAP1 SSTORE DUP1 DUP1 PUSH2 0x4564 SWAP1 PUSH2 0x735E JUMP JUMPDEST SWAP2 POP POP PUSH2 0x44B3 JUMP JUMPDEST POP PUSH1 0x3 PUSH1 0x0 DUP7 PUSH8 0xFFFFFFFFFFFFFFFF AND PUSH8 0xFFFFFFFFFFFFFFFF AND DUP2 MSTORE PUSH1 0x20 ADD SWAP1 DUP2 MSTORE PUSH1 0x20 ADD PUSH1 0x0 KECCAK256 PUSH1 0x0 DUP1 DUP3 ADD PUSH1 0x0 PUSH2 0x100 EXP DUP2 SLOAD SWAP1 PUSH20 0xFFFFFFFFFFFFFFFFFFFFFFFFFFFFFFFFFFFFFFFF MUL NOT AND SWAP1 SSTORE PUSH1 0x1 DUP3 ADD PUSH1 0x0 PUSH2 0x100 EXP DUP2 SLOAD SWAP1 PUSH20 0xFFFFFFFFFFFFFFFFFFFFFFFFFFFFFFFFFFFFFFFF MUL NOT AND SWAP1 SSTORE PUSH1 0x2 DUP3 ADD PUSH1 0x0 PUSH2 0x45F3 SWAP2 SWAP1 PUSH2 0x6210 JUMP JUMPDEST POP POP PUSH1 0x4 PUSH1 0x0 DUP7 PUSH8 0xFFFFFFFFFFFFFFFF AND PUSH8 0xFFFFFFFFFFFFFFFF AND DUP2 MSTORE PUSH1 0x20 ADD SWAP1 DUP2 MSTORE PUSH1 0x20 ADD PUSH1 0x0 KECCAK256 PUSH1 0x0 DUP1 DUP3 ADD PUSH1 0x0 PUSH2 0x100 EXP DUP2 SLOAD SWAP1 PUSH12 0xFFFFFFFFFFFFFFFFFFFFFFFF MUL NOT AND SWAP1 SSTORE PUSH1 0x0 DUP3 ADD PUSH1 0xC PUSH2 0x100 EXP DUP2 SLOAD SWAP1 PUSH8 0xFFFFFFFFFFFFFFFF MUL NOT AND SWAP1 SSTORE POP POP DUP1 PUSH1 0x5 PUSH1 0x8 DUP3 DUP3 DUP3 SWAP1 SLOAD SWAP1 PUSH2 0x100 EXP SWAP1 DIV PUSH12 0xFFFFFFFFFFFFFFFFFFFFFFFF AND PUSH2 0x4682 SWAP2 SWAP1 PUSH2 0x7800 JUMP JUMPDEST SWAP3 POP PUSH2 0x100 EXP DUP2 SLOAD DUP2 PUSH12 0xFFFFFFFFFFFFFFFFFFFFFFFF MUL NOT AND SWAP1 DUP4 PUSH12 0xFFFFFFFFFFFFFFFFFFFFFFFF AND MUL OR SWAP1 SSTORE POP PUSH32 0x0 PUSH20 0xFFFFFFFFFFFFFFFFFFFFFFFFFFFFFFFFFFFFFFFF AND PUSH4 0xA9059CBB DUP6 DUP4 PUSH12 0xFFFFFFFFFFFFFFFFFFFFFFFF AND PUSH1 0x40 MLOAD DUP4 PUSH4 0xFFFFFFFF AND PUSH1 0xE0 SHL DUP2 MSTORE PUSH1 0x4 ADD PUSH2 0x4719 SWAP3 SWAP2 SWAP1 PUSH2 0x7C32 JUMP JUMPDEST PUSH1 0x20 PUSH1 0x40 MLOAD DUP1 DUP4 SUB DUP2 PUSH1 0x0 DUP8 GAS CALL ISZERO DUP1 ISZERO PUSH2 0x4738 JUMPI RETURNDATASIZE PUSH1 0x0 DUP1 RETURNDATACOPY RETURNDATASIZE PUSH1 0x0 REVERT JUMPDEST POP POP POP POP PUSH1 0x40 MLOAD RETURNDATASIZE PUSH1 0x1F NOT PUSH1 0x1F DUP3 ADD AND DUP3 ADD DUP1 PUSH1 0x40 MSTORE POP DUP2 ADD SWAP1 PUSH2 0x475C SWAP2 SWAP1 PUSH2 0x78C6 JUMP JUMPDEST PUSH2 0x4792 JUMPI PUSH1 0x40 MLOAD PUSH32 0xF4D678B800000000000000000000000000000000000000000000000000000000 DUP2 MSTORE PUSH1 0x4 ADD PUSH1 0x40 MLOAD DUP1 SWAP2 SUB SWAP1 REVERT JUMPDEST DUP5 PUSH8 0xFFFFFFFFFFFFFFFF AND PUSH32 0xE8ED5B475A5B5987AA9165E8731BB78043F39EEE32EC5A1169A89E27FCD49815 DUP6 DUP4 PUSH1 0x40 MLOAD PUSH2 0x47CE SWAP3 SWAP2 SWAP1 PUSH2 0x7871 JUMP JUMPDEST PUSH1 0x40 MLOAD DUP1 SWAP2 SUB SWAP1 LOG2 POP POP POP POP POP JUMP JUMPDEST PUSH1 0x0 DUP1 PUSH1 0x0 DUP7 DUP7 DUP7 DUP7 PUSH1 0x40 MLOAD PUSH1 0x20 ADD PUSH2 0x47F9 SWAP5 SWAP4 SWAP3 SWAP2 SWAP1 PUSH2 0x7CC7 JUMP JUMPDEST PUSH1 0x40 MLOAD PUSH1 0x20 DUP2 DUP4 SUB SUB DUP2 MSTORE SWAP1 PUSH1 0x40 MSTORE DUP1 MLOAD SWAP1 PUSH1 0x20 ADD KECCAK256 PUSH1 0x0 SHR SWAP1 POP DUP7 DUP2 PUSH1 0x40 MLOAD PUSH1 0x20 ADD PUSH2 0x4827 SWAP3 SWAP2 SWAP1 PUSH2 0x7D0C JUMP JUMPDEST PUSH1 0x40 MLOAD PUSH1 0x20 DUP2 DUP4 SUB SUB DUP2 MSTORE SWAP1 PUSH1 0x40 MSTORE DUP1 MLOAD SWAP1 PUSH1 0x20 ADD KECCAK256 PUSH1 0x0 SHR DUP2 SWAP3 POP SWAP3 POP POP SWAP5 POP SWAP5 SWAP3 POP POP POP JUMP JUMPDEST PUSH1 0x0 DUP1 PUSH1 0x0 PUSH2 0x4861 DUP6 PUSH1 0x0 ADD MLOAD PUSH2 0x384F JUMP JUMPDEST SWAP3 POP PUSH1 0x0 PUSH1 0x6 PUSH1 0x0 DUP6 DUP2 MSTORE PUSH1 0x20 ADD SWAP1 DUP2 MSTORE PUSH1 0x20 ADD PUSH1 0x0 KECCAK256 PUSH1 0x0 SWAP1 SLOAD SWAP1 PUSH2 0x100 EXP SWAP1 DIV PUSH20 0xFFFFFFFFFFFFFFFFFFFFFFFFFFFFFFFFFFFFFFFF AND SWAP1 POP PUSH1 0x0 PUSH20 0xFFFFFFFFFFFFFFFFFFFFFFFFFFFFFFFFFFFFFFFF AND DUP2 PUSH20 0xFFFFFFFFFFFFFFFFFFFFFFFFFFFFFFFFFFFFFFFF AND SUB PUSH2 0x490C JUMPI DUP4 PUSH1 0x40 MLOAD PUSH32 0x77F5B84C00000000000000000000000000000000000000000000000000000000 DUP2 MSTORE PUSH1 0x4 ADD PUSH2 0x4903 SWAP2 SWAP1 PUSH2 0x6C75 JUMP JUMPDEST PUSH1 0x40 MLOAD DUP1 SWAP2 SUB SWAP1 REVERT JUMPDEST DUP4 DUP7 PUSH1 0x80 ADD MLOAD PUSH1 0x40 MLOAD PUSH1 0x20 ADD PUSH2 0x4923 SWAP3 SWAP2 SWAP1 PUSH2 0x7D0C JUMP JUMPDEST PUSH1 0x40 MLOAD PUSH1 0x20 DUP2 DUP4 SUB SUB DUP2 MSTORE SWAP1 PUSH1 0x40 MSTORE DUP1 MLOAD SWAP1 PUSH1 0x20 ADD KECCAK256 PUSH1 0x0 SHR SWAP3 POP PUSH1 0x0 PUSH1 0x9 PUSH1 0x0 DUP6 DUP2 MSTORE PUSH1 0x20 ADD SWAP1 DUP2 MSTORE PUSH1 0x20 ADD PUSH1 0x0 KECCAK256 SLOAD SWAP1 POP PUSH1 0x0 DUP1 SHL DUP2 SUB PUSH2 0x4992 JUMPI PUSH1 0x40 MLOAD PUSH32 0x3688124A00000000000000000000000000000000000000000000000000000000 DUP2 MSTORE PUSH1 0x4 ADD PUSH1 0x40 MLOAD DUP1 SWAP2 SUB SWAP1 REVERT JUMPDEST DUP4 DUP7 PUSH1 0x0 ADD MLOAD DUP8 PUSH1 0x20 ADD MLOAD DUP9 PUSH1 0x40 ADD MLOAD DUP10 PUSH1 0x60 ADD MLOAD DUP11 PUSH1 0x80 ADD MLOAD PUSH1 0x40 MLOAD PUSH1 0x20 ADD PUSH2 0x49C1 SWAP7 SWAP6 SWAP5 SWAP4 SWAP3 SWAP2 SWAP1 PUSH2 0x7D35 JUMP JUMPDEST PUSH1 0x40 MLOAD PUSH1 0x20 DUP2 DUP4 SUB SUB DUP2 MSTORE SWAP1 PUSH1 0x40 MSTORE DUP1 MLOAD SWAP1 PUSH1 0x20 ADD KECCAK256 DUP2 EQ PUSH2 0x4A0F JUMPI PUSH1 0x40 MLOAD PUSH32 0xD529142C00000000000000000000000000000000000000000000000000000000 DUP2 MSTORE PUSH1 0x4 ADD PUSH1 0x40 MLOAD DUP1 SWAP2 SUB SWAP1 REVERT JUMPDEST PUSH1 0x0 DUP7 PUSH1 0x0 ADD MLOAD PUSH8 0xFFFFFFFFFFFFFFFF AND BLOCKHASH SWAP1 POP PUSH1 0x0 DUP1 SHL DUP2 SUB PUSH2 0x4B19 JUMPI PUSH32 0x0 PUSH20 0xFFFFFFFFFFFFFFFFFFFFFFFFFFFFFFFFFFFFFFFF AND PUSH4 0xE9413D38 DUP9 PUSH1 0x0 ADD MLOAD PUSH1 0x40 MLOAD DUP3 PUSH4 0xFFFFFFFF AND PUSH1 0xE0 SHL DUP2 MSTORE PUSH1 0x4 ADD PUSH2 0x4A8A SWAP2 SWAP1 PUSH2 0x7DC7 JUMP JUMPDEST PUSH1 0x20 PUSH1 0x40 MLOAD DUP1 DUP4 SUB DUP2 DUP7 GAS STATICCALL ISZERO DUP1 ISZERO PUSH2 0x4AA7 JUMPI RETURNDATASIZE PUSH1 0x0 DUP1 RETURNDATACOPY RETURNDATASIZE PUSH1 0x0 REVERT JUMPDEST POP POP POP POP PUSH1 0x40 MLOAD RETURNDATASIZE PUSH1 0x1F NOT PUSH1 0x1F DUP3 ADD AND DUP3 ADD DUP1 PUSH1 0x40 MSTORE POP DUP2 ADD SWAP1 PUSH2 0x4ACB SWAP2 SWAP1 PUSH2 0x7DF7 JUMP JUMPDEST SWAP1 POP PUSH1 0x0 DUP1 SHL DUP2 SUB PUSH2 0x4B18 JUMPI DUP7 PUSH1 0x0 ADD MLOAD PUSH1 0x40 MLOAD PUSH32 0x175DADAD00000000000000000000000000000000000000000000000000000000 DUP2 MSTORE PUSH1 0x4 ADD PUSH2 0x4B0F SWAP2 SWAP1 PUSH2 0x7DC7 JUMP JUMPDEST PUSH1 0x40 MLOAD DUP1 SWAP2 SUB SWAP1 REVERT JUMPDEST JUMPDEST PUSH1 0x0 DUP9 PUSH1 0x80 ADD MLOAD DUP3 PUSH1 0x40 MLOAD PUSH1 0x20 ADD PUSH2 0x4B32 SWAP3 SWAP2 SWAP1 PUSH2 0x7E66 JUMP JUMPDEST PUSH1 0x40 MLOAD PUSH1 0x20 DUP2 DUP4 SUB SUB DUP2 MSTORE SWAP1 PUSH1 0x40 MSTORE DUP1 MLOAD SWAP1 PUSH1 0x20 ADD KECCAK256 PUSH1 0x0 SHR SWAP1 POP PUSH2 0x4B57 DUP10 DUP3 PUSH2 0x4DF8 JUMP JUMPDEST SWAP5 POP POP POP POP POP SWAP3 POP SWAP3 POP SWAP3 JUMP JUMPDEST PUSH1 0x0 GAS PUSH2 0x1388 DUP2 LT ISZERO PUSH2 0x4B76 JUMPI PUSH1 0x0 DUP1 REVERT JUMPDEST PUSH2 0x1388 DUP2 SUB SWAP1 POP DUP5 PUSH1 0x40 DUP3 DIV DUP3 SUB GT PUSH2 0x4B8E JUMPI PUSH1 0x0 DUP1 REVERT JUMPDEST DUP4 EXTCODESIZE PUSH2 0x4B99 JUMPI PUSH1 0x0 DUP1 REVERT JUMPDEST PUSH1 0x0 DUP1 DUP5 MLOAD PUSH1 0x20 DUP7 ADD PUSH1 0x0 DUP9 DUP11 CALL SWAP2 POP POP SWAP4 SWAP3 POP POP POP JUMP JUMPDEST PUSH1 0x0 DUP1 PUSH2 0x4BBC PUSH2 0x4E65 JUMP JUMPDEST SWAP1 POP PUSH1 0x0 DUP2 SGT PUSH2 0x4C03 JUMPI DUP1 PUSH1 0x40 MLOAD PUSH32 0x43D4CF6600000000000000000000000000000000000000000000000000000000 DUP2 MSTORE PUSH1 0x4 ADD PUSH2 0x4BFA SWAP2 SWAP1 PUSH2 0x6727 JUMP JUMPDEST PUSH1 0x40 MLOAD DUP1 SWAP2 SUB SWAP1 REVERT JUMPDEST PUSH1 0x0 DUP2 GAS DUP9 DUP9 PUSH2 0x4C13 SWAP2 SWAP1 PUSH2 0x79CF JUMP JUMPDEST PUSH2 0x4C1D SWAP2 SWAP1 PUSH2 0x72FB JUMP JUMPDEST DUP6 PUSH8 0xDE0B6B3A7640000 PUSH2 0x4C31 SWAP2 SWAP1 PUSH2 0x7E92 JUMP JUMPDEST PUSH2 0x4C3B SWAP2 SWAP1 PUSH2 0x7E92 JUMP JUMPDEST PUSH2 0x4C45 SWAP2 SWAP1 PUSH2 0x7F03 JUMP JUMPDEST SWAP1 POP PUSH1 0x0 DUP6 PUSH4 0xFFFFFFFF AND PUSH5 0xE8D4A51000 PUSH2 0x4C60 SWAP2 SWAP1 PUSH2 0x7E92 JUMP JUMPDEST SWAP1 POP DUP1 PUSH12 0x33B2E3C9FD0803CE8000000 PUSH2 0x4C7A SWAP2 SWAP1 PUSH2 0x72FB JUMP JUMPDEST DUP3 GT ISZERO PUSH2 0x4CB3 JUMPI PUSH1 0x40 MLOAD PUSH32 0xE80FA38100000000000000000000000000000000000000000000000000000000 DUP2 MSTORE PUSH1 0x4 ADD PUSH1 0x40 MLOAD DUP1 SWAP2 SUB SWAP1 REVERT JUMPDEST DUP1 DUP3 PUSH2 0x4CBF SWAP2 SWAP1 PUSH2 0x79CF JUMP JUMPDEST SWAP4 POP POP POP POP SWAP5 SWAP4 POP POP POP POP JUMP JUMPDEST CALLER PUSH20 0xFFFFFFFFFFFFFFFFFFFFFFFFFFFFFFFFFFFFFFFF AND DUP2 PUSH20 0xFFFFFFFFFFFFFFFFFFFFFFFFFFFFFFFFFFFFFFFF AND SUB PUSH2 0x4D3A JUMPI PUSH1 0x40 MLOAD PUSH32 0x8C379A000000000000000000000000000000000000000000000000000000000 DUP2 MSTORE PUSH1 0x4 ADD PUSH2 0x4D31 SWAP1 PUSH2 0x7F80 JUMP JUMPDEST PUSH1 0x40 MLOAD DUP1 SWAP2 SUB SWAP1 REVERT JUMPDEST DUP1 PUSH1 0x1 PUSH1 0x0 PUSH2 0x100 EXP DUP2 SLOAD DUP2 PUSH20 0xFFFFFFFFFFFFFFFFFFFFFFFFFFFFFFFFFFFFFFFF MUL NOT AND SWAP1 DUP4 PUSH20 0xFFFFFFFFFFFFFFFFFFFFFFFFFFFFFFFFFFFFFFFF AND MUL OR SWAP1 SSTORE POP DUP1 PUSH20 0xFFFFFFFFFFFFFFFFFFFFFFFFFFFFFFFFFFFFFFFF AND PUSH1 0x0 DUP1 SLOAD SWAP1 PUSH2 0x100 EXP SWAP1 DIV PUSH20 0xFFFFFFFFFFFFFFFFFFFFFFFFFFFFFFFFFFFFFFFF AND PUSH20 0xFFFFFFFFFFFFFFFFFFFFFFFFFFFFFFFFFFFFFFFF AND PUSH32 0xED8889F560326EB138920D842192F0EB3DD22B4F139C87A2C57538E05BAE1278 PUSH1 0x40 MLOAD PUSH1 0x40 MLOAD DUP1 SWAP2 SUB SWAP1 LOG3 POP JUMP JUMPDEST PUSH1 0x0 PUSH2 0x4E2C DUP4 PUSH1 0x0 ADD MLOAD DUP5 PUSH1 0x20 ADD MLOAD DUP6 PUSH1 0x40 ADD MLOAD DUP7 PUSH1 0x60 ADD MLOAD DUP7 DUP9 PUSH1 0xA0 ADD MLOAD DUP10 PUSH1 0xC0 ADD MLOAD DUP11 PUSH1 0xE0 ADD MLOAD DUP12 PUSH2 0x100 ADD MLOAD PUSH2 0x4F62 JUMP JUMPDEST PUSH1 0x3 DUP4 PUSH1 0x20 ADD MLOAD PUSH1 0x40 MLOAD PUSH1 0x20 ADD PUSH2 0x4E44 SWAP3 SWAP2 SWAP1 PUSH2 0x7FA0 JUMP JUMPDEST PUSH1 0x40 MLOAD PUSH1 0x20 DUP2 DUP4 SUB SUB DUP2 MSTORE SWAP1 PUSH1 0x40 MSTORE DUP1 MLOAD SWAP1 PUSH1 0x20 ADD KECCAK256 PUSH1 0x0 SHR SWAP1 POP SWAP3 SWAP2 POP POP JUMP JUMPDEST PUSH1 0x0 DUP1 PUSH1 0xB PUSH1 0x0 ADD PUSH1 0x7 SWAP1 SLOAD SWAP1 PUSH2 0x100 EXP SWAP1 DIV PUSH4 0xFFFFFFFF AND SWAP1 POP PUSH1 0x0 DUP1 DUP3 PUSH4 0xFFFFFFFF AND GT SWAP1 POP PUSH1 0x0 DUP1 PUSH32 0x0 PUSH20 0xFFFFFFFFFFFFFFFFFFFFFFFFFFFFFFFFFFFFFFFF AND PUSH4 0xFEAF968C PUSH1 0x40 MLOAD DUP2 PUSH4 0xFFFFFFFF AND PUSH1 0xE0 SHL DUP2 MSTORE PUSH1 0x4 ADD PUSH1 0xA0 PUSH1 0x40 MLOAD DUP1 DUP4 SUB DUP2 DUP7 GAS STATICCALL ISZERO DUP1 ISZERO PUSH2 0x4EFB JUMPI RETURNDATASIZE PUSH1 0x0 DUP1 RETURNDATACOPY RETURNDATASIZE PUSH1 0x0 REVERT JUMPDEST POP POP POP POP PUSH1 0x40 MLOAD RETURNDATASIZE PUSH1 0x1F NOT PUSH1 0x1F DUP3 ADD AND DUP3 ADD DUP1 PUSH1 0x40 MSTORE POP DUP2 ADD SWAP1 PUSH2 0x4F1F SWAP2 SWAP1 PUSH2 0x8020 JUMP JUMPDEST SWAP1 SWAP2 SWAP3 SWAP4 POP SWAP1 SWAP2 POP POP DUP1 SWAP4 POP DUP2 SWAP3 POP POP POP DUP3 DUP1 ISZERO PUSH2 0x4F4D JUMPI POP DUP2 TIMESTAMP PUSH2 0x4F44 SWAP2 SWAP1 PUSH2 0x72FB JUMP JUMPDEST DUP5 PUSH4 0xFFFFFFFF AND LT JUMPDEST ISZERO PUSH2 0x4F58 JUMPI PUSH1 0xA SLOAD SWAP1 POP JUMPDEST DUP1 SWAP5 POP POP POP POP POP SWAP1 JUMP JUMPDEST PUSH2 0x4F6B DUP10 PUSH2 0x514F JUMP JUMPDEST PUSH2 0x4FAA JUMPI PUSH1 0x40 MLOAD PUSH32 0x8C379A000000000000000000000000000000000000000000000000000000000 DUP2 MSTORE PUSH1 0x4 ADD PUSH2 0x4FA1 SWAP1 PUSH2 0x80E7 JUMP JUMPDEST PUSH1 0x40 MLOAD DUP1 SWAP2 SUB SWAP1 REVERT JUMPDEST PUSH2 0x4FB3 DUP9 PUSH2 0x514F JUMP JUMPDEST PUSH2 0x4FF2 JUMPI PUSH1 0x40 MLOAD PUSH32 0x8C379A000000000000000000000000000000000000000000000000000000000 DUP2 MSTORE PUSH1 0x4 ADD PUSH2 0x4FE9 SWAP1 PUSH2 0x8153 JUMP JUMPDEST PUSH1 0x40 MLOAD DUP1 SWAP2 SUB SWAP1 REVERT JUMPDEST PUSH2 0x4FFB DUP4 PUSH2 0x514F JUMP JUMPDEST PUSH2 0x503A JUMPI PUSH1 0x40 MLOAD PUSH32 0x8C379A000000000000000000000000000000000000000000000000000000000 DUP2 MSTORE PUSH1 0x4 ADD PUSH2 0x5031 SWAP1 PUSH2 0x81BF JUMP JUMPDEST PUSH1 0x40 MLOAD DUP1 SWAP2 SUB SWAP1 REVERT JUMPDEST PUSH2 0x5043 DUP3 PUSH2 0x514F JUMP JUMPDEST PUSH2 0x5082 JUMPI PUSH1 0x40 MLOAD PUSH32 0x8C379A000000000000000000000000000000000000000000000000000000000 DUP2 MSTORE PUSH1 0x4 ADD PUSH2 0x5079 SWAP1 PUSH2 0x822B JUMP JUMPDEST PUSH1 0x40 MLOAD DUP1 SWAP2 SUB SWAP1 REVERT JUMPDEST PUSH2 0x508E DUP8 DUP11 DUP9 DUP8 PUSH2 0x52D0 JUMP JUMPDEST PUSH2 0x50CD JUMPI PUSH1 0x40 MLOAD PUSH32 0x8C379A000000000000000000000000000000000000000000000000000000000 DUP2 MSTORE PUSH1 0x4 ADD PUSH2 0x50C4 SWAP1 PUSH2 0x8297 JUMP JUMPDEST PUSH1 0x40 MLOAD DUP1 SWAP2 SUB SWAP1 REVERT JUMPDEST PUSH1 0x0 PUSH2 0x50D9 DUP11 DUP8 PUSH2 0x54ED JUMP JUMPDEST SWAP1 POP PUSH1 0x0 PUSH2 0x50EC DUP10 DUP12 DUP8 DUP12 DUP7 DUP10 DUP10 PUSH2 0x557F JUMP JUMPDEST SWAP1 POP PUSH1 0x0 PUSH2 0x50FD DUP4 DUP14 DUP14 DUP11 DUP7 PUSH2 0x5705 JUMP JUMPDEST SWAP1 POP DUP1 DUP11 EQ PUSH2 0x5141 JUMPI PUSH1 0x40 MLOAD PUSH32 0x8C379A000000000000000000000000000000000000000000000000000000000 DUP2 MSTORE PUSH1 0x4 ADD PUSH2 0x5138 SWAP1 PUSH2 0x8303 JUMP JUMPDEST PUSH1 0x40 MLOAD DUP1 SWAP2 SUB SWAP1 REVERT JUMPDEST POP POP POP POP POP POP POP POP POP POP POP POP JUMP JUMPDEST PUSH1 0x0 PUSH32 0xFFFFFFFFFFFFFFFFFFFFFFFFFFFFFFFFFFFFFFFFFFFFFFFFFFFFFFFEFFFFFC2F DUP3 PUSH1 0x0 PUSH1 0x2 DUP2 LT PUSH2 0x5186 JUMPI PUSH2 0x5185 PUSH2 0x729D JUMP JUMPDEST JUMPDEST PUSH1 0x20 MUL ADD MLOAD LT PUSH2 0x51CB JUMPI PUSH1 0x40 MLOAD PUSH32 0x8C379A000000000000000000000000000000000000000000000000000000000 DUP2 MSTORE PUSH1 0x4 ADD PUSH2 0x51C2 SWAP1 PUSH2 0x836F JUMP JUMPDEST PUSH1 0x40 MLOAD DUP1 SWAP2 SUB SWAP1 REVERT JUMPDEST PUSH32 0xFFFFFFFFFFFFFFFFFFFFFFFFFFFFFFFFFFFFFFFFFFFFFFFFFFFFFFFEFFFFFC2F DUP3 PUSH1 0x1 PUSH1 0x2 DUP2 LT PUSH2 0x5200 JUMPI PUSH2 0x51FF PUSH2 0x729D JUMP JUMPDEST JUMPDEST PUSH1 0x20 MUL ADD MLOAD LT PUSH2 0x5245 JUMPI PUSH1 0x40 MLOAD PUSH32 0x8C379A000000000000000000000000000000000000000000000000000000000 DUP2 MSTORE PUSH1 0x4 ADD PUSH2 0x523C SWAP1 PUSH2 0x83DB JUMP JUMPDEST PUSH1 0x40 MLOAD DUP1 SWAP2 SUB SWAP1 REVERT JUMPDEST PUSH32 0xFFFFFFFFFFFFFFFFFFFFFFFFFFFFFFFFFFFFFFFFFFFFFFFFFFFFFFFEFFFFFC2F DUP1 PUSH2 0x5274 JUMPI PUSH2 0x5273 PUSH2 0x7ED4 JUMP JUMPDEST JUMPDEST DUP3 PUSH1 0x1 PUSH1 0x2 DUP2 LT PUSH2 0x5288 JUMPI PUSH2 0x5287 PUSH2 0x729D JUMP JUMPDEST JUMPDEST PUSH1 0x20 MUL ADD MLOAD DUP4 PUSH1 0x1 PUSH1 0x2 DUP2 LT PUSH2 0x52A1 JUMPI PUSH2 0x52A0 PUSH2 0x729D JUMP JUMPDEST JUMPDEST PUSH1 0x20 MUL ADD MLOAD MULMOD PUSH2 0x52C8 DUP4 PUSH1 0x0 PUSH1 0x2 DUP2 LT PUSH2 0x52BE JUMPI PUSH2 0x52BD PUSH2 0x729D JUMP JUMPDEST JUMPDEST PUSH1 0x20 MUL ADD MLOAD PUSH2 0x5747 JUMP JUMPDEST EQ SWAP1 POP SWAP2 SWAP1 POP JUMP JUMPDEST PUSH1 0x0 DUP1 PUSH20 0xFFFFFFFFFFFFFFFFFFFFFFFFFFFFFFFFFFFFFFFF AND DUP3 PUSH20 0xFFFFFFFFFFFFFFFFFFFFFFFFFFFFFFFFFFFFFFFF AND SUB PUSH2 0x5340 JUMPI PUSH1 0x40 MLOAD PUSH32 0x8C379A000000000000000000000000000000000000000000000000000000000 DUP2 MSTORE PUSH1 0x4 ADD PUSH2 0x5337 SWAP1 PUSH2 0x8447 JUMP JUMPDEST PUSH1 0x40 MLOAD DUP1 SWAP2 SUB SWAP1 REVERT JUMPDEST PUSH1 0x0 DUP1 PUSH1 0x2 DUP7 PUSH1 0x1 PUSH1 0x2 DUP2 LT PUSH2 0x5359 JUMPI PUSH2 0x5358 PUSH2 0x729D JUMP JUMPDEST JUMPDEST PUSH1 0x20 MUL ADD MLOAD DUP2 PUSH2 0x536C JUMPI PUSH2 0x536B PUSH2 0x7ED4 JUMP JUMPDEST JUMPDEST MOD EQ PUSH2 0x5379 JUMPI PUSH1 0x1C PUSH2 0x537C JUMP JUMPDEST PUSH1 0x1B JUMPDEST SWAP1 POP PUSH1 0x0 PUSH32 0xFFFFFFFFFFFFFFFFFFFFFFFFFFFFFFFEBAAEDCE6AF48A03BBFD25E8CD0364141 DUP1 PUSH2 0x53AF JUMPI PUSH2 0x53AE PUSH2 0x7ED4 JUMP JUMPDEST JUMPDEST DUP6 DUP8 PUSH1 0x0 PUSH1 0x2 DUP2 LT PUSH2 0x53C4 JUMPI PUSH2 0x53C3 PUSH2 0x729D JUMP JUMPDEST JUMPDEST PUSH1 0x20 MUL ADD MLOAD MULMOD PUSH32 0xFFFFFFFFFFFFFFFFFFFFFFFFFFFFFFFEBAAEDCE6AF48A03BBFD25E8CD0364141 SUB PUSH1 0x0 SHL SWAP1 POP PUSH1 0x0 PUSH32 0xFFFFFFFFFFFFFFFFFFFFFFFFFFFFFFFEBAAEDCE6AF48A03BBFD25E8CD0364141 DUP1 PUSH2 0x5422 JUMPI PUSH2 0x5421 PUSH2 0x7ED4 JUMP JUMPDEST JUMPDEST DUP8 PUSH1 0x0 PUSH1 0x2 DUP2 LT PUSH2 0x5436 JUMPI PUSH2 0x5435 PUSH2 0x729D JUMP JUMPDEST JUMPDEST PUSH1 0x20 MUL ADD MLOAD DUP10 MULMOD PUSH1 0x0 SHL SWAP1 POP PUSH1 0x0 PUSH1 0x1 DUP4 DUP6 DUP11 PUSH1 0x0 PUSH1 0x2 DUP2 LT PUSH2 0x545C JUMPI PUSH2 0x545B PUSH2 0x729D JUMP JUMPDEST JUMPDEST PUSH1 0x20 MUL ADD MLOAD PUSH1 0x0 SHL DUP6 PUSH1 0x40 MLOAD PUSH1 0x0 DUP2 MSTORE PUSH1 0x20 ADD PUSH1 0x40 MSTORE PUSH1 0x40 MLOAD PUSH2 0x5482 SWAP5 SWAP4 SWAP3 SWAP2 SWAP1 PUSH2 0x8483 JUMP JUMPDEST PUSH1 0x20 PUSH1 0x40 MLOAD PUSH1 0x20 DUP2 SUB SWAP1 DUP1 DUP5 SUB SWAP1 DUP6 GAS STATICCALL ISZERO DUP1 ISZERO PUSH2 0x54A4 JUMPI RETURNDATASIZE PUSH1 0x0 DUP1 RETURNDATACOPY RETURNDATASIZE PUSH1 0x0 REVERT JUMPDEST POP POP POP PUSH1 0x20 PUSH1 0x40 MLOAD SUB MLOAD SWAP1 POP DUP6 PUSH20 0xFFFFFFFFFFFFFFFFFFFFFFFFFFFFFFFFFFFFFFFF AND DUP2 PUSH20 0xFFFFFFFFFFFFFFFFFFFFFFFFFFFFFFFFFFFFFFFF AND EQ SWAP5 POP POP POP POP POP SWAP5 SWAP4 POP POP POP POP JUMP JUMPDEST PUSH2 0x54F5 PUSH2 0x6231 JUMP JUMPDEST PUSH2 0x5522 PUSH1 0x1 DUP5 DUP5 PUSH1 0x40 MLOAD PUSH1 0x20 ADD PUSH2 0x550E SWAP4 SWAP3 SWAP2 SWAP1 PUSH2 0x8551 JUMP JUMPDEST PUSH1 0x40 MLOAD PUSH1 0x20 DUP2 DUP4 SUB SUB DUP2 MSTORE SWAP1 PUSH1 0x40 MSTORE PUSH2 0x57EA JUMP JUMPDEST SWAP1 POP JUMPDEST PUSH2 0x552E DUP2 PUSH2 0x514F JUMP JUMPDEST PUSH2 0x5579 JUMPI PUSH2 0x5572 DUP2 PUSH1 0x0 PUSH1 0x2 DUP2 LT PUSH2 0x5549 JUMPI PUSH2 0x5548 PUSH2 0x729D JUMP JUMPDEST JUMPDEST PUSH1 0x20 MUL ADD MLOAD PUSH1 0x40 MLOAD PUSH1 0x20 ADD PUSH2 0x555E SWAP2 SWAP1 PUSH2 0x858E JUMP JUMPDEST PUSH1 0x40 MLOAD PUSH1 0x20 DUP2 DUP4 SUB SUB DUP2 MSTORE SWAP1 PUSH1 0x40 MSTORE PUSH2 0x57EA JUMP JUMPDEST SWAP1 POP PUSH2 0x5525 JUMP JUMPDEST SWAP3 SWAP2 POP POP JUMP JUMPDEST PUSH2 0x5587 PUSH2 0x6231 JUMP JUMPDEST PUSH32 0xFFFFFFFFFFFFFFFFFFFFFFFFFFFFFFFFFFFFFFFFFFFFFFFFFFFFFFFEFFFFFC2F DUP4 PUSH1 0x0 PUSH1 0x2 DUP2 LT PUSH2 0x55BC JUMPI PUSH2 0x55BB PUSH2 0x729D JUMP JUMPDEST JUMPDEST PUSH1 0x20 MUL ADD MLOAD DUP2 PUSH2 0x55CF JUMPI PUSH2 0x55CE PUSH2 0x7ED4 JUMP JUMPDEST JUMPDEST MOD PUSH32 0xFFFFFFFFFFFFFFFFFFFFFFFFFFFFFFFFFFFFFFFFFFFFFFFFFFFFFFFEFFFFFC2F DUP8 PUSH1 0x0 PUSH1 0x2 DUP2 LT PUSH2 0x5605 JUMPI PUSH2 0x5604 PUSH2 0x729D JUMP JUMPDEST JUMPDEST PUSH1 0x20 MUL ADD MLOAD DUP2 PUSH2 0x5618 JUMPI PUSH2 0x5617 PUSH2 0x7ED4 JUMP JUMPDEST JUMPDEST MOD SUB PUSH2 0x5659 JUMPI PUSH1 0x40 MLOAD PUSH32 0x8C379A000000000000000000000000000000000000000000000000000000000 DUP2 MSTORE PUSH1 0x4 ADD PUSH2 0x5650 SWAP1 PUSH2 0x85F5 JUMP JUMPDEST PUSH1 0x40 MLOAD DUP1 SWAP2 SUB SWAP1 REVERT JUMPDEST PUSH2 0x5664 DUP8 DUP10 DUP9 PUSH2 0x58ED JUMP JUMPDEST PUSH2 0x56A3 JUMPI PUSH1 0x40 MLOAD PUSH32 0x8C379A000000000000000000000000000000000000000000000000000000000 DUP2 MSTORE PUSH1 0x4 ADD PUSH2 0x569A SWAP1 PUSH2 0x8661 JUMP JUMPDEST PUSH1 0x40 MLOAD DUP1 SWAP2 SUB SWAP1 REVERT JUMPDEST PUSH2 0x56AE DUP5 DUP7 DUP6 PUSH2 0x58ED JUMP JUMPDEST PUSH2 0x56ED JUMPI PUSH1 0x40 MLOAD PUSH32 0x8C379A000000000000000000000000000000000000000000000000000000000 DUP2 MSTORE PUSH1 0x4 ADD PUSH2 0x56E4 SWAP1 PUSH2 0x86CD JUMP JUMPDEST PUSH1 0x40 MLOAD DUP1 SWAP2 SUB SWAP1 REVERT JUMPDEST PUSH2 0x56F8 DUP7 DUP5 DUP5 PUSH2 0x5A84 JUMP JUMPDEST SWAP1 POP SWAP8 SWAP7 POP POP POP POP POP POP POP JUMP JUMPDEST PUSH1 0x0 PUSH1 0x2 DUP7 DUP7 DUP7 DUP6 DUP8 PUSH1 0x40 MLOAD PUSH1 0x20 ADD PUSH2 0x5723 SWAP7 SWAP6 SWAP5 SWAP4 SWAP3 SWAP2 SWAP1 PUSH2 0x8735 JUMP JUMPDEST PUSH1 0x40 MLOAD PUSH1 0x20 DUP2 DUP4 SUB SUB DUP2 MSTORE SWAP1 PUSH1 0x40 MSTORE DUP1 MLOAD SWAP1 PUSH1 0x20 ADD KECCAK256 PUSH1 0x0 SHR SWAP1 POP SWAP6 SWAP5 POP POP POP POP POP JUMP JUMPDEST PUSH1 0x0 DUP1 PUSH32 0xFFFFFFFFFFFFFFFFFFFFFFFFFFFFFFFFFFFFFFFFFFFFFFFFFFFFFFFEFFFFFC2F DUP1 PUSH2 0x5779 JUMPI PUSH2 0x5778 PUSH2 0x7ED4 JUMP JUMPDEST JUMPDEST PUSH32 0xFFFFFFFFFFFFFFFFFFFFFFFFFFFFFFFFFFFFFFFFFFFFFFFFFFFFFFFEFFFFFC2F DUP1 PUSH2 0x57A8 JUMPI PUSH2 0x57A7 PUSH2 0x7ED4 JUMP JUMPDEST JUMPDEST DUP5 DUP6 MULMOD DUP5 MULMOD SWAP1 POP PUSH32 0xFFFFFFFFFFFFFFFFFFFFFFFFFFFFFFFFFFFFFFFFFFFFFFFFFFFFFFFEFFFFFC2F DUP1 PUSH2 0x57DE JUMPI PUSH2 0x57DD PUSH2 0x7ED4 JUMP JUMPDEST JUMPDEST PUSH1 0x7 DUP3 ADDMOD SWAP2 POP POP SWAP2 SWAP1 POP JUMP JUMPDEST PUSH2 0x57F2 PUSH2 0x6231 JUMP JUMPDEST PUSH2 0x57FB DUP3 PUSH2 0x5C00 JUMP JUMPDEST DUP2 PUSH1 0x0 PUSH1 0x2 DUP2 LT PUSH2 0x580F JUMPI PUSH2 0x580E PUSH2 0x729D JUMP JUMPDEST JUMPDEST PUSH1 0x20 MUL ADD DUP2 DUP2 MSTORE POP POP PUSH2 0x5841 PUSH2 0x583C DUP3 PUSH1 0x0 PUSH1 0x2 DUP2 LT PUSH2 0x5832 JUMPI PUSH2 0x5831 PUSH2 0x729D JUMP JUMPDEST JUMPDEST PUSH1 0x20 MUL ADD MLOAD PUSH2 0x5747 JUMP JUMPDEST PUSH2 0x5C6D JUMP JUMPDEST DUP2 PUSH1 0x1 PUSH1 0x2 DUP2 LT PUSH2 0x5855 JUMPI PUSH2 0x5854 PUSH2 0x729D JUMP JUMPDEST JUMPDEST PUSH1 0x20 MUL ADD DUP2 DUP2 MSTORE POP POP PUSH1 0x1 PUSH1 0x2 DUP3 PUSH1 0x1 PUSH1 0x2 DUP2 LT PUSH2 0x5876 JUMPI PUSH2 0x5875 PUSH2 0x729D JUMP JUMPDEST JUMPDEST PUSH1 0x20 MUL ADD MLOAD DUP2 PUSH2 0x5889 JUMPI PUSH2 0x5888 PUSH2 0x7ED4 JUMP JUMPDEST JUMPDEST MOD SUB PUSH2 0x58E8 JUMPI DUP1 PUSH1 0x1 PUSH1 0x2 DUP2 LT PUSH2 0x58A3 JUMPI PUSH2 0x58A2 PUSH2 0x729D JUMP JUMPDEST JUMPDEST PUSH1 0x20 MUL ADD MLOAD PUSH32 0xFFFFFFFFFFFFFFFFFFFFFFFFFFFFFFFFFFFFFFFFFFFFFFFFFFFFFFFEFFFFFC2F SUB DUP2 PUSH1 0x1 PUSH1 0x2 DUP2 LT PUSH2 0x58DE JUMPI PUSH2 0x58DD PUSH2 0x729D JUMP JUMPDEST JUMPDEST PUSH1 0x20 MUL ADD DUP2 DUP2 MSTORE POP POP JUMPDEST SWAP2 SWAP1 POP JUMP JUMPDEST PUSH1 0x0 DUP1 DUP4 SUB PUSH2 0x5931 JUMPI PUSH1 0x40 MLOAD PUSH32 0x8C379A000000000000000000000000000000000000000000000000000000000 DUP2 MSTORE PUSH1 0x4 ADD PUSH2 0x5928 SWAP1 PUSH2 0x87F1 JUMP JUMPDEST PUSH1 0x40 MLOAD DUP1 SWAP2 SUB SWAP1 REVERT JUMPDEST PUSH1 0x0 DUP5 PUSH1 0x0 PUSH1 0x2 DUP2 LT PUSH2 0x5947 JUMPI PUSH2 0x5946 PUSH2 0x729D JUMP JUMPDEST JUMPDEST PUSH1 0x20 MUL ADD MLOAD SWAP1 POP PUSH1 0x0 DUP1 PUSH1 0x2 DUP8 PUSH1 0x1 PUSH1 0x2 DUP2 LT PUSH2 0x5967 JUMPI PUSH2 0x5966 PUSH2 0x729D JUMP JUMPDEST JUMPDEST PUSH1 0x20 MUL ADD MLOAD PUSH2 0x5976 SWAP2 SWAP1 PUSH2 0x8811 JUMP JUMPDEST EQ PUSH2 0x5982 JUMPI PUSH1 0x1C PUSH2 0x5985 JUMP JUMPDEST PUSH1 0x1B JUMPDEST SWAP1 POP PUSH1 0x0 PUSH32 0xFFFFFFFFFFFFFFFFFFFFFFFFFFFFFFFEBAAEDCE6AF48A03BBFD25E8CD0364141 DUP1 PUSH2 0x59B8 JUMPI PUSH2 0x59B7 PUSH2 0x7ED4 JUMP JUMPDEST JUMPDEST DUP4 DUP8 MULMOD PUSH1 0x0 SHL SWAP1 POP PUSH1 0x0 PUSH1 0x1 PUSH1 0x0 DUP1 SHL DUP5 DUP7 PUSH1 0x0 SHL DUP6 PUSH1 0x40 MLOAD PUSH1 0x0 DUP2 MSTORE PUSH1 0x20 ADD PUSH1 0x40 MSTORE PUSH1 0x40 MLOAD PUSH2 0x59EB SWAP5 SWAP4 SWAP3 SWAP2 SWAP1 PUSH2 0x8483 JUMP JUMPDEST PUSH1 0x20 PUSH1 0x40 MLOAD PUSH1 0x20 DUP2 SUB SWAP1 DUP1 DUP5 SUB SWAP1 DUP6 GAS STATICCALL ISZERO DUP1 ISZERO PUSH2 0x5A0D JUMPI RETURNDATASIZE PUSH1 0x0 DUP1 RETURNDATACOPY RETURNDATASIZE PUSH1 0x0 REVERT JUMPDEST POP POP POP PUSH1 0x20 PUSH1 0x40 MLOAD SUB MLOAD SWAP1 POP PUSH1 0x0 DUP7 PUSH1 0x40 MLOAD PUSH1 0x20 ADD PUSH2 0x5A2C SWAP2 SWAP1 PUSH2 0x8842 JUMP JUMPDEST PUSH1 0x40 MLOAD PUSH1 0x20 DUP2 DUP4 SUB SUB DUP2 MSTORE SWAP1 PUSH1 0x40 MSTORE DUP1 MLOAD SWAP1 PUSH1 0x20 ADD KECCAK256 PUSH1 0x0 SHR SWAP1 POP DUP1 PUSH20 0xFFFFFFFFFFFFFFFFFFFFFFFFFFFFFFFFFFFFFFFF AND DUP3 PUSH20 0xFFFFFFFFFFFFFFFFFFFFFFFFFFFFFFFFFFFFFFFF AND EQ SWAP6 POP POP POP POP POP POP SWAP4 SWAP3 POP POP POP JUMP JUMPDEST PUSH2 0x5A8C PUSH2 0x6231 JUMP JUMPDEST PUSH1 0x0 DUP1 PUSH1 0x0 PUSH2 0x5AFD DUP8 PUSH1 0x0 PUSH1 0x2 DUP2 LT PUSH2 0x5AA8 JUMPI PUSH2 0x5AA7 PUSH2 0x729D JUMP JUMPDEST JUMPDEST PUSH1 0x20 MUL ADD MLOAD DUP9 PUSH1 0x1 PUSH1 0x2 DUP2 LT PUSH2 0x5AC1 JUMPI PUSH2 0x5AC0 PUSH2 0x729D JUMP JUMPDEST JUMPDEST PUSH1 0x20 MUL ADD MLOAD DUP9 PUSH1 0x0 PUSH1 0x2 DUP2 LT PUSH2 0x5ADA JUMPI PUSH2 0x5AD9 PUSH2 0x729D JUMP JUMPDEST JUMPDEST PUSH1 0x20 MUL ADD MLOAD DUP10 PUSH1 0x1 PUSH1 0x2 DUP2 LT PUSH2 0x5AF3 JUMPI PUSH2 0x5AF2 PUSH2 0x729D JUMP JUMPDEST JUMPDEST PUSH1 0x20 MUL ADD MLOAD PUSH2 0x5CB0 JUMP JUMPDEST DUP1 SWAP4 POP DUP2 SWAP5 POP DUP3 SWAP6 POP POP POP POP PUSH1 0x1 PUSH32 0xFFFFFFFFFFFFFFFFFFFFFFFFFFFFFFFFFFFFFFFFFFFFFFFFFFFFFFFEFFFFFC2F DUP1 PUSH2 0x5B3A JUMPI PUSH2 0x5B39 PUSH2 0x7ED4 JUMP JUMPDEST JUMPDEST DUP7 DUP4 MULMOD EQ PUSH2 0x5B7D JUMPI PUSH1 0x40 MLOAD PUSH32 0x8C379A000000000000000000000000000000000000000000000000000000000 DUP2 MSTORE PUSH1 0x4 ADD PUSH2 0x5B74 SWAP1 PUSH2 0x88A9 JUMP JUMPDEST PUSH1 0x40 MLOAD DUP1 SWAP2 SUB SWAP1 REVERT JUMPDEST PUSH1 0x40 MLOAD DUP1 PUSH1 0x40 ADD PUSH1 0x40 MSTORE DUP1 PUSH32 0xFFFFFFFFFFFFFFFFFFFFFFFFFFFFFFFFFFFFFFFFFFFFFFFFFFFFFFFEFFFFFC2F DUP1 PUSH2 0x5BB7 JUMPI PUSH2 0x5BB6 PUSH2 0x7ED4 JUMP JUMPDEST JUMPDEST DUP8 DUP7 MULMOD DUP2 MSTORE PUSH1 0x20 ADD PUSH32 0xFFFFFFFFFFFFFFFFFFFFFFFFFFFFFFFFFFFFFFFFFFFFFFFFFFFFFFFEFFFFFC2F DUP1 PUSH2 0x5BEE JUMPI PUSH2 0x5BED PUSH2 0x7ED4 JUMP JUMPDEST JUMPDEST DUP8 DUP6 MULMOD DUP2 MSTORE POP SWAP4 POP POP POP POP SWAP4 SWAP3 POP POP POP JUMP JUMPDEST PUSH1 0x0 DUP2 DUP1 MLOAD SWAP1 PUSH1 0x20 ADD KECCAK256 PUSH1 0x0 SHR SWAP1 POP JUMPDEST PUSH32 0xFFFFFFFFFFFFFFFFFFFFFFFFFFFFFFFFFFFFFFFFFFFFFFFFFFFFFFFEFFFFFC2F DUP2 LT PUSH2 0x5C68 JUMPI DUP1 PUSH1 0x40 MLOAD PUSH1 0x20 ADD PUSH2 0x5C48 SWAP2 SWAP1 PUSH2 0x858E JUMP JUMPDEST PUSH1 0x40 MLOAD PUSH1 0x20 DUP2 DUP4 SUB SUB DUP2 MSTORE SWAP1 PUSH1 0x40 MSTORE DUP1 MLOAD SWAP1 PUSH1 0x20 ADD KECCAK256 PUSH1 0x0 SHR SWAP1 POP PUSH2 0x5C10 JUMP JUMPDEST SWAP2 SWAP1 POP JUMP JUMPDEST PUSH1 0x0 PUSH2 0x5CA9 DUP3 PUSH1 0x2 PUSH1 0x1 PUSH32 0xFFFFFFFFFFFFFFFFFFFFFFFFFFFFFFFFFFFFFFFFFFFFFFFFFFFFFFFEFFFFFC2F PUSH2 0x5CA2 SWAP2 SWAP1 PUSH2 0x79CF JUMP JUMPDEST SWAP1 SHR PUSH2 0x5EA7 JUMP JUMPDEST SWAP1 POP SWAP2 SWAP1 POP JUMP JUMPDEST PUSH1 0x0 DUP1 PUSH1 0x0 DUP1 PUSH1 0x0 PUSH1 0x1 DUP1 SWAP2 POP SWAP2 POP PUSH1 0x0 PUSH32 0xFFFFFFFFFFFFFFFFFFFFFFFFFFFFFFFFFFFFFFFFFFFFFFFFFFFFFFFEFFFFFC2F DUP1 PUSH2 0x5CF0 JUMPI PUSH2 0x5CEF PUSH2 0x7ED4 JUMP JUMPDEST JUMPDEST DUP10 PUSH32 0xFFFFFFFFFFFFFFFFFFFFFFFFFFFFFFFFFFFFFFFFFFFFFFFFFFFFFFFEFFFFFC2F SUB DUP9 ADDMOD SWAP1 POP PUSH1 0x0 PUSH32 0xFFFFFFFFFFFFFFFFFFFFFFFFFFFFFFFFFFFFFFFFFFFFFFFFFFFFFFFEFFFFFC2F DUP1 PUSH2 0x5D48 JUMPI PUSH2 0x5D47 PUSH2 0x7ED4 JUMP JUMPDEST JUMPDEST DUP12 PUSH32 0xFFFFFFFFFFFFFFFFFFFFFFFFFFFFFFFFFFFFFFFFFFFFFFFFFFFFFFFEFFFFFC2F SUB DUP11 ADDMOD SWAP1 POP PUSH1 0x0 PUSH2 0x5D7D DUP4 DUP4 DUP6 DUP6 PUSH2 0x6006 JUMP JUMPDEST DUP1 SWAP3 POP DUP2 SWAP10 POP POP POP PUSH2 0x5D91 DUP9 DUP3 DUP15 DUP9 PUSH2 0x607E JUMP JUMPDEST DUP1 SWAP3 POP DUP2 SWAP10 POP POP POP PUSH2 0x5DA5 DUP9 DUP3 DUP13 DUP8 PUSH2 0x607E JUMP JUMPDEST DUP1 SWAP3 POP DUP2 SWAP10 POP POP POP PUSH1 0x0 PUSH2 0x5DBB DUP14 DUP8 DUP12 DUP6 PUSH2 0x607E JUMP JUMPDEST DUP1 SWAP3 POP DUP2 SWAP10 POP POP POP PUSH2 0x5DCF DUP9 DUP3 DUP7 DUP7 PUSH2 0x6006 JUMP JUMPDEST DUP1 SWAP3 POP DUP2 SWAP10 POP POP POP PUSH2 0x5DE3 DUP9 DUP3 DUP15 DUP10 PUSH2 0x607E JUMP JUMPDEST DUP1 SWAP3 POP DUP2 SWAP10 POP POP POP DUP1 DUP3 EQ PUSH2 0x5E93 JUMPI PUSH32 0xFFFFFFFFFFFFFFFFFFFFFFFFFFFFFFFFFFFFFFFFFFFFFFFFFFFFFFFEFFFFFC2F DUP1 PUSH2 0x5E21 JUMPI PUSH2 0x5E20 PUSH2 0x7ED4 JUMP JUMPDEST JUMPDEST DUP2 DUP11 MULMOD SWAP9 POP PUSH32 0xFFFFFFFFFFFFFFFFFFFFFFFFFFFFFFFFFFFFFFFFFFFFFFFFFFFFFFFEFFFFFC2F DUP1 PUSH2 0x5E55 JUMPI PUSH2 0x5E54 PUSH2 0x7ED4 JUMP JUMPDEST JUMPDEST DUP3 DUP10 MULMOD SWAP8 POP PUSH32 0xFFFFFFFFFFFFFFFFFFFFFFFFFFFFFFFFFFFFFFFFFFFFFFFFFFFFFFFEFFFFFC2F DUP1 PUSH2 0x5E89 JUMPI PUSH2 0x5E88 PUSH2 0x7ED4 JUMP JUMPDEST JUMPDEST DUP2 DUP4 MULMOD SWAP7 POP PUSH2 0x5E97 JUMP JUMPDEST DUP2 SWAP7 POP JUMPDEST POP POP POP POP POP POP SWAP5 POP SWAP5 POP SWAP5 SWAP2 POP POP JUMP JUMPDEST PUSH1 0x0 DUP1 PUSH2 0x5EB2 PUSH2 0x6253 JUMP JUMPDEST PUSH1 0x20 DUP2 PUSH1 0x0 PUSH1 0x6 DUP2 LT PUSH2 0x5EC8 JUMPI PUSH2 0x5EC7 PUSH2 0x729D JUMP JUMPDEST JUMPDEST PUSH1 0x20 MUL ADD DUP2 DUP2 MSTORE POP POP PUSH1 0x20 DUP2 PUSH1 0x1 PUSH1 0x6 DUP2 LT PUSH2 0x5EE7 JUMPI PUSH2 0x5EE6 PUSH2 0x729D JUMP JUMPDEST JUMPDEST PUSH1 0x20 MUL ADD DUP2 DUP2 MSTORE POP POP PUSH1 0x20 DUP2 PUSH1 0x2 PUSH1 0x6 DUP2 LT PUSH2 0x5F06 JUMPI PUSH2 0x5F05 PUSH2 0x729D JUMP JUMPDEST JUMPDEST PUSH1 0x20 MUL ADD DUP2 DUP2 MSTORE POP POP DUP5 DUP2 PUSH1 0x3 PUSH1 0x6 DUP2 LT PUSH2 0x5F24 JUMPI PUSH2 0x5F23 PUSH2 0x729D JUMP JUMPDEST JUMPDEST PUSH1 0x20 MUL ADD DUP2 DUP2 MSTORE POP POP DUP4 DUP2 PUSH1 0x4 PUSH1 0x6 DUP2 LT PUSH2 0x5F42 JUMPI PUSH2 0x5F41 PUSH2 0x729D JUMP JUMPDEST JUMPDEST PUSH1 0x20 MUL ADD DUP2 DUP2 MSTORE POP POP PUSH32 0xFFFFFFFFFFFFFFFFFFFFFFFFFFFFFFFFFFFFFFFFFFFFFFFFFFFFFFFEFFFFFC2F DUP2 PUSH1 0x5 PUSH1 0x6 DUP2 LT PUSH2 0x5F80 JUMPI PUSH2 0x5F7F PUSH2 0x729D JUMP JUMPDEST JUMPDEST PUSH1 0x20 MUL ADD DUP2 DUP2 MSTORE POP POP PUSH2 0x5F91 PUSH2 0x6275 JUMP JUMPDEST PUSH1 0x20 DUP2 PUSH1 0xC0 DUP5 PUSH1 0x5 PUSH1 0x0 NOT STATICCALL SWAP3 POP PUSH1 0x0 DUP4 SUB PUSH2 0x5FE2 JUMPI PUSH1 0x40 MLOAD PUSH32 0x8C379A000000000000000000000000000000000000000000000000000000000 DUP2 MSTORE PUSH1 0x4 ADD PUSH2 0x5FD9 SWAP1 PUSH2 0x8915 JUMP JUMPDEST PUSH1 0x40 MLOAD DUP1 SWAP2 SUB SWAP1 REVERT JUMPDEST DUP1 PUSH1 0x0 PUSH1 0x1 DUP2 LT PUSH2 0x5FF6 JUMPI PUSH2 0x5FF5 PUSH2 0x729D JUMP JUMPDEST JUMPDEST PUSH1 0x20 MUL ADD MLOAD SWAP4 POP POP POP POP SWAP3 SWAP2 POP POP JUMP JUMPDEST PUSH1 0x0 DUP1 PUSH32 0xFFFFFFFFFFFFFFFFFFFFFFFFFFFFFFFFFFFFFFFFFFFFFFFFFFFFFFFEFFFFFC2F DUP1 PUSH2 0x6038 JUMPI PUSH2 0x6037 PUSH2 0x7ED4 JUMP JUMPDEST JUMPDEST DUP5 DUP8 MULMOD PUSH32 0xFFFFFFFFFFFFFFFFFFFFFFFFFFFFFFFFFFFFFFFFFFFFFFFFFFFFFFFEFFFFFC2F DUP1 PUSH2 0x606A JUMPI PUSH2 0x6069 PUSH2 0x7ED4 JUMP JUMPDEST JUMPDEST DUP5 DUP8 MULMOD DUP1 SWAP3 POP DUP2 SWAP4 POP POP POP SWAP5 POP SWAP5 SWAP3 POP POP POP JUMP JUMPDEST PUSH1 0x0 DUP1 PUSH1 0x0 PUSH32 0xFFFFFFFFFFFFFFFFFFFFFFFFFFFFFFFFFFFFFFFFFFFFFFFFFFFFFFFEFFFFFC2F DUP1 PUSH2 0x60B2 JUMPI PUSH2 0x60B1 PUSH2 0x7ED4 JUMP JUMPDEST JUMPDEST DUP8 DUP6 MULMOD SWAP1 POP PUSH1 0x0 PUSH32 0xFFFFFFFFFFFFFFFFFFFFFFFFFFFFFFFFFFFFFFFFFFFFFFFFFFFFFFFEFFFFFC2F DUP1 PUSH2 0x60E8 JUMPI PUSH2 0x60E7 PUSH2 0x7ED4 JUMP JUMPDEST JUMPDEST DUP8 DUP8 PUSH32 0xFFFFFFFFFFFFFFFFFFFFFFFFFFFFFFFFFFFFFFFFFFFFFFFFFFFFFFFEFFFFFC2F SUB MULMOD SWAP1 POP PUSH32 0xFFFFFFFFFFFFFFFFFFFFFFFFFFFFFFFFFFFFFFFFFFFFFFFFFFFFFFFEFFFFFC2F DUP1 PUSH2 0x613E JUMPI PUSH2 0x613D PUSH2 0x7ED4 JUMP JUMPDEST JUMPDEST DUP2 DUP4 ADDMOD PUSH32 0xFFFFFFFFFFFFFFFFFFFFFFFFFFFFFFFFFFFFFFFFFFFFFFFFFFFFFFFEFFFFFC2F DUP1 PUSH2 0x6170 JUMPI PUSH2 0x616F PUSH2 0x7ED4 JUMP JUMPDEST JUMPDEST DUP7 DUP10 MULMOD DUP1 SWAP5 POP DUP2 SWAP6 POP POP POP POP POP SWAP5 POP SWAP5 SWAP3 POP POP POP JUMP JUMPDEST DUP3 DUP1 SLOAD DUP3 DUP3 SSTORE SWAP1 PUSH1 0x0 MSTORE PUSH1 0x20 PUSH1 0x0 KECCAK256 SWAP1 DUP2 ADD SWAP3 DUP3 ISZERO PUSH2 0x61FF JUMPI SWAP2 PUSH1 0x20 MUL DUP3 ADD JUMPDEST DUP3 DUP2 GT ISZERO PUSH2 0x61FE JUMPI DUP3 MLOAD DUP3 PUSH1 0x0 PUSH2 0x100 EXP DUP2 SLOAD DUP2 PUSH20 0xFFFFFFFFFFFFFFFFFFFFFFFFFFFFFFFFFFFFFFFF MUL NOT AND SWAP1 DUP4 PUSH20 0xFFFFFFFFFFFFFFFFFFFFFFFFFFFFFFFFFFFFFFFF AND MUL OR SWAP1 SSTORE POP SWAP2 PUSH1 0x20 ADD SWAP2 SWAP1 PUSH1 0x1 ADD SWAP1 PUSH2 0x61A6 JUMP JUMPDEST JUMPDEST POP SWAP1 POP PUSH2 0x620C SWAP2 SWAP1 PUSH2 0x6297 JUMP JUMPDEST POP SWAP1 JUMP JUMPDEST POP DUP1 SLOAD PUSH1 0x0 DUP3 SSTORE SWAP1 PUSH1 0x0 MSTORE PUSH1 0x20 PUSH1 0x0 KECCAK256 SWAP1 DUP2 ADD SWAP1 PUSH2 0x622E SWAP2 SWAP1 PUSH2 0x6297 JUMP JUMPDEST POP JUMP JUMPDEST PUSH1 0x40 MLOAD DUP1 PUSH1 0x40 ADD PUSH1 0x40 MSTORE DUP1 PUSH1 0x2 SWAP1 PUSH1 0x20 DUP3 MUL DUP1 CALLDATASIZE DUP4 CALLDATACOPY DUP1 DUP3 ADD SWAP2 POP POP SWAP1 POP POP SWAP1 JUMP JUMPDEST PUSH1 0x40 MLOAD DUP1 PUSH1 0xC0 ADD PUSH1 0x40 MSTORE DUP1 PUSH1 0x6 SWAP1 PUSH1 0x20 DUP3 MUL DUP1 CALLDATASIZE DUP4 CALLDATACOPY DUP1 DUP3 ADD SWAP2 POP POP SWAP1 POP POP SWAP1 JUMP JUMPDEST PUSH1 0x40 MLOAD DUP1 PUSH1 0x20 ADD PUSH1 0x40 MSTORE DUP1 PUSH1 0x1 SWAP1 PUSH1 0x20 DUP3 MUL DUP1 CALLDATASIZE DUP4 CALLDATACOPY DUP1 DUP3 ADD SWAP2 POP POP SWAP1 POP POP SWAP1 JUMP JUMPDEST JUMPDEST DUP1 DUP3 GT ISZERO PUSH2 0x62B0 JUMPI PUSH1 0x0 DUP2 PUSH1 0x0 SWAP1 SSTORE POP PUSH1 0x1 ADD PUSH2 0x6298 JUMP JUMPDEST POP SWAP1 JUMP JUMPDEST PUSH1 0x0 PUSH2 0xFFFF DUP3 AND SWAP1 POP SWAP2 SWAP1 POP JUMP JUMPDEST PUSH2 0x62CB DUP2 PUSH2 0x62B4 JUMP JUMPDEST DUP3 MSTORE POP POP JUMP JUMPDEST PUSH1 0x0 PUSH4 0xFFFFFFFF DUP3 AND SWAP1 POP SWAP2 SWAP1 POP JUMP JUMPDEST PUSH2 0x62EA DUP2 PUSH2 0x62D1 JUMP JUMPDEST DUP3 MSTORE POP POP JUMP JUMPDEST PUSH1 0x0 DUP2 MLOAD SWAP1 POP SWAP2 SWAP1 POP JUMP JUMPDEST PUSH1 0x0 DUP3 DUP3 MSTORE PUSH1 0x20 DUP3 ADD SWAP1 POP SWAP3 SWAP2 POP POP JUMP JUMPDEST PUSH1 0x0 DUP2 SWAP1 POP PUSH1 0x20 DUP3 ADD SWAP1 POP SWAP2 SWAP1 POP JUMP JUMPDEST PUSH1 0x0 DUP2 SWAP1 POP SWAP2 SWAP1 POP JUMP JUMPDEST PUSH2 0x632F DUP2 PUSH2 0x631C JUMP JUMPDEST DUP3 MSTORE POP POP JUMP JUMPDEST PUSH1 0x0 PUSH2 0x6341 DUP4 DUP4 PUSH2 0x6326 JUMP JUMPDEST PUSH1 0x20 DUP4 ADD SWAP1 POP SWAP3 SWAP2 POP POP JUMP JUMPDEST PUSH1 0x0 PUSH1 0x20 DUP3 ADD SWAP1 POP SWAP2 SWAP1 POP JUMP JUMPDEST PUSH1 0x0 PUSH2 0x6365 DUP3 PUSH2 0x62F0 JUMP JUMPDEST PUSH2 0x636F DUP2 DUP6 PUSH2 0x62FB JUMP JUMPDEST SWAP4 POP PUSH2 0x637A DUP4 PUSH2 0x630C JUMP JUMPDEST DUP1 PUSH1 0x0 JUMPDEST DUP4 DUP2 LT ISZERO PUSH2 0x63AB JUMPI DUP2 MLOAD PUSH2 0x6392 DUP9 DUP3 PUSH2 0x6335 JUMP JUMPDEST SWAP8 POP PUSH2 0x639D DUP4 PUSH2 0x634D JUMP JUMPDEST SWAP3 POP POP PUSH1 0x1 DUP2 ADD SWAP1 POP PUSH2 0x637E JUMP JUMPDEST POP DUP6 SWAP4 POP POP POP POP SWAP3 SWAP2 POP POP JUMP JUMPDEST PUSH1 0x0 PUSH1 0x60 DUP3 ADD SWAP1 POP PUSH2 0x63CD PUSH1 0x0 DUP4 ADD DUP7 PUSH2 0x62C2 JUMP JUMPDEST PUSH2 0x63DA PUSH1 0x20 DUP4 ADD DUP6 PUSH2 0x62E1 JUMP JUMPDEST DUP2 DUP2 SUB PUSH1 0x40 DUP4 ADD MSTORE PUSH2 0x63EC DUP2 DUP5 PUSH2 0x635A JUMP JUMPDEST SWAP1 POP SWAP5 SWAP4 POP POP POP POP JUMP JUMPDEST PUSH1 0x0 PUSH1 0x40 MLOAD SWAP1 POP SWAP1 JUMP JUMPDEST PUSH1 0x0 DUP1 REVERT JUMPDEST PUSH1 0x0 DUP1 REVERT JUMPDEST PUSH1 0x0 PUSH8 0xFFFFFFFFFFFFFFFF DUP3 AND SWAP1 POP SWAP2 SWAP1 POP JUMP JUMPDEST PUSH2 0x6427 DUP2 PUSH2 0x640A JUMP JUMPDEST DUP2 EQ PUSH2 0x6432 JUMPI PUSH1 0x0 DUP1 REVERT JUMPDEST POP JUMP JUMPDEST PUSH1 0x0 DUP2 CALLDATALOAD SWAP1 POP PUSH2 0x6444 DUP2 PUSH2 0x641E JUMP JUMPDEST SWAP3 SWAP2 POP POP JUMP JUMPDEST PUSH1 0x0 PUSH1 0x20 DUP3 DUP5 SUB SLT ISZERO PUSH2 0x6460 JUMPI PUSH2 0x645F PUSH2 0x6400 JUMP JUMPDEST JUMPDEST PUSH1 0x0 PUSH2 0x646E DUP5 DUP3 DUP6 ADD PUSH2 0x6435 JUMP JUMPDEST SWAP2 POP POP SWAP3 SWAP2 POP POP JUMP JUMPDEST PUSH1 0x0 PUSH20 0xFFFFFFFFFFFFFFFFFFFFFFFFFFFFFFFFFFFFFFFF DUP3 AND SWAP1 POP SWAP2 SWAP1 POP JUMP JUMPDEST PUSH1 0x0 PUSH2 0x64A2 DUP3 PUSH2 0x6477 JUMP JUMPDEST SWAP1 POP SWAP2 SWAP1 POP JUMP JUMPDEST PUSH2 0x64B2 DUP2 PUSH2 0x6497 JUMP JUMPDEST DUP2 EQ PUSH2 0x64BD JUMPI PUSH1 0x0 DUP1 REVERT JUMPDEST POP JUMP JUMPDEST PUSH1 0x0 DUP2 CALLDATALOAD SWAP1 POP PUSH2 0x64CF DUP2 PUSH2 0x64A9 JUMP JUMPDEST SWAP3 SWAP2 POP POP JUMP JUMPDEST PUSH1 0x0 DUP1 PUSH1 0x40 DUP4 DUP6 SUB SLT ISZERO PUSH2 0x64EC JUMPI PUSH2 0x64EB PUSH2 0x6400 JUMP JUMPDEST JUMPDEST PUSH1 0x0 PUSH2 0x64FA DUP6 DUP3 DUP7 ADD PUSH2 0x6435 JUMP JUMPDEST SWAP3 POP POP PUSH1 0x20 PUSH2 0x650B DUP6 DUP3 DUP7 ADD PUSH2 0x64C0 JUMP JUMPDEST SWAP2 POP POP SWAP3 POP SWAP3 SWAP1 POP JUMP JUMPDEST PUSH2 0x651E DUP2 PUSH2 0x640A JUMP JUMPDEST DUP3 MSTORE POP POP JUMP JUMPDEST PUSH1 0x0 PUSH1 0x20 DUP3 ADD SWAP1 POP PUSH2 0x6539 PUSH1 0x0 DUP4 ADD DUP5 PUSH2 0x6515 JUMP JUMPDEST SWAP3 SWAP2 POP POP JUMP JUMPDEST PUSH1 0x0 DUP1 REVERT JUMPDEST PUSH1 0x0 DUP2 SWAP1 POP DUP3 PUSH1 0x20 PUSH1 0x2 MUL DUP3 ADD GT ISZERO PUSH2 0x6560 JUMPI PUSH2 0x655F PUSH2 0x653F JUMP JUMPDEST JUMPDEST SWAP3 SWAP2 POP POP JUMP JUMPDEST PUSH1 0x0 PUSH1 0x40 DUP3 DUP5 SUB SLT ISZERO PUSH2 0x657C JUMPI PUSH2 0x657B PUSH2 0x6400 JUMP JUMPDEST JUMPDEST PUSH1 0x0 PUSH2 0x658A DUP5 DUP3 DUP6 ADD PUSH2 0x6544 JUMP JUMPDEST SWAP2 POP POP SWAP3 SWAP2 POP POP JUMP JUMPDEST PUSH1 0x0 DUP2 SWAP1 POP SWAP2 SWAP1 POP JUMP JUMPDEST PUSH2 0x65A6 DUP2 PUSH2 0x6593 JUMP JUMPDEST DUP3 MSTORE POP POP JUMP JUMPDEST PUSH1 0x0 PUSH1 0x20 DUP3 ADD SWAP1 POP PUSH2 0x65C1 PUSH1 0x0 DUP4 ADD DUP5 PUSH2 0x659D JUMP JUMPDEST SWAP3 SWAP2 POP POP JUMP JUMPDEST PUSH1 0x0 PUSH1 0x20 DUP3 ADD SWAP1 POP PUSH2 0x65DC PUSH1 0x0 DUP4 ADD DUP5 PUSH2 0x62C2 JUMP JUMPDEST SWAP3 SWAP2 POP POP JUMP JUMPDEST PUSH1 0x0 DUP2 MLOAD SWAP1 POP SWAP2 SWAP1 POP JUMP JUMPDEST PUSH1 0x0 DUP3 DUP3 MSTORE PUSH1 0x20 DUP3 ADD SWAP1 POP SWAP3 SWAP2 POP POP JUMP JUMPDEST PUSH1 0x0 JUMPDEST DUP4 DUP2 LT ISZERO PUSH2 0x661C JUMPI DUP1 DUP3 ADD MLOAD DUP2 DUP5 ADD MSTORE PUSH1 0x20 DUP2 ADD SWAP1 POP PUSH2 0x6601 JUMP JUMPDEST PUSH1 0x0 DUP5 DUP5 ADD MSTORE POP POP POP POP JUMP JUMPDEST PUSH1 0x0 PUSH1 0x1F NOT PUSH1 0x1F DUP4 ADD AND SWAP1 POP SWAP2 SWAP1 POP JUMP JUMPDEST PUSH1 0x0 PUSH2 0x6644 DUP3 PUSH2 0x65E2 JUMP JUMPDEST PUSH2 0x664E DUP2 DUP6 PUSH2 0x65ED JUMP JUMPDEST SWAP4 POP PUSH2 0x665E DUP2 DUP6 PUSH1 0x20 DUP7 ADD PUSH2 0x65FE JUMP JUMPDEST PUSH2 0x6667 DUP2 PUSH2 0x6628 JUMP JUMPDEST DUP5 ADD SWAP2 POP POP SWAP3 SWAP2 POP POP JUMP JUMPDEST PUSH1 0x0 PUSH1 0x20 DUP3 ADD SWAP1 POP DUP2 DUP2 SUB PUSH1 0x0 DUP4 ADD MSTORE PUSH2 0x668C DUP2 DUP5 PUSH2 0x6639 JUMP JUMPDEST SWAP1 POP SWAP3 SWAP2 POP POP JUMP JUMPDEST PUSH1 0x0 DUP2 SWAP1 POP SWAP2 SWAP1 POP JUMP JUMPDEST PUSH1 0x0 PUSH2 0x66B9 PUSH2 0x66B4 PUSH2 0x66AF DUP5 PUSH2 0x6477 JUMP JUMPDEST PUSH2 0x6694 JUMP JUMPDEST PUSH2 0x6477 JUMP JUMPDEST SWAP1 POP SWAP2 SWAP1 POP JUMP JUMPDEST PUSH1 0x0 PUSH2 0x66CB DUP3 PUSH2 0x669E JUMP JUMPDEST SWAP1 POP SWAP2 SWAP1 POP JUMP JUMPDEST PUSH1 0x0 PUSH2 0x66DD DUP3 PUSH2 0x66C0 JUMP JUMPDEST SWAP1 POP SWAP2 SWAP1 POP JUMP JUMPDEST PUSH2 0x66ED DUP2 PUSH2 0x66D2 JUMP JUMPDEST DUP3 MSTORE POP POP JUMP JUMPDEST PUSH1 0x0 PUSH1 0x20 DUP3 ADD SWAP1 POP PUSH2 0x6708 PUSH1 0x0 DUP4 ADD DUP5 PUSH2 0x66E4 JUMP JUMPDEST SWAP3 SWAP2 POP POP JUMP JUMPDEST PUSH1 0x0 DUP2 SWAP1 POP SWAP2 SWAP1 POP JUMP JUMPDEST PUSH2 0x6721 DUP2 PUSH2 0x670E JUMP JUMPDEST DUP3 MSTORE POP POP JUMP JUMPDEST PUSH1 0x0 PUSH1 0x20 DUP3 ADD SWAP1 POP PUSH2 0x673C PUSH1 0x0 DUP4 ADD DUP5 PUSH2 0x6718 JUMP JUMPDEST SWAP3 SWAP2 POP POP JUMP JUMPDEST PUSH1 0x0 PUSH1 0x20 DUP3 ADD SWAP1 POP PUSH2 0x6757 PUSH1 0x0 DUP4 ADD DUP5 PUSH2 0x62E1 JUMP JUMPDEST SWAP3 SWAP2 POP POP JUMP JUMPDEST PUSH2 0x6766 DUP2 PUSH2 0x62B4 JUMP JUMPDEST DUP2 EQ PUSH2 0x6771 JUMPI PUSH1 0x0 DUP1 REVERT JUMPDEST POP JUMP JUMPDEST PUSH1 0x0 DUP2 CALLDATALOAD SWAP1 POP PUSH2 0x6783 DUP2 PUSH2 0x675D JUMP JUMPDEST SWAP3 SWAP2 POP POP JUMP JUMPDEST PUSH2 0x6792 DUP2 PUSH2 0x62D1 JUMP JUMPDEST DUP2 EQ PUSH2 0x679D JUMPI PUSH1 0x0 DUP1 REVERT JUMPDEST POP JUMP JUMPDEST PUSH1 0x0 DUP2 CALLDATALOAD SWAP1 POP PUSH2 0x67AF DUP2 PUSH2 0x6789 JUMP JUMPDEST SWAP3 SWAP2 POP POP JUMP JUMPDEST PUSH2 0x67BE DUP2 PUSH2 0x670E JUMP JUMPDEST DUP2 EQ PUSH2 0x67C9 JUMPI PUSH1 0x0 DUP1 REVERT JUMPDEST POP JUMP JUMPDEST PUSH1 0x0 DUP2 CALLDATALOAD SWAP1 POP PUSH2 0x67DB DUP2 PUSH2 0x67B5 JUMP JUMPDEST SWAP3 SWAP2 POP POP JUMP JUMPDEST PUSH1 0x0 DUP1 REVERT JUMPDEST PUSH32 0x4E487B7100000000000000000000000000000000000000000000000000000000 PUSH1 0x0 MSTORE PUSH1 0x41 PUSH1 0x4 MSTORE PUSH1 0x24 PUSH1 0x0 REVERT JUMPDEST PUSH2 0x681E DUP3 PUSH2 0x6628 JUMP JUMPDEST DUP2 ADD DUP2 DUP2 LT PUSH8 0xFFFFFFFFFFFFFFFF DUP3 GT OR ISZERO PUSH2 0x683D JUMPI PUSH2 0x683C PUSH2 0x67E6 JUMP JUMPDEST JUMPDEST DUP1 PUSH1 0x40 MSTORE POP POP POP JUMP JUMPDEST PUSH1 0x0 PUSH2 0x6850 PUSH2 0x63F6 JUMP JUMPDEST SWAP1 POP PUSH2 0x685C DUP3 DUP3 PUSH2 0x6815 JUMP JUMPDEST SWAP2 SWAP1 POP JUMP JUMPDEST PUSH1 0x0 PUSH3 0xFFFFFF DUP3 AND SWAP1 POP SWAP2 SWAP1 POP JUMP JUMPDEST PUSH2 0x6879 DUP2 PUSH2 0x6861 JUMP JUMPDEST DUP2 EQ PUSH2 0x6884 JUMPI PUSH1 0x0 DUP1 REVERT JUMPDEST POP JUMP JUMPDEST PUSH1 0x0 DUP2 CALLDATALOAD SWAP1 POP PUSH2 0x6896 DUP2 PUSH2 0x6870 JUMP JUMPDEST SWAP3 SWAP2 POP POP JUMP JUMPDEST PUSH1 0x0 PUSH2 0x120 DUP3 DUP5 SUB SLT ISZERO PUSH2 0x68B3 JUMPI PUSH2 0x68B2 PUSH2 0x67E1 JUMP JUMPDEST JUMPDEST PUSH2 0x68BE PUSH2 0x120 PUSH2 0x6846 JUMP JUMPDEST SWAP1 POP PUSH1 0x0 PUSH2 0x68CE DUP5 DUP3 DUP6 ADD PUSH2 0x67A0 JUMP JUMPDEST PUSH1 0x0 DUP4 ADD MSTORE POP PUSH1 0x20 PUSH2 0x68E2 DUP5 DUP3 DUP6 ADD PUSH2 0x67A0 JUMP JUMPDEST PUSH1 0x20 DUP4 ADD MSTORE POP PUSH1 0x40 PUSH2 0x68F6 DUP5 DUP3 DUP6 ADD PUSH2 0x67A0 JUMP JUMPDEST PUSH1 0x40 DUP4 ADD MSTORE POP PUSH1 0x60 PUSH2 0x690A DUP5 DUP3 DUP6 ADD PUSH2 0x67A0 JUMP JUMPDEST PUSH1 0x60 DUP4 ADD MSTORE POP PUSH1 0x80 PUSH2 0x691E DUP5 DUP3 DUP6 ADD PUSH2 0x67A0 JUMP JUMPDEST PUSH1 0x80 DUP4 ADD MSTORE POP PUSH1 0xA0 PUSH2 0x6932 DUP5 DUP3 DUP6 ADD PUSH2 0x6887 JUMP JUMPDEST PUSH1 0xA0 DUP4 ADD MSTORE POP PUSH1 0xC0 PUSH2 0x6946 DUP5 DUP3 DUP6 ADD PUSH2 0x6887 JUMP JUMPDEST PUSH1 0xC0 DUP4 ADD MSTORE POP PUSH1 0xE0 PUSH2 0x695A DUP5 DUP3 DUP6 ADD PUSH2 0x6887 JUMP JUMPDEST PUSH1 0xE0 DUP4 ADD MSTORE POP PUSH2 0x100 PUSH2 0x696F DUP5 DUP3 DUP6 ADD PUSH2 0x6887 JUMP JUMPDEST PUSH2 0x100 DUP4 ADD MSTORE POP SWAP3 SWAP2 POP POP JUMP JUMPDEST PUSH1 0x0 DUP1 PUSH1 0x0 DUP1 PUSH1 0x0 DUP1 PUSH2 0x1C0 DUP8 DUP10 SUB SLT ISZERO PUSH2 0x699A JUMPI PUSH2 0x6999 PUSH2 0x6400 JUMP JUMPDEST JUMPDEST PUSH1 0x0 PUSH2 0x69A8 DUP10 DUP3 DUP11 ADD PUSH2 0x6774 JUMP JUMPDEST SWAP7 POP POP PUSH1 0x20 PUSH2 0x69B9 DUP10 DUP3 DUP11 ADD PUSH2 0x67A0 JUMP JUMPDEST SWAP6 POP POP PUSH1 0x40 PUSH2 0x69CA DUP10 DUP3 DUP11 ADD PUSH2 0x67A0 JUMP JUMPDEST SWAP5 POP POP PUSH1 0x60 PUSH2 0x69DB DUP10 DUP3 DUP11 ADD PUSH2 0x67A0 JUMP JUMPDEST SWAP4 POP POP PUSH1 0x80 PUSH2 0x69EC DUP10 DUP3 DUP11 ADD PUSH2 0x67CC JUMP JUMPDEST SWAP3 POP POP PUSH1 0xA0 PUSH2 0x69FD DUP10 DUP3 DUP11 ADD PUSH2 0x689C JUMP JUMPDEST SWAP2 POP POP SWAP3 SWAP6 POP SWAP3 SWAP6 POP SWAP3 SWAP6 JUMP JUMPDEST PUSH2 0x6A13 DUP2 PUSH2 0x631C JUMP JUMPDEST DUP2 EQ PUSH2 0x6A1E JUMPI PUSH1 0x0 DUP1 REVERT JUMPDEST POP JUMP JUMPDEST PUSH1 0x0 DUP2 CALLDATALOAD SWAP1 POP PUSH2 0x6A30 DUP2 PUSH2 0x6A0A JUMP JUMPDEST SWAP3 SWAP2 POP POP JUMP JUMPDEST PUSH1 0x0 DUP1 PUSH1 0x0 DUP1 PUSH1 0x0 PUSH1 0xA0 DUP7 DUP9 SUB SLT ISZERO PUSH2 0x6A52 JUMPI PUSH2 0x6A51 PUSH2 0x6400 JUMP JUMPDEST JUMPDEST PUSH1 0x0 PUSH2 0x6A60 DUP9 DUP3 DUP10 ADD PUSH2 0x6A21 JUMP JUMPDEST SWAP6 POP POP PUSH1 0x20 PUSH2 0x6A71 DUP9 DUP3 DUP10 ADD PUSH2 0x6435 JUMP JUMPDEST SWAP5 POP POP PUSH1 0x40 PUSH2 0x6A82 DUP9 DUP3 DUP10 ADD PUSH2 0x6774 JUMP JUMPDEST SWAP4 POP POP PUSH1 0x60 PUSH2 0x6A93 DUP9 DUP3 DUP10 ADD PUSH2 0x67A0 JUMP JUMPDEST SWAP3 POP POP PUSH1 0x80 PUSH2 0x6AA4 DUP9 DUP3 DUP10 ADD PUSH2 0x67A0 JUMP JUMPDEST SWAP2 POP POP SWAP3 SWAP6 POP SWAP3 SWAP6 SWAP1 SWAP4 POP JUMP JUMPDEST PUSH2 0x6ABA DUP2 PUSH2 0x6861 JUMP JUMPDEST DUP3 MSTORE POP POP JUMP JUMPDEST PUSH1 0x0 PUSH2 0x120 DUP3 ADD SWAP1 POP PUSH2 0x6AD6 PUSH1 0x0 DUP4 ADD DUP13 PUSH2 0x62E1 JUMP JUMPDEST PUSH2 0x6AE3 PUSH1 0x20 DUP4 ADD DUP12 PUSH2 0x62E1 JUMP JUMPDEST PUSH2 0x6AF0 PUSH1 0x40 DUP4 ADD DUP11 PUSH2 0x62E1 JUMP JUMPDEST PUSH2 0x6AFD PUSH1 0x60 DUP4 ADD DUP10 PUSH2 0x62E1 JUMP JUMPDEST PUSH2 0x6B0A PUSH1 0x80 DUP4 ADD DUP9 PUSH2 0x62E1 JUMP JUMPDEST PUSH2 0x6B17 PUSH1 0xA0 DUP4 ADD DUP8 PUSH2 0x6AB1 JUMP JUMPDEST PUSH2 0x6B24 PUSH1 0xC0 DUP4 ADD DUP7 PUSH2 0x6AB1 JUMP JUMPDEST PUSH2 0x6B31 PUSH1 0xE0 DUP4 ADD DUP6 PUSH2 0x6AB1 JUMP JUMPDEST PUSH2 0x6B3F PUSH2 0x100 DUP4 ADD DUP5 PUSH2 0x6AB1 JUMP JUMPDEST SWAP11 SWAP10 POP POP POP POP POP POP POP POP POP POP JUMP JUMPDEST PUSH1 0x0 PUSH12 0xFFFFFFFFFFFFFFFFFFFFFFFF DUP3 AND SWAP1 POP SWAP2 SWAP1 POP JUMP JUMPDEST PUSH2 0x6B6E DUP2 PUSH2 0x6B4D JUMP JUMPDEST DUP2 EQ PUSH2 0x6B79 JUMPI PUSH1 0x0 DUP1 REVERT JUMPDEST POP JUMP JUMPDEST PUSH1 0x0 DUP2 CALLDATALOAD SWAP1 POP PUSH2 0x6B8B DUP2 PUSH2 0x6B65 JUMP JUMPDEST SWAP3 SWAP2 POP POP JUMP JUMPDEST PUSH1 0x0 DUP1 PUSH1 0x40 DUP4 DUP6 SUB SLT ISZERO PUSH2 0x6BA8 JUMPI PUSH2 0x6BA7 PUSH2 0x6400 JUMP JUMPDEST JUMPDEST PUSH1 0x0 PUSH2 0x6BB6 DUP6 DUP3 DUP7 ADD PUSH2 0x64C0 JUMP JUMPDEST SWAP3 POP POP PUSH1 0x20 PUSH2 0x6BC7 DUP6 DUP3 DUP7 ADD PUSH2 0x6B7C JUMP JUMPDEST SWAP2 POP POP SWAP3 POP SWAP3 SWAP1 POP JUMP JUMPDEST PUSH1 0x0 PUSH2 0x6BDC DUP3 PUSH2 0x66C0 JUMP JUMPDEST SWAP1 POP SWAP2 SWAP1 POP JUMP JUMPDEST PUSH2 0x6BEC DUP2 PUSH2 0x6BD1 JUMP JUMPDEST DUP3 MSTORE POP POP JUMP JUMPDEST PUSH1 0x0 PUSH1 0x20 DUP3 ADD SWAP1 POP PUSH2 0x6C07 PUSH1 0x0 DUP4 ADD DUP5 PUSH2 0x6BE3 JUMP JUMPDEST SWAP3 SWAP2 POP POP JUMP JUMPDEST PUSH2 0x6C16 DUP2 PUSH2 0x6593 JUMP JUMPDEST DUP2 EQ PUSH2 0x6C21 JUMPI PUSH1 0x0 DUP1 REVERT JUMPDEST POP JUMP JUMPDEST PUSH1 0x0 DUP2 CALLDATALOAD SWAP1 POP PUSH2 0x6C33 DUP2 PUSH2 0x6C0D JUMP JUMPDEST SWAP3 SWAP2 POP POP JUMP JUMPDEST PUSH1 0x0 PUSH1 0x20 DUP3 DUP5 SUB SLT ISZERO PUSH2 0x6C4F JUMPI PUSH2 0x6C4E PUSH2 0x6400 JUMP JUMPDEST JUMPDEST PUSH1 0x0 PUSH2 0x6C5D DUP5 DUP3 DUP6 ADD PUSH2 0x6C24 JUMP JUMPDEST SWAP2 POP POP SWAP3 SWAP2 POP POP JUMP JUMPDEST PUSH2 0x6C6F DUP2 PUSH2 0x631C JUMP JUMPDEST DUP3 MSTORE POP POP JUMP JUMPDEST PUSH1 0x0 PUSH1 0x20 DUP3 ADD SWAP1 POP PUSH2 0x6C8A PUSH1 0x0 DUP4 ADD DUP5 PUSH2 0x6C66 JUMP JUMPDEST SWAP3 SWAP2 POP POP JUMP JUMPDEST PUSH1 0x0 DUP1 PUSH1 0x60 DUP4 DUP6 SUB SLT ISZERO PUSH2 0x6CA7 JUMPI PUSH2 0x6CA6 PUSH2 0x6400 JUMP JUMPDEST JUMPDEST PUSH1 0x0 PUSH2 0x6CB5 DUP6 DUP3 DUP7 ADD PUSH2 0x64C0 JUMP JUMPDEST SWAP3 POP POP PUSH1 0x20 PUSH2 0x6CC6 DUP6 DUP3 DUP7 ADD PUSH2 0x6544 JUMP JUMPDEST SWAP2 POP POP SWAP3 POP SWAP3 SWAP1 POP JUMP JUMPDEST PUSH2 0x6CD9 DUP2 PUSH2 0x6497 JUMP JUMPDEST DUP3 MSTORE POP POP JUMP JUMPDEST PUSH1 0x0 PUSH1 0x20 DUP3 ADD SWAP1 POP PUSH2 0x6CF4 PUSH1 0x0 DUP4 ADD DUP5 PUSH2 0x6CD0 JUMP JUMPDEST SWAP3 SWAP2 POP POP JUMP JUMPDEST PUSH2 0x6D03 DUP2 PUSH2 0x6B4D JUMP JUMPDEST DUP3 MSTORE POP POP JUMP JUMPDEST PUSH1 0x0 DUP2 MLOAD SWAP1 POP SWAP2 SWAP1 POP JUMP JUMPDEST PUSH1 0x0 DUP3 DUP3 MSTORE PUSH1 0x20 DUP3 ADD SWAP1 POP SWAP3 SWAP2 POP POP JUMP JUMPDEST PUSH1 0x0 DUP2 SWAP1 POP PUSH1 0x20 DUP3 ADD SWAP1 POP SWAP2 SWAP1 POP JUMP JUMPDEST PUSH2 0x6D3E DUP2 PUSH2 0x6497 JUMP JUMPDEST DUP3 MSTORE POP POP JUMP JUMPDEST PUSH1 0x0 PUSH2 0x6D50 DUP4 DUP4 PUSH2 0x6D35 JUMP JUMPDEST PUSH1 0x20 DUP4 ADD SWAP1 POP SWAP3 SWAP2 POP POP JUMP JUMPDEST PUSH1 0x0 PUSH1 0x20 DUP3 ADD SWAP1 POP SWAP2 SWAP1 POP JUMP JUMPDEST PUSH1 0x0 PUSH2 0x6D74 DUP3 PUSH2 0x6D09 JUMP JUMPDEST PUSH2 0x6D7E DUP2 DUP6 PUSH2 0x6D14 JUMP JUMPDEST SWAP4 POP PUSH2 0x6D89 DUP4 PUSH2 0x6D25 JUMP JUMPDEST DUP1 PUSH1 0x0 JUMPDEST DUP4 DUP2 LT ISZERO PUSH2 0x6DBA JUMPI DUP2 MLOAD PUSH2 0x6DA1 DUP9 DUP3 PUSH2 0x6D44 JUMP JUMPDEST SWAP8 POP PUSH2 0x6DAC DUP4 PUSH2 0x6D5C JUMP JUMPDEST SWAP3 POP POP PUSH1 0x1 DUP2 ADD SWAP1 POP PUSH2 0x6D8D JUMP JUMPDEST POP DUP6 SWAP4 POP POP POP POP SWAP3 SWAP2 POP POP JUMP JUMPDEST PUSH1 0x0 PUSH1 0x80 DUP3 ADD SWAP1 POP PUSH2 0x6DDC PUSH1 0x0 DUP4 ADD DUP8 PUSH2 0x6CFA JUMP JUMPDEST PUSH2 0x6DE9 PUSH1 0x20 DUP4 ADD DUP7 PUSH2 0x6515 JUMP JUMPDEST PUSH2 0x6DF6 PUSH1 0x40 DUP4 ADD DUP6 PUSH2 0x6CD0 JUMP JUMPDEST DUP2 DUP2 SUB PUSH1 0x60 DUP4 ADD MSTORE PUSH2 0x6E08 DUP2 DUP5 PUSH2 0x6D69 JUMP JUMPDEST SWAP1 POP SWAP6 SWAP5 POP POP POP POP POP JUMP JUMPDEST PUSH1 0x0 DUP1 REVERT JUMPDEST PUSH1 0x0 DUP1 REVERT JUMPDEST PUSH1 0x0 DUP1 DUP4 PUSH1 0x1F DUP5 ADD SLT PUSH2 0x6E33 JUMPI PUSH2 0x6E32 PUSH2 0x6E13 JUMP JUMPDEST JUMPDEST DUP3 CALLDATALOAD SWAP1 POP PUSH8 0xFFFFFFFFFFFFFFFF DUP2 GT ISZERO PUSH2 0x6E50 JUMPI PUSH2 0x6E4F PUSH2 0x6E18 JUMP JUMPDEST JUMPDEST PUSH1 0x20 DUP4 ADD SWAP2 POP DUP4 PUSH1 0x1 DUP3 MUL DUP4 ADD GT ISZERO PUSH2 0x6E6C JUMPI PUSH2 0x6E6B PUSH2 0x653F JUMP JUMPDEST JUMPDEST SWAP3 POP SWAP3 SWAP1 POP JUMP JUMPDEST PUSH1 0x0 DUP1 PUSH1 0x0 DUP1 PUSH1 0x60 DUP6 DUP8 SUB SLT ISZERO PUSH2 0x6E8D JUMPI PUSH2 0x6E8C PUSH2 0x6400 JUMP JUMPDEST JUMPDEST PUSH1 0x0 PUSH2 0x6E9B DUP8 DUP3 DUP9 ADD PUSH2 0x64C0 JUMP JUMPDEST SWAP5 POP POP PUSH1 0x20 PUSH2 0x6EAC DUP8 DUP3 DUP9 ADD PUSH2 0x6C24 JUMP JUMPDEST SWAP4 POP POP PUSH1 0x40 DUP6 ADD CALLDATALOAD PUSH8 0xFFFFFFFFFFFFFFFF DUP2 GT ISZERO PUSH2 0x6ECD JUMPI PUSH2 0x6ECC PUSH2 0x6405 JUMP JUMPDEST JUMPDEST PUSH2 0x6ED9 DUP8 DUP3 DUP9 ADD PUSH2 0x6E1D JUMP JUMPDEST SWAP3 POP SWAP3 POP POP SWAP3 SWAP6 SWAP2 SWAP5 POP SWAP3 POP JUMP JUMPDEST PUSH1 0x0 PUSH2 0x6EF2 DUP3 PUSH2 0x66C0 JUMP JUMPDEST SWAP1 POP SWAP2 SWAP1 POP JUMP JUMPDEST PUSH2 0x6F02 DUP2 PUSH2 0x6EE7 JUMP JUMPDEST DUP3 MSTORE POP POP JUMP JUMPDEST PUSH1 0x0 PUSH1 0x20 DUP3 ADD SWAP1 POP PUSH2 0x6F1D PUSH1 0x0 DUP4 ADD DUP5 PUSH2 0x6EF9 JUMP JUMPDEST SWAP3 SWAP2 POP POP JUMP JUMPDEST PUSH1 0x0 PUSH8 0xFFFFFFFFFFFFFFFF DUP3 GT ISZERO PUSH2 0x6F3E JUMPI PUSH2 0x6F3D PUSH2 0x67E6 JUMP JUMPDEST JUMPDEST PUSH1 0x20 DUP3 MUL SWAP1 POP SWAP2 SWAP1 POP JUMP JUMPDEST PUSH1 0x0 PUSH2 0x6F5C PUSH2 0x6F57 DUP5 PUSH2 0x6F23 JUMP JUMPDEST PUSH2 0x6846 JUMP JUMPDEST SWAP1 POP DUP1 PUSH1 0x20 DUP5 MUL DUP4 ADD DUP6 DUP2 GT ISZERO PUSH2 0x6F76 JUMPI PUSH2 0x6F75 PUSH2 0x653F JUMP JUMPDEST JUMPDEST DUP4 JUMPDEST DUP2 DUP2 LT ISZERO PUSH2 0x6F9F JUMPI DUP1 PUSH2 0x6F8B DUP9 DUP3 PUSH2 0x6C24 JUMP JUMPDEST DUP5 MSTORE PUSH1 0x20 DUP5 ADD SWAP4 POP POP PUSH1 0x20 DUP2 ADD SWAP1 POP PUSH2 0x6F78 JUMP JUMPDEST POP POP POP SWAP4 SWAP3 POP POP POP JUMP JUMPDEST PUSH1 0x0 DUP3 PUSH1 0x1F DUP4 ADD SLT PUSH2 0x6FBE JUMPI PUSH2 0x6FBD PUSH2 0x6E13 JUMP JUMPDEST JUMPDEST PUSH1 0x2 PUSH2 0x6FCB DUP5 DUP3 DUP6 PUSH2 0x6F49 JUMP JUMPDEST SWAP2 POP POP SWAP3 SWAP2 POP POP JUMP JUMPDEST PUSH1 0x0 PUSH2 0x1A0 DUP3 DUP5 SUB SLT ISZERO PUSH2 0x6FEB JUMPI PUSH2 0x6FEA PUSH2 0x67E1 JUMP JUMPDEST JUMPDEST PUSH2 0x6FF6 PUSH2 0x120 PUSH2 0x6846 JUMP JUMPDEST SWAP1 POP PUSH1 0x0 PUSH2 0x7006 DUP5 DUP3 DUP6 ADD PUSH2 0x6FA9 JUMP JUMPDEST PUSH1 0x0 DUP4 ADD MSTORE POP PUSH1 0x40 PUSH2 0x701A DUP5 DUP3 DUP6 ADD PUSH2 0x6FA9 JUMP JUMPDEST PUSH1 0x20 DUP4 ADD MSTORE POP PUSH1 0x80 PUSH2 0x702E DUP5 DUP3 DUP6 ADD PUSH2 0x6C24 JUMP JUMPDEST PUSH1 0x40 DUP4 ADD MSTORE POP PUSH1 0xA0 PUSH2 0x7042 DUP5 DUP3 DUP6 ADD PUSH2 0x6C24 JUMP JUMPDEST PUSH1 0x60 DUP4 ADD MSTORE POP PUSH1 0xC0 PUSH2 0x7056 DUP5 DUP3 DUP6 ADD PUSH2 0x6C24 JUMP JUMPDEST PUSH1 0x80 DUP4 ADD MSTORE POP PUSH1 0xE0 PUSH2 0x706A DUP5 DUP3 DUP6 ADD PUSH2 0x64C0 JUMP JUMPDEST PUSH1 0xA0 DUP4 ADD MSTORE POP PUSH2 0x100 PUSH2 0x707F DUP5 DUP3 DUP6 ADD PUSH2 0x6FA9 JUMP JUMPDEST PUSH1 0xC0 DUP4 ADD MSTORE POP PUSH2 0x140 PUSH2 0x7094 DUP5 DUP3 DUP6 ADD PUSH2 0x6FA9 JUMP JUMPDEST PUSH1 0xE0 DUP4 ADD MSTORE POP PUSH2 0x180 PUSH2 0x70A9 DUP5 DUP3 DUP6 ADD PUSH2 0x6C24 JUMP JUMPDEST PUSH2 0x100 DUP4 ADD MSTORE POP SWAP3 SWAP2 POP POP JUMP JUMPDEST PUSH1 0x0 PUSH1 0xA0 DUP3 DUP5 SUB SLT ISZERO PUSH2 0x70CC JUMPI PUSH2 0x70CB PUSH2 0x67E1 JUMP JUMPDEST JUMPDEST PUSH2 0x70D6 PUSH1 0xA0 PUSH2 0x6846 JUMP JUMPDEST SWAP1 POP PUSH1 0x0 PUSH2 0x70E6 DUP5 DUP3 DUP6 ADD PUSH2 0x6435 JUMP JUMPDEST PUSH1 0x0 DUP4 ADD MSTORE POP PUSH1 0x20 PUSH2 0x70FA DUP5 DUP3 DUP6 ADD PUSH2 0x6435 JUMP JUMPDEST PUSH1 0x20 DUP4 ADD MSTORE POP PUSH1 0x40 PUSH2 0x710E DUP5 DUP3 DUP6 ADD PUSH2 0x67A0 JUMP JUMPDEST PUSH1 0x40 DUP4 ADD MSTORE POP PUSH1 0x60 PUSH2 0x7122 DUP5 DUP3 DUP6 ADD PUSH2 0x67A0 JUMP JUMPDEST PUSH1 0x60 DUP4 ADD MSTORE POP PUSH1 0x80 PUSH2 0x7136 DUP5 DUP3 DUP6 ADD PUSH2 0x64C0 JUMP JUMPDEST PUSH1 0x80 DUP4 ADD MSTORE POP SWAP3 SWAP2 POP POP JUMP JUMPDEST PUSH1 0x0 DUP1 PUSH2 0x240 DUP4 DUP6 SUB SLT ISZERO PUSH2 0x715A JUMPI PUSH2 0x7159 PUSH2 0x6400 JUMP JUMPDEST JUMPDEST PUSH1 0x0 PUSH2 0x7168 DUP6 DUP3 DUP7 ADD PUSH2 0x6FD4 JUMP JUMPDEST SWAP3 POP POP PUSH2 0x1A0 PUSH2 0x717A DUP6 DUP3 DUP7 ADD PUSH2 0x70B6 JUMP JUMPDEST SWAP2 POP POP SWAP3 POP SWAP3 SWAP1 POP JUMP JUMPDEST PUSH1 0x0 PUSH1 0x20 DUP3 ADD SWAP1 POP PUSH2 0x7199 PUSH1 0x0 DUP4 ADD DUP5 PUSH2 0x6CFA JUMP JUMPDEST SWAP3 SWAP2 POP POP JUMP JUMPDEST PUSH1 0x0 PUSH1 0x80 DUP3 ADD SWAP1 POP PUSH2 0x71B4 PUSH1 0x0 DUP4 ADD DUP8 PUSH2 0x62C2 JUMP JUMPDEST PUSH2 0x71C1 PUSH1 0x20 DUP4 ADD DUP7 PUSH2 0x62E1 JUMP JUMPDEST PUSH2 0x71CE PUSH1 0x40 DUP4 ADD DUP6 PUSH2 0x62E1 JUMP JUMPDEST PUSH2 0x71DB PUSH1 0x60 DUP4 ADD DUP5 PUSH2 0x62E1 JUMP JUMPDEST SWAP6 SWAP5 POP POP POP POP POP JUMP JUMPDEST PUSH1 0x0 PUSH1 0x40 DUP3 DUP5 SUB SLT ISZERO PUSH2 0x71FA JUMPI PUSH2 0x71F9 PUSH2 0x6400 JUMP JUMPDEST JUMPDEST PUSH1 0x0 PUSH2 0x7208 DUP5 DUP3 DUP6 ADD PUSH2 0x6FA9 JUMP JUMPDEST SWAP2 POP POP SWAP3 SWAP2 POP POP JUMP JUMPDEST PUSH1 0x0 PUSH1 0x20 DUP3 DUP5 SUB SLT ISZERO PUSH2 0x7227 JUMPI PUSH2 0x7226 PUSH2 0x6400 JUMP JUMPDEST JUMPDEST PUSH1 0x0 PUSH2 0x7235 DUP5 DUP3 DUP6 ADD PUSH2 0x64C0 JUMP JUMPDEST SWAP2 POP POP SWAP3 SWAP2 POP POP JUMP JUMPDEST PUSH1 0x0 DUP2 ISZERO ISZERO SWAP1 POP SWAP2 SWAP1 POP JUMP JUMPDEST PUSH2 0x7253 DUP2 PUSH2 0x723E JUMP JUMPDEST DUP3 MSTORE POP POP JUMP JUMPDEST PUSH1 0x0 PUSH1 0x20 DUP3 ADD SWAP1 POP PUSH2 0x726E PUSH1 0x0 DUP4 ADD DUP5 PUSH2 0x724A JUMP JUMPDEST SWAP3 SWAP2 POP POP JUMP JUMPDEST PUSH1 0x0 PUSH1 0x40 DUP3 ADD SWAP1 POP PUSH2 0x7289 PUSH1 0x0 DUP4 ADD DUP6 PUSH2 0x6CD0 JUMP JUMPDEST PUSH2 0x7296 PUSH1 0x20 DUP4 ADD DUP5 PUSH2 0x6CD0 JUMP JUMPDEST SWAP4 SWAP3 POP POP POP JUMP JUMPDEST PUSH32 0x4E487B7100000000000000000000000000000000000000000000000000000000 PUSH1 0x0 MSTORE PUSH1 0x32 PUSH1 0x4 MSTORE PUSH1 0x24 PUSH1 0x0 REVERT JUMPDEST PUSH32 0x4E487B7100000000000000000000000000000000000000000000000000000000 PUSH1 0x0 MSTORE PUSH1 0x11 PUSH1 0x4 MSTORE PUSH1 0x24 PUSH1 0x0 REVERT JUMPDEST PUSH1 0x0 PUSH2 0x7306 DUP3 PUSH2 0x6593 JUMP JUMPDEST SWAP2 POP PUSH2 0x7311 DUP4 PUSH2 0x6593 JUMP JUMPDEST SWAP3 POP DUP3 DUP3 SUB SWAP1 POP DUP2 DUP2 GT ISZERO PUSH2 0x7329 JUMPI PUSH2 0x7328 PUSH2 0x72CC JUMP JUMPDEST JUMPDEST SWAP3 SWAP2 POP POP JUMP JUMPDEST PUSH32 0x4E487B7100000000000000000000000000000000000000000000000000000000 PUSH1 0x0 MSTORE PUSH1 0x31 PUSH1 0x4 MSTORE PUSH1 0x24 PUSH1 0x0 REVERT JUMPDEST PUSH1 0x0 PUSH2 0x7369 DUP3 PUSH2 0x6593 JUMP JUMPDEST SWAP2 POP PUSH32 0xFFFFFFFFFFFFFFFFFFFFFFFFFFFFFFFFFFFFFFFFFFFFFFFFFFFFFFFFFFFFFFFF DUP3 SUB PUSH2 0x739B JUMPI PUSH2 0x739A PUSH2 0x72CC JUMP JUMPDEST JUMPDEST PUSH1 0x1 DUP3 ADD SWAP1 POP SWAP2 SWAP1 POP JUMP JUMPDEST PUSH1 0x0 PUSH1 0x60 DUP3 ADD SWAP1 POP PUSH2 0x73BB PUSH1 0x0 DUP4 ADD DUP7 PUSH2 0x62C2 JUMP JUMPDEST PUSH2 0x73C8 PUSH1 0x20 DUP4 ADD DUP6 PUSH2 0x62C2 JUMP JUMPDEST PUSH2 0x73D5 PUSH1 0x40 DUP4 ADD DUP5 PUSH2 0x62C2 JUMP JUMPDEST SWAP5 SWAP4 POP POP POP POP JUMP JUMPDEST PUSH1 0x0 DUP2 PUSH1 0x0 SHR SWAP1 POP SWAP2 SWAP1 POP JUMP JUMPDEST PUSH1 0x0 PUSH4 0xFFFFFFFF DUP3 AND SWAP1 POP SWAP2 SWAP1 POP JUMP JUMPDEST PUSH1 0x0 PUSH2 0x740D PUSH2 0x7408 DUP4 PUSH2 0x73DD JUMP JUMPDEST PUSH2 0x73EA JUMP JUMPDEST SWAP1 POP SWAP2 SWAP1 POP JUMP JUMPDEST PUSH2 0x741D DUP2 PUSH2 0x62D1 JUMP JUMPDEST DUP3 MSTORE POP POP JUMP JUMPDEST PUSH1 0x0 DUP2 PUSH1 0x20 SHR SWAP1 POP SWAP2 SWAP1 POP JUMP JUMPDEST PUSH1 0x0 PUSH2 0x7443 PUSH2 0x743E DUP4 PUSH2 0x7423 JUMP JUMPDEST PUSH2 0x73EA JUMP JUMPDEST SWAP1 POP SWAP2 SWAP1 POP JUMP JUMPDEST PUSH1 0x0 DUP2 PUSH1 0x40 SHR SWAP1 POP SWAP2 SWAP1 POP JUMP JUMPDEST PUSH1 0x0 PUSH2 0x746A PUSH2 0x7465 DUP4 PUSH2 0x744A JUMP JUMPDEST PUSH2 0x73EA JUMP JUMPDEST SWAP1 POP SWAP2 SWAP1 POP JUMP JUMPDEST PUSH1 0x0 DUP2 PUSH1 0x60 SHR SWAP1 POP SWAP2 SWAP1 POP JUMP JUMPDEST PUSH1 0x0 PUSH2 0x7491 PUSH2 0x748C DUP4 PUSH2 0x7471 JUMP JUMPDEST PUSH2 0x73EA JUMP JUMPDEST SWAP1 POP SWAP2 SWAP1 POP JUMP JUMPDEST PUSH1 0x0 DUP2 PUSH1 0x80 SHR SWAP1 POP SWAP2 SWAP1 POP JUMP JUMPDEST PUSH1 0x0 PUSH2 0x74B8 PUSH2 0x74B3 DUP4 PUSH2 0x7498 JUMP JUMPDEST PUSH2 0x73EA JUMP JUMPDEST SWAP1 POP SWAP2 SWAP1 POP JUMP JUMPDEST PUSH1 0x0 DUP2 PUSH1 0xA0 SHR SWAP1 POP SWAP2 SWAP1 POP JUMP JUMPDEST PUSH1 0x0 PUSH3 0xFFFFFF DUP3 AND SWAP1 POP SWAP2 SWAP1 POP JUMP JUMPDEST PUSH1 0x0 PUSH2 0x74EE PUSH2 0x74E9 DUP4 PUSH2 0x74BF JUMP JUMPDEST PUSH2 0x74CC JUMP JUMPDEST SWAP1 POP SWAP2 SWAP1 POP JUMP JUMPDEST PUSH2 0x74FE DUP2 PUSH2 0x6861 JUMP JUMPDEST DUP3 MSTORE POP POP JUMP JUMPDEST PUSH1 0x0 DUP2 PUSH1 0xB8 SHR SWAP1 POP SWAP2 SWAP1 POP JUMP JUMPDEST PUSH1 0x0 PUSH2 0x7524 PUSH2 0x751F DUP4 PUSH2 0x7504 JUMP JUMPDEST PUSH2 0x74CC JUMP JUMPDEST SWAP1 POP SWAP2 SWAP1 POP JUMP JUMPDEST PUSH1 0x0 DUP2 PUSH1 0xD0 SHR SWAP1 POP SWAP2 SWAP1 POP JUMP JUMPDEST PUSH1 0x0 PUSH2 0x754B PUSH2 0x7546 DUP4 PUSH2 0x752B JUMP JUMPDEST PUSH2 0x74CC JUMP JUMPDEST SWAP1 POP SWAP2 SWAP1 POP JUMP JUMPDEST PUSH1 0x0 DUP2 PUSH1 0xE8 SHR SWAP1 POP SWAP2 SWAP1 POP JUMP JUMPDEST PUSH1 0x0 PUSH2 0x7572 PUSH2 0x756D DUP4 PUSH2 0x7552 JUMP JUMPDEST PUSH2 0x74CC JUMP JUMPDEST SWAP1 POP SWAP2 SWAP1 POP JUMP JUMPDEST PUSH2 0x120 DUP3 ADD PUSH1 0x0 DUP1 DUP4 ADD SLOAD SWAP1 POP PUSH2 0x758F DUP2 PUSH2 0x73FA JUMP JUMPDEST PUSH2 0x759C PUSH1 0x0 DUP7 ADD DUP3 PUSH2 0x7414 JUMP JUMPDEST POP PUSH2 0x75A6 DUP2 PUSH2 0x7430 JUMP JUMPDEST PUSH2 0x75B3 PUSH1 0x20 DUP7 ADD DUP3 PUSH2 0x7414 JUMP JUMPDEST POP PUSH2 0x75BD DUP2 PUSH2 0x7457 JUMP JUMPDEST PUSH2 0x75CA PUSH1 0x40 DUP7 ADD DUP3 PUSH2 0x7414 JUMP JUMPDEST POP PUSH2 0x75D4 DUP2 PUSH2 0x747E JUMP JUMPDEST PUSH2 0x75E1 PUSH1 0x60 DUP7 ADD DUP3 PUSH2 0x7414 JUMP JUMPDEST POP PUSH2 0x75EB DUP2 PUSH2 0x74A5 JUMP JUMPDEST PUSH2 0x75F8 PUSH1 0x80 DUP7 ADD DUP3 PUSH2 0x7414 JUMP JUMPDEST POP PUSH2 0x7602 DUP2 PUSH2 0x74DB JUMP JUMPDEST PUSH2 0x760F PUSH1 0xA0 DUP7 ADD DUP3 PUSH2 0x74F5 JUMP JUMPDEST POP PUSH2 0x7619 DUP2 PUSH2 0x7511 JUMP JUMPDEST PUSH2 0x7626 PUSH1 0xC0 DUP7 ADD DUP3 PUSH2 0x74F5 JUMP JUMPDEST POP PUSH2 0x7630 DUP2 PUSH2 0x7538 JUMP JUMPDEST PUSH2 0x763D PUSH1 0xE0 DUP7 ADD DUP3 PUSH2 0x74F5 JUMP JUMPDEST POP PUSH2 0x7647 DUP2 PUSH2 0x755F JUMP JUMPDEST PUSH2 0x7655 PUSH2 0x100 DUP7 ADD DUP3 PUSH2 0x74F5 JUMP JUMPDEST POP POP POP POP POP JUMP JUMPDEST PUSH1 0x0 PUSH2 0x1C0 DUP3 ADD SWAP1 POP PUSH2 0x7672 PUSH1 0x0 DUP4 ADD DUP10 PUSH2 0x62C2 JUMP JUMPDEST PUSH2 0x767F PUSH1 0x20 DUP4 ADD DUP9 PUSH2 0x62E1 JUMP JUMPDEST PUSH2 0x768C PUSH1 0x40 DUP4 ADD DUP8 PUSH2 0x62E1 JUMP JUMPDEST PUSH2 0x7699 PUSH1 0x60 DUP4 ADD DUP7 PUSH2 0x62E1 JUMP JUMPDEST PUSH2 0x76A6 PUSH1 0x80 DUP4 ADD DUP6 PUSH2 0x6718 JUMP JUMPDEST PUSH2 0x76B3 PUSH1 0xA0 DUP4 ADD DUP5 PUSH2 0x7579 JUMP JUMPDEST SWAP8 SWAP7 POP POP POP POP POP POP POP JUMP JUMPDEST PUSH1 0x0 PUSH1 0x40 DUP3 ADD SWAP1 POP PUSH2 0x76D3 PUSH1 0x0 DUP4 ADD DUP6 PUSH2 0x6515 JUMP JUMPDEST PUSH2 0x76E0 PUSH1 0x20 DUP4 ADD DUP5 PUSH2 0x6CD0 JUMP JUMPDEST SWAP4 SWAP3 POP POP POP JUMP JUMPDEST PUSH1 0x0 PUSH1 0x40 DUP3 ADD SWAP1 POP PUSH2 0x76FC PUSH1 0x0 DUP4 ADD DUP6 PUSH2 0x62E1 JUMP JUMPDEST PUSH2 0x7709 PUSH1 0x20 DUP4 ADD DUP5 PUSH2 0x62E1 JUMP JUMPDEST SWAP4 SWAP3 POP POP POP JUMP JUMPDEST PUSH1 0x0 PUSH2 0x771B DUP3 PUSH2 0x640A JUMP JUMPDEST SWAP2 POP PUSH2 0x7726 DUP4 PUSH2 0x640A JUMP JUMPDEST SWAP3 POP DUP3 DUP3 ADD SWAP1 POP PUSH8 0xFFFFFFFFFFFFFFFF DUP2 GT ISZERO PUSH2 0x7746 JUMPI PUSH2 0x7745 PUSH2 0x72CC JUMP JUMPDEST JUMPDEST SWAP3 SWAP2 POP POP JUMP JUMPDEST PUSH1 0x0 PUSH1 0xC0 DUP3 ADD SWAP1 POP PUSH2 0x7761 PUSH1 0x0 DUP4 ADD DUP10 PUSH2 0x659D JUMP JUMPDEST PUSH2 0x776E PUSH1 0x20 DUP4 ADD DUP9 PUSH2 0x659D JUMP JUMPDEST PUSH2 0x777B PUSH1 0x40 DUP4 ADD DUP8 PUSH2 0x6515 JUMP JUMPDEST PUSH2 0x7788 PUSH1 0x60 DUP4 ADD DUP7 PUSH2 0x62E1 JUMP JUMPDEST PUSH2 0x7795 PUSH1 0x80 DUP4 ADD DUP6 PUSH2 0x62E1 JUMP JUMPDEST PUSH2 0x77A2 PUSH1 0xA0 DUP4 ADD DUP5 PUSH2 0x6CD0 JUMP JUMPDEST SWAP8 SWAP7 POP POP POP POP POP POP POP JUMP JUMPDEST PUSH1 0x0 PUSH1 0xA0 DUP3 ADD SWAP1 POP PUSH2 0x77C2 PUSH1 0x0 DUP4 ADD DUP9 PUSH2 0x659D JUMP JUMPDEST PUSH2 0x77CF PUSH1 0x20 DUP4 ADD DUP8 PUSH2 0x659D JUMP JUMPDEST PUSH2 0x77DC PUSH1 0x40 DUP4 ADD DUP7 PUSH2 0x62C2 JUMP JUMPDEST PUSH2 0x77E9 PUSH1 0x60 DUP4 ADD DUP6 PUSH2 0x62E1 JUMP JUMPDEST PUSH2 0x77F6 PUSH1 0x80 DUP4 ADD DUP5 PUSH2 0x62E1 JUMP JUMPDEST SWAP7 SWAP6 POP POP POP POP POP POP JUMP JUMPDEST PUSH1 0x0 PUSH2 0x780B DUP3 PUSH2 0x6B4D JUMP JUMPDEST SWAP2 POP PUSH2 0x7816 DUP4 PUSH2 0x6B4D JUMP JUMPDEST SWAP3 POP DUP3 DUP3 SUB SWAP1 POP PUSH12 0xFFFFFFFFFFFFFFFFFFFFFFFF DUP2 GT ISZERO PUSH2 0x783A JUMPI PUSH2 0x7839 PUSH2 0x72CC JUMP JUMPDEST JUMPDEST SWAP3 SWAP2 POP POP JUMP JUMPDEST PUSH1 0x0 PUSH2 0x785B PUSH2 0x7856 PUSH2 0x7851 DUP5 PUSH2 0x6B4D JUMP JUMPDEST PUSH2 0x6694 JUMP JUMPDEST PUSH2 0x6593 JUMP JUMPDEST SWAP1 POP SWAP2 SWAP1 POP JUMP JUMPDEST PUSH2 0x786B DUP2 PUSH2 0x7840 JUMP JUMPDEST DUP3 MSTORE POP POP JUMP JUMPDEST PUSH1 0x0 PUSH1 0x40 DUP3 ADD SWAP1 POP PUSH2 0x7886 PUSH1 0x0 DUP4 ADD DUP6 PUSH2 0x6CD0 JUMP JUMPDEST PUSH2 0x7893 PUSH1 0x20 DUP4 ADD DUP5 PUSH2 0x7862 JUMP JUMPDEST SWAP4 SWAP3 POP POP POP JUMP JUMPDEST PUSH2 0x78A3 DUP2 PUSH2 0x723E JUMP JUMPDEST DUP2 EQ PUSH2 0x78AE JUMPI PUSH1 0x0 DUP1 REVERT JUMPDEST POP JUMP JUMPDEST PUSH1 0x0 DUP2 MLOAD SWAP1 POP PUSH2 0x78C0 DUP2 PUSH2 0x789A JUMP JUMPDEST SWAP3 SWAP2 POP POP JUMP JUMPDEST PUSH1 0x0 PUSH1 0x20 DUP3 DUP5 SUB SLT ISZERO PUSH2 0x78DC JUMPI PUSH2 0x78DB PUSH2 0x6400 JUMP JUMPDEST JUMPDEST PUSH1 0x0 PUSH2 0x78EA DUP5 DUP3 DUP6 ADD PUSH2 0x78B1 JUMP JUMPDEST SWAP2 POP POP SWAP3 SWAP2 POP POP JUMP JUMPDEST PUSH32 0x4D7573742062652070726F706F736564206F776E657200000000000000000000 PUSH1 0x0 DUP3 ADD MSTORE POP JUMP JUMPDEST PUSH1 0x0 PUSH2 0x7929 PUSH1 0x16 DUP4 PUSH2 0x65ED JUMP JUMPDEST SWAP2 POP PUSH2 0x7934 DUP3 PUSH2 0x78F3 JUMP JUMPDEST PUSH1 0x20 DUP3 ADD SWAP1 POP SWAP2 SWAP1 POP JUMP JUMPDEST PUSH1 0x0 PUSH1 0x20 DUP3 ADD SWAP1 POP DUP2 DUP2 SUB PUSH1 0x0 DUP4 ADD MSTORE PUSH2 0x7958 DUP2 PUSH2 0x791C JUMP JUMPDEST SWAP1 POP SWAP2 SWAP1 POP JUMP JUMPDEST PUSH1 0x0 PUSH2 0x796A DUP3 PUSH2 0x640A JUMP JUMPDEST SWAP2 POP PUSH8 0xFFFFFFFFFFFFFFFF DUP3 SUB PUSH2 0x7984 JUMPI PUSH2 0x7983 PUSH2 0x72CC JUMP JUMPDEST JUMPDEST PUSH1 0x1 DUP3 ADD SWAP1 POP SWAP2 SWAP1 POP JUMP JUMPDEST PUSH1 0x0 PUSH2 0x799A DUP3 PUSH2 0x6B4D JUMP JUMPDEST SWAP2 POP PUSH2 0x79A5 DUP4 PUSH2 0x6B4D JUMP JUMPDEST SWAP3 POP DUP3 DUP3 ADD SWAP1 POP PUSH12 0xFFFFFFFFFFFFFFFFFFFFFFFF DUP2 GT ISZERO PUSH2 0x79C9 JUMPI PUSH2 0x79C8 PUSH2 0x72CC JUMP JUMPDEST JUMPDEST SWAP3 SWAP2 POP POP JUMP JUMPDEST PUSH1 0x0 PUSH2 0x79DA DUP3 PUSH2 0x6593 JUMP JUMPDEST SWAP2 POP PUSH2 0x79E5 DUP4 PUSH2 0x6593 JUMP JUMPDEST SWAP3 POP DUP3 DUP3 ADD SWAP1 POP DUP1 DUP3 GT ISZERO PUSH2 0x79FD JUMPI PUSH2 0x79FC PUSH2 0x72CC JUMP JUMPDEST JUMPDEST SWAP3 SWAP2 POP POP JUMP JUMPDEST PUSH1 0x0 PUSH1 0x40 DUP3 ADD SWAP1 POP PUSH2 0x7A18 PUSH1 0x0 DUP4 ADD DUP6 PUSH2 0x659D JUMP JUMPDEST PUSH2 0x7A25 PUSH1 0x20 DUP4 ADD DUP5 PUSH2 0x659D JUMP JUMPDEST SWAP4 SWAP3 POP POP POP JUMP JUMPDEST PUSH1 0x0 DUP2 MLOAD SWAP1 POP SWAP2 SWAP1 POP JUMP JUMPDEST PUSH1 0x0 DUP3 DUP3 MSTORE PUSH1 0x20 DUP3 ADD SWAP1 POP SWAP3 SWAP2 POP POP JUMP JUMPDEST PUSH1 0x0 DUP2 SWAP1 POP PUSH1 0x20 DUP3 ADD SWAP1 POP SWAP2 SWAP1 POP JUMP JUMPDEST PUSH2 0x7A61 DUP2 PUSH2 0x6593 JUMP JUMPDEST DUP3 MSTORE POP POP JUMP JUMPDEST PUSH1 0x0 PUSH2 0x7A73 DUP4 DUP4 PUSH2 0x7A58 JUMP JUMPDEST PUSH1 0x20 DUP4 ADD SWAP1 POP SWAP3 SWAP2 POP POP JUMP JUMPDEST PUSH1 0x0 PUSH1 0x20 DUP3 ADD SWAP1 POP SWAP2 SWAP1 POP JUMP JUMPDEST PUSH1 0x0 PUSH2 0x7A97 DUP3 PUSH2 0x7A2C JUMP JUMPDEST PUSH2 0x7AA1 DUP2 DUP6 PUSH2 0x7A37 JUMP JUMPDEST SWAP4 POP PUSH2 0x7AAC DUP4 PUSH2 0x7A48 JUMP JUMPDEST DUP1 PUSH1 0x0 JUMPDEST DUP4 DUP2 LT ISZERO PUSH2 0x7ADD JUMPI DUP2 MLOAD PUSH2 0x7AC4 DUP9 DUP3 PUSH2 0x7A67 JUMP JUMPDEST SWAP8 POP PUSH2 0x7ACF DUP4 PUSH2 0x7A7F JUMP JUMPDEST SWAP3 POP POP PUSH1 0x1 DUP2 ADD SWAP1 POP PUSH2 0x7AB0 JUMP JUMPDEST POP DUP6 SWAP4 POP POP POP POP SWAP3 SWAP2 POP POP JUMP JUMPDEST PUSH1 0x0 PUSH1 0x40 DUP3 ADD SWAP1 POP PUSH2 0x7AFF PUSH1 0x0 DUP4 ADD DUP6 PUSH2 0x659D JUMP JUMPDEST DUP2 DUP2 SUB PUSH1 0x20 DUP4 ADD MSTORE PUSH2 0x7B11 DUP2 DUP5 PUSH2 0x7A8C JUMP JUMPDEST SWAP1 POP SWAP4 SWAP3 POP POP POP JUMP JUMPDEST PUSH1 0x0 PUSH1 0x60 DUP3 ADD SWAP1 POP PUSH2 0x7B2F PUSH1 0x0 DUP4 ADD DUP7 PUSH2 0x659D JUMP JUMPDEST PUSH2 0x7B3C PUSH1 0x20 DUP4 ADD DUP6 PUSH2 0x6CFA JUMP JUMPDEST PUSH2 0x7B49 PUSH1 0x40 DUP4 ADD DUP5 PUSH2 0x724A JUMP JUMPDEST SWAP5 SWAP4 POP POP POP POP JUMP JUMPDEST PUSH1 0x0 PUSH1 0x2 SWAP1 POP SWAP2 SWAP1 POP JUMP JUMPDEST PUSH1 0x0 DUP2 SWAP1 POP SWAP3 SWAP2 POP POP JUMP JUMPDEST PUSH1 0x0 DUP2 SWAP1 POP SWAP2 SWAP1 POP JUMP JUMPDEST PUSH1 0x0 PUSH1 0x20 DUP3 ADD SWAP1 POP SWAP2 SWAP1 POP JUMP JUMPDEST PUSH2 0x7B87 DUP2 PUSH2 0x7B51 JUMP JUMPDEST PUSH2 0x7B91 DUP2 DUP5 PUSH2 0x7B5C JUMP JUMPDEST SWAP3 POP PUSH2 0x7B9C DUP3 PUSH2 0x7B67 JUMP JUMPDEST DUP1 PUSH1 0x0 JUMPDEST DUP4 DUP2 LT ISZERO PUSH2 0x7BCD JUMPI DUP2 MLOAD PUSH2 0x7BB4 DUP8 DUP3 PUSH2 0x7A67 JUMP JUMPDEST SWAP7 POP PUSH2 0x7BBF DUP4 PUSH2 0x7B71 JUMP JUMPDEST SWAP3 POP POP PUSH1 0x1 DUP2 ADD SWAP1 POP PUSH2 0x7BA0 JUMP JUMPDEST POP POP POP POP POP POP JUMP JUMPDEST PUSH1 0x0 PUSH1 0x40 DUP3 ADD SWAP1 POP PUSH2 0x7BEA PUSH1 0x0 DUP4 ADD DUP5 PUSH2 0x7B7E JUMP JUMPDEST SWAP3 SWAP2 POP POP JUMP JUMPDEST PUSH1 0x0 DUP2 MLOAD SWAP1 POP PUSH2 0x7BFF DUP2 PUSH2 0x6C0D JUMP JUMPDEST SWAP3 SWAP2 POP POP JUMP JUMPDEST PUSH1 0x0 PUSH1 0x20 DUP3 DUP5 SUB SLT ISZERO PUSH2 0x7C1B JUMPI PUSH2 0x7C1A PUSH2 0x6400 JUMP JUMPDEST JUMPDEST PUSH1 0x0 PUSH2 0x7C29 DUP5 DUP3 DUP6 ADD PUSH2 0x7BF0 JUMP JUMPDEST SWAP2 POP POP SWAP3 SWAP2 POP POP JUMP JUMPDEST PUSH1 0x0 PUSH1 0x40 DUP3 ADD SWAP1 POP PUSH2 0x7C47 PUSH1 0x0 DUP4 ADD DUP6 PUSH2 0x6CD0 JUMP JUMPDEST PUSH2 0x7C54 PUSH1 0x20 DUP4 ADD DUP5 PUSH2 0x659D JUMP JUMPDEST SWAP4 SWAP3 POP POP POP JUMP JUMPDEST PUSH32 0x4F6E6C792063616C6C61626C65206279206F776E657200000000000000000000 PUSH1 0x0 DUP3 ADD MSTORE POP JUMP JUMPDEST PUSH1 0x0 PUSH2 0x7C91 PUSH1 0x16 DUP4 PUSH2 0x65ED JUMP JUMPDEST SWAP2 POP PUSH2 0x7C9C DUP3 PUSH2 0x7C5B JUMP JUMPDEST PUSH1 0x20 DUP3 ADD SWAP1 POP SWAP2 SWAP1 POP JUMP JUMPDEST PUSH1 0x0 PUSH1 0x20 DUP3 ADD SWAP1 POP DUP2 DUP2 SUB PUSH1 0x0 DUP4 ADD MSTORE PUSH2 0x7CC0 DUP2 PUSH2 0x7C84 JUMP JUMPDEST SWAP1 POP SWAP2 SWAP1 POP JUMP JUMPDEST PUSH1 0x0 PUSH1 0x80 DUP3 ADD SWAP1 POP PUSH2 0x7CDC PUSH1 0x0 DUP4 ADD DUP8 PUSH2 0x6C66 JUMP JUMPDEST PUSH2 0x7CE9 PUSH1 0x20 DUP4 ADD DUP7 PUSH2 0x6CD0 JUMP JUMPDEST PUSH2 0x7CF6 PUSH1 0x40 DUP4 ADD DUP6 PUSH2 0x6515 JUMP JUMPDEST PUSH2 0x7D03 PUSH1 0x60 DUP4 ADD DUP5 PUSH2 0x6515 JUMP JUMPDEST SWAP6 SWAP5 POP POP POP POP POP JUMP JUMPDEST PUSH1 0x0 PUSH1 0x40 DUP3 ADD SWAP1 POP PUSH2 0x7D21 PUSH1 0x0 DUP4 ADD DUP6 PUSH2 0x6C66 JUMP JUMPDEST PUSH2 0x7D2E PUSH1 0x20 DUP4 ADD DUP5 PUSH2 0x659D JUMP JUMPDEST SWAP4 SWAP3 POP POP POP JUMP JUMPDEST PUSH1 0x0 PUSH1 0xC0 DUP3 ADD SWAP1 POP PUSH2 0x7D4A PUSH1 0x0 DUP4 ADD DUP10 PUSH2 0x659D JUMP JUMPDEST PUSH2 0x7D57 PUSH1 0x20 DUP4 ADD DUP9 PUSH2 0x6515 JUMP JUMPDEST PUSH2 0x7D64 PUSH1 0x40 DUP4 ADD DUP8 PUSH2 0x6515 JUMP JUMPDEST PUSH2 0x7D71 PUSH1 0x60 DUP4 ADD DUP7 PUSH2 0x62E1 JUMP JUMPDEST PUSH2 0x7D7E PUSH1 0x80 DUP4 ADD DUP6 PUSH2 0x62E1 JUMP JUMPDEST PUSH2 0x7D8B PUSH1 0xA0 DUP4 ADD DUP5 PUSH2 0x6CD0 JUMP JUMPDEST SWAP8 SWAP7 POP POP POP POP POP POP POP JUMP JUMPDEST PUSH1 0x0 PUSH2 0x7DB1 PUSH2 0x7DAC PUSH2 0x7DA7 DUP5 PUSH2 0x640A JUMP JUMPDEST PUSH2 0x6694 JUMP JUMPDEST PUSH2 0x6593 JUMP JUMPDEST SWAP1 POP SWAP2 SWAP1 POP JUMP JUMPDEST PUSH2 0x7DC1 DUP2 PUSH2 0x7D96 JUMP JUMPDEST DUP3 MSTORE POP POP JUMP JUMPDEST PUSH1 0x0 PUSH1 0x20 DUP3 ADD SWAP1 POP PUSH2 0x7DDC PUSH1 0x0 DUP4 ADD DUP5 PUSH2 0x7DB8 JUMP JUMPDEST SWAP3 SWAP2 POP POP JUMP JUMPDEST PUSH1 0x0 DUP2 MLOAD SWAP1 POP PUSH2 0x7DF1 DUP2 PUSH2 0x6A0A JUMP JUMPDEST SWAP3 SWAP2 POP POP JUMP JUMPDEST PUSH1 0x0 PUSH1 0x20 DUP3 DUP5 SUB SLT ISZERO PUSH2 0x7E0D JUMPI PUSH2 0x7E0C PUSH2 0x6400 JUMP JUMPDEST JUMPDEST PUSH1 0x0 PUSH2 0x7E1B DUP5 DUP3 DUP6 ADD PUSH2 0x7DE2 JUMP JUMPDEST SWAP2 POP POP SWAP3 SWAP2 POP POP JUMP JUMPDEST PUSH1 0x0 DUP2 SWAP1 POP SWAP2 SWAP1 POP JUMP JUMPDEST PUSH2 0x7E3F PUSH2 0x7E3A DUP3 PUSH2 0x6593 JUMP JUMPDEST PUSH2 0x7E24 JUMP JUMPDEST DUP3 MSTORE POP POP JUMP JUMPDEST PUSH1 0x0 DUP2 SWAP1 POP SWAP2 SWAP1 POP JUMP JUMPDEST PUSH2 0x7E60 PUSH2 0x7E5B DUP3 PUSH2 0x631C JUMP JUMPDEST PUSH2 0x7E45 JUMP JUMPDEST DUP3 MSTORE POP POP JUMP JUMPDEST PUSH1 0x0 PUSH2 0x7E72 DUP3 DUP6 PUSH2 0x7E2E JUMP JUMPDEST PUSH1 0x20 DUP3 ADD SWAP2 POP PUSH2 0x7E82 DUP3 DUP5 PUSH2 0x7E4F JUMP JUMPDEST PUSH1 0x20 DUP3 ADD SWAP2 POP DUP2 SWAP1 POP SWAP4 SWAP3 POP POP POP JUMP JUMPDEST PUSH1 0x0 PUSH2 0x7E9D DUP3 PUSH2 0x6593 JUMP JUMPDEST SWAP2 POP PUSH2 0x7EA8 DUP4 PUSH2 0x6593 JUMP JUMPDEST SWAP3 POP DUP3 DUP3 MUL PUSH2 0x7EB6 DUP2 PUSH2 0x6593 JUMP JUMPDEST SWAP2 POP DUP3 DUP3 DIV DUP5 EQ DUP4 ISZERO OR PUSH2 0x7ECD JUMPI PUSH2 0x7ECC PUSH2 0x72CC JUMP JUMPDEST JUMPDEST POP SWAP3 SWAP2 POP POP JUMP JUMPDEST PUSH32 0x4E487B7100000000000000000000000000000000000000000000000000000000 PUSH1 0x0 MSTORE PUSH1 0x12 PUSH1 0x4 MSTORE PUSH1 0x24 PUSH1 0x0 REVERT JUMPDEST PUSH1 0x0 PUSH2 0x7F0E DUP3 PUSH2 0x6593 JUMP JUMPDEST SWAP2 POP PUSH2 0x7F19 DUP4 PUSH2 0x6593 JUMP JUMPDEST SWAP3 POP DUP3 PUSH2 0x7F29 JUMPI PUSH2 0x7F28 PUSH2 0x7ED4 JUMP JUMPDEST JUMPDEST DUP3 DUP3 DIV SWAP1 POP SWAP3 SWAP2 POP POP JUMP JUMPDEST PUSH32 0x43616E6E6F74207472616E7366657220746F2073656C66000000000000000000 PUSH1 0x0 DUP3 ADD MSTORE POP JUMP JUMPDEST PUSH1 0x0 PUSH2 0x7F6A PUSH1 0x17 DUP4 PUSH2 0x65ED JUMP JUMPDEST SWAP2 POP PUSH2 0x7F75 DUP3 PUSH2 0x7F34 JUMP JUMPDEST PUSH1 0x20 DUP3 ADD SWAP1 POP SWAP2 SWAP1 POP JUMP JUMPDEST PUSH1 0x0 PUSH1 0x20 DUP3 ADD SWAP1 POP DUP2 DUP2 SUB PUSH1 0x0 DUP4 ADD MSTORE PUSH2 0x7F99 DUP2 PUSH2 0x7F5D JUMP JUMPDEST SWAP1 POP SWAP2 SWAP1 POP JUMP JUMPDEST PUSH1 0x0 PUSH1 0x60 DUP3 ADD SWAP1 POP PUSH2 0x7FB5 PUSH1 0x0 DUP4 ADD DUP6 PUSH2 0x659D JUMP JUMPDEST PUSH2 0x7FC2 PUSH1 0x20 DUP4 ADD DUP5 PUSH2 0x7B7E JUMP JUMPDEST SWAP4 SWAP3 POP POP POP JUMP JUMPDEST PUSH1 0x0 PUSH10 0xFFFFFFFFFFFFFFFFFFFF DUP3 AND SWAP1 POP SWAP2 SWAP1 POP JUMP JUMPDEST PUSH2 0x7FE8 DUP2 PUSH2 0x7FC9 JUMP JUMPDEST DUP2 EQ PUSH2 0x7FF3 JUMPI PUSH1 0x0 DUP1 REVERT JUMPDEST POP JUMP JUMPDEST PUSH1 0x0 DUP2 MLOAD SWAP1 POP PUSH2 0x8005 DUP2 PUSH2 0x7FDF JUMP JUMPDEST SWAP3 SWAP2 POP POP JUMP JUMPDEST PUSH1 0x0 DUP2 MLOAD SWAP1 POP PUSH2 0x801A DUP2 PUSH2 0x67B5 JUMP JUMPDEST SWAP3 SWAP2 POP POP JUMP JUMPDEST PUSH1 0x0 DUP1 PUSH1 0x0 DUP1 PUSH1 0x0 PUSH1 0xA0 DUP7 DUP9 SUB SLT ISZERO PUSH2 0x803C JUMPI PUSH2 0x803B PUSH2 0x6400 JUMP JUMPDEST JUMPDEST PUSH1 0x0 PUSH2 0x804A DUP9 DUP3 DUP10 ADD PUSH2 0x7FF6 JUMP JUMPDEST SWAP6 POP POP PUSH1 0x20 PUSH2 0x805B DUP9 DUP3 DUP10 ADD PUSH2 0x800B JUMP JUMPDEST SWAP5 POP POP PUSH1 0x40 PUSH2 0x806C DUP9 DUP3 DUP10 ADD PUSH2 0x7BF0 JUMP JUMPDEST SWAP4 POP POP PUSH1 0x60 PUSH2 0x807D DUP9 DUP3 DUP10 ADD PUSH2 0x7BF0 JUMP JUMPDEST SWAP3 POP POP PUSH1 0x80 PUSH2 0x808E DUP9 DUP3 DUP10 ADD PUSH2 0x7FF6 JUMP JUMPDEST SWAP2 POP POP SWAP3 SWAP6 POP SWAP3 SWAP6 SWAP1 SWAP4 POP JUMP JUMPDEST PUSH32 0x7075626C6963206B6579206973206E6F74206F6E206375727665000000000000 PUSH1 0x0 DUP3 ADD MSTORE POP JUMP JUMPDEST PUSH1 0x0 PUSH2 0x80D1 PUSH1 0x1A DUP4 PUSH2 0x65ED JUMP JUMPDEST SWAP2 POP PUSH2 0x80DC DUP3 PUSH2 0x809B JUMP JUMPDEST PUSH1 0x20 DUP3 ADD SWAP1 POP SWAP2 SWAP1 POP JUMP JUMPDEST PUSH1 0x0 PUSH1 0x20 DUP3 ADD SWAP1 POP DUP2 DUP2 SUB PUSH1 0x0 DUP4 ADD MSTORE PUSH2 0x8100 DUP2 PUSH2 0x80C4 JUMP JUMPDEST SWAP1 POP SWAP2 SWAP1 POP JUMP JUMPDEST PUSH32 0x67616D6D61206973206E6F74206F6E2063757276650000000000000000000000 PUSH1 0x0 DUP3 ADD MSTORE POP JUMP JUMPDEST PUSH1 0x0 PUSH2 0x813D PUSH1 0x15 DUP4 PUSH2 0x65ED JUMP JUMPDEST SWAP2 POP PUSH2 0x8148 DUP3 PUSH2 0x8107 JUMP JUMPDEST PUSH1 0x20 DUP3 ADD SWAP1 POP SWAP2 SWAP1 POP JUMP JUMPDEST PUSH1 0x0 PUSH1 0x20 DUP3 ADD SWAP1 POP DUP2 DUP2 SUB PUSH1 0x0 DUP4 ADD MSTORE PUSH2 0x816C DUP2 PUSH2 0x8130 JUMP JUMPDEST SWAP1 POP SWAP2 SWAP1 POP JUMP JUMPDEST PUSH32 0x6347616D6D615769746E657373206973206E6F74206F6E206375727665000000 PUSH1 0x0 DUP3 ADD MSTORE POP JUMP JUMPDEST PUSH1 0x0 PUSH2 0x81A9 PUSH1 0x1D DUP4 PUSH2 0x65ED JUMP JUMPDEST SWAP2 POP PUSH2 0x81B4 DUP3 PUSH2 0x8173 JUMP JUMPDEST PUSH1 0x20 DUP3 ADD SWAP1 POP SWAP2 SWAP1 POP JUMP JUMPDEST PUSH1 0x0 PUSH1 0x20 DUP3 ADD SWAP1 POP DUP2 DUP2 SUB PUSH1 0x0 DUP4 ADD MSTORE PUSH2 0x81D8 DUP2 PUSH2 0x819C JUMP JUMPDEST SWAP1 POP SWAP2 SWAP1 POP JUMP JUMPDEST PUSH32 0x73486173685769746E657373206973206E6F74206F6E20637572766500000000 PUSH1 0x0 DUP3 ADD MSTORE POP JUMP JUMPDEST PUSH1 0x0 PUSH2 0x8215 PUSH1 0x1C DUP4 PUSH2 0x65ED JUMP JUMPDEST SWAP2 POP PUSH2 0x8220 DUP3 PUSH2 0x81DF JUMP JUMPDEST PUSH1 0x20 DUP3 ADD SWAP1 POP SWAP2 SWAP1 POP JUMP JUMPDEST PUSH1 0x0 PUSH1 0x20 DUP3 ADD SWAP1 POP DUP2 DUP2 SUB PUSH1 0x0 DUP4 ADD MSTORE PUSH2 0x8244 DUP2 PUSH2 0x8208 JUMP JUMPDEST SWAP1 POP SWAP2 SWAP1 POP JUMP JUMPDEST PUSH32 0x6164647228632A706B2B732A6729213D5F755769746E65737300000000000000 PUSH1 0x0 DUP3 ADD MSTORE POP JUMP JUMPDEST PUSH1 0x0 PUSH2 0x8281 PUSH1 0x19 DUP4 PUSH2 0x65ED JUMP JUMPDEST SWAP2 POP PUSH2 0x828C DUP3 PUSH2 0x824B JUMP JUMPDEST PUSH1 0x20 DUP3 ADD SWAP1 POP SWAP2 SWAP1 POP JUMP JUMPDEST PUSH1 0x0 PUSH1 0x20 DUP3 ADD SWAP1 POP DUP2 DUP2 SUB PUSH1 0x0 DUP4 ADD MSTORE PUSH2 0x82B0 DUP2 PUSH2 0x8274 JUMP JUMPDEST SWAP1 POP SWAP2 SWAP1 POP JUMP JUMPDEST PUSH32 0x696E76616C69642070726F6F6600000000000000000000000000000000000000 PUSH1 0x0 DUP3 ADD MSTORE POP JUMP JUMPDEST PUSH1 0x0 PUSH2 0x82ED PUSH1 0xD DUP4 PUSH2 0x65ED JUMP JUMPDEST SWAP2 POP PUSH2 0x82F8 DUP3 PUSH2 0x82B7 JUMP JUMPDEST PUSH1 0x20 DUP3 ADD SWAP1 POP SWAP2 SWAP1 POP JUMP JUMPDEST PUSH1 0x0 PUSH1 0x20 DUP3 ADD SWAP1 POP DUP2 DUP2 SUB PUSH1 0x0 DUP4 ADD MSTORE PUSH2 0x831C DUP2 PUSH2 0x82E0 JUMP JUMPDEST SWAP1 POP SWAP2 SWAP1 POP JUMP JUMPDEST PUSH32 0x696E76616C696420782D6F7264696E6174650000000000000000000000000000 PUSH1 0x0 DUP3 ADD MSTORE POP JUMP JUMPDEST PUSH1 0x0 PUSH2 0x8359 PUSH1 0x12 DUP4 PUSH2 0x65ED JUMP JUMPDEST SWAP2 POP PUSH2 0x8364 DUP3 PUSH2 0x8323 JUMP JUMPDEST PUSH1 0x20 DUP3 ADD SWAP1 POP SWAP2 SWAP1 POP JUMP JUMPDEST PUSH1 0x0 PUSH1 0x20 DUP3 ADD SWAP1 POP DUP2 DUP2 SUB PUSH1 0x0 DUP4 ADD MSTORE PUSH2 0x8388 DUP2 PUSH2 0x834C JUMP JUMPDEST SWAP1 POP SWAP2 SWAP1 POP JUMP JUMPDEST PUSH32 0x696E76616C696420792D6F7264696E6174650000000000000000000000000000 PUSH1 0x0 DUP3 ADD MSTORE POP JUMP JUMPDEST PUSH1 0x0 PUSH2 0x83C5 PUSH1 0x12 DUP4 PUSH2 0x65ED JUMP JUMPDEST SWAP2 POP PUSH2 0x83D0 DUP3 PUSH2 0x838F JUMP JUMPDEST PUSH1 0x20 DUP3 ADD SWAP1 POP SWAP2 SWAP1 POP JUMP JUMPDEST PUSH1 0x0 PUSH1 0x20 DUP3 ADD SWAP1 POP DUP2 DUP2 SUB PUSH1 0x0 DUP4 ADD MSTORE PUSH2 0x83F4 DUP2 PUSH2 0x83B8 JUMP JUMPDEST SWAP1 POP SWAP2 SWAP1 POP JUMP JUMPDEST PUSH32 0x626164207769746E657373000000000000000000000000000000000000000000 PUSH1 0x0 DUP3 ADD MSTORE POP JUMP JUMPDEST PUSH1 0x0 PUSH2 0x8431 PUSH1 0xB DUP4 PUSH2 0x65ED JUMP JUMPDEST SWAP2 POP PUSH2 0x843C DUP3 PUSH2 0x83FB JUMP JUMPDEST PUSH1 0x20 DUP3 ADD SWAP1 POP SWAP2 SWAP1 POP JUMP JUMPDEST PUSH1 0x0 PUSH1 0x20 DUP3 ADD SWAP1 POP DUP2 DUP2 SUB PUSH1 0x0 DUP4 ADD MSTORE PUSH2 0x8460 DUP2 PUSH2 0x8424 JUMP JUMPDEST SWAP1 POP SWAP2 SWAP1 POP JUMP JUMPDEST PUSH1 0x0 PUSH1 0xFF DUP3 AND SWAP1 POP SWAP2 SWAP1 POP JUMP JUMPDEST PUSH2 0x847D DUP2 PUSH2 0x8467 JUMP JUMPDEST DUP3 MSTORE POP POP JUMP JUMPDEST PUSH1 0x0 PUSH1 0x80 DUP3 ADD SWAP1 POP PUSH2 0x8498 PUSH1 0x0 DUP4 ADD DUP8 PUSH2 0x6C66 JUMP JUMPDEST PUSH2 0x84A5 PUSH1 0x20 DUP4 ADD DUP7 PUSH2 0x8474 JUMP JUMPDEST PUSH2 0x84B2 PUSH1 0x40 DUP4 ADD DUP6 PUSH2 0x6C66 JUMP JUMPDEST PUSH2 0x84BF PUSH1 0x60 DUP4 ADD DUP5 PUSH2 0x6C66 JUMP JUMPDEST SWAP6 SWAP5 POP POP POP POP POP JUMP JUMPDEST PUSH1 0x0 DUP2 SWAP1 POP SWAP3 SWAP2 POP POP JUMP JUMPDEST PUSH2 0x84DC DUP2 PUSH2 0x6593 JUMP JUMPDEST DUP3 MSTORE POP POP JUMP JUMPDEST PUSH1 0x0 PUSH2 0x84EE DUP4 DUP4 PUSH2 0x84D3 JUMP JUMPDEST PUSH1 0x20 DUP4 ADD SWAP1 POP SWAP3 SWAP2 POP POP JUMP JUMPDEST PUSH2 0x8503 DUP2 PUSH2 0x7B51 JUMP JUMPDEST PUSH2 0x850D DUP2 DUP5 PUSH2 0x84C8 JUMP JUMPDEST SWAP3 POP PUSH2 0x8518 DUP3 PUSH2 0x7B67 JUMP JUMPDEST DUP1 PUSH1 0x0 JUMPDEST DUP4 DUP2 LT ISZERO PUSH2 0x8549 JUMPI DUP2 MLOAD PUSH2 0x8530 DUP8 DUP3 PUSH2 0x84E2 JUMP JUMPDEST SWAP7 POP PUSH2 0x853B DUP4 PUSH2 0x7B71 JUMP JUMPDEST SWAP3 POP POP PUSH1 0x1 DUP2 ADD SWAP1 POP PUSH2 0x851C JUMP JUMPDEST POP POP POP POP POP POP JUMP JUMPDEST PUSH1 0x0 PUSH2 0x855D DUP3 DUP7 PUSH2 0x7E2E JUMP JUMPDEST PUSH1 0x20 DUP3 ADD SWAP2 POP PUSH2 0x856D DUP3 DUP6 PUSH2 0x84FA JUMP JUMPDEST PUSH1 0x40 DUP3 ADD SWAP2 POP PUSH2 0x857D DUP3 DUP5 PUSH2 0x7E2E JUMP JUMPDEST PUSH1 0x20 DUP3 ADD SWAP2 POP DUP2 SWAP1 POP SWAP5 SWAP4 POP POP POP POP JUMP JUMPDEST PUSH1 0x0 PUSH2 0x859A DUP3 DUP5 PUSH2 0x7E2E JUMP JUMPDEST PUSH1 0x20 DUP3 ADD SWAP2 POP DUP2 SWAP1 POP SWAP3 SWAP2 POP POP JUMP JUMPDEST PUSH32 0x706F696E747320696E2073756D206D7573742062652064697374696E63740000 PUSH1 0x0 DUP3 ADD MSTORE POP JUMP JUMPDEST PUSH1 0x0 PUSH2 0x85DF PUSH1 0x1E DUP4 PUSH2 0x65ED JUMP JUMPDEST SWAP2 POP PUSH2 0x85EA DUP3 PUSH2 0x85A9 JUMP JUMPDEST PUSH1 0x20 DUP3 ADD SWAP1 POP SWAP2 SWAP1 POP JUMP JUMPDEST PUSH1 0x0 PUSH1 0x20 DUP3 ADD SWAP1 POP DUP2 DUP2 SUB PUSH1 0x0 DUP4 ADD MSTORE PUSH2 0x860E DUP2 PUSH2 0x85D2 JUMP JUMPDEST SWAP1 POP SWAP2 SWAP1 POP JUMP JUMPDEST PUSH32 0x4669727374206D756C20636865636B206661696C656400000000000000000000 PUSH1 0x0 DUP3 ADD MSTORE POP JUMP JUMPDEST PUSH1 0x0 PUSH2 0x864B PUSH1 0x16 DUP4 PUSH2 0x65ED JUMP JUMPDEST SWAP2 POP PUSH2 0x8656 DUP3 PUSH2 0x8615 JUMP JUMPDEST PUSH1 0x20 DUP3 ADD SWAP1 POP SWAP2 SWAP1 POP JUMP JUMPDEST PUSH1 0x0 PUSH1 0x20 DUP3 ADD SWAP1 POP DUP2 DUP2 SUB PUSH1 0x0 DUP4 ADD MSTORE PUSH2 0x867A DUP2 PUSH2 0x863E JUMP JUMPDEST SWAP1 POP SWAP2 SWAP1 POP JUMP JUMPDEST PUSH32 0x5365636F6E64206D756C20636865636B206661696C6564000000000000000000 PUSH1 0x0 DUP3 ADD MSTORE POP JUMP JUMPDEST PUSH1 0x0 PUSH2 0x86B7 PUSH1 0x17 DUP4 PUSH2 0x65ED JUMP JUMPDEST SWAP2 POP PUSH2 0x86C2 DUP3 PUSH2 0x8681 JUMP JUMPDEST PUSH1 0x20 DUP3 ADD SWAP1 POP SWAP2 SWAP1 POP JUMP JUMPDEST PUSH1 0x0 PUSH1 0x20 DUP3 ADD SWAP1 POP DUP2 DUP2 SUB PUSH1 0x0 DUP4 ADD MSTORE PUSH2 0x86E6 DUP2 PUSH2 0x86AA JUMP JUMPDEST SWAP1 POP SWAP2 SWAP1 POP JUMP JUMPDEST PUSH1 0x0 DUP2 PUSH1 0x60 SHL SWAP1 POP SWAP2 SWAP1 POP JUMP JUMPDEST PUSH1 0x0 PUSH2 0x8705 DUP3 PUSH2 0x86ED JUMP JUMPDEST SWAP1 POP SWAP2 SWAP1 POP JUMP JUMPDEST PUSH1 0x0 PUSH2 0x8717 DUP3 PUSH2 0x86FA JUMP JUMPDEST SWAP1 POP SWAP2 SWAP1 POP JUMP JUMPDEST PUSH2 0x872F PUSH2 0x872A DUP3 PUSH2 0x6497 JUMP JUMPDEST PUSH2 0x870C JUMP JUMPDEST DUP3 MSTORE POP POP JUMP JUMPDEST PUSH1 0x0 PUSH2 0x8741 DUP3 DUP10 PUSH2 0x7E2E JUMP JUMPDEST PUSH1 0x20 DUP3 ADD SWAP2 POP PUSH2 0x8751 DUP3 DUP9 PUSH2 0x84FA JUMP JUMPDEST PUSH1 0x40 DUP3 ADD SWAP2 POP PUSH2 0x8761 DUP3 DUP8 PUSH2 0x84FA JUMP JUMPDEST PUSH1 0x40 DUP3 ADD SWAP2 POP PUSH2 0x8771 DUP3 DUP7 PUSH2 0x84FA JUMP JUMPDEST PUSH1 0x40 DUP3 ADD SWAP2 POP PUSH2 0x8781 DUP3 DUP6 PUSH2 0x84FA JUMP JUMPDEST PUSH1 0x40 DUP3 ADD SWAP2 POP PUSH2 0x8791 DUP3 DUP5 PUSH2 0x871E JUMP JUMPDEST PUSH1 0x14 DUP3 ADD SWAP2 POP DUP2 SWAP1 POP SWAP8 SWAP7 POP POP POP POP POP POP POP JUMP JUMPDEST PUSH32 0x7A65726F207363616C6172000000000000000000000000000000000000000000 PUSH1 0x0 DUP3 ADD MSTORE POP JUMP JUMPDEST PUSH1 0x0 PUSH2 0x87DB PUSH1 0xB DUP4 PUSH2 0x65ED JUMP JUMPDEST SWAP2 POP PUSH2 0x87E6 DUP3 PUSH2 0x87A5 JUMP JUMPDEST PUSH1 0x20 DUP3 ADD SWAP1 POP SWAP2 SWAP1 POP JUMP JUMPDEST PUSH1 0x0 PUSH1 0x20 DUP3 ADD SWAP1 POP DUP2 DUP2 SUB PUSH1 0x0 DUP4 ADD MSTORE PUSH2 0x880A DUP2 PUSH2 0x87CE JUMP JUMPDEST SWAP1 POP SWAP2 SWAP1 POP JUMP JUMPDEST PUSH1 0x0 PUSH2 0x881C DUP3 PUSH2 0x6593 JUMP JUMPDEST SWAP2 POP PUSH2 0x8827 DUP4 PUSH2 0x6593 JUMP JUMPDEST SWAP3 POP DUP3 PUSH2 0x8837 JUMPI PUSH2 0x8836 PUSH2 0x7ED4 JUMP JUMPDEST JUMPDEST DUP3 DUP3 MOD SWAP1 POP SWAP3 SWAP2 POP POP JUMP JUMPDEST PUSH1 0x0 PUSH2 0x884E DUP3 DUP5 PUSH2 0x84FA JUMP JUMPDEST PUSH1 0x40 DUP3 ADD SWAP2 POP DUP2 SWAP1 POP SWAP3 SWAP2 POP POP JUMP JUMPDEST PUSH32 0x696E765A206D75737420626520696E7665727365206F66207A00000000000000 PUSH1 0x0 DUP3 ADD MSTORE POP JUMP JUMPDEST PUSH1 0x0 PUSH2 0x8893 PUSH1 0x19 DUP4 PUSH2 0x65ED JUMP JUMPDEST SWAP2 POP PUSH2 0x889E DUP3 PUSH2 0x885D JUMP JUMPDEST PUSH1 0x20 DUP3 ADD SWAP1 POP SWAP2 SWAP1 POP JUMP JUMPDEST PUSH1 0x0 PUSH1 0x20 DUP3 ADD SWAP1 POP DUP2 DUP2 SUB PUSH1 0x0 DUP4 ADD MSTORE PUSH2 0x88C2 DUP2 PUSH2 0x8886 JUMP JUMPDEST SWAP1 POP SWAP2 SWAP1 POP JUMP JUMPDEST PUSH32 0x6269674D6F64457870206661696C757265210000000000000000000000000000 PUSH1 0x0 DUP3 ADD MSTORE POP JUMP JUMPDEST PUSH1 0x0 PUSH2 0x88FF PUSH1 0x12 DUP4 PUSH2 0x65ED JUMP JUMPDEST SWAP2 POP PUSH2 0x890A DUP3 PUSH2 0x88C9 JUMP JUMPDEST PUSH1 0x20 DUP3 ADD SWAP1 POP SWAP2 SWAP1 POP JUMP JUMPDEST PUSH1 0x0 PUSH1 0x20 DUP3 ADD SWAP1 POP DUP2 DUP2 SUB PUSH1 0x0 DUP4 ADD MSTORE PUSH2 0x892E DUP2 PUSH2 0x88F2 JUMP JUMPDEST SWAP1 POP SWAP2 SWAP1 POP JUMP INVALID LOG2 PUSH5 0x6970667358 0x22 SLT KECCAK256 0xE2 EQ 0xAA SWAP10 SWAP5 0xE5 0x28 SLOAD PUSH17 0xDB77A0E54FD3FEEE4A3D0C1ECD44E5145A SHR PUSH32 0x991DA09664736F6C634300081100330000000000000000000000000000000000 "},"gasEstimates":{"creation":{"codeDepositCost":"7035800","executionCost":"infinite","totalCost":"infinite"},"external":{"BLOCKHASH_STORE()":"infinite","LINK()":"infinite","LINK_ETH_FEED()":"infinite","MAX_CONSUMERS()":"402","MAX_NUM_WORDS()":"403","MAX_REQUEST_CONFIRMATIONS()":"425","acceptOwnership()":"54630","acceptSubscriptionOwnerTransfer(uint64)":"infinite","addConsumer(uint64,address)":"infinite","cancelSubscription(uint64,address)":"infinite","createSubscription()":"infinite","deregisterProvingKey(uint256[2])":"infinite","fulfillRandomWords((uint256[2],uint256[2],uint256,uint256,uint256,address,uint256[2],uint256[2],uint256),(uint64,uint64,uint32,uint32,address))":"infinite","getCommitment(uint256)":"2913","getConfig()":"infinite","getCurrentSubId()":"2592","getFallbackWeiPerUnitLink()":"2483","getFeeConfig()":"infinite","getFeeTier(uint64)":"21060","getRequestConfig()":"infinite","getSubscription(uint64)":"infinite","getTotalBalance()":"2597","hashOfKey(uint256[2])":"infinite","onTokenTransfer(address,uint256,bytes)":"infinite","oracleWithdraw(address,uint96)":"infinite","owner()":"2567","ownerCancelSubscription(uint64)":"infinite","pendingRequestExists(uint64)":"infinite","recoverFunds(address)":"infinite","registerProvingKey(address,uint256[2])":"infinite","removeConsumer(uint64,address)":"infinite","requestRandomWords(bytes32,uint64,uint16,uint32,uint32)":"infinite","requestSubscriptionOwnerTransfer(uint64,address)":"infinite","setConfig(uint16,uint32,uint32,uint32,int256,(uint32,uint32,uint32,uint32,uint32,uint24,uint24,uint24,uint24))":"infinite","transferOwnership(address)":"30786","typeAndVersion()":"infinite"},"internal":{"calculatePaymentAmount(uint256,uint256,uint32,uint256)":"infinite","callWithExactGas(uint256,address,bytes memory)":"infinite","cancelSubscriptionHelper(uint64,address)":"infinite","computeRequestId(bytes32,address,uint64,uint64)":"infinite","getFeedData()":"infinite","getRandomnessFromProof(struct VRF.Proof memory,struct VRFCoordinatorV2.RequestCommitment memory)":"infinite"}},"methodIdentifiers":{"BLOCKHASH_STORE()":"689c4517","LINK()":"1b6b6d23","LINK_ETH_FEED()":"ad178361","MAX_CONSUMERS()":"64d51a2a","MAX_NUM_WORDS()":"40d6bb82","MAX_REQUEST_CONFIRMATIONS()":"15c48b84","acceptOwnership()":"79ba5097","acceptSubscriptionOwnerTransfer(uint64)":"82359740","addConsumer(uint64,address)":"7341c10c","cancelSubscription(uint64,address)":"d7ae1d30","createSubscription()":"a21a23e4","deregisterProvingKey(uint256[2])":"08821d58","fulfillRandomWords((uint256[2],uint256[2],uint256,uint256,uint256,address,uint256[2],uint256[2],uint256),(uint64,uint64,uint32,uint32,address))":"af198b97","getCommitment(uint256)":"69bcdb7d","getConfig()":"c3f909d4","getCurrentSubId()":"06bfa637","getFallbackWeiPerUnitLink()":"356dac71","getFeeConfig()":"5fbbc0d2","getFeeTier(uint64)":"d2f9f9a7","getRequestConfig()":"00012291","getSubscription(uint64)":"a47c7696","getTotalBalance()":"12b58349","hashOfKey(uint256[2])":"caf70c4a","onTokenTransfer(address,uint256,bytes)":"a4c0ed36","oracleWithdraw(address,uint96)":"66316d8d","owner()":"8da5cb5b","ownerCancelSubscription(uint64)":"02bcc5b6","pendingRequestExists(uint64)":"e82ad7d4","recoverFunds(address)":"e72f6e30","registerProvingKey(address,uint256[2])":"6f64f03f","removeConsumer(uint64,address)":"9f87fad7","requestRandomWords(bytes32,uint64,uint16,uint32,uint32)":"5d3b1d30","requestSubscriptionOwnerTransfer(uint64,address)":"04c357cb","setConfig(uint16,uint32,uint32,uint32,int256,(uint32,uint32,uint32,uint32,uint32,uint24,uint24,uint24,uint24))":"4cb48a54","transferOwnership(address)":"f2fde38b","typeAndVersion()":"181f5a77"}},"storageLayout":{"storage":[{"astId":27,"contract":"@chainlink/contracts/src/v0.8/VRFCoordinatorV2.sol:VRFCoordinatorV2","label":"s_owner","offset":0,"slot":"0","type":"t_address"},{"astId":29,"contract":"@chainlink/contracts/src/v0.8/VRFCoordinatorV2.sol:VRFCoordinatorV2","label":"s_pendingOwner","offset":0,"slot":"1","type":"t_address"},{"astId":1427,"contract":"@chainlink/contracts/src/v0.8/VRFCoordinatorV2.sol:VRFCoordinatorV2","label":"s_consumers","offset":0,"slot":"2","type":"t_mapping(t_address,t_mapping(t_uint64,t_uint64))"},{"astId":1432,"contract":"@chainlink/contracts/src/v0.8/VRFCoordinatorV2.sol:VRFCoordinatorV2","label":"s_subscriptionConfigs","offset":0,"slot":"3","type":"t_mapping(t_uint64,t_struct(SubscriptionConfig)1421_storage)"},{"astId":1437,"contract":"@chainlink/contracts/src/v0.8/VRFCoordinatorV2.sol:VRFCoordinatorV2","label":"s_subscriptions","offset":0,"slot":"4","type":"t_mapping(t_uint64,t_struct(Subscription)1413_storage)"},{"astId":1439,"contract":"@chainlink/contracts/src/v0.8/VRFCoordinatorV2.sol:VRFCoordinatorV2","label":"s_currentSubId","offset":0,"slot":"5","type":"t_uint64"},{"astId":1441,"contract":"@chainlink/contracts/src/v0.8/VRFCoordinatorV2.sol:VRFCoordinatorV2","label":"s_totalBalance","offset":8,"slot":"5","type":"t_uint96"},{"astId":1565,"contract":"@chainlink/contracts/src/v0.8/VRFCoordinatorV2.sol:VRFCoordinatorV2","label":"s_provingKeys","offset":0,"slot":"6","type":"t_mapping(t_bytes32,t_address)"},{"astId":1568,"contract":"@chainlink/contracts/src/v0.8/VRFCoordinatorV2.sol:VRFCoordinatorV2","label":"s_provingKeyHashes","offset":0,"slot":"7","type":"t_array(t_bytes32)dyn_storage"},{"astId":1572,"contract":"@chainlink/contracts/src/v0.8/VRFCoordinatorV2.sol:VRFCoordinatorV2","label":"s_withdrawableTokens","offset":0,"slot":"8","type":"t_mapping(t_address,t_uint96)"},{"astId":1576,"contract":"@chainlink/contracts/src/v0.8/VRFCoordinatorV2.sol:VRFCoordinatorV2","label":"s_requestCommitments","offset":0,"slot":"9","type":"t_mapping(t_uint256,t_bytes32)"},{"astId":1629,"contract":"@chainlink/contracts/src/v0.8/VRFCoordinatorV2.sol:VRFCoordinatorV2","label":"s_fallbackWeiPerUnitLink","offset":0,"slot":"10","type":"t_int256"},{"astId":1632,"contract":"@chainlink/contracts/src/v0.8/VRFCoordinatorV2.sol:VRFCoordinatorV2","label":"s_config","offset":0,"slot":"11","type":"t_struct(Config)1627_storage"},{"astId":1635,"contract":"@chainlink/contracts/src/v0.8/VRFCoordinatorV2.sol:VRFCoordinatorV2","label":"s_feeConfig","offset":0,"slot":"12","type":"t_struct(FeeConfig)1654_storage"}],"types":{"t_address":{"encoding":"inplace","label":"address","numberOfBytes":"20"},"t_array(t_address)dyn_storage":{"base":"t_address","encoding":"dynamic_array","label":"address[]","numberOfBytes":"32"},"t_array(t_bytes32)dyn_storage":{"base":"t_bytes32","encoding":"dynamic_array","label":"bytes32[]","numberOfBytes":"32"},"t_bool":{"encoding":"inplace","label":"bool","numberOfBytes":"1"},"t_bytes32":{"encoding":"inplace","label":"bytes32","numberOfBytes":"32"},"t_int256":{"encoding":"inplace","label":"int256","numberOfBytes":"32"},"t_mapping(t_address,t_mapping(t_uint64,t_uint64))":{"encoding":"mapping","key":"t_address","label":"mapping(address => mapping(uint64 => uint64))","numberOfBytes":"32","value":"t_mapping(t_uint64,t_uint64)"},"t_mapping(t_address,t_uint96)":{"encoding":"mapping","key":"t_address","label":"mapping(address => uint96)","numberOfBytes":"32","value":"t_uint96"},"t_mapping(t_bytes32,t_address)":{"encoding":"mapping","key":"t_bytes32","label":"mapping(bytes32 => address)","numberOfBytes":"32","value":"t_address"},"t_mapping(t_uint256,t_bytes32)":{"encoding":"mapping","key":"t_uint256","label":"mapping(uint256 => bytes32)","numberOfBytes":"32","value":"t_bytes32"},"t_mapping(t_uint64,t_struct(Subscription)1413_storage)":{"encoding":"mapping","key":"t_uint64","label":"mapping(uint64 => struct VRFCoordinatorV2.Subscription)","numberOfBytes":"32","value":"t_struct(Subscription)1413_storage"},"t_mapping(t_uint64,t_struct(SubscriptionConfig)1421_storage)":{"encoding":"mapping","key":"t_uint64","label":"mapping(uint64 => struct VRFCoordinatorV2.SubscriptionConfig)","numberOfBytes":"32","value":"t_struct(SubscriptionConfig)1421_storage"},"t_mapping(t_uint64,t_uint64)":{"encoding":"mapping","key":"t_uint64","label":"mapping(uint64 => uint64)","numberOfBytes":"32","value":"t_uint64"},"t_struct(Config)1627_storage":{"encoding":"inplace","label":"struct VRFCoordinatorV2.Config","members":[{"astId":1618,"contract":"@chainlink/contracts/src/v0.8/VRFCoordinatorV2.sol:VRFCoordinatorV2","label":"minimumRequestConfirmations","offset":0,"slot":"0","type":"t_uint16"},{"astId":1620,"contract":"@chainlink/contracts/src/v0.8/VRFCoordinatorV2.sol:VRFCoordinatorV2","label":"maxGasLimit","offset":2,"slot":"0","type":"t_uint32"},{"astId":1622,"contract":"@chainlink/contracts/src/v0.8/VRFCoordinatorV2.sol:VRFCoordinatorV2","label":"reentrancyLock","offset":6,"slot":"0","type":"t_bool"},{"astId":1624,"contract":"@chainlink/contracts/src/v0.8/VRFCoordinatorV2.sol:VRFCoordinatorV2","label":"stalenessSeconds","offset":7,"slot":"0","type":"t_uint32"},{"astId":1626,"contract":"@chainlink/contracts/src/v0.8/VRFCoordinatorV2.sol:VRFCoordinatorV2","label":"gasAfterPaymentCalculation","offset":11,"slot":"0","type":"t_uint32"}],"numberOfBytes":"32"},"t_struct(FeeConfig)1654_storage":{"encoding":"inplace","label":"struct VRFCoordinatorV2.FeeConfig","members":[{"astId":1637,"contract":"@chainlink/contracts/src/v0.8/VRFCoordinatorV2.sol:VRFCoordinatorV2","label":"fulfillmentFlatFeeLinkPPMTier1","offset":0,"slot":"0","type":"t_uint32"},{"astId":1639,"contract":"@chainlink/contracts/src/v0.8/VRFCoordinatorV2.sol:VRFCoordinatorV2","label":"fulfillmentFlatFeeLinkPPMTier2","offset":4,"slot":"0","type":"t_uint32"},{"astId":1641,"contract":"@chainlink/contracts/src/v0.8/VRFCoordinatorV2.sol:VRFCoordinatorV2","label":"fulfillmentFlatFeeLinkPPMTier3","offset":8,"slot":"0","type":"t_uint32"},{"astId":1643,"contract":"@chainlink/contracts/src/v0.8/VRFCoordinatorV2.sol:VRFCoordinatorV2","label":"fulfillmentFlatFeeLinkPPMTier4","offset":12,"slot":"0","type":"t_uint32"},{"astId":1645,"contract":"@chainlink/contracts/src/v0.8/VRFCoordinatorV2.sol:VRFCoordinatorV2","label":"fulfillmentFlatFeeLinkPPMTier5","offset":16,"slot":"0","type":"t_uint32"},{"astId":1647,"contract":"@chainlink/contracts/src/v0.8/VRFCoordinatorV2.sol:VRFCoordinatorV2","label":"reqsForTier2","offset":20,"slot":"0","type":"t_uint24"},{"astId":1649,"contract":"@chainlink/contracts/src/v0.8/VRFCoordinatorV2.sol:VRFCoordinatorV2","label":"reqsForTier3","offset":23,"slot":"0","type":"t_uint24"},{"astId":1651,"contract":"@chainlink/contracts/src/v0.8/VRFCoordinatorV2.sol:VRFCoordinatorV2","label":"reqsForTier4","offset":26,"slot":"0","type":"t_uint24"},{"astId":1653,"contract":"@chainlink/contracts/src/v0.8/VRFCoordinatorV2.sol:VRFCoordinatorV2","label":"reqsForTier5","offset":29,"slot":"0","type":"t_uint24"}],"numberOfBytes":"32"},"t_struct(Subscription)1413_storage":{"encoding":"inplace","label":"struct VRFCoordinatorV2.Subscription","members":[{"astId":1410,"contract":"@chainlink/contracts/src/v0.8/VRFCoordinatorV2.sol:VRFCoordinatorV2","label":"balance","offset":0,"slot":"0","type":"t_uint96"},{"astId":1412,"contract":"@chainlink/contracts/src/v0.8/VRFCoordinatorV2.sol:VRFCoordinatorV2","label":"reqCount","offset":12,"slot":"0","type":"t_uint64"}],"numberOfBytes":"32"},"t_struct(SubscriptionConfig)1421_storage":{"encoding":"inplace","label":"struct VRFCoordinatorV2.SubscriptionConfig","members":[{"astId":1415,"contract":"@chainlink/contracts/src/v0.8/VRFCoordinatorV2.sol:VRFCoordinatorV2","label":"owner","offset":0,"slot":"0","type":"t_address"},{"astId":1417,"contract":"@chainlink/contracts/src/v0.8/VRFCoordinatorV2.sol:VRFCoordinatorV2","label":"requestedOwner","offset":0,"slot":"1","type":"t_address"},{"astId":1420,"contract":"@chainlink/contracts/src/v0.8/VRFCoordinatorV2.sol:VRFCoordinatorV2","label":"consumers","offset":0,"slot":"2","type":"t_array(t_address)dyn_storage"}],"numberOfBytes":"96"},"t_uint16":{"encoding":"inplace","label":"uint16","numberOfBytes":"2"},"t_uint24":{"encoding":"inplace","label":"uint24","numberOfBytes":"3"},"t_uint256":{"encoding":"inplace","label":"uint256","numberOfBytes":"32"},"t_uint32":{"encoding":"inplace","label":"uint32","numberOfBytes":"4"},"t_uint64":{"encoding":"inplace","label":"uint64","numberOfBytes":"8"},"t_uint96":{"encoding":"inplace","label":"uint96","numberOfBytes":"12"}}},"userdoc":{"kind":"user","methods":{"acceptOwnership()":{"notice":"Allows an ownership transfer to be completed by the recipient."},"acceptSubscriptionOwnerTransfer(uint64)":{"notice":"Request subscription owner transfer."},"addConsumer(uint64,address)":{"notice":"Add a consumer to a VRF subscription."},"cancelSubscription(uint64,address)":{"notice":"Cancel a subscription"},"createSubscription()":{"notice":"Create a VRF subscription."},"deregisterProvingKey(uint256[2])":{"notice":"Deregisters a proving key to an oracle."},"getCommitment(uint256)":{"notice":"Get request commitment"},"getRequestConfig()":{"notice":"Get configuration relevant for making requests"},"getSubscription(uint64)":{"notice":"Get a VRF subscription."},"hashOfKey(uint256[2])":{"notice":"Returns the proving key hash key associated with this public key"},"owner()":{"notice":"Get the current owner"},"ownerCancelSubscription(uint64)":{"notice":"Owner cancel subscription, sends remaining link directly to the subscription owner."},"recoverFunds(address)":{"notice":"Recover link sent with transfer instead of transferAndCall."},"registerProvingKey(address,uint256[2])":{"notice":"Registers a proving key to an oracle."},"removeConsumer(uint64,address)":{"notice":"Remove a consumer from a VRF subscription."},"requestRandomWords(bytes32,uint64,uint16,uint32,uint32)":{"notice":"Request a set of random words."},"requestSubscriptionOwnerTransfer(uint64,address)":{"notice":"Request subscription owner transfer."},"setConfig(uint16,uint32,uint32,uint32,int256,(uint32,uint32,uint32,uint32,uint32,uint24,uint24,uint24,uint24))":{"notice":"Sets the configuration of the vrfv2 coordinator"},"transferOwnership(address)":{"notice":"Allows an owner to begin transferring ownership to a new address, pending."},"typeAndVersion()":{"notice":"The type and version of this contract"}},"version":1}}}}