{
  "address": "0xCf7Ed3AccA5a467e9e704C703E8D87F634fB0Fc9",
  "abi": [
    {
      "inputs": [
        {
          "internalType": "address",
          "name": "vrfCoordinatorV2",
          "type": "address"
        },
        {
          "internalType": "uint256",
          "name": "entranceFee",
          "type": "uint256"
        },
        {
          "internalType": "bytes32",
          "name": "gasLane",
          "type": "bytes32"
        },
        {
          "internalType": "uint64",
          "name": "subscriptionId",
          "type": "uint64"
        },
        {
          "internalType": "uint32",
          "name": "callbackGsaLimit",
          "type": "uint32"
        },
        {
          "internalType": "uint256",
          "name": "interval",
          "type": "uint256"
        }
      ],
      "stateMutability": "nonpayable",
      "type": "constructor"
    },
    {
      "inputs": [
        {
          "internalType": "address",
          "name": "have",
          "type": "address"
        },
        {
          "internalType": "address",
          "name": "want",
          "type": "address"
        }
      ],
      "name": "OnlyCoordinatorCanFulfill",
      "type": "error"
    },
    {
      "inputs": [],
      "name": "Raffle__NotEnoughETHEntered",
      "type": "error"
    },
    {
      "inputs": [],
      "name": "Raffle__NotOpen",
      "type": "error"
    },
    {
      "inputs": [],
      "name": "Raffle__TransferFailed",
      "type": "error"
    },
    {
      "inputs": [
        {
          "internalType": "uint256",
          "name": "currentBalance",
          "type": "uint256"
        },
        {
          "internalType": "uint256",
          "name": "numPlayers",
          "type": "uint256"
        },
        {
          "internalType": "uint256",
          "name": "raffleState",
          "type": "uint256"
        }
      ],
      "name": "Raffle__UpkeepNotNeeded",
      "type": "error"
    },
    {
      "anonymous": false,
      "inputs": [
        {
          "indexed": true,
          "internalType": "address",
          "name": "player",
          "type": "address"
        }
      ],
      "name": "RaffleEnter",
      "type": "event"
    },
    {
      "anonymous": false,
      "inputs": [
        {
          "indexed": true,
          "internalType": "uint256",
          "name": "requestId",
          "type": "uint256"
        }
      ],
      "name": "RequestRaffleWinner",
      "type": "event"
    },
    {
      "anonymous": false,
      "inputs": [
        {
          "indexed": true,
          "internalType": "address",
          "name": "winner",
          "type": "address"
        }
      ],
      "name": "WinnerPicked",
      "type": "event"
    },
    {
      "inputs": [
        {
          "internalType": "bytes",
          "name": "",
          "type": "bytes"
        }
      ],
      "name": "checkUpkeep",
      "outputs": [
        {
          "internalType": "bool",
          "name": "upkeepNeeded",
          "type": "bool"
        },
        {
          "internalType": "bytes",
          "name": "",
          "type": "bytes"
        }
      ],
      "stateMutability": "nonpayable",
      "type": "function"
    },
    {
      "inputs": [],
      "name": "enterRaffle",
      "outputs": [],
      "stateMutability": "payable",
      "type": "function"
    },
    {
      "inputs": [],
      "name": "getEntranceFee",
      "outputs": [
        {
          "internalType": "uint256",
          "name": "",
          "type": "uint256"
        }
      ],
      "stateMutability": "view",
      "type": "function"
    },
    {
      "inputs": [],
      "name": "getInterval",
      "outputs": [
        {
          "internalType": "uint256",
          "name": "",
          "type": "uint256"
        }
      ],
      "stateMutability": "view",
      "type": "function"
    },
    {
      "inputs": [],
      "name": "getLastTimeStamp",
      "outputs": [
        {
          "internalType": "uint256",
          "name": "",
          "type": "uint256"
        }
      ],
      "stateMutability": "view",
      "type": "function"
    },
    {
      "inputs": [],
      "name": "getNumWords",
      "outputs": [
        {
          "internalType": "uint256",
          "name": "",
          "type": "uint256"
        }
      ],
      "stateMutability": "pure",
      "type": "function"
    },
    {
      "inputs": [],
      "name": "getNumberOfPlayers",
      "outputs": [
        {
          "internalType": "uint256",
          "name": "",
          "type": "uint256"
        }
      ],
      "stateMutability": "view",
      "type": "function"
    },
    {
      "inputs": [
        {
          "internalType": "uint256",
          "name": "index",
          "type": "uint256"
        }
      ],
      "name": "getPlayer",
      "outputs": [
        {
          "internalType": "address",
          "name": "",
          "type": "address"
        }
      ],
      "stateMutability": "view",
      "type": "function"
    },
    {
      "inputs": [],
      "name": "getRaffleState",
      "outputs": [
        {
          "internalType": "enum Raffle.RaffleState",
          "name": "",
          "type": "uint8"
        }
      ],
      "stateMutability": "view",
      "type": "function"
    },
    {
      "inputs": [],
      "name": "getReccentWinner",
      "outputs": [
        {
          "internalType": "address",
          "name": "",
          "type": "address"
        }
      ],
      "stateMutability": "view",
      "type": "function"
    },
    {
      "inputs": [],
      "name": "getRecentWinner",
      "outputs": [
        {
          "internalType": "address",
          "name": "",
          "type": "address"
        }
      ],
      "stateMutability": "view",
      "type": "function"
    },
    {
      "inputs": [],
      "name": "getRequestConfirmations",
      "outputs": [
        {
          "internalType": "uint256",
          "name": "",
          "type": "uint256"
        }
      ],
      "stateMutability": "pure",
      "type": "function"
    },
    {
      "inputs": [
        {
          "internalType": "bytes",
          "name": "",
          "type": "bytes"
        }
      ],
      "name": "performUpkeep",
      "outputs": [],
      "stateMutability": "nonpayable",
      "type": "function"
    },
    {
      "inputs": [
        {
          "internalType": "uint256",
          "name": "requestId",
          "type": "uint256"
        },
        {
          "internalType": "uint256[]",
          "name": "randomWords",
          "type": "uint256[]"
        }
      ],
      "name": "rawFulfillRandomWords",
      "outputs": [],
      "stateMutability": "nonpayable",
      "type": "function"
    }
  ],
  "transactionHash": "0x6c0a7e52952d47fddf70d9dc37cd1ac07d965057114adf970c0c23ffd81cd360",
  "args": [
    "0x5FbDB2315678afecb367f032d93F642f64180aa3",
    "10000000000000000",
    "0x79d3d8832d904592c0bf9818b621522c988bb8b0c05cdc3b15aea1b6e8db0c15",
    "1",
    "500000",
    "30"
  ],
  "numDeployments": 1,
  "solcInputHash": "701f8a1bc84949e34862d200cfc1ef7f",
  "bytecode": "0x6101606040523480156200001257600080fd5b50604051620018ad380380620018ad833981810160405281019062000038919062000294565b858073ffffffffffffffffffffffffffffffffffffffff1660808173ffffffffffffffffffffffffffffffffffffffff1681525050508460a081815250508573ffffffffffffffffffffffffffffffffffffffff1660c08173ffffffffffffffffffffffffffffffffffffffff16815250508360e081815250508267ffffffffffffffff166101008167ffffffffffffffff16815250508163ffffffff166101208163ffffffff16815250506000600160146101000a81548160ff021916908360018111156200010d576200010c62000330565b5b0217905550426002819055508061014081815250505050505050506200035f565b600080fd5b600073ffffffffffffffffffffffffffffffffffffffff82169050919050565b6000620001608262000133565b9050919050565b620001728162000153565b81146200017e57600080fd5b50565b600081519050620001928162000167565b92915050565b6000819050919050565b620001ad8162000198565b8114620001b957600080fd5b50565b600081519050620001cd81620001a2565b92915050565b6000819050919050565b620001e881620001d3565b8114620001f457600080fd5b50565b6000815190506200020881620001dd565b92915050565b600067ffffffffffffffff82169050919050565b6200022d816200020e565b81146200023957600080fd5b50565b6000815190506200024d8162000222565b92915050565b600063ffffffff82169050919050565b6200026e8162000253565b81146200027a57600080fd5b50565b6000815190506200028e8162000263565b92915050565b60008060008060008060c08789031215620002b457620002b36200012e565b5b6000620002c489828a0162000181565b9650506020620002d789828a01620001bc565b9550506040620002ea89828a01620001f7565b9450506060620002fd89828a016200023c565b93505060806200031089828a016200027d565b92505060a06200032389828a01620001bc565b9150509295509295509295565b7f4e487b7100000000000000000000000000000000000000000000000000000000600052602160045260246000fd5b60805160a05160c05160e0516101005161012051610140516114de620003cf6000396000818161082301526108cc015260006106e1015260006106be0152600061069d01526000610661015260008181610340015261043d01526000818161037d01526103d101526114de6000f3fe6080604052600436106100dd5760003560e01c80635f1b0fd81161007f578063c1c244e811610059578063c1c244e81461027e578063e55ae4e8146102a9578063f597d261146102e6578063fd6673f514610311576100dd565b80635f1b0fd8146101ea5780636e04ff0d1461021557806391ad27b414610253576100dd565b80632cfcc539116100bb5780632cfcc539146101615780634585e33b1461016b578063473f1ddc1461019457806353a2c19a146101bf576100dd565b806309bc33a7146100e2578063115cbaf51461010d5780631fe543e314610138575b600080fd5b3480156100ee57600080fd5b506100f761033c565b6040516101049190610c68565b60405180910390f35b34801561011957600080fd5b50610122610364565b60405161012f9190610cfa565b60405180910390f35b34801561014457600080fd5b5061015f600480360381019061015a9190610eae565b61037b565b005b61016961043b565b005b34801561017757600080fd5b50610192600480360381019061018d9190610f65565b6105aa565b005b3480156101a057600080fd5b506101a961079a565b6040516101b69190610ff3565b60405180910390f35b3480156101cb57600080fd5b506101d46107c4565b6040516101e19190610c68565b60405180910390f35b3480156101f657600080fd5b506101ff6107d3565b60405161020c9190610c68565b60405180910390f35b34801561022157600080fd5b5061023c600480360381019061023791906110c3565b6107e0565b60405161024a9291906111a6565b60405180910390f35b34801561025f57600080fd5b506102686108c8565b6040516102759190610c68565b60405180910390f35b34801561028a57600080fd5b506102936108f0565b6040516102a09190610c68565b60405180910390f35b3480156102b557600080fd5b506102d060048036038101906102cb91906111d6565b6108fa565b6040516102dd9190610ff3565b60405180910390f35b3480156102f257600080fd5b506102fb610941565b6040516103089190610ff3565b60405180910390f35b34801561031d57600080fd5b5061032661096b565b6040516103339190610c68565b60405180910390f35b60007f0000000000000000000000000000000000000000000000000000000000000000905090565b6000600160149054906101000a900460ff16905090565b7f000000000000000000000000000000000000000000000000000000000000000073ffffffffffffffffffffffffffffffffffffffff163373ffffffffffffffffffffffffffffffffffffffff161461042d57337f00000000000000000000000000000000000000000000000000000000000000006040517f1cf993f4000000000000000000000000000000000000000000000000000000008152600401610424929190611203565b60405180910390fd5b6104378282610977565b5050565b7f0000000000000000000000000000000000000000000000000000000000000000341015610495576040517fbd4e069500000000000000000000000000000000000000000000000000000000815260040160405180910390fd5b600060018111156104a9576104a8610c83565b5b600160149054906101000a900460ff1660018111156104cb576104ca610c83565b5b14610502576040517f1425571c00000000000000000000000000000000000000000000000000000000815260040160405180910390fd5b6000339080600181540180825580915050600190039060005260206000200160009091909190916101000a81548173ffffffffffffffffffffffffffffffffffffffff021916908373ffffffffffffffffffffffffffffffffffffffff1602179055503373ffffffffffffffffffffffffffffffffffffffff167f0805e1d667bddb8a95f0f09880cf94f403fb596ce79928d9f29b74203ba284d460405160405180910390a2565b60006105c4604051806020016040528060008152506107e0565b50905060018060146101000a81548160ff021916908360018111156105ec576105eb610c83565b5b02179055508061065d5747600080549050600160149054906101000a900460ff16600181111561061f5761061e610c83565b5b6040517f584327aa0000000000000000000000000000000000000000000000000000000081526004016106549392919061122c565b60405180910390fd5b60007f000000000000000000000000000000000000000000000000000000000000000073ffffffffffffffffffffffffffffffffffffffff16635d3b1d307f00000000000000000000000000000000000000000000000000000000000000007f000000000000000000000000000000000000000000000000000000000000000060037f000000000000000000000000000000000000000000000000000000000000000060016040518663ffffffff1660e01b81526004016107229594939291906112db565b6020604051808303816000875af1158015610741573d6000803e3d6000fd5b505050506040513d601f19601f820116820180604052508101906107659190611343565b9050807fde6349b018d6c03d837b67d9a198a6ba4842546f2295fe963fae141e5dbaef8160405160405180910390a250505050565b6000600160009054906101000a900473ffffffffffffffffffffffffffffffffffffffff16905090565b6000600163ffffffff16905090565b6000600361ffff16905090565b600060606000600160149054906101000a900460ff16600181111561080857610807610c83565b5b6000600181111561081c5761081b610c83565b5b14905060007f000000000000000000000000000000000000000000000000000000000000000060025442610850919061139f565b119050600080600080549050119050600080471190508380156108705750825b80156108795750815b80156108825750805b9550856040518060400160405280600381526020017f30783000000000000000000000000000000000000000000000000000000000008152509550955050505050915091565b60007f0000000000000000000000000000000000000000000000000000000000000000905090565b6000600254905090565b600080828154811061090f5761090e6113d3565b5b9060005260206000200160009054906101000a900473ffffffffffffffffffffffffffffffffffffffff169050919050565b6000600160009054906101000a900473ffffffffffffffffffffffffffffffffffffffff16905090565b60008080549050905090565b6000808054905082600081518110610992576109916113d3565b5b60200260200101516109a49190611431565b905060008082815481106109bb576109ba6113d3565b5b9060005260206000200160009054906101000a900473ffffffffffffffffffffffffffffffffffffffff16905080600160006101000a81548173ffffffffffffffffffffffffffffffffffffffff021916908373ffffffffffffffffffffffffffffffffffffffff1602179055506000600160146101000a81548160ff02191690836001811115610a4f57610a4e610c83565b5b0217905550600067ffffffffffffffff811115610a6f57610a6e610d6b565b5b604051908082528060200260200182016040528015610a9d5781602001602082028036833780820191505090505b5060009080519060200190610ab3929190610ba8565b504260028190555060008173ffffffffffffffffffffffffffffffffffffffff1647604051610ae190611493565b60006040518083038185875af1925050503d8060008114610b1e576040519150601f19603f3d011682016040523d82523d6000602084013e610b23565b606091505b5050905080610b5e576040517fa1d04b3900000000000000000000000000000000000000000000000000000000815260040160405180910390fd5b8173ffffffffffffffffffffffffffffffffffffffff167f5b690ec4a06fe979403046eaeea5b3ce38524683c3001f662c8b5a829632f7df60405160405180910390a25050505050565b828054828255906000526020600020908101928215610c21579160200282015b82811115610c205782518260006101000a81548173ffffffffffffffffffffffffffffffffffffffff021916908373ffffffffffffffffffffffffffffffffffffffff16021790555091602001919060010190610bc8565b5b509050610c2e9190610c32565b5090565b5b80821115610c4b576000816000905550600101610c33565b5090565b6000819050919050565b610c6281610c4f565b82525050565b6000602082019050610c7d6000830184610c59565b92915050565b7f4e487b7100000000000000000000000000000000000000000000000000000000600052602160045260246000fd5b60028110610cc357610cc2610c83565b5b50565b6000819050610cd482610cb2565b919050565b6000610ce482610cc6565b9050919050565b610cf481610cd9565b82525050565b6000602082019050610d0f6000830184610ceb565b92915050565b6000604051905090565b600080fd5b600080fd5b610d3281610c4f565b8114610d3d57600080fd5b50565b600081359050610d4f81610d29565b92915050565b600080fd5b6000601f19601f8301169050919050565b7f4e487b7100000000000000000000000000000000000000000000000000000000600052604160045260246000fd5b610da382610d5a565b810181811067ffffffffffffffff82111715610dc257610dc1610d6b565b5b80604052505050565b6000610dd5610d15565b9050610de18282610d9a565b919050565b600067ffffffffffffffff821115610e0157610e00610d6b565b5b602082029050602081019050919050565b600080fd5b6000610e2a610e2584610de6565b610dcb565b90508083825260208201905060208402830185811115610e4d57610e4c610e12565b5b835b81811015610e765780610e628882610d40565b845260208401935050602081019050610e4f565b5050509392505050565b600082601f830112610e9557610e94610d55565b5b8135610ea5848260208601610e17565b91505092915050565b60008060408385031215610ec557610ec4610d1f565b5b6000610ed385828601610d40565b925050602083013567ffffffffffffffff811115610ef457610ef3610d24565b5b610f0085828601610e80565b9150509250929050565b600080fd5b60008083601f840112610f2557610f24610d55565b5b8235905067ffffffffffffffff811115610f4257610f41610f0a565b5b602083019150836001820283011115610f5e57610f5d610e12565b5b9250929050565b60008060208385031215610f7c57610f7b610d1f565b5b600083013567ffffffffffffffff811115610f9a57610f99610d24565b5b610fa685828601610f0f565b92509250509250929050565b600073ffffffffffffffffffffffffffffffffffffffff82169050919050565b6000610fdd82610fb2565b9050919050565b610fed81610fd2565b82525050565b60006020820190506110086000830184610fe4565b92915050565b600080fd5b600067ffffffffffffffff82111561102e5761102d610d6b565b5b61103782610d5a565b9050602081019050919050565b82818337600083830152505050565b600061106661106184611013565b610dcb565b9050828152602081018484840111156110825761108161100e565b5b61108d848285611044565b509392505050565b600082601f8301126110aa576110a9610d55565b5b81356110ba848260208601611053565b91505092915050565b6000602082840312156110d9576110d8610d1f565b5b600082013567ffffffffffffffff8111156110f7576110f6610d24565b5b61110384828501611095565b91505092915050565b60008115159050919050565b6111218161110c565b82525050565b600081519050919050565b600082825260208201905092915050565b60005b83811015611161578082015181840152602081019050611146565b60008484015250505050565b600061117882611127565b6111828185611132565b9350611192818560208601611143565b61119b81610d5a565b840191505092915050565b60006040820190506111bb6000830185611118565b81810360208301526111cd818461116d565b90509392505050565b6000602082840312156111ec576111eb610d1f565b5b60006111fa84828501610d40565b91505092915050565b60006040820190506112186000830185610fe4565b6112256020830184610fe4565b9392505050565b60006060820190506112416000830186610c59565b61124e6020830185610c59565b61125b6040830184610c59565b949350505050565b6000819050919050565b61127681611263565b82525050565b600067ffffffffffffffff82169050919050565b6112998161127c565b82525050565b600061ffff82169050919050565b6112b68161129f565b82525050565b600063ffffffff82169050919050565b6112d5816112bc565b82525050565b600060a0820190506112f0600083018861126d565b6112fd6020830187611290565b61130a60408301866112ad565b61131760608301856112cc565b61132460808301846112cc565b9695505050505050565b60008151905061133d81610d29565b92915050565b60006020828403121561135957611358610d1f565b5b60006113678482850161132e565b91505092915050565b7f4e487b7100000000000000000000000000000000000000000000000000000000600052601160045260246000fd5b60006113aa82610c4f565b91506113b583610c4f565b92508282039050818111156113cd576113cc611370565b5b92915050565b7f4e487b7100000000000000000000000000000000000000000000000000000000600052603260045260246000fd5b7f4e487b7100000000000000000000000000000000000000000000000000000000600052601260045260246000fd5b600061143c82610c4f565b915061144783610c4f565b92508261145757611456611402565b5b828206905092915050565b600081905092915050565b50565b600061147d600083611462565b91506114888261146d565b600082019050919050565b600061149e82611470565b915081905091905056fea264697066735822122021eb7885743b929c45085a4621001c9de71b3f6c8a4a76c40a46d556f90c06e764736f6c63430008110033",
  "devdoc": {
    "author": "liujingze",
    "details": "This implements the Chainlink VRF Version 2",
    "kind": "dev",
    "methods": {
      "checkUpkeep(bytes)": {
        "details": "This is the function that Chainlink Keeper nodes call"
      }
    },
    "title": "A Raffle Contract",
    "version": 1
  },
  "userdoc": {
    "kind": "user",
    "methods": {},
    "notice": "This contract is for creating a sample raffle contract",
    "version": 1
  },
  "storageLayout": {
    "storage": [
      {
        "astId": 243,
        "contract": "contracts/Raffle.sol:Raffle",
        "label": "s_players",
        "offset": 0,
        "slot": "0",
        "type": "t_array(t_address_payable)dyn_storage"
      },
      {
        "astId": 260,
        "contract": "contracts/Raffle.sol:Raffle",
        "label": "s_recentWinner",
        "offset": 0,
        "slot": "1",
        "type": "t_address"
      },
      {
        "astId": 263,
        "contract": "contracts/Raffle.sol:Raffle",
        "label": "s_raffleState",
        "offset": 20,
        "slot": "1",
        "type": "t_enum(RaffleState)238"
      },
      {
        "astId": 265,
        "contract": "contracts/Raffle.sol:Raffle",
        "label": "s_lastTimeStamp",
        "offset": 0,
        "slot": "2",
        "type": "t_uint256"
      }
    ],
    "types": {
      "t_address": {
        "encoding": "inplace",
        "label": "address",
        "numberOfBytes": "20"
      },
      "t_address_payable": {
        "encoding": "inplace",
        "label": "address payable",
        "numberOfBytes": "20"
      },
      "t_array(t_address_payable)dyn_storage": {
        "base": "t_address_payable",
        "encoding": "dynamic_array",
        "label": "address payable[]",
        "numberOfBytes": "32"
      },
      "t_enum(RaffleState)238": {
        "encoding": "inplace",
        "label": "enum Raffle.RaffleState",
        "numberOfBytes": "1"
      },
      "t_uint256": {
        "encoding": "inplace",
        "label": "uint256",
        "numberOfBytes": "32"
      }
    }
  }
}